{
	"ERC_exp/ERC20_G12_6.0.sol": {
		"Drink_Buy": {
			"abi": [
				{
					"inputs": [],
					"stateMutability": "nonpayable",
					"type": "constructor"
				},
				{
					"anonymous": false,
					"inputs": [
						{
							"indexed": true,
							"internalType": "address",
							"name": "owner",
							"type": "address"
						},
						{
							"indexed": true,
							"internalType": "address",
							"name": "spender",
							"type": "address"
						},
						{
							"indexed": false,
							"internalType": "uint256",
							"name": "value",
							"type": "uint256"
						}
					],
					"name": "Approval",
					"type": "event"
				},
				{
					"anonymous": false,
					"inputs": [
						{
							"indexed": true,
							"internalType": "address",
							"name": "from",
							"type": "address"
						},
						{
							"indexed": true,
							"internalType": "address",
							"name": "to",
							"type": "address"
						},
						{
							"indexed": false,
							"internalType": "uint256",
							"name": "value",
							"type": "uint256"
						}
					],
					"name": "Transfer",
					"type": "event"
				},
				{
					"anonymous": false,
					"inputs": [
						{
							"indexed": false,
							"internalType": "address",
							"name": "buyer",
							"type": "address"
						},
						{
							"indexed": false,
							"internalType": "string",
							"name": "drinkname",
							"type": "string"
						},
						{
							"indexed": false,
							"internalType": "uint256",
							"name": "num",
							"type": "uint256"
						}
					],
					"name": "_drinkBuy",
					"type": "event"
				},
				{
					"inputs": [
						{
							"internalType": "string",
							"name": "drinkname",
							"type": "string"
						},
						{
							"internalType": "uint256",
							"name": "num",
							"type": "uint256"
						}
					],
					"name": "_buyDrink",
					"outputs": [
						{
							"internalType": "bool",
							"name": "",
							"type": "bool"
						}
					],
					"stateMutability": "nonpayable",
					"type": "function"
				},
				{
					"inputs": [
						{
							"internalType": "string",
							"name": "name",
							"type": "string"
						},
						{
							"internalType": "uint256",
							"name": "price",
							"type": "uint256"
						},
						{
							"internalType": "uint256",
							"name": "number",
							"type": "uint256"
						}
					],
					"name": "_updateDrink",
					"outputs": [
						{
							"internalType": "bool",
							"name": "",
							"type": "bool"
						}
					],
					"stateMutability": "nonpayable",
					"type": "function"
				},
				{
					"inputs": [
						{
							"internalType": "address",
							"name": "owner",
							"type": "address"
						},
						{
							"internalType": "address",
							"name": "delegate",
							"type": "address"
						}
					],
					"name": "allowance",
					"outputs": [
						{
							"internalType": "uint256",
							"name": "",
							"type": "uint256"
						}
					],
					"stateMutability": "view",
					"type": "function"
				},
				{
					"inputs": [
						{
							"internalType": "address",
							"name": "delegate",
							"type": "address"
						},
						{
							"internalType": "uint256",
							"name": "numTokens",
							"type": "uint256"
						}
					],
					"name": "approve",
					"outputs": [
						{
							"internalType": "bool",
							"name": "",
							"type": "bool"
						}
					],
					"stateMutability": "nonpayable",
					"type": "function"
				},
				{
					"inputs": [
						{
							"internalType": "address",
							"name": "tokenOwner",
							"type": "address"
						}
					],
					"name": "balanceOf",
					"outputs": [
						{
							"internalType": "uint256",
							"name": "",
							"type": "uint256"
						}
					],
					"stateMutability": "view",
					"type": "function"
				},
				{
					"inputs": [
						{
							"internalType": "address",
							"name": "add",
							"type": "address"
						}
					],
					"name": "calBuyerDrink",
					"outputs": [
						{
							"internalType": "string",
							"name": "drinkname",
							"type": "string"
						},
						{
							"internalType": "uint256",
							"name": "drinknumber",
							"type": "uint256"
						}
					],
					"stateMutability": "nonpayable",
					"type": "function"
				},
				{
					"inputs": [],
					"name": "decimals",
					"outputs": [
						{
							"internalType": "uint8",
							"name": "",
							"type": "uint8"
						}
					],
					"stateMutability": "view",
					"type": "function"
				},
				{
					"inputs": [],
					"name": "name",
					"outputs": [
						{
							"internalType": "string",
							"name": "",
							"type": "string"
						}
					],
					"stateMutability": "view",
					"type": "function"
				},
				{
					"inputs": [],
					"name": "symbol",
					"outputs": [
						{
							"internalType": "string",
							"name": "",
							"type": "string"
						}
					],
					"stateMutability": "view",
					"type": "function"
				},
				{
					"inputs": [],
					"name": "totalSupply",
					"outputs": [
						{
							"internalType": "uint256",
							"name": "",
							"type": "uint256"
						}
					],
					"stateMutability": "view",
					"type": "function"
				},
				{
					"inputs": [
						{
							"internalType": "address",
							"name": "receiver",
							"type": "address"
						},
						{
							"internalType": "uint256",
							"name": "numTokens",
							"type": "uint256"
						}
					],
					"name": "transfer",
					"outputs": [
						{
							"internalType": "bool",
							"name": "",
							"type": "bool"
						}
					],
					"stateMutability": "nonpayable",
					"type": "function"
				},
				{
					"inputs": [
						{
							"internalType": "address",
							"name": "owner",
							"type": "address"
						},
						{
							"internalType": "address",
							"name": "buyer",
							"type": "address"
						},
						{
							"internalType": "uint256",
							"name": "numTokens",
							"type": "uint256"
						}
					],
					"name": "transferFrom",
					"outputs": [
						{
							"internalType": "bool",
							"name": "",
							"type": "bool"
						}
					],
					"stateMutability": "nonpayable",
					"type": "function"
				}
			],
			"devdoc": {
				"kind": "dev",
				"methods": {},
				"version": 1
			},
			"evm": {
				"assembly": "    /* \"ERC_exp/ERC20_G12_6.0.sol\":2965:5366  contract Drink_Buy is ERC20_G12{\r... */\n  mstore(0x40, 0x80)\n    /* \"ERC_exp/ERC20_G12_6.0.sol\":1099:1106  1000000 */\n  0x0f4240\n    /* \"ERC_exp/ERC20_G12_6.0.sol\":1076:1106  uint256 totalSupply_ = 1000000 */\n  0x00\n  sstore\n    /* \"ERC_exp/ERC20_G12_6.0.sol\":1180:1222  0x5B38Da6a701c568545dCfcB03FcB875f56beddC4 */\n  0x5b38da6a701c568545dcfcb03fcb875f56beddc4\n    /* \"ERC_exp/ERC20_G12_6.0.sol\":1165:1222  address zhou = 0x5B38Da6a701c568545dCfcB03FcB875f56beddC4 */\n  0x01\n  exp(0x0100, 0x00)\n  dup2\n  sload\n  dup2\n  0xffffffffffffffffffffffffffffffffffffffff\n  mul\n  not\n  and\n  swap1\n  dup4\n  0xffffffffffffffffffffffffffffffffffffffff\n  and\n  mul\n  or\n  swap1\n  sstore\n  pop\n    /* \"ERC_exp/ERC20_G12_6.0.sol\":3550:3574  string maiDong=\"maiDong\" */\n  mload(0x40)\n  dup1\n  0x40\n  add\n  0x40\n  mstore\n  dup1\n  0x07\n  dup2\n  mstore\n  0x20\n  add\n  0x6d6169446f6e6700000000000000000000000000000000000000000000000000\n  dup2\n  mstore\n  pop\n  0x08\n  swap1\n  dup1\n  mload\n  swap1\n  0x20\n  add\n  swap1\n  tag_1\n  swap3\n  swap2\n  swap1\n  tag_2\n  jump\t// in\ntag_1:\n  pop\n    /* \"ERC_exp/ERC20_G12_6.0.sol\":3581:3611  string wangLaoJi = \"wangLaoJi\" */\n  mload(0x40)\n  dup1\n  0x40\n  add\n  0x40\n  mstore\n  dup1\n  0x09\n  dup2\n  mstore\n  0x20\n  add\n  0x77616e674c616f4a690000000000000000000000000000000000000000000000\n  dup2\n  mstore\n  pop\n  0x09\n  swap1\n  dup1\n  mload\n  swap1\n  0x20\n  add\n  swap1\n  tag_3\n  swap3\n  swap2\n  swap1\n  tag_2\n  jump\t// in\ntag_3:\n  pop\n    /* \"ERC_exp/ERC20_G12_6.0.sol\":3618:3640  string lvCha = \"lvCha\" */\n  mload(0x40)\n  dup1\n  0x40\n  add\n  0x40\n  mstore\n  dup1\n  0x05\n  dup2\n  mstore\n  0x20\n  add\n  0x6c76436861000000000000000000000000000000000000000000000000000000\n  dup2\n  mstore\n  pop\n  0x0a\n  swap1\n  dup1\n  mload\n  swap1\n  0x20\n  add\n  swap1\n  tag_4\n  swap3\n  swap2\n  swap1\n  tag_2\n  jump\t// in\ntag_4:\n  pop\n    /* \"ERC_exp/ERC20_G12_6.0.sol\":3647:3673  string hongCha = \"hongCha\" */\n  mload(0x40)\n  dup1\n  0x40\n  add\n  0x40\n  mstore\n  dup1\n  0x07\n  dup2\n  mstore\n  0x20\n  add\n  0x686f6e6743686100000000000000000000000000000000000000000000000000\n  dup2\n  mstore\n  pop\n  0x0b\n  swap1\n  dup1\n  mload\n  swap1\n  0x20\n  add\n  swap1\n  tag_5\n  swap3\n  swap2\n  swap1\n  tag_2\n  jump\t// in\ntag_5:\n  pop\n    /* \"ERC_exp/ERC20_G12_6.0.sol\":3680:3716  string xianChengZhi = \"xianChengZhi\" */\n  mload(0x40)\n  dup1\n  0x40\n  add\n  0x40\n  mstore\n  dup1\n  0x0c\n  dup2\n  mstore\n  0x20\n  add\n  0x7869616e4368656e675a68690000000000000000000000000000000000000000\n  dup2\n  mstore\n  pop\n  0x0c\n  swap1\n  dup1\n  mload\n  swap1\n  0x20\n  add\n  swap1\n  tag_6\n  swap3\n  swap2\n  swap1\n  tag_2\n  jump\t// in\ntag_6:\n  pop\n    /* \"ERC_exp/ERC20_G12_6.0.sol\":3723:3745  string yiBao = \"yiBao\" */\n  mload(0x40)\n  dup1\n  0x40\n  add\n  0x40\n  mstore\n  dup1\n  0x05\n  dup2\n  mstore\n  0x20\n  add\n  0x796942616f000000000000000000000000000000000000000000000000000000\n  dup2\n  mstore\n  pop\n  0x0d\n  swap1\n  dup1\n  mload\n  swap1\n  0x20\n  add\n  swap1\n  tag_7\n  swap3\n  swap2\n  swap1\n  tag_2\n  jump\t// in\ntag_7:\n  pop\n    /* \"ERC_exp/ERC20_G12_6.0.sol\":3752:3796  string yingYangKuaiXian = \"yingYangKuaiXian\" */\n  mload(0x40)\n  dup1\n  0x40\n  add\n  0x40\n  mstore\n  dup1\n  0x10\n  dup2\n  mstore\n  0x20\n  add\n  0x79696e6759616e674b7561695869616e00000000000000000000000000000000\n  dup2\n  mstore\n  pop\n  0x0e\n  swap1\n  dup1\n  mload\n  swap1\n  0x20\n  add\n  swap1\n  tag_8\n  swap3\n  swap2\n  swap1\n  tag_2\n  jump\t// in\ntag_8:\n  pop\n    /* \"ERC_exp/ERC20_G12_6.0.sol\":3801:4218  constructor() {\r... */\n  callvalue\n  dup1\n  iszero\n  tag_9\n  jumpi\n  0x00\n  dup1\n  revert\ntag_9:\n  pop\n    /* \"ERC_exp/ERC20_G12_6.0.sol\":1476:1488  totalSupply_ */\n  sload(0x00)\n    /* \"ERC_exp/ERC20_G12_6.0.sol\":1459:1467  balances */\n  0x02\n    /* \"ERC_exp/ERC20_G12_6.0.sol\":1459:1473  balances[zhou] */\n  0x00\n    /* \"ERC_exp/ERC20_G12_6.0.sol\":1468:1472  zhou */\n  0x01\n  0x00\n  swap1\n  sload\n  swap1\n  0x0100\n  exp\n  swap1\n  div\n  0xffffffffffffffffffffffffffffffffffffffff\n  and\n    /* \"ERC_exp/ERC20_G12_6.0.sol\":1459:1473  balances[zhou] */\n  0xffffffffffffffffffffffffffffffffffffffff\n  and\n  0xffffffffffffffffffffffffffffffffffffffff\n  and\n  dup2\n  mstore\n  0x20\n  add\n  swap1\n  dup2\n  mstore\n  0x20\n  add\n  0x00\n  keccak256\n    /* \"ERC_exp/ERC20_G12_6.0.sol\":1459:1488  balances[zhou] = totalSupply_ */\n  dup2\n  swap1\n  sstore\n  pop\n    /* \"ERC_exp/ERC20_G12_6.0.sol\":3839:3842  100 */\n  0x64\n    /* \"ERC_exp/ERC20_G12_6.0.sol\":3822:3829  DrinkNN */\n  0x04\n    /* \"ERC_exp/ERC20_G12_6.0.sol\":3830:3837  maiDong */\n  0x08\n    /* \"ERC_exp/ERC20_G12_6.0.sol\":3822:3838  DrinkNN[maiDong] */\n  mload(0x40)\n  tag_14\n  swap2\n  swap1\n  tag_15\n  jump\t// in\ntag_14:\n  swap1\n  dup2\n  mstore\n  0x20\n  add\n  mload(0x40)\n  dup1\n  swap2\n  sub\n  swap1\n  keccak256\n    /* \"ERC_exp/ERC20_G12_6.0.sol\":3822:3842  DrinkNN[maiDong]=100 */\n  dup2\n  swap1\n  sstore\n  pop\n    /* \"ERC_exp/ERC20_G12_6.0.sol\":3868:3871  100 */\n  0x64\n    /* \"ERC_exp/ERC20_G12_6.0.sol\":3849:3856  DrinkNN */\n  0x04\n    /* \"ERC_exp/ERC20_G12_6.0.sol\":3857:3866  wangLaoJi */\n  0x09\n    /* \"ERC_exp/ERC20_G12_6.0.sol\":3849:3867  DrinkNN[wangLaoJi] */\n  mload(0x40)\n  tag_16\n  swap2\n  swap1\n  tag_15\n  jump\t// in\ntag_16:\n  swap1\n  dup2\n  mstore\n  0x20\n  add\n  mload(0x40)\n  dup1\n  swap2\n  sub\n  swap1\n  keccak256\n    /* \"ERC_exp/ERC20_G12_6.0.sol\":3849:3871  DrinkNN[wangLaoJi]=100 */\n  dup2\n  swap1\n  sstore\n  pop\n    /* \"ERC_exp/ERC20_G12_6.0.sol\":3893:3896  100 */\n  0x64\n    /* \"ERC_exp/ERC20_G12_6.0.sol\":3878:3885  DrinkNN */\n  0x04\n    /* \"ERC_exp/ERC20_G12_6.0.sol\":3886:3891  lvCha */\n  0x0a\n    /* \"ERC_exp/ERC20_G12_6.0.sol\":3878:3892  DrinkNN[lvCha] */\n  mload(0x40)\n  tag_17\n  swap2\n  swap1\n  tag_15\n  jump\t// in\ntag_17:\n  swap1\n  dup2\n  mstore\n  0x20\n  add\n  mload(0x40)\n  dup1\n  swap2\n  sub\n  swap1\n  keccak256\n    /* \"ERC_exp/ERC20_G12_6.0.sol\":3878:3896  DrinkNN[lvCha]=100 */\n  dup2\n  swap1\n  sstore\n  pop\n    /* \"ERC_exp/ERC20_G12_6.0.sol\":3920:3923  100 */\n  0x64\n    /* \"ERC_exp/ERC20_G12_6.0.sol\":3903:3910  DrinkNN */\n  0x04\n    /* \"ERC_exp/ERC20_G12_6.0.sol\":3911:3918  hongCha */\n  0x0b\n    /* \"ERC_exp/ERC20_G12_6.0.sol\":3903:3919  DrinkNN[hongCha] */\n  mload(0x40)\n  tag_18\n  swap2\n  swap1\n  tag_15\n  jump\t// in\ntag_18:\n  swap1\n  dup2\n  mstore\n  0x20\n  add\n  mload(0x40)\n  dup1\n  swap2\n  sub\n  swap1\n  keccak256\n    /* \"ERC_exp/ERC20_G12_6.0.sol\":3903:3923  DrinkNN[hongCha]=100 */\n  dup2\n  swap1\n  sstore\n  pop\n    /* \"ERC_exp/ERC20_G12_6.0.sol\":3952:3955  100 */\n  0x64\n    /* \"ERC_exp/ERC20_G12_6.0.sol\":3930:3937  DrinkNN */\n  0x04\n    /* \"ERC_exp/ERC20_G12_6.0.sol\":3938:3950  xianChengZhi */\n  0x0c\n    /* \"ERC_exp/ERC20_G12_6.0.sol\":3930:3951  DrinkNN[xianChengZhi] */\n  mload(0x40)\n  tag_19\n  swap2\n  swap1\n  tag_15\n  jump\t// in\ntag_19:\n  swap1\n  dup2\n  mstore\n  0x20\n  add\n  mload(0x40)\n  dup1\n  swap2\n  sub\n  swap1\n  keccak256\n    /* \"ERC_exp/ERC20_G12_6.0.sol\":3930:3955  DrinkNN[xianChengZhi]=100 */\n  dup2\n  swap1\n  sstore\n  pop\n    /* \"ERC_exp/ERC20_G12_6.0.sol\":3977:3980  100 */\n  0x64\n    /* \"ERC_exp/ERC20_G12_6.0.sol\":3962:3969  DrinkNN */\n  0x04\n    /* \"ERC_exp/ERC20_G12_6.0.sol\":3970:3975  yiBao */\n  0x0d\n    /* \"ERC_exp/ERC20_G12_6.0.sol\":3962:3976  DrinkNN[yiBao] */\n  mload(0x40)\n  tag_20\n  swap2\n  swap1\n  tag_15\n  jump\t// in\ntag_20:\n  swap1\n  dup2\n  mstore\n  0x20\n  add\n  mload(0x40)\n  dup1\n  swap2\n  sub\n  swap1\n  keccak256\n    /* \"ERC_exp/ERC20_G12_6.0.sol\":3962:3980  DrinkNN[yiBao]=100 */\n  dup2\n  swap1\n  sstore\n  pop\n    /* \"ERC_exp/ERC20_G12_6.0.sol\":4013:4016  100 */\n  0x64\n    /* \"ERC_exp/ERC20_G12_6.0.sol\":3987:3994  DrinkNN */\n  0x04\n    /* \"ERC_exp/ERC20_G12_6.0.sol\":3995:4011  yingYangKuaiXian */\n  0x0e\n    /* \"ERC_exp/ERC20_G12_6.0.sol\":3987:4012  DrinkNN[yingYangKuaiXian] */\n  mload(0x40)\n  tag_21\n  swap2\n  swap1\n  tag_15\n  jump\t// in\ntag_21:\n  swap1\n  dup2\n  mstore\n  0x20\n  add\n  mload(0x40)\n  dup1\n  swap2\n  sub\n  swap1\n  keccak256\n    /* \"ERC_exp/ERC20_G12_6.0.sol\":3987:4016  DrinkNN[yingYangKuaiXian]=100 */\n  dup2\n  swap1\n  sstore\n  pop\n    /* \"ERC_exp/ERC20_G12_6.0.sol\":4044:4046  40 */\n  0x28\n    /* \"ERC_exp/ERC20_G12_6.0.sol\":4027:4034  DrinkNP */\n  0x05\n    /* \"ERC_exp/ERC20_G12_6.0.sol\":4035:4042  maiDong */\n  0x08\n    /* \"ERC_exp/ERC20_G12_6.0.sol\":4027:4043  DrinkNP[maiDong] */\n  mload(0x40)\n  tag_22\n  swap2\n  swap1\n  tag_15\n  jump\t// in\ntag_22:\n  swap1\n  dup2\n  mstore\n  0x20\n  add\n  mload(0x40)\n  dup1\n  swap2\n  sub\n  swap1\n  keccak256\n    /* \"ERC_exp/ERC20_G12_6.0.sol\":4027:4046  DrinkNP[maiDong]=40 */\n  dup2\n  swap1\n  sstore\n  pop\n    /* \"ERC_exp/ERC20_G12_6.0.sol\":4072:4074  30 */\n  0x1e\n    /* \"ERC_exp/ERC20_G12_6.0.sol\":4053:4060  DrinkNP */\n  0x05\n    /* \"ERC_exp/ERC20_G12_6.0.sol\":4061:4070  wangLaoJi */\n  0x09\n    /* \"ERC_exp/ERC20_G12_6.0.sol\":4053:4071  DrinkNP[wangLaoJi] */\n  mload(0x40)\n  tag_23\n  swap2\n  swap1\n  tag_15\n  jump\t// in\ntag_23:\n  swap1\n  dup2\n  mstore\n  0x20\n  add\n  mload(0x40)\n  dup1\n  swap2\n  sub\n  swap1\n  keccak256\n    /* \"ERC_exp/ERC20_G12_6.0.sol\":4053:4074  DrinkNP[wangLaoJi]=30 */\n  dup2\n  swap1\n  sstore\n  pop\n    /* \"ERC_exp/ERC20_G12_6.0.sol\":4096:4098  30 */\n  0x1e\n    /* \"ERC_exp/ERC20_G12_6.0.sol\":4081:4088  DrinkNP */\n  0x05\n    /* \"ERC_exp/ERC20_G12_6.0.sol\":4089:4094  lvCha */\n  0x0a\n    /* \"ERC_exp/ERC20_G12_6.0.sol\":4081:4095  DrinkNP[lvCha] */\n  mload(0x40)\n  tag_24\n  swap2\n  swap1\n  tag_15\n  jump\t// in\ntag_24:\n  swap1\n  dup2\n  mstore\n  0x20\n  add\n  mload(0x40)\n  dup1\n  swap2\n  sub\n  swap1\n  keccak256\n    /* \"ERC_exp/ERC20_G12_6.0.sol\":4081:4098  DrinkNP[lvCha]=30 */\n  dup2\n  swap1\n  sstore\n  pop\n    /* \"ERC_exp/ERC20_G12_6.0.sol\":4122:4124  30 */\n  0x1e\n    /* \"ERC_exp/ERC20_G12_6.0.sol\":4105:4112  DrinkNP */\n  0x05\n    /* \"ERC_exp/ERC20_G12_6.0.sol\":4113:4120  hongCha */\n  0x0b\n    /* \"ERC_exp/ERC20_G12_6.0.sol\":4105:4121  DrinkNP[hongCha] */\n  mload(0x40)\n  tag_25\n  swap2\n  swap1\n  tag_15\n  jump\t// in\ntag_25:\n  swap1\n  dup2\n  mstore\n  0x20\n  add\n  mload(0x40)\n  dup1\n  swap2\n  sub\n  swap1\n  keccak256\n    /* \"ERC_exp/ERC20_G12_6.0.sol\":4105:4124  DrinkNP[hongCha]=30 */\n  dup2\n  swap1\n  sstore\n  pop\n    /* \"ERC_exp/ERC20_G12_6.0.sol\":4153:4155  20 */\n  0x14\n    /* \"ERC_exp/ERC20_G12_6.0.sol\":4131:4138  DrinkNP */\n  0x05\n    /* \"ERC_exp/ERC20_G12_6.0.sol\":4139:4151  xianChengZhi */\n  0x0c\n    /* \"ERC_exp/ERC20_G12_6.0.sol\":4131:4152  DrinkNP[xianChengZhi] */\n  mload(0x40)\n  tag_26\n  swap2\n  swap1\n  tag_15\n  jump\t// in\ntag_26:\n  swap1\n  dup2\n  mstore\n  0x20\n  add\n  mload(0x40)\n  dup1\n  swap2\n  sub\n  swap1\n  keccak256\n    /* \"ERC_exp/ERC20_G12_6.0.sol\":4131:4155  DrinkNP[xianChengZhi]=20 */\n  dup2\n  swap1\n  sstore\n  pop\n    /* \"ERC_exp/ERC20_G12_6.0.sol\":4177:4179  10 */\n  0x0a\n    /* \"ERC_exp/ERC20_G12_6.0.sol\":4162:4169  DrinkNP */\n  0x05\n    /* \"ERC_exp/ERC20_G12_6.0.sol\":4170:4175  yiBao */\n  0x0d\n    /* \"ERC_exp/ERC20_G12_6.0.sol\":4162:4176  DrinkNP[yiBao] */\n  mload(0x40)\n  tag_27\n  swap2\n  swap1\n  tag_15\n  jump\t// in\ntag_27:\n  swap1\n  dup2\n  mstore\n  0x20\n  add\n  mload(0x40)\n  dup1\n  swap2\n  sub\n  swap1\n  keccak256\n    /* \"ERC_exp/ERC20_G12_6.0.sol\":4162:4179  DrinkNP[yiBao]=10 */\n  dup2\n  swap1\n  sstore\n  pop\n    /* \"ERC_exp/ERC20_G12_6.0.sol\":4212:4214  40 */\n  0x28\n    /* \"ERC_exp/ERC20_G12_6.0.sol\":4186:4193  DrinkNP */\n  0x05\n    /* \"ERC_exp/ERC20_G12_6.0.sol\":4194:4210  yingYangKuaiXian */\n  0x0e\n    /* \"ERC_exp/ERC20_G12_6.0.sol\":4186:4211  DrinkNP[yingYangKuaiXian] */\n  mload(0x40)\n  tag_28\n  swap2\n  swap1\n  tag_15\n  jump\t// in\ntag_28:\n  swap1\n  dup2\n  mstore\n  0x20\n  add\n  mload(0x40)\n  dup1\n  swap2\n  sub\n  swap1\n  keccak256\n    /* \"ERC_exp/ERC20_G12_6.0.sol\":4186:4214  DrinkNP[yingYangKuaiXian]=40 */\n  dup2\n  swap1\n  sstore\n  pop\n    /* \"ERC_exp/ERC20_G12_6.0.sol\":2965:5366  contract Drink_Buy is ERC20_G12{\r... */\n  jump(tag_29)\ntag_2:\n  dup3\n  dup1\n  sload\n  tag_30\n  swap1\n  tag_31\n  jump\t// in\ntag_30:\n  swap1\n  0x00\n  mstore\n  keccak256(0x00, 0x20)\n  swap1\n  0x1f\n  add\n  0x20\n  swap1\n  div\n  dup2\n  add\n  swap3\n  dup3\n  tag_33\n  jumpi\n  0x00\n  dup6\n  sstore\n  jump(tag_32)\ntag_33:\n  dup3\n  0x1f\n  lt\n  tag_34\n  jumpi\n  dup1\n  mload\n  not(0xff)\n  and\n  dup4\n  dup1\n  add\n  or\n  dup6\n  sstore\n  jump(tag_32)\ntag_34:\n  dup3\n  dup1\n  add\n  0x01\n  add\n  dup6\n  sstore\n  dup3\n  iszero\n  tag_32\n  jumpi\n  swap2\n  dup3\n  add\ntag_35:\n  dup3\n  dup2\n  gt\n  iszero\n  tag_36\n  jumpi\n  dup3\n  mload\n  dup3\n  sstore\n  swap2\n  0x20\n  add\n  swap2\n  swap1\n  0x01\n  add\n  swap1\n  jump(tag_35)\ntag_36:\ntag_32:\n  pop\n  swap1\n  pop\n  tag_37\n  swap2\n  swap1\n  tag_38\n  jump\t// in\ntag_37:\n  pop\n  swap1\n  jump\t// out\ntag_38:\ntag_39:\n  dup1\n  dup3\n  gt\n  iszero\n  tag_40\n  jumpi\n  0x00\n  dup2\n  0x00\n  swap1\n  sstore\n  pop\n  0x01\n  add\n  jump(tag_39)\ntag_40:\n  pop\n  swap1\n  jump\t// out\n    /* \"#utility.yul\":31:876   */\ntag_42:\n    /* \"#utility.yul\":134:137   */\n  0x00\n    /* \"#utility.yul\":171:176   */\n  dup2\n    /* \"#utility.yul\":165:177   */\n  sload\n    /* \"#utility.yul\":200:236   */\n  tag_44\n    /* \"#utility.yul\":226:235   */\n  dup2\n    /* \"#utility.yul\":200:236   */\n  tag_31\n  jump\t// in\ntag_44:\n    /* \"#utility.yul\":252:341   */\n  tag_45\n    /* \"#utility.yul\":334:340   */\n  dup2\n    /* \"#utility.yul\":329:332   */\n  dup7\n    /* \"#utility.yul\":252:341   */\n  tag_46\n  jump\t// in\ntag_45:\n    /* \"#utility.yul\":245:341   */\n  swap5\n  pop\n    /* \"#utility.yul\":372:373   */\n  0x01\n    /* \"#utility.yul\":361:370   */\n  dup3\n    /* \"#utility.yul\":357:374   */\n  and\n    /* \"#utility.yul\":388:389   */\n  0x00\n    /* \"#utility.yul\":383:520   */\n  dup2\n  eq\n  tag_48\n  jumpi\n    /* \"#utility.yul\":534:535   */\n  0x01\n    /* \"#utility.yul\":529:870   */\n  dup2\n  eq\n  tag_49\n  jumpi\n    /* \"#utility.yul\":350:870   */\n  jump(tag_47)\n    /* \"#utility.yul\":383:520   */\ntag_48:\n    /* \"#utility.yul\":467:471   */\n  0xff\n    /* \"#utility.yul\":463:472   */\n  not\n    /* \"#utility.yul\":452:461   */\n  dup4\n    /* \"#utility.yul\":448:473   */\n  and\n    /* \"#utility.yul\":443:446   */\n  dup7\n    /* \"#utility.yul\":436:474   */\n  mstore\n    /* \"#utility.yul\":503:509   */\n  dup2\n    /* \"#utility.yul\":498:501   */\n  dup7\n    /* \"#utility.yul\":494:510   */\n  add\n    /* \"#utility.yul\":487:510   */\n  swap4\n  pop\n    /* \"#utility.yul\":383:520   */\n  jump(tag_47)\n    /* \"#utility.yul\":529:870   */\ntag_49:\n    /* \"#utility.yul\":596:634   */\n  tag_50\n    /* \"#utility.yul\":628:633   */\n  dup6\n    /* \"#utility.yul\":596:634   */\n  tag_51\n  jump\t// in\ntag_50:\n    /* \"#utility.yul\":656:657   */\n  0x00\n    /* \"#utility.yul\":670:824   */\ntag_52:\n    /* \"#utility.yul\":684:690   */\n  dup4\n    /* \"#utility.yul\":681:682   */\n  dup2\n    /* \"#utility.yul\":678:691   */\n  lt\n    /* \"#utility.yul\":670:824   */\n  iszero\n  tag_54\n  jumpi\n    /* \"#utility.yul\":758:765   */\n  dup2\n    /* \"#utility.yul\":752:766   */\n  sload\n    /* \"#utility.yul\":748:749   */\n  dup2\n    /* \"#utility.yul\":743:746   */\n  dup10\n    /* \"#utility.yul\":739:750   */\n  add\n    /* \"#utility.yul\":732:767   */\n  mstore\n    /* \"#utility.yul\":808:809   */\n  0x01\n    /* \"#utility.yul\":799:806   */\n  dup3\n    /* \"#utility.yul\":795:810   */\n  add\n    /* \"#utility.yul\":784:810   */\n  swap2\n  pop\n    /* \"#utility.yul\":706:710   */\n  0x20\n    /* \"#utility.yul\":703:704   */\n  dup2\n    /* \"#utility.yul\":699:711   */\n  add\n    /* \"#utility.yul\":694:711   */\n  swap1\n  pop\n    /* \"#utility.yul\":670:824   */\n  jump(tag_52)\ntag_54:\n    /* \"#utility.yul\":853:859   */\n  dup4\n    /* \"#utility.yul\":848:851   */\n  dup9\n    /* \"#utility.yul\":844:860   */\n  add\n    /* \"#utility.yul\":837:860   */\n  swap6\n  pop\n    /* \"#utility.yul\":536:870   */\n  pop\n  pop\n    /* \"#utility.yul\":350:870   */\ntag_47:\n  pop\n    /* \"#utility.yul\":138:876   */\n  pop\n  pop\n    /* \"#utility.yul\":31:876   */\n  swap3\n  swap2\n  pop\n  pop\n  jump\t// out\n    /* \"#utility.yul\":882:1151   */\ntag_15:\n    /* \"#utility.yul\":1011:1014   */\n  0x00\n    /* \"#utility.yul\":1033:1125   */\n  tag_56\n    /* \"#utility.yul\":1121:1124   */\n  dup3\n    /* \"#utility.yul\":1112:1118   */\n  dup5\n    /* \"#utility.yul\":1033:1125   */\n  tag_42\n  jump\t// in\ntag_56:\n    /* \"#utility.yul\":1026:1125   */\n  swap2\n  pop\n    /* \"#utility.yul\":1142:1145   */\n  dup2\n    /* \"#utility.yul\":1135:1145   */\n  swap1\n  pop\n    /* \"#utility.yul\":882:1151   */\n  swap3\n  swap2\n  pop\n  pop\n  jump\t// out\n    /* \"#utility.yul\":1157:1298   */\ntag_51:\n    /* \"#utility.yul\":1206:1210   */\n  0x00\n    /* \"#utility.yul\":1229:1232   */\n  dup2\n    /* \"#utility.yul\":1221:1232   */\n  swap1\n  pop\n    /* \"#utility.yul\":1252:1255   */\n  dup2\n    /* \"#utility.yul\":1249:1250   */\n  0x00\n    /* \"#utility.yul\":1242:1256   */\n  mstore\n    /* \"#utility.yul\":1286:1290   */\n  0x20\n    /* \"#utility.yul\":1283:1284   */\n  0x00\n    /* \"#utility.yul\":1273:1291   */\n  keccak256\n    /* \"#utility.yul\":1265:1291   */\n  swap1\n  pop\n    /* \"#utility.yul\":1157:1298   */\n  swap2\n  swap1\n  pop\n  jump\t// out\n    /* \"#utility.yul\":1304:1452   */\ntag_46:\n    /* \"#utility.yul\":1406:1417   */\n  0x00\n    /* \"#utility.yul\":1443:1446   */\n  dup2\n    /* \"#utility.yul\":1428:1446   */\n  swap1\n  pop\n    /* \"#utility.yul\":1304:1452   */\n  swap3\n  swap2\n  pop\n  pop\n  jump\t// out\n    /* \"#utility.yul\":1458:1778   */\ntag_31:\n    /* \"#utility.yul\":1502:1508   */\n  0x00\n    /* \"#utility.yul\":1539:1540   */\n  0x02\n    /* \"#utility.yul\":1533:1537   */\n  dup3\n    /* \"#utility.yul\":1529:1541   */\n  div\n    /* \"#utility.yul\":1519:1541   */\n  swap1\n  pop\n    /* \"#utility.yul\":1586:1587   */\n  0x01\n    /* \"#utility.yul\":1580:1584   */\n  dup3\n    /* \"#utility.yul\":1576:1588   */\n  and\n    /* \"#utility.yul\":1607:1625   */\n  dup1\n    /* \"#utility.yul\":1597:1678   */\n  tag_60\n  jumpi\n    /* \"#utility.yul\":1663:1667   */\n  0x7f\n    /* \"#utility.yul\":1655:1661   */\n  dup3\n    /* \"#utility.yul\":1651:1668   */\n  and\n    /* \"#utility.yul\":1641:1668   */\n  swap2\n  pop\n    /* \"#utility.yul\":1597:1678   */\ntag_60:\n    /* \"#utility.yul\":1725:1727   */\n  0x20\n    /* \"#utility.yul\":1717:1723   */\n  dup3\n    /* \"#utility.yul\":1714:1728   */\n  lt\n    /* \"#utility.yul\":1694:1712   */\n  dup2\n    /* \"#utility.yul\":1691:1729   */\n  eq\n    /* \"#utility.yul\":1688:1772   */\n  iszero\n  tag_61\n  jumpi\n    /* \"#utility.yul\":1744:1762   */\n  tag_62\n  tag_63\n  jump\t// in\ntag_62:\n    /* \"#utility.yul\":1688:1772   */\ntag_61:\n    /* \"#utility.yul\":1509:1778   */\n  pop\n    /* \"#utility.yul\":1458:1778   */\n  swap2\n  swap1\n  pop\n  jump\t// out\n    /* \"#utility.yul\":1784:1964   */\ntag_63:\n    /* \"#utility.yul\":1832:1909   */\n  0x4e487b7100000000000000000000000000000000000000000000000000000000\n    /* \"#utility.yul\":1829:1830   */\n  0x00\n    /* \"#utility.yul\":1822:1910   */\n  mstore\n    /* \"#utility.yul\":1929:1933   */\n  0x22\n    /* \"#utility.yul\":1926:1927   */\n  0x04\n    /* \"#utility.yul\":1919:1934   */\n  mstore\n    /* \"#utility.yul\":1953:1957   */\n  0x24\n    /* \"#utility.yul\":1950:1951   */\n  0x00\n    /* \"#utility.yul\":1943:1958   */\n  revert\n    /* \"ERC_exp/ERC20_G12_6.0.sol\":2965:5366  contract Drink_Buy is ERC20_G12{\r... */\ntag_29:\n  dataSize(sub_0)\n  dup1\n  dataOffset(sub_0)\n  0x00\n  codecopy\n  0x00\n  return\nstop\n\nsub_0: assembly {\n        /* \"ERC_exp/ERC20_G12_6.0.sol\":2965:5366  contract Drink_Buy is ERC20_G12{\r... */\n      mstore(0x40, 0x80)\n      callvalue\n      dup1\n      iszero\n      tag_1\n      jumpi\n      0x00\n      dup1\n      revert\n    tag_1:\n      pop\n      jumpi(tag_2, lt(calldatasize, 0x04))\n      shr(0xe0, calldataload(0x00))\n      dup1\n      0x6390b023\n      gt\n      tag_15\n      jumpi\n      dup1\n      0x6390b023\n      eq\n      tag_9\n      jumpi\n      dup1\n      0x70a08231\n      eq\n      tag_10\n      jumpi\n      dup1\n      0x95d89b41\n      eq\n      tag_11\n      jumpi\n      dup1\n      0xa9059cbb\n      eq\n      tag_12\n      jumpi\n      dup1\n      0xdd62ed3e\n      eq\n      tag_13\n      jumpi\n      dup1\n      0xe095c25c\n      eq\n      tag_14\n      jumpi\n      jump(tag_2)\n    tag_15:\n      dup1\n      0x06fdde03\n      eq\n      tag_3\n      jumpi\n      dup1\n      0x095ea7b3\n      eq\n      tag_4\n      jumpi\n      dup1\n      0x0aa39505\n      eq\n      tag_5\n      jumpi\n      dup1\n      0x18160ddd\n      eq\n      tag_6\n      jumpi\n      dup1\n      0x23b872dd\n      eq\n      tag_7\n      jumpi\n      dup1\n      0x313ce567\n      eq\n      tag_8\n      jumpi\n    tag_2:\n      0x00\n      dup1\n      revert\n        /* \"ERC_exp/ERC20_G12_6.0.sol\":870:911  string public constant name = \"Drink_G12\" */\n    tag_3:\n      tag_16\n      tag_17\n      jump\t// in\n    tag_16:\n      mload(0x40)\n      tag_18\n      swap2\n      swap1\n      tag_19\n      jump\t// in\n    tag_18:\n      mload(0x40)\n      dup1\n      swap2\n      sub\n      swap1\n      return\n        /* \"ERC_exp/ERC20_G12_6.0.sol\":2102:2326  function approve(address delegate, uint256 numTokens) public override returns (bool) {\r... */\n    tag_4:\n      tag_20\n      0x04\n      dup1\n      calldatasize\n      sub\n      dup2\n      add\n      swap1\n      tag_21\n      swap2\n      swap1\n      tag_22\n      jump\t// in\n    tag_21:\n      tag_23\n      jump\t// in\n    tag_20:\n      mload(0x40)\n      tag_24\n      swap2\n      swap1\n      tag_25\n      jump\t// in\n    tag_24:\n      mload(0x40)\n      dup1\n      swap2\n      sub\n      swap1\n      return\n        /* \"ERC_exp/ERC20_G12_6.0.sol\":4252:4797  function _buyDrink(string memory drinkname,uint num) public  returns (bool){\r... */\n    tag_5:\n      tag_26\n      0x04\n      dup1\n      calldatasize\n      sub\n      dup2\n      add\n      swap1\n      tag_27\n      swap2\n      swap1\n      tag_28\n      jump\t// in\n    tag_27:\n      tag_29\n      jump\t// in\n    tag_26:\n      mload(0x40)\n      tag_30\n      swap2\n      swap1\n      tag_25\n      jump\t// in\n    tag_30:\n      mload(0x40)\n      dup1\n      swap2\n      sub\n      swap1\n      return\n        /* \"ERC_exp/ERC20_G12_6.0.sol\":1504:1604  function totalSupply() public override view returns (uint256) {\r... */\n    tag_6:\n      tag_31\n      tag_32\n      jump\t// in\n    tag_31:\n      mload(0x40)\n      tag_33\n      swap2\n      swap1\n      tag_34\n      jump\t// in\n    tag_33:\n      mload(0x40)\n      dup1\n      swap2\n      sub\n      swap1\n      return\n        /* \"ERC_exp/ERC20_G12_6.0.sol\":2480:2954  function transferFrom(address owner, address buyer, uint256 numTokens) public override returns (bool) {\r... */\n    tag_7:\n      tag_35\n      0x04\n      dup1\n      calldatasize\n      sub\n      dup2\n      add\n      swap1\n      tag_36\n      swap2\n      swap1\n      tag_37\n      jump\t// in\n    tag_36:\n      tag_38\n      jump\t// in\n    tag_35:\n      mload(0x40)\n      tag_39\n      swap2\n      swap1\n      tag_25\n      jump\t// in\n    tag_39:\n      mload(0x40)\n      dup1\n      swap2\n      sub\n      swap1\n      return\n        /* \"ERC_exp/ERC20_G12_6.0.sol\":1006:1040  uint8 public constant decimals = 2 */\n    tag_8:\n      tag_40\n      tag_41\n      jump\t// in\n    tag_40:\n      mload(0x40)\n      tag_42\n      swap2\n      swap1\n      tag_43\n      jump\t// in\n    tag_42:\n      mload(0x40)\n      dup1\n      swap2\n      sub\n      swap1\n      return\n        /* \"ERC_exp/ERC20_G12_6.0.sol\":5033:5361  function calBuyerDrink(address add) public returns (string memory drinkname,uint drinknumber){//查看这个人买了什么\r... */\n    tag_9:\n      tag_44\n      0x04\n      dup1\n      calldatasize\n      sub\n      dup2\n      add\n      swap1\n      tag_45\n      swap2\n      swap1\n      tag_46\n      jump\t// in\n    tag_45:\n      tag_47\n      jump\t// in\n    tag_44:\n      mload(0x40)\n      tag_48\n      swap3\n      swap2\n      swap1\n      tag_49\n      jump\t// in\n    tag_48:\n      mload(0x40)\n      dup1\n      swap2\n      sub\n      swap1\n      return\n        /* \"ERC_exp/ERC20_G12_6.0.sol\":1612:1736  function balanceOf(address tokenOwner) public override view returns (uint256) {\r... */\n    tag_10:\n      tag_50\n      0x04\n      dup1\n      calldatasize\n      sub\n      dup2\n      add\n      swap1\n      tag_51\n      swap2\n      swap1\n      tag_46\n      jump\t// in\n    tag_51:\n      tag_52\n      jump\t// in\n    tag_50:\n      mload(0x40)\n      tag_53\n      swap2\n      swap1\n      tag_34\n      jump\t// in\n    tag_53:\n      mload(0x40)\n      dup1\n      swap2\n      sub\n      swap1\n      return\n        /* \"ERC_exp/ERC20_G12_6.0.sol\":932:970  string public constant symbol = \"DR12\" */\n    tag_11:\n      tag_54\n      tag_55\n      jump\t// in\n    tag_54:\n      mload(0x40)\n      tag_56\n      swap2\n      swap1\n      tag_19\n      jump\t// in\n    tag_56:\n      mload(0x40)\n      dup1\n      swap2\n      sub\n      swap1\n      return\n        /* \"ERC_exp/ERC20_G12_6.0.sol\":1744:2094  function transfer(address receiver, uint256 numTokens) public override returns (bool) {\r... */\n    tag_12:\n      tag_57\n      0x04\n      dup1\n      calldatasize\n      sub\n      dup2\n      add\n      swap1\n      tag_58\n      swap2\n      swap1\n      tag_22\n      jump\t// in\n    tag_58:\n      tag_59\n      jump\t// in\n    tag_57:\n      mload(0x40)\n      tag_60\n      swap2\n      swap1\n      tag_25\n      jump\t// in\n    tag_60:\n      mload(0x40)\n      dup1\n      swap2\n      sub\n      swap1\n      return\n        /* \"ERC_exp/ERC20_G12_6.0.sol\":2334:2472  function allowance(address owner, address delegate) public override view returns (uint) {\r... */\n    tag_13:\n      tag_61\n      0x04\n      dup1\n      calldatasize\n      sub\n      dup2\n      add\n      swap1\n      tag_62\n      swap2\n      swap1\n      tag_63\n      jump\t// in\n    tag_62:\n      tag_64\n      jump\t// in\n    tag_61:\n      mload(0x40)\n      tag_65\n      swap2\n      swap1\n      tag_34\n      jump\t// in\n    tag_65:\n      mload(0x40)\n      dup1\n      swap2\n      sub\n      swap1\n      return\n        /* \"ERC_exp/ERC20_G12_6.0.sol\":4805:5027  function _updateDrink(string memory name,uint price,uint number) public  returns (bool){\r... */\n    tag_14:\n      tag_66\n      0x04\n      dup1\n      calldatasize\n      sub\n      dup2\n      add\n      swap1\n      tag_67\n      swap2\n      swap1\n      tag_68\n      jump\t// in\n    tag_67:\n      tag_69\n      jump\t// in\n    tag_66:\n      mload(0x40)\n      tag_70\n      swap2\n      swap1\n      tag_25\n      jump\t// in\n    tag_70:\n      mload(0x40)\n      dup1\n      swap2\n      sub\n      swap1\n      return\n        /* \"ERC_exp/ERC20_G12_6.0.sol\":870:911  string public constant name = \"Drink_G12\" */\n    tag_17:\n      mload(0x40)\n      dup1\n      0x40\n      add\n      0x40\n      mstore\n      dup1\n      0x09\n      dup2\n      mstore\n      0x20\n      add\n      0x4472696e6b5f4731320000000000000000000000000000000000000000000000\n      dup2\n      mstore\n      pop\n      dup2\n      jump\t// out\n        /* \"ERC_exp/ERC20_G12_6.0.sol\":2102:2326  function approve(address delegate, uint256 numTokens) public override returns (bool) {\r... */\n    tag_23:\n        /* \"ERC_exp/ERC20_G12_6.0.sol\":2181:2185  bool */\n      0x00\n        /* \"ERC_exp/ERC20_G12_6.0.sol\":2230:2239  numTokens */\n      dup2\n        /* \"ERC_exp/ERC20_G12_6.0.sol\":2198:2205  allowed */\n      0x03\n        /* \"ERC_exp/ERC20_G12_6.0.sol\":2198:2217  allowed[msg.sender] */\n      0x00\n        /* \"ERC_exp/ERC20_G12_6.0.sol\":2206:2216  msg.sender */\n      caller\n        /* \"ERC_exp/ERC20_G12_6.0.sol\":2198:2217  allowed[msg.sender] */\n      0xffffffffffffffffffffffffffffffffffffffff\n      and\n      0xffffffffffffffffffffffffffffffffffffffff\n      and\n      dup2\n      mstore\n      0x20\n      add\n      swap1\n      dup2\n      mstore\n      0x20\n      add\n      0x00\n      keccak256\n        /* \"ERC_exp/ERC20_G12_6.0.sol\":2198:2227  allowed[msg.sender][delegate] */\n      0x00\n        /* \"ERC_exp/ERC20_G12_6.0.sol\":2218:2226  delegate */\n      dup6\n        /* \"ERC_exp/ERC20_G12_6.0.sol\":2198:2227  allowed[msg.sender][delegate] */\n      0xffffffffffffffffffffffffffffffffffffffff\n      and\n      0xffffffffffffffffffffffffffffffffffffffff\n      and\n      dup2\n      mstore\n      0x20\n      add\n      swap1\n      dup2\n      mstore\n      0x20\n      add\n      0x00\n      keccak256\n        /* \"ERC_exp/ERC20_G12_6.0.sol\":2198:2239  allowed[msg.sender][delegate] = numTokens */\n      dup2\n      swap1\n      sstore\n      pop\n        /* \"ERC_exp/ERC20_G12_6.0.sol\":2276:2284  delegate */\n      dup3\n        /* \"ERC_exp/ERC20_G12_6.0.sol\":2255:2296  Approval(msg.sender, delegate, numTokens) */\n      0xffffffffffffffffffffffffffffffffffffffff\n      and\n        /* \"ERC_exp/ERC20_G12_6.0.sol\":2264:2274  msg.sender */\n      caller\n        /* \"ERC_exp/ERC20_G12_6.0.sol\":2255:2296  Approval(msg.sender, delegate, numTokens) */\n      0xffffffffffffffffffffffffffffffffffffffff\n      and\n      0x8c5be1e5ebec7d5bd14f71427d1e84f3dd0314c0f7b2291e5b200ac8c7c3b925\n        /* \"ERC_exp/ERC20_G12_6.0.sol\":2286:2295  numTokens */\n      dup5\n        /* \"ERC_exp/ERC20_G12_6.0.sol\":2255:2296  Approval(msg.sender, delegate, numTokens) */\n      mload(0x40)\n      tag_72\n      swap2\n      swap1\n      tag_34\n      jump\t// in\n    tag_72:\n      mload(0x40)\n      dup1\n      swap2\n      sub\n      swap1\n      log3\n        /* \"ERC_exp/ERC20_G12_6.0.sol\":2314:2318  true */\n      0x01\n        /* \"ERC_exp/ERC20_G12_6.0.sol\":2307:2318  return true */\n      swap1\n      pop\n        /* \"ERC_exp/ERC20_G12_6.0.sol\":2102:2326  function approve(address delegate, uint256 numTokens) public override returns (bool) {\r... */\n      swap3\n      swap2\n      pop\n      pop\n      jump\t// out\n        /* \"ERC_exp/ERC20_G12_6.0.sol\":4252:4797  function _buyDrink(string memory drinkname,uint num) public  returns (bool){\r... */\n    tag_29:\n        /* \"ERC_exp/ERC20_G12_6.0.sol\":4322:4326  bool */\n      0x00\n        /* \"ERC_exp/ERC20_G12_6.0.sol\":4366:4369  num */\n      dup2\n        /* \"ERC_exp/ERC20_G12_6.0.sol\":4346:4353  DrinkNN */\n      0x04\n        /* \"ERC_exp/ERC20_G12_6.0.sol\":4354:4363  drinkname */\n      dup5\n        /* \"ERC_exp/ERC20_G12_6.0.sol\":4346:4364  DrinkNN[drinkname] */\n      mload(0x40)\n      tag_74\n      swap2\n      swap1\n      tag_75\n      jump\t// in\n    tag_74:\n      swap1\n      dup2\n      mstore\n      0x20\n      add\n      mload(0x40)\n      dup1\n      swap2\n      sub\n      swap1\n      keccak256\n      sload\n        /* \"ERC_exp/ERC20_G12_6.0.sol\":4346:4369  DrinkNN[drinkname]>=num */\n      lt\n      iszero\n        /* \"ERC_exp/ERC20_G12_6.0.sol\":4338:4370  require(DrinkNN[drinkname]>=num) */\n      tag_76\n      jumpi\n      0x00\n      dup1\n      revert\n    tag_76:\n        /* \"ERC_exp/ERC20_G12_6.0.sol\":4416:4423  DrinkNP */\n      0x05\n        /* \"ERC_exp/ERC20_G12_6.0.sol\":4424:4433  drinkname */\n      dup4\n        /* \"ERC_exp/ERC20_G12_6.0.sol\":4416:4434  DrinkNP[drinkname] */\n      mload(0x40)\n      tag_77\n      swap2\n      swap1\n      tag_75\n      jump\t// in\n    tag_77:\n      swap1\n      dup2\n      mstore\n      0x20\n      add\n      mload(0x40)\n      dup1\n      swap2\n      sub\n      swap1\n      keccak256\n      sload\n        /* \"ERC_exp/ERC20_G12_6.0.sol\":4412:4415  num */\n      dup3\n        /* \"ERC_exp/ERC20_G12_6.0.sol\":4412:4434  num*DrinkNP[drinkname] */\n      tag_78\n      swap2\n      swap1\n      tag_79\n      jump\t// in\n    tag_78:\n        /* \"ERC_exp/ERC20_G12_6.0.sol\":4389:4397  balances */\n      0x02\n        /* \"ERC_exp/ERC20_G12_6.0.sol\":4389:4409  balances[msg.sender] */\n      0x00\n        /* \"ERC_exp/ERC20_G12_6.0.sol\":4398:4408  msg.sender */\n      caller\n        /* \"ERC_exp/ERC20_G12_6.0.sol\":4389:4409  balances[msg.sender] */\n      0xffffffffffffffffffffffffffffffffffffffff\n      and\n      0xffffffffffffffffffffffffffffffffffffffff\n      and\n      dup2\n      mstore\n      0x20\n      add\n      swap1\n      dup2\n      mstore\n      0x20\n      add\n      0x00\n      keccak256\n      sload\n        /* \"ERC_exp/ERC20_G12_6.0.sol\":4389:4435  balances[msg.sender]>=(num*DrinkNP[drinkname]) */\n      lt\n      iszero\n        /* \"ERC_exp/ERC20_G12_6.0.sol\":4381:4436  require(balances[msg.sender]>=(num*DrinkNP[drinkname])) */\n      tag_80\n      jumpi\n      0x00\n      dup1\n      revert\n    tag_80:\n        /* \"ERC_exp/ERC20_G12_6.0.sol\":4447:4490  transfer(OwnerDrink,num*DrinkNP[drinkname]) */\n      tag_81\n        /* \"ERC_exp/ERC20_G12_6.0.sol\":3115:3157  0x5B38Da6a701c568545dCfcB03FcB875f56beddC4 */\n      0x5b38da6a701c568545dcfcb03fcb875f56beddc4\n        /* \"ERC_exp/ERC20_G12_6.0.sol\":4471:4478  DrinkNP */\n      0x05\n        /* \"ERC_exp/ERC20_G12_6.0.sol\":4479:4488  drinkname */\n      dup6\n        /* \"ERC_exp/ERC20_G12_6.0.sol\":4471:4489  DrinkNP[drinkname] */\n      mload(0x40)\n      tag_82\n      swap2\n      swap1\n      tag_75\n      jump\t// in\n    tag_82:\n      swap1\n      dup2\n      mstore\n      0x20\n      add\n      mload(0x40)\n      dup1\n      swap2\n      sub\n      swap1\n      keccak256\n      sload\n        /* \"ERC_exp/ERC20_G12_6.0.sol\":4467:4470  num */\n      dup5\n        /* \"ERC_exp/ERC20_G12_6.0.sol\":4467:4489  num*DrinkNP[drinkname] */\n      tag_83\n      swap2\n      swap1\n      tag_79\n      jump\t// in\n    tag_83:\n        /* \"ERC_exp/ERC20_G12_6.0.sol\":4447:4455  transfer */\n      tag_59\n        /* \"ERC_exp/ERC20_G12_6.0.sol\":4447:4490  transfer(OwnerDrink,num*DrinkNP[drinkname]) */\n      jump\t// in\n    tag_81:\n      pop\n        /* \"ERC_exp/ERC20_G12_6.0.sol\":4606:4613  DrinkNN */\n      0x04\n        /* \"ERC_exp/ERC20_G12_6.0.sol\":4614:4623  drinkname */\n      dup4\n        /* \"ERC_exp/ERC20_G12_6.0.sol\":4606:4624  DrinkNN[drinkname] */\n      mload(0x40)\n      tag_84\n      swap2\n      swap1\n      tag_75\n      jump\t// in\n    tag_84:\n      swap1\n      dup2\n      mstore\n      0x20\n      add\n      mload(0x40)\n      dup1\n      swap2\n      sub\n      swap1\n      keccak256\n      0x00\n        /* \"ERC_exp/ERC20_G12_6.0.sol\":4606:4626  DrinkNN[drinkname]-- */\n      dup2\n      sload\n      dup1\n      swap3\n      swap2\n      swap1\n      tag_85\n      swap1\n      tag_86\n      jump\t// in\n    tag_85:\n      swap2\n      swap1\n      pop\n      sstore\n      pop\n        /* \"ERC_exp/ERC20_G12_6.0.sol\":4659:4668  drinkname */\n      dup3\n        /* \"ERC_exp/ERC20_G12_6.0.sol\":4637:4646  BuyerName */\n      0x06\n        /* \"ERC_exp/ERC20_G12_6.0.sol\":4637:4658  BuyerName[msg.sender] */\n      0x00\n        /* \"ERC_exp/ERC20_G12_6.0.sol\":4647:4657  msg.sender */\n      caller\n        /* \"ERC_exp/ERC20_G12_6.0.sol\":4637:4658  BuyerName[msg.sender] */\n      0xffffffffffffffffffffffffffffffffffffffff\n      and\n      0xffffffffffffffffffffffffffffffffffffffff\n      and\n      dup2\n      mstore\n      0x20\n      add\n      swap1\n      dup2\n      mstore\n      0x20\n      add\n      0x00\n      keccak256\n        /* \"ERC_exp/ERC20_G12_6.0.sol\":4637:4668  BuyerName[msg.sender]=drinkname */\n      swap1\n      dup1\n      mload\n      swap1\n      0x20\n      add\n      swap1\n      tag_87\n      swap3\n      swap2\n      swap1\n      tag_88\n      jump\t// in\n    tag_87:\n      pop\n        /* \"ERC_exp/ERC20_G12_6.0.sol\":4713:4716  num */\n      dup2\n        /* \"ERC_exp/ERC20_G12_6.0.sol\":4679:4689  BuyerDrink */\n      0x07\n        /* \"ERC_exp/ERC20_G12_6.0.sol\":4679:4701  BuyerDrink[msg.sender] */\n      0x00\n        /* \"ERC_exp/ERC20_G12_6.0.sol\":4690:4700  msg.sender */\n      caller\n        /* \"ERC_exp/ERC20_G12_6.0.sol\":4679:4701  BuyerDrink[msg.sender] */\n      0xffffffffffffffffffffffffffffffffffffffff\n      and\n      0xffffffffffffffffffffffffffffffffffffffff\n      and\n      dup2\n      mstore\n      0x20\n      add\n      swap1\n      dup2\n      mstore\n      0x20\n      add\n      0x00\n      keccak256\n        /* \"ERC_exp/ERC20_G12_6.0.sol\":4702:4711  drinkname */\n      dup5\n        /* \"ERC_exp/ERC20_G12_6.0.sol\":4679:4712  BuyerDrink[msg.sender][drinkname] */\n      mload(0x40)\n      tag_89\n      swap2\n      swap1\n      tag_75\n      jump\t// in\n    tag_89:\n      swap1\n      dup2\n      mstore\n      0x20\n      add\n      mload(0x40)\n      dup1\n      swap2\n      sub\n      swap1\n      keccak256\n        /* \"ERC_exp/ERC20_G12_6.0.sol\":4679:4716  BuyerDrink[msg.sender][drinkname]=num */\n      dup2\n      swap1\n      sstore\n      pop\n        /* \"ERC_exp/ERC20_G12_6.0.sol\":4732:4767  _drinkBuy(msg.sender,drinkname,num) */\n      0x3d793e2ba72604006e0c2d8656f1af9b2acece635ad25c0c9787877239f33f31\n        /* \"ERC_exp/ERC20_G12_6.0.sol\":4742:4752  msg.sender */\n      caller\n        /* \"ERC_exp/ERC20_G12_6.0.sol\":4753:4762  drinkname */\n      dup5\n        /* \"ERC_exp/ERC20_G12_6.0.sol\":4763:4766  num */\n      dup5\n        /* \"ERC_exp/ERC20_G12_6.0.sol\":4732:4767  _drinkBuy(msg.sender,drinkname,num) */\n      mload(0x40)\n      tag_90\n      swap4\n      swap3\n      swap2\n      swap1\n      tag_91\n      jump\t// in\n    tag_90:\n      mload(0x40)\n      dup1\n      swap2\n      sub\n      swap1\n      log1\n        /* \"ERC_exp/ERC20_G12_6.0.sol\":4785:4789  true */\n      0x01\n        /* \"ERC_exp/ERC20_G12_6.0.sol\":4778:4789  return true */\n      swap1\n      pop\n        /* \"ERC_exp/ERC20_G12_6.0.sol\":4252:4797  function _buyDrink(string memory drinkname,uint num) public  returns (bool){\r... */\n      swap3\n      swap2\n      pop\n      pop\n      jump\t// out\n        /* \"ERC_exp/ERC20_G12_6.0.sol\":1504:1604  function totalSupply() public override view returns (uint256) {\r... */\n    tag_32:\n        /* \"ERC_exp/ERC20_G12_6.0.sol\":1557:1564  uint256 */\n      0x00\n        /* \"ERC_exp/ERC20_G12_6.0.sol\":1584:1596  totalSupply_ */\n      dup1\n      sload\n        /* \"ERC_exp/ERC20_G12_6.0.sol\":1577:1596  return totalSupply_ */\n      swap1\n      pop\n        /* \"ERC_exp/ERC20_G12_6.0.sol\":1504:1604  function totalSupply() public override view returns (uint256) {\r... */\n      swap1\n      jump\t// out\n        /* \"ERC_exp/ERC20_G12_6.0.sol\":2480:2954  function transferFrom(address owner, address buyer, uint256 numTokens) public override returns (bool) {\r... */\n    tag_38:\n        /* \"ERC_exp/ERC20_G12_6.0.sol\":2576:2580  bool */\n      0x00\n        /* \"ERC_exp/ERC20_G12_6.0.sol\":2614:2622  balances */\n      0x02\n        /* \"ERC_exp/ERC20_G12_6.0.sol\":2614:2629  balances[owner] */\n      0x00\n        /* \"ERC_exp/ERC20_G12_6.0.sol\":2623:2628  owner */\n      dup6\n        /* \"ERC_exp/ERC20_G12_6.0.sol\":2614:2629  balances[owner] */\n      0xffffffffffffffffffffffffffffffffffffffff\n      and\n      0xffffffffffffffffffffffffffffffffffffffff\n      and\n      dup2\n      mstore\n      0x20\n      add\n      swap1\n      dup2\n      mstore\n      0x20\n      add\n      0x00\n      keccak256\n      sload\n        /* \"ERC_exp/ERC20_G12_6.0.sol\":2601:2610  numTokens */\n      dup3\n        /* \"ERC_exp/ERC20_G12_6.0.sol\":2601:2629  numTokens <= balances[owner] */\n      gt\n      iszero\n        /* \"ERC_exp/ERC20_G12_6.0.sol\":2593:2630  require(numTokens <= balances[owner]) */\n      tag_94\n      jumpi\n      0x00\n      dup1\n      revert\n    tag_94:\n        /* \"ERC_exp/ERC20_G12_6.0.sol\":2662:2669  allowed */\n      0x03\n        /* \"ERC_exp/ERC20_G12_6.0.sol\":2662:2676  allowed[owner] */\n      0x00\n        /* \"ERC_exp/ERC20_G12_6.0.sol\":2670:2675  owner */\n      dup6\n        /* \"ERC_exp/ERC20_G12_6.0.sol\":2662:2676  allowed[owner] */\n      0xffffffffffffffffffffffffffffffffffffffff\n      and\n      0xffffffffffffffffffffffffffffffffffffffff\n      and\n      dup2\n      mstore\n      0x20\n      add\n      swap1\n      dup2\n      mstore\n      0x20\n      add\n      0x00\n      keccak256\n        /* \"ERC_exp/ERC20_G12_6.0.sol\":2662:2688  allowed[owner][msg.sender] */\n      0x00\n        /* \"ERC_exp/ERC20_G12_6.0.sol\":2677:2687  msg.sender */\n      caller\n        /* \"ERC_exp/ERC20_G12_6.0.sol\":2662:2688  allowed[owner][msg.sender] */\n      0xffffffffffffffffffffffffffffffffffffffff\n      and\n      0xffffffffffffffffffffffffffffffffffffffff\n      and\n      dup2\n      mstore\n      0x20\n      add\n      swap1\n      dup2\n      mstore\n      0x20\n      add\n      0x00\n      keccak256\n      sload\n        /* \"ERC_exp/ERC20_G12_6.0.sol\":2649:2658  numTokens */\n      dup3\n        /* \"ERC_exp/ERC20_G12_6.0.sol\":2649:2688  numTokens <= allowed[owner][msg.sender] */\n      gt\n      iszero\n        /* \"ERC_exp/ERC20_G12_6.0.sol\":2641:2689  require(numTokens <= allowed[owner][msg.sender]) */\n      tag_95\n      jumpi\n      0x00\n      dup1\n      revert\n    tag_95:\n        /* \"ERC_exp/ERC20_G12_6.0.sol\":2736:2745  numTokens */\n      dup2\n        /* \"ERC_exp/ERC20_G12_6.0.sol\":2720:2728  balances */\n      0x02\n        /* \"ERC_exp/ERC20_G12_6.0.sol\":2720:2735  balances[owner] */\n      0x00\n        /* \"ERC_exp/ERC20_G12_6.0.sol\":2729:2734  owner */\n      dup7\n        /* \"ERC_exp/ERC20_G12_6.0.sol\":2720:2735  balances[owner] */\n      0xffffffffffffffffffffffffffffffffffffffff\n      and\n      0xffffffffffffffffffffffffffffffffffffffff\n      and\n      dup2\n      mstore\n      0x20\n      add\n      swap1\n      dup2\n      mstore\n      0x20\n      add\n      0x00\n      keccak256\n      sload\n        /* \"ERC_exp/ERC20_G12_6.0.sol\":2720:2745  balances[owner]-numTokens */\n      tag_96\n      swap2\n      swap1\n      tag_97\n      jump\t// in\n    tag_96:\n        /* \"ERC_exp/ERC20_G12_6.0.sol\":2702:2710  balances */\n      0x02\n        /* \"ERC_exp/ERC20_G12_6.0.sol\":2702:2717  balances[owner] */\n      0x00\n        /* \"ERC_exp/ERC20_G12_6.0.sol\":2711:2716  owner */\n      dup7\n        /* \"ERC_exp/ERC20_G12_6.0.sol\":2702:2717  balances[owner] */\n      0xffffffffffffffffffffffffffffffffffffffff\n      and\n      0xffffffffffffffffffffffffffffffffffffffff\n      and\n      dup2\n      mstore\n      0x20\n      add\n      swap1\n      dup2\n      mstore\n      0x20\n      add\n      0x00\n      keccak256\n        /* \"ERC_exp/ERC20_G12_6.0.sol\":2702:2745  balances[owner] = balances[owner]-numTokens */\n      dup2\n      swap1\n      sstore\n      pop\n        /* \"ERC_exp/ERC20_G12_6.0.sol\":2812:2821  numTokens */\n      dup2\n        /* \"ERC_exp/ERC20_G12_6.0.sol\":2785:2792  allowed */\n      0x03\n        /* \"ERC_exp/ERC20_G12_6.0.sol\":2785:2799  allowed[owner] */\n      0x00\n        /* \"ERC_exp/ERC20_G12_6.0.sol\":2793:2798  owner */\n      dup7\n        /* \"ERC_exp/ERC20_G12_6.0.sol\":2785:2799  allowed[owner] */\n      0xffffffffffffffffffffffffffffffffffffffff\n      and\n      0xffffffffffffffffffffffffffffffffffffffff\n      and\n      dup2\n      mstore\n      0x20\n      add\n      swap1\n      dup2\n      mstore\n      0x20\n      add\n      0x00\n      keccak256\n        /* \"ERC_exp/ERC20_G12_6.0.sol\":2785:2811  allowed[owner][msg.sender] */\n      0x00\n        /* \"ERC_exp/ERC20_G12_6.0.sol\":2800:2810  msg.sender */\n      caller\n        /* \"ERC_exp/ERC20_G12_6.0.sol\":2785:2811  allowed[owner][msg.sender] */\n      0xffffffffffffffffffffffffffffffffffffffff\n      and\n      0xffffffffffffffffffffffffffffffffffffffff\n      and\n      dup2\n      mstore\n      0x20\n      add\n      swap1\n      dup2\n      mstore\n      0x20\n      add\n      0x00\n      keccak256\n      sload\n        /* \"ERC_exp/ERC20_G12_6.0.sol\":2785:2821  allowed[owner][msg.sender]-numTokens */\n      tag_98\n      swap2\n      swap1\n      tag_97\n      jump\t// in\n    tag_98:\n        /* \"ERC_exp/ERC20_G12_6.0.sol\":2756:2763  allowed */\n      0x03\n        /* \"ERC_exp/ERC20_G12_6.0.sol\":2756:2770  allowed[owner] */\n      0x00\n        /* \"ERC_exp/ERC20_G12_6.0.sol\":2764:2769  owner */\n      dup7\n        /* \"ERC_exp/ERC20_G12_6.0.sol\":2756:2770  allowed[owner] */\n      0xffffffffffffffffffffffffffffffffffffffff\n      and\n      0xffffffffffffffffffffffffffffffffffffffff\n      and\n      dup2\n      mstore\n      0x20\n      add\n      swap1\n      dup2\n      mstore\n      0x20\n      add\n      0x00\n      keccak256\n        /* \"ERC_exp/ERC20_G12_6.0.sol\":2756:2782  allowed[owner][msg.sender] */\n      0x00\n        /* \"ERC_exp/ERC20_G12_6.0.sol\":2771:2781  msg.sender */\n      caller\n        /* \"ERC_exp/ERC20_G12_6.0.sol\":2756:2782  allowed[owner][msg.sender] */\n      0xffffffffffffffffffffffffffffffffffffffff\n      and\n      0xffffffffffffffffffffffffffffffffffffffff\n      and\n      dup2\n      mstore\n      0x20\n      add\n      swap1\n      dup2\n      mstore\n      0x20\n      add\n      0x00\n      keccak256\n        /* \"ERC_exp/ERC20_G12_6.0.sol\":2756:2821  allowed[owner][msg.sender] = allowed[owner][msg.sender]-numTokens */\n      dup2\n      swap1\n      sstore\n      pop\n        /* \"ERC_exp/ERC20_G12_6.0.sol\":2866:2875  numTokens */\n      dup2\n        /* \"ERC_exp/ERC20_G12_6.0.sol\":2850:2858  balances */\n      0x02\n        /* \"ERC_exp/ERC20_G12_6.0.sol\":2850:2865  balances[buyer] */\n      0x00\n        /* \"ERC_exp/ERC20_G12_6.0.sol\":2859:2864  buyer */\n      dup6\n        /* \"ERC_exp/ERC20_G12_6.0.sol\":2850:2865  balances[buyer] */\n      0xffffffffffffffffffffffffffffffffffffffff\n      and\n      0xffffffffffffffffffffffffffffffffffffffff\n      and\n      dup2\n      mstore\n      0x20\n      add\n      swap1\n      dup2\n      mstore\n      0x20\n      add\n      0x00\n      keccak256\n      sload\n        /* \"ERC_exp/ERC20_G12_6.0.sol\":2850:2875  balances[buyer]+numTokens */\n      tag_99\n      swap2\n      swap1\n      tag_100\n      jump\t// in\n    tag_99:\n        /* \"ERC_exp/ERC20_G12_6.0.sol\":2832:2840  balances */\n      0x02\n        /* \"ERC_exp/ERC20_G12_6.0.sol\":2832:2847  balances[buyer] */\n      0x00\n        /* \"ERC_exp/ERC20_G12_6.0.sol\":2841:2846  buyer */\n      dup6\n        /* \"ERC_exp/ERC20_G12_6.0.sol\":2832:2847  balances[buyer] */\n      0xffffffffffffffffffffffffffffffffffffffff\n      and\n      0xffffffffffffffffffffffffffffffffffffffff\n      and\n      dup2\n      mstore\n      0x20\n      add\n      swap1\n      dup2\n      mstore\n      0x20\n      add\n      0x00\n      keccak256\n        /* \"ERC_exp/ERC20_G12_6.0.sol\":2832:2875  balances[buyer] = balances[buyer]+numTokens */\n      dup2\n      swap1\n      sstore\n      pop\n        /* \"ERC_exp/ERC20_G12_6.0.sol\":2907:2912  buyer */\n      dup3\n        /* \"ERC_exp/ERC20_G12_6.0.sol\":2891:2924  Transfer(owner, buyer, numTokens) */\n      0xffffffffffffffffffffffffffffffffffffffff\n      and\n        /* \"ERC_exp/ERC20_G12_6.0.sol\":2900:2905  owner */\n      dup5\n        /* \"ERC_exp/ERC20_G12_6.0.sol\":2891:2924  Transfer(owner, buyer, numTokens) */\n      0xffffffffffffffffffffffffffffffffffffffff\n      and\n      0xddf252ad1be2c89b69c2b068fc378daa952ba7f163c4a11628f55a4df523b3ef\n        /* \"ERC_exp/ERC20_G12_6.0.sol\":2914:2923  numTokens */\n      dup5\n        /* \"ERC_exp/ERC20_G12_6.0.sol\":2891:2924  Transfer(owner, buyer, numTokens) */\n      mload(0x40)\n      tag_101\n      swap2\n      swap1\n      tag_34\n      jump\t// in\n    tag_101:\n      mload(0x40)\n      dup1\n      swap2\n      sub\n      swap1\n      log3\n        /* \"ERC_exp/ERC20_G12_6.0.sol\":2942:2946  true */\n      0x01\n        /* \"ERC_exp/ERC20_G12_6.0.sol\":2935:2946  return true */\n      swap1\n      pop\n        /* \"ERC_exp/ERC20_G12_6.0.sol\":2480:2954  function transferFrom(address owner, address buyer, uint256 numTokens) public override returns (bool) {\r... */\n      swap4\n      swap3\n      pop\n      pop\n      pop\n      jump\t// out\n        /* \"ERC_exp/ERC20_G12_6.0.sol\":1006:1040  uint8 public constant decimals = 2 */\n    tag_41:\n        /* \"ERC_exp/ERC20_G12_6.0.sol\":1039:1040  2 */\n      0x02\n        /* \"ERC_exp/ERC20_G12_6.0.sol\":1006:1040  uint8 public constant decimals = 2 */\n      dup2\n      jump\t// out\n        /* \"ERC_exp/ERC20_G12_6.0.sol\":5033:5361  function calBuyerDrink(address add) public returns (string memory drinkname,uint drinknumber){//查看这个人买了什么\r... */\n    tag_47:\n        /* \"ERC_exp/ERC20_G12_6.0.sol\":5085:5108  string memory drinkname */\n      0x60\n        /* \"ERC_exp/ERC20_G12_6.0.sol\":5109:5125  uint drinknumber */\n      0x00\n        /* \"ERC_exp/ERC20_G12_6.0.sol\":5264:5273  BuyerName */\n      0x06\n        /* \"ERC_exp/ERC20_G12_6.0.sol\":5264:5285  BuyerName[msg.sender] */\n      0x00\n        /* \"ERC_exp/ERC20_G12_6.0.sol\":5274:5284  msg.sender */\n      caller\n        /* \"ERC_exp/ERC20_G12_6.0.sol\":5264:5285  BuyerName[msg.sender] */\n      0xffffffffffffffffffffffffffffffffffffffff\n      and\n      0xffffffffffffffffffffffffffffffffffffffff\n      and\n      dup2\n      mstore\n      0x20\n      add\n      swap1\n      dup2\n      mstore\n      0x20\n      add\n      0x00\n      keccak256\n        /* \"ERC_exp/ERC20_G12_6.0.sol\":5254:5285  drinkname=BuyerName[msg.sender] */\n      dup1\n      sload\n      tag_103\n      swap1\n      tag_104\n      jump\t// in\n    tag_103:\n      dup1\n      0x1f\n      add\n      0x20\n      dup1\n      swap2\n      div\n      mul\n      0x20\n      add\n      mload(0x40)\n      swap1\n      dup2\n      add\n      0x40\n      mstore\n      dup1\n      swap3\n      swap2\n      swap1\n      dup2\n      dup2\n      mstore\n      0x20\n      add\n      dup3\n      dup1\n      sload\n      tag_105\n      swap1\n      tag_104\n      jump\t// in\n    tag_105:\n      dup1\n      iszero\n      tag_106\n      jumpi\n      dup1\n      0x1f\n      lt\n      tag_107\n      jumpi\n      0x0100\n      dup1\n      dup4\n      sload\n      div\n      mul\n      dup4\n      mstore\n      swap2\n      0x20\n      add\n      swap2\n      jump(tag_106)\n    tag_107:\n      dup3\n      add\n      swap2\n      swap1\n      0x00\n      mstore\n      keccak256(0x00, 0x20)\n      swap1\n    tag_108:\n      dup2\n      sload\n      dup2\n      mstore\n      swap1\n      0x01\n      add\n      swap1\n      0x20\n      add\n      dup1\n      dup4\n      gt\n      tag_108\n      jumpi\n      dup3\n      swap1\n      sub\n      0x1f\n      and\n      dup3\n      add\n      swap2\n    tag_106:\n      pop\n      pop\n      pop\n      pop\n      pop\n      swap2\n      pop\n        /* \"ERC_exp/ERC20_G12_6.0.sol\":5308:5318  BuyerDrink */\n      0x07\n        /* \"ERC_exp/ERC20_G12_6.0.sol\":5308:5330  BuyerDrink[msg.sender] */\n      0x00\n        /* \"ERC_exp/ERC20_G12_6.0.sol\":5319:5329  msg.sender */\n      caller\n        /* \"ERC_exp/ERC20_G12_6.0.sol\":5308:5330  BuyerDrink[msg.sender] */\n      0xffffffffffffffffffffffffffffffffffffffff\n      and\n      0xffffffffffffffffffffffffffffffffffffffff\n      and\n      dup2\n      mstore\n      0x20\n      add\n      swap1\n      dup2\n      mstore\n      0x20\n      add\n      0x00\n      keccak256\n        /* \"ERC_exp/ERC20_G12_6.0.sol\":5331:5340  BuyerName */\n      0x06\n        /* \"ERC_exp/ERC20_G12_6.0.sol\":5331:5352  BuyerName[msg.sender] */\n      0x00\n        /* \"ERC_exp/ERC20_G12_6.0.sol\":5341:5351  msg.sender */\n      caller\n        /* \"ERC_exp/ERC20_G12_6.0.sol\":5331:5352  BuyerName[msg.sender] */\n      0xffffffffffffffffffffffffffffffffffffffff\n      and\n      0xffffffffffffffffffffffffffffffffffffffff\n      and\n      dup2\n      mstore\n      0x20\n      add\n      swap1\n      dup2\n      mstore\n      0x20\n      add\n      0x00\n      keccak256\n        /* \"ERC_exp/ERC20_G12_6.0.sol\":5308:5353  BuyerDrink[msg.sender][BuyerName[msg.sender]] */\n      mload(0x40)\n      tag_109\n      swap2\n      swap1\n      tag_110\n      jump\t// in\n    tag_109:\n      swap1\n      dup2\n      mstore\n      0x20\n      add\n      mload(0x40)\n      dup1\n      swap2\n      sub\n      swap1\n      keccak256\n      sload\n        /* \"ERC_exp/ERC20_G12_6.0.sol\":5296:5353  drinknumber=BuyerDrink[msg.sender][BuyerName[msg.sender]] */\n      swap1\n      pop\n        /* \"ERC_exp/ERC20_G12_6.0.sol\":5033:5361  function calBuyerDrink(address add) public returns (string memory drinkname,uint drinknumber){//查看这个人买了什么\r... */\n      swap2\n      pop\n      swap2\n      jump\t// out\n        /* \"ERC_exp/ERC20_G12_6.0.sol\":1612:1736  function balanceOf(address tokenOwner) public override view returns (uint256) {\r... */\n    tag_52:\n        /* \"ERC_exp/ERC20_G12_6.0.sol\":1681:1688  uint256 */\n      0x00\n        /* \"ERC_exp/ERC20_G12_6.0.sol\":1708:1716  balances */\n      0x02\n        /* \"ERC_exp/ERC20_G12_6.0.sol\":1708:1728  balances[tokenOwner] */\n      0x00\n        /* \"ERC_exp/ERC20_G12_6.0.sol\":1717:1727  tokenOwner */\n      dup4\n        /* \"ERC_exp/ERC20_G12_6.0.sol\":1708:1728  balances[tokenOwner] */\n      0xffffffffffffffffffffffffffffffffffffffff\n      and\n      0xffffffffffffffffffffffffffffffffffffffff\n      and\n      dup2\n      mstore\n      0x20\n      add\n      swap1\n      dup2\n      mstore\n      0x20\n      add\n      0x00\n      keccak256\n      sload\n        /* \"ERC_exp/ERC20_G12_6.0.sol\":1701:1728  return balances[tokenOwner] */\n      swap1\n      pop\n        /* \"ERC_exp/ERC20_G12_6.0.sol\":1612:1736  function balanceOf(address tokenOwner) public override view returns (uint256) {\r... */\n      swap2\n      swap1\n      pop\n      jump\t// out\n        /* \"ERC_exp/ERC20_G12_6.0.sol\":932:970  string public constant symbol = \"DR12\" */\n    tag_55:\n      mload(0x40)\n      dup1\n      0x40\n      add\n      0x40\n      mstore\n      dup1\n      0x04\n      dup2\n      mstore\n      0x20\n      add\n      0x4452313200000000000000000000000000000000000000000000000000000000\n      dup2\n      mstore\n      pop\n      dup2\n      jump\t// out\n        /* \"ERC_exp/ERC20_G12_6.0.sol\":1744:2094  function transfer(address receiver, uint256 numTokens) public override returns (bool) {\r... */\n    tag_59:\n        /* \"ERC_exp/ERC20_G12_6.0.sol\":1824:1828  bool */\n      0x00\n        /* \"ERC_exp/ERC20_G12_6.0.sol\":1862:1870  balances */\n      0x02\n        /* \"ERC_exp/ERC20_G12_6.0.sol\":1862:1882  balances[msg.sender] */\n      0x00\n        /* \"ERC_exp/ERC20_G12_6.0.sol\":1871:1881  msg.sender */\n      caller\n        /* \"ERC_exp/ERC20_G12_6.0.sol\":1862:1882  balances[msg.sender] */\n      0xffffffffffffffffffffffffffffffffffffffff\n      and\n      0xffffffffffffffffffffffffffffffffffffffff\n      and\n      dup2\n      mstore\n      0x20\n      add\n      swap1\n      dup2\n      mstore\n      0x20\n      add\n      0x00\n      keccak256\n      sload\n        /* \"ERC_exp/ERC20_G12_6.0.sol\":1849:1858  numTokens */\n      dup3\n        /* \"ERC_exp/ERC20_G12_6.0.sol\":1849:1882  numTokens <= balances[msg.sender] */\n      gt\n      iszero\n        /* \"ERC_exp/ERC20_G12_6.0.sol\":1841:1883  require(numTokens <= balances[msg.sender]) */\n      tag_113\n      jumpi\n      0x00\n      dup1\n      revert\n    tag_113:\n        /* \"ERC_exp/ERC20_G12_6.0.sol\":1938:1947  numTokens */\n      dup2\n        /* \"ERC_exp/ERC20_G12_6.0.sol\":1917:1925  balances */\n      0x02\n        /* \"ERC_exp/ERC20_G12_6.0.sol\":1917:1937  balances[msg.sender] */\n      0x00\n        /* \"ERC_exp/ERC20_G12_6.0.sol\":1926:1936  msg.sender */\n      caller\n        /* \"ERC_exp/ERC20_G12_6.0.sol\":1917:1937  balances[msg.sender] */\n      0xffffffffffffffffffffffffffffffffffffffff\n      and\n      0xffffffffffffffffffffffffffffffffffffffff\n      and\n      dup2\n      mstore\n      0x20\n      add\n      swap1\n      dup2\n      mstore\n      0x20\n      add\n      0x00\n      keccak256\n      sload\n        /* \"ERC_exp/ERC20_G12_6.0.sol\":1917:1947  balances[msg.sender]-numTokens */\n      tag_114\n      swap2\n      swap1\n      tag_97\n      jump\t// in\n    tag_114:\n        /* \"ERC_exp/ERC20_G12_6.0.sol\":1894:1902  balances */\n      0x02\n        /* \"ERC_exp/ERC20_G12_6.0.sol\":1894:1914  balances[msg.sender] */\n      0x00\n        /* \"ERC_exp/ERC20_G12_6.0.sol\":1903:1913  msg.sender */\n      caller\n        /* \"ERC_exp/ERC20_G12_6.0.sol\":1894:1914  balances[msg.sender] */\n      0xffffffffffffffffffffffffffffffffffffffff\n      and\n      0xffffffffffffffffffffffffffffffffffffffff\n      and\n      dup2\n      mstore\n      0x20\n      add\n      swap1\n      dup2\n      mstore\n      0x20\n      add\n      0x00\n      keccak256\n        /* \"ERC_exp/ERC20_G12_6.0.sol\":1894:1947  balances[msg.sender] = balances[msg.sender]-numTokens */\n      dup2\n      swap1\n      sstore\n      pop\n        /* \"ERC_exp/ERC20_G12_6.0.sol\":1998:2007  numTokens */\n      dup2\n        /* \"ERC_exp/ERC20_G12_6.0.sol\":1979:1987  balances */\n      0x02\n        /* \"ERC_exp/ERC20_G12_6.0.sol\":1979:1997  balances[receiver] */\n      0x00\n        /* \"ERC_exp/ERC20_G12_6.0.sol\":1988:1996  receiver */\n      dup6\n        /* \"ERC_exp/ERC20_G12_6.0.sol\":1979:1997  balances[receiver] */\n      0xffffffffffffffffffffffffffffffffffffffff\n      and\n      0xffffffffffffffffffffffffffffffffffffffff\n      and\n      dup2\n      mstore\n      0x20\n      add\n      swap1\n      dup2\n      mstore\n      0x20\n      add\n      0x00\n      keccak256\n      sload\n        /* \"ERC_exp/ERC20_G12_6.0.sol\":1979:2007  balances[receiver]+numTokens */\n      tag_115\n      swap2\n      swap1\n      tag_100\n      jump\t// in\n    tag_115:\n        /* \"ERC_exp/ERC20_G12_6.0.sol\":1958:1966  balances */\n      0x02\n        /* \"ERC_exp/ERC20_G12_6.0.sol\":1958:1976  balances[receiver] */\n      0x00\n        /* \"ERC_exp/ERC20_G12_6.0.sol\":1967:1975  receiver */\n      dup6\n        /* \"ERC_exp/ERC20_G12_6.0.sol\":1958:1976  balances[receiver] */\n      0xffffffffffffffffffffffffffffffffffffffff\n      and\n      0xffffffffffffffffffffffffffffffffffffffff\n      and\n      dup2\n      mstore\n      0x20\n      add\n      swap1\n      dup2\n      mstore\n      0x20\n      add\n      0x00\n      keccak256\n        /* \"ERC_exp/ERC20_G12_6.0.sol\":1958:2007  balances[receiver] = balances[receiver]+numTokens */\n      dup2\n      swap1\n      sstore\n      pop\n        /* \"ERC_exp/ERC20_G12_6.0.sol\":2044:2052  receiver */\n      dup3\n        /* \"ERC_exp/ERC20_G12_6.0.sol\":2023:2064  Transfer(msg.sender, receiver, numTokens) */\n      0xffffffffffffffffffffffffffffffffffffffff\n      and\n        /* \"ERC_exp/ERC20_G12_6.0.sol\":2032:2042  msg.sender */\n      caller\n        /* \"ERC_exp/ERC20_G12_6.0.sol\":2023:2064  Transfer(msg.sender, receiver, numTokens) */\n      0xffffffffffffffffffffffffffffffffffffffff\n      and\n      0xddf252ad1be2c89b69c2b068fc378daa952ba7f163c4a11628f55a4df523b3ef\n        /* \"ERC_exp/ERC20_G12_6.0.sol\":2054:2063  numTokens */\n      dup5\n        /* \"ERC_exp/ERC20_G12_6.0.sol\":2023:2064  Transfer(msg.sender, receiver, numTokens) */\n      mload(0x40)\n      tag_116\n      swap2\n      swap1\n      tag_34\n      jump\t// in\n    tag_116:\n      mload(0x40)\n      dup1\n      swap2\n      sub\n      swap1\n      log3\n        /* \"ERC_exp/ERC20_G12_6.0.sol\":2082:2086  true */\n      0x01\n        /* \"ERC_exp/ERC20_G12_6.0.sol\":2075:2086  return true */\n      swap1\n      pop\n        /* \"ERC_exp/ERC20_G12_6.0.sol\":1744:2094  function transfer(address receiver, uint256 numTokens) public override returns (bool) {\r... */\n      swap3\n      swap2\n      pop\n      pop\n      jump\t// out\n        /* \"ERC_exp/ERC20_G12_6.0.sol\":2334:2472  function allowance(address owner, address delegate) public override view returns (uint) {\r... */\n    tag_64:\n        /* \"ERC_exp/ERC20_G12_6.0.sol\":2416:2420  uint */\n      0x00\n        /* \"ERC_exp/ERC20_G12_6.0.sol\":2440:2447  allowed */\n      0x03\n        /* \"ERC_exp/ERC20_G12_6.0.sol\":2440:2454  allowed[owner] */\n      0x00\n        /* \"ERC_exp/ERC20_G12_6.0.sol\":2448:2453  owner */\n      dup5\n        /* \"ERC_exp/ERC20_G12_6.0.sol\":2440:2454  allowed[owner] */\n      0xffffffffffffffffffffffffffffffffffffffff\n      and\n      0xffffffffffffffffffffffffffffffffffffffff\n      and\n      dup2\n      mstore\n      0x20\n      add\n      swap1\n      dup2\n      mstore\n      0x20\n      add\n      0x00\n      keccak256\n        /* \"ERC_exp/ERC20_G12_6.0.sol\":2440:2464  allowed[owner][delegate] */\n      0x00\n        /* \"ERC_exp/ERC20_G12_6.0.sol\":2455:2463  delegate */\n      dup4\n        /* \"ERC_exp/ERC20_G12_6.0.sol\":2440:2464  allowed[owner][delegate] */\n      0xffffffffffffffffffffffffffffffffffffffff\n      and\n      0xffffffffffffffffffffffffffffffffffffffff\n      and\n      dup2\n      mstore\n      0x20\n      add\n      swap1\n      dup2\n      mstore\n      0x20\n      add\n      0x00\n      keccak256\n      sload\n        /* \"ERC_exp/ERC20_G12_6.0.sol\":2433:2464  return allowed[owner][delegate] */\n      swap1\n      pop\n        /* \"ERC_exp/ERC20_G12_6.0.sol\":2334:2472  function allowance(address owner, address delegate) public override view returns (uint) {\r... */\n      swap3\n      swap2\n      pop\n      pop\n      jump\t// out\n        /* \"ERC_exp/ERC20_G12_6.0.sol\":4805:5027  function _updateDrink(string memory name,uint price,uint number) public  returns (bool){\r... */\n    tag_69:\n        /* \"ERC_exp/ERC20_G12_6.0.sol\":4887:4891  bool */\n      0x00\n        /* \"ERC_exp/ERC20_G12_6.0.sol\":3115:3157  0x5B38Da6a701c568545dCfcB03FcB875f56beddC4 */\n      0x5b38da6a701c568545dcfcb03fcb875f56beddc4\n        /* \"ERC_exp/ERC20_G12_6.0.sol\":4911:4933  msg.sender==OwnerDrink */\n      0xffffffffffffffffffffffffffffffffffffffff\n      and\n        /* \"ERC_exp/ERC20_G12_6.0.sol\":4911:4921  msg.sender */\n      caller\n        /* \"ERC_exp/ERC20_G12_6.0.sol\":4911:4933  msg.sender==OwnerDrink */\n      0xffffffffffffffffffffffffffffffffffffffff\n      and\n      eq\n        /* \"ERC_exp/ERC20_G12_6.0.sol\":4903:4934  require(msg.sender==OwnerDrink) */\n      tag_119\n      jumpi\n      0x00\n      dup1\n      revert\n    tag_119:\n        /* \"ERC_exp/ERC20_G12_6.0.sol\":4959:4964  price */\n      dup3\n        /* \"ERC_exp/ERC20_G12_6.0.sol\":4945:4952  DrinkNP */\n      0x05\n        /* \"ERC_exp/ERC20_G12_6.0.sol\":4953:4957  name */\n      dup6\n        /* \"ERC_exp/ERC20_G12_6.0.sol\":4945:4958  DrinkNP[name] */\n      mload(0x40)\n      tag_120\n      swap2\n      swap1\n      tag_75\n      jump\t// in\n    tag_120:\n      swap1\n      dup2\n      mstore\n      0x20\n      add\n      mload(0x40)\n      dup1\n      swap2\n      sub\n      swap1\n      keccak256\n        /* \"ERC_exp/ERC20_G12_6.0.sol\":4945:4964  DrinkNP[name]=price */\n      dup2\n      swap1\n      sstore\n      pop\n        /* \"ERC_exp/ERC20_G12_6.0.sol\":4989:4995  number */\n      dup2\n        /* \"ERC_exp/ERC20_G12_6.0.sol\":4975:4982  DrinkNN */\n      0x04\n        /* \"ERC_exp/ERC20_G12_6.0.sol\":4983:4987  name */\n      dup6\n        /* \"ERC_exp/ERC20_G12_6.0.sol\":4975:4988  DrinkNN[name] */\n      mload(0x40)\n      tag_121\n      swap2\n      swap1\n      tag_75\n      jump\t// in\n    tag_121:\n      swap1\n      dup2\n      mstore\n      0x20\n      add\n      mload(0x40)\n      dup1\n      swap2\n      sub\n      swap1\n      keccak256\n        /* \"ERC_exp/ERC20_G12_6.0.sol\":4975:4995  DrinkNN[name]=number */\n      dup2\n      swap1\n      sstore\n      pop\n        /* \"ERC_exp/ERC20_G12_6.0.sol\":5013:5017  true */\n      0x01\n        /* \"ERC_exp/ERC20_G12_6.0.sol\":5006:5017  return true */\n      swap1\n      pop\n        /* \"ERC_exp/ERC20_G12_6.0.sol\":4805:5027  function _updateDrink(string memory name,uint price,uint number) public  returns (bool){\r... */\n      swap4\n      swap3\n      pop\n      pop\n      pop\n      jump\t// out\n    tag_88:\n      dup3\n      dup1\n      sload\n      tag_122\n      swap1\n      tag_104\n      jump\t// in\n    tag_122:\n      swap1\n      0x00\n      mstore\n      keccak256(0x00, 0x20)\n      swap1\n      0x1f\n      add\n      0x20\n      swap1\n      div\n      dup2\n      add\n      swap3\n      dup3\n      tag_124\n      jumpi\n      0x00\n      dup6\n      sstore\n      jump(tag_123)\n    tag_124:\n      dup3\n      0x1f\n      lt\n      tag_125\n      jumpi\n      dup1\n      mload\n      not(0xff)\n      and\n      dup4\n      dup1\n      add\n      or\n      dup6\n      sstore\n      jump(tag_123)\n    tag_125:\n      dup3\n      dup1\n      add\n      0x01\n      add\n      dup6\n      sstore\n      dup3\n      iszero\n      tag_123\n      jumpi\n      swap2\n      dup3\n      add\n    tag_126:\n      dup3\n      dup2\n      gt\n      iszero\n      tag_127\n      jumpi\n      dup3\n      mload\n      dup3\n      sstore\n      swap2\n      0x20\n      add\n      swap2\n      swap1\n      0x01\n      add\n      swap1\n      jump(tag_126)\n    tag_127:\n    tag_123:\n      pop\n      swap1\n      pop\n      tag_128\n      swap2\n      swap1\n      tag_129\n      jump\t// in\n    tag_128:\n      pop\n      swap1\n      jump\t// out\n    tag_129:\n    tag_130:\n      dup1\n      dup3\n      gt\n      iszero\n      tag_131\n      jumpi\n      0x00\n      dup2\n      0x00\n      swap1\n      sstore\n      pop\n      0x01\n      add\n      jump(tag_130)\n    tag_131:\n      pop\n      swap1\n      jump\t// out\n        /* \"#utility.yul\":7:419   */\n    tag_133:\n        /* \"#utility.yul\":85:90   */\n      0x00\n        /* \"#utility.yul\":110:176   */\n      tag_135\n        /* \"#utility.yul\":126:175   */\n      tag_136\n        /* \"#utility.yul\":168:174   */\n      dup5\n        /* \"#utility.yul\":126:175   */\n      tag_137\n      jump\t// in\n    tag_136:\n        /* \"#utility.yul\":110:176   */\n      tag_138\n      jump\t// in\n    tag_135:\n        /* \"#utility.yul\":101:176   */\n      swap1\n      pop\n        /* \"#utility.yul\":199:205   */\n      dup3\n        /* \"#utility.yul\":192:197   */\n      dup2\n        /* \"#utility.yul\":185:206   */\n      mstore\n        /* \"#utility.yul\":237:241   */\n      0x20\n        /* \"#utility.yul\":230:235   */\n      dup2\n        /* \"#utility.yul\":226:242   */\n      add\n        /* \"#utility.yul\":275:278   */\n      dup5\n        /* \"#utility.yul\":266:272   */\n      dup5\n        /* \"#utility.yul\":261:264   */\n      dup5\n        /* \"#utility.yul\":257:273   */\n      add\n        /* \"#utility.yul\":254:279   */\n      gt\n        /* \"#utility.yul\":251:363   */\n      iszero\n      tag_139\n      jumpi\n        /* \"#utility.yul\":282:361   */\n      tag_140\n      tag_141\n      jump\t// in\n    tag_140:\n        /* \"#utility.yul\":251:363   */\n    tag_139:\n        /* \"#utility.yul\":372:413   */\n      tag_142\n        /* \"#utility.yul\":406:412   */\n      dup5\n        /* \"#utility.yul\":401:404   */\n      dup3\n        /* \"#utility.yul\":396:399   */\n      dup6\n        /* \"#utility.yul\":372:413   */\n      tag_143\n      jump\t// in\n    tag_142:\n        /* \"#utility.yul\":91:419   */\n      pop\n        /* \"#utility.yul\":7:419   */\n      swap4\n      swap3\n      pop\n      pop\n      pop\n      jump\t// out\n        /* \"#utility.yul\":425:564   */\n    tag_144:\n        /* \"#utility.yul\":471:476   */\n      0x00\n        /* \"#utility.yul\":509:515   */\n      dup2\n        /* \"#utility.yul\":496:516   */\n      calldataload\n        /* \"#utility.yul\":487:516   */\n      swap1\n      pop\n        /* \"#utility.yul\":525:558   */\n      tag_146\n        /* \"#utility.yul\":552:557   */\n      dup2\n        /* \"#utility.yul\":525:558   */\n      tag_147\n      jump\t// in\n    tag_146:\n        /* \"#utility.yul\":425:564   */\n      swap3\n      swap2\n      pop\n      pop\n      jump\t// out\n        /* \"#utility.yul\":584:924   */\n    tag_148:\n        /* \"#utility.yul\":640:645   */\n      0x00\n        /* \"#utility.yul\":689:692   */\n      dup3\n        /* \"#utility.yul\":682:686   */\n      0x1f\n        /* \"#utility.yul\":674:680   */\n      dup4\n        /* \"#utility.yul\":670:687   */\n      add\n        /* \"#utility.yul\":666:693   */\n      slt\n        /* \"#utility.yul\":656:778   */\n      tag_150\n      jumpi\n        /* \"#utility.yul\":697:776   */\n      tag_151\n      tag_152\n      jump\t// in\n    tag_151:\n        /* \"#utility.yul\":656:778   */\n    tag_150:\n        /* \"#utility.yul\":814:820   */\n      dup2\n        /* \"#utility.yul\":801:821   */\n      calldataload\n        /* \"#utility.yul\":839:918   */\n      tag_153\n        /* \"#utility.yul\":914:917   */\n      dup5\n        /* \"#utility.yul\":906:912   */\n      dup3\n        /* \"#utility.yul\":899:903   */\n      0x20\n        /* \"#utility.yul\":891:897   */\n      dup7\n        /* \"#utility.yul\":887:904   */\n      add\n        /* \"#utility.yul\":839:918   */\n      tag_133\n      jump\t// in\n    tag_153:\n        /* \"#utility.yul\":830:918   */\n      swap2\n      pop\n        /* \"#utility.yul\":646:924   */\n      pop\n        /* \"#utility.yul\":584:924   */\n      swap3\n      swap2\n      pop\n      pop\n      jump\t// out\n        /* \"#utility.yul\":930:1069   */\n    tag_154:\n        /* \"#utility.yul\":976:981   */\n      0x00\n        /* \"#utility.yul\":1014:1020   */\n      dup2\n        /* \"#utility.yul\":1001:1021   */\n      calldataload\n        /* \"#utility.yul\":992:1021   */\n      swap1\n      pop\n        /* \"#utility.yul\":1030:1063   */\n      tag_156\n        /* \"#utility.yul\":1057:1062   */\n      dup2\n        /* \"#utility.yul\":1030:1063   */\n      tag_157\n      jump\t// in\n    tag_156:\n        /* \"#utility.yul\":930:1069   */\n      swap3\n      swap2\n      pop\n      pop\n      jump\t// out\n        /* \"#utility.yul\":1075:1404   */\n    tag_46:\n        /* \"#utility.yul\":1134:1140   */\n      0x00\n        /* \"#utility.yul\":1183:1185   */\n      0x20\n        /* \"#utility.yul\":1171:1180   */\n      dup3\n        /* \"#utility.yul\":1162:1169   */\n      dup5\n        /* \"#utility.yul\":1158:1181   */\n      sub\n        /* \"#utility.yul\":1154:1186   */\n      slt\n        /* \"#utility.yul\":1151:1270   */\n      iszero\n      tag_159\n      jumpi\n        /* \"#utility.yul\":1189:1268   */\n      tag_160\n      tag_161\n      jump\t// in\n    tag_160:\n        /* \"#utility.yul\":1151:1270   */\n    tag_159:\n        /* \"#utility.yul\":1309:1310   */\n      0x00\n        /* \"#utility.yul\":1334:1387   */\n      tag_162\n        /* \"#utility.yul\":1379:1386   */\n      dup5\n        /* \"#utility.yul\":1370:1376   */\n      dup3\n        /* \"#utility.yul\":1359:1368   */\n      dup6\n        /* \"#utility.yul\":1355:1377   */\n      add\n        /* \"#utility.yul\":1334:1387   */\n      tag_144\n      jump\t// in\n    tag_162:\n        /* \"#utility.yul\":1324:1387   */\n      swap2\n      pop\n        /* \"#utility.yul\":1280:1397   */\n      pop\n        /* \"#utility.yul\":1075:1404   */\n      swap3\n      swap2\n      pop\n      pop\n      jump\t// out\n        /* \"#utility.yul\":1410:1884   */\n    tag_63:\n        /* \"#utility.yul\":1478:1484   */\n      0x00\n        /* \"#utility.yul\":1486:1492   */\n      dup1\n        /* \"#utility.yul\":1535:1537   */\n      0x40\n        /* \"#utility.yul\":1523:1532   */\n      dup4\n        /* \"#utility.yul\":1514:1521   */\n      dup6\n        /* \"#utility.yul\":1510:1533   */\n      sub\n        /* \"#utility.yul\":1506:1538   */\n      slt\n        /* \"#utility.yul\":1503:1622   */\n      iszero\n      tag_164\n      jumpi\n        /* \"#utility.yul\":1541:1620   */\n      tag_165\n      tag_161\n      jump\t// in\n    tag_165:\n        /* \"#utility.yul\":1503:1622   */\n    tag_164:\n        /* \"#utility.yul\":1661:1662   */\n      0x00\n        /* \"#utility.yul\":1686:1739   */\n      tag_166\n        /* \"#utility.yul\":1731:1738   */\n      dup6\n        /* \"#utility.yul\":1722:1728   */\n      dup3\n        /* \"#utility.yul\":1711:1720   */\n      dup7\n        /* \"#utility.yul\":1707:1729   */\n      add\n        /* \"#utility.yul\":1686:1739   */\n      tag_144\n      jump\t// in\n    tag_166:\n        /* \"#utility.yul\":1676:1739   */\n      swap3\n      pop\n        /* \"#utility.yul\":1632:1749   */\n      pop\n        /* \"#utility.yul\":1788:1790   */\n      0x20\n        /* \"#utility.yul\":1814:1867   */\n      tag_167\n        /* \"#utility.yul\":1859:1866   */\n      dup6\n        /* \"#utility.yul\":1850:1856   */\n      dup3\n        /* \"#utility.yul\":1839:1848   */\n      dup7\n        /* \"#utility.yul\":1835:1857   */\n      add\n        /* \"#utility.yul\":1814:1867   */\n      tag_144\n      jump\t// in\n    tag_167:\n        /* \"#utility.yul\":1804:1867   */\n      swap2\n      pop\n        /* \"#utility.yul\":1759:1877   */\n      pop\n        /* \"#utility.yul\":1410:1884   */\n      swap3\n      pop\n      swap3\n      swap1\n      pop\n      jump\t// out\n        /* \"#utility.yul\":1890:2509   */\n    tag_37:\n        /* \"#utility.yul\":1967:1973   */\n      0x00\n        /* \"#utility.yul\":1975:1981   */\n      dup1\n        /* \"#utility.yul\":1983:1989   */\n      0x00\n        /* \"#utility.yul\":2032:2034   */\n      0x60\n        /* \"#utility.yul\":2020:2029   */\n      dup5\n        /* \"#utility.yul\":2011:2018   */\n      dup7\n        /* \"#utility.yul\":2007:2030   */\n      sub\n        /* \"#utility.yul\":2003:2035   */\n      slt\n        /* \"#utility.yul\":2000:2119   */\n      iszero\n      tag_169\n      jumpi\n        /* \"#utility.yul\":2038:2117   */\n      tag_170\n      tag_161\n      jump\t// in\n    tag_170:\n        /* \"#utility.yul\":2000:2119   */\n    tag_169:\n        /* \"#utility.yul\":2158:2159   */\n      0x00\n        /* \"#utility.yul\":2183:2236   */\n      tag_171\n        /* \"#utility.yul\":2228:2235   */\n      dup7\n        /* \"#utility.yul\":2219:2225   */\n      dup3\n        /* \"#utility.yul\":2208:2217   */\n      dup8\n        /* \"#utility.yul\":2204:2226   */\n      add\n        /* \"#utility.yul\":2183:2236   */\n      tag_144\n      jump\t// in\n    tag_171:\n        /* \"#utility.yul\":2173:2236   */\n      swap4\n      pop\n        /* \"#utility.yul\":2129:2246   */\n      pop\n        /* \"#utility.yul\":2285:2287   */\n      0x20\n        /* \"#utility.yul\":2311:2364   */\n      tag_172\n        /* \"#utility.yul\":2356:2363   */\n      dup7\n        /* \"#utility.yul\":2347:2353   */\n      dup3\n        /* \"#utility.yul\":2336:2345   */\n      dup8\n        /* \"#utility.yul\":2332:2354   */\n      add\n        /* \"#utility.yul\":2311:2364   */\n      tag_144\n      jump\t// in\n    tag_172:\n        /* \"#utility.yul\":2301:2364   */\n      swap3\n      pop\n        /* \"#utility.yul\":2256:2374   */\n      pop\n        /* \"#utility.yul\":2413:2415   */\n      0x40\n        /* \"#utility.yul\":2439:2492   */\n      tag_173\n        /* \"#utility.yul\":2484:2491   */\n      dup7\n        /* \"#utility.yul\":2475:2481   */\n      dup3\n        /* \"#utility.yul\":2464:2473   */\n      dup8\n        /* \"#utility.yul\":2460:2482   */\n      add\n        /* \"#utility.yul\":2439:2492   */\n      tag_154\n      jump\t// in\n    tag_173:\n        /* \"#utility.yul\":2429:2492   */\n      swap2\n      pop\n        /* \"#utility.yul\":2384:2502   */\n      pop\n        /* \"#utility.yul\":1890:2509   */\n      swap3\n      pop\n      swap3\n      pop\n      swap3\n      jump\t// out\n        /* \"#utility.yul\":2515:2989   */\n    tag_22:\n        /* \"#utility.yul\":2583:2589   */\n      0x00\n        /* \"#utility.yul\":2591:2597   */\n      dup1\n        /* \"#utility.yul\":2640:2642   */\n      0x40\n        /* \"#utility.yul\":2628:2637   */\n      dup4\n        /* \"#utility.yul\":2619:2626   */\n      dup6\n        /* \"#utility.yul\":2615:2638   */\n      sub\n        /* \"#utility.yul\":2611:2643   */\n      slt\n        /* \"#utility.yul\":2608:2727   */\n      iszero\n      tag_175\n      jumpi\n        /* \"#utility.yul\":2646:2725   */\n      tag_176\n      tag_161\n      jump\t// in\n    tag_176:\n        /* \"#utility.yul\":2608:2727   */\n    tag_175:\n        /* \"#utility.yul\":2766:2767   */\n      0x00\n        /* \"#utility.yul\":2791:2844   */\n      tag_177\n        /* \"#utility.yul\":2836:2843   */\n      dup6\n        /* \"#utility.yul\":2827:2833   */\n      dup3\n        /* \"#utility.yul\":2816:2825   */\n      dup7\n        /* \"#utility.yul\":2812:2834   */\n      add\n        /* \"#utility.yul\":2791:2844   */\n      tag_144\n      jump\t// in\n    tag_177:\n        /* \"#utility.yul\":2781:2844   */\n      swap3\n      pop\n        /* \"#utility.yul\":2737:2854   */\n      pop\n        /* \"#utility.yul\":2893:2895   */\n      0x20\n        /* \"#utility.yul\":2919:2972   */\n      tag_178\n        /* \"#utility.yul\":2964:2971   */\n      dup6\n        /* \"#utility.yul\":2955:2961   */\n      dup3\n        /* \"#utility.yul\":2944:2953   */\n      dup7\n        /* \"#utility.yul\":2940:2962   */\n      add\n        /* \"#utility.yul\":2919:2972   */\n      tag_154\n      jump\t// in\n    tag_178:\n        /* \"#utility.yul\":2909:2972   */\n      swap2\n      pop\n        /* \"#utility.yul\":2864:2982   */\n      pop\n        /* \"#utility.yul\":2515:2989   */\n      swap3\n      pop\n      swap3\n      swap1\n      pop\n      jump\t// out\n        /* \"#utility.yul\":2995:3649   */\n    tag_28:\n        /* \"#utility.yul\":3073:3079   */\n      0x00\n        /* \"#utility.yul\":3081:3087   */\n      dup1\n        /* \"#utility.yul\":3130:3132   */\n      0x40\n        /* \"#utility.yul\":3118:3127   */\n      dup4\n        /* \"#utility.yul\":3109:3116   */\n      dup6\n        /* \"#utility.yul\":3105:3128   */\n      sub\n        /* \"#utility.yul\":3101:3133   */\n      slt\n        /* \"#utility.yul\":3098:3217   */\n      iszero\n      tag_180\n      jumpi\n        /* \"#utility.yul\":3136:3215   */\n      tag_181\n      tag_161\n      jump\t// in\n    tag_181:\n        /* \"#utility.yul\":3098:3217   */\n    tag_180:\n        /* \"#utility.yul\":3284:3285   */\n      0x00\n        /* \"#utility.yul\":3273:3282   */\n      dup4\n        /* \"#utility.yul\":3269:3286   */\n      add\n        /* \"#utility.yul\":3256:3287   */\n      calldataload\n        /* \"#utility.yul\":3314:3332   */\n      0xffffffffffffffff\n        /* \"#utility.yul\":3306:3312   */\n      dup2\n        /* \"#utility.yul\":3303:3333   */\n      gt\n        /* \"#utility.yul\":3300:3417   */\n      iszero\n      tag_182\n      jumpi\n        /* \"#utility.yul\":3336:3415   */\n      tag_183\n      tag_184\n      jump\t// in\n    tag_183:\n        /* \"#utility.yul\":3300:3417   */\n    tag_182:\n        /* \"#utility.yul\":3441:3504   */\n      tag_185\n        /* \"#utility.yul\":3496:3503   */\n      dup6\n        /* \"#utility.yul\":3487:3493   */\n      dup3\n        /* \"#utility.yul\":3476:3485   */\n      dup7\n        /* \"#utility.yul\":3472:3494   */\n      add\n        /* \"#utility.yul\":3441:3504   */\n      tag_148\n      jump\t// in\n    tag_185:\n        /* \"#utility.yul\":3431:3504   */\n      swap3\n      pop\n        /* \"#utility.yul\":3227:3514   */\n      pop\n        /* \"#utility.yul\":3553:3555   */\n      0x20\n        /* \"#utility.yul\":3579:3632   */\n      tag_186\n        /* \"#utility.yul\":3624:3631   */\n      dup6\n        /* \"#utility.yul\":3615:3621   */\n      dup3\n        /* \"#utility.yul\":3604:3613   */\n      dup7\n        /* \"#utility.yul\":3600:3622   */\n      add\n        /* \"#utility.yul\":3579:3632   */\n      tag_154\n      jump\t// in\n    tag_186:\n        /* \"#utility.yul\":3569:3632   */\n      swap2\n      pop\n        /* \"#utility.yul\":3524:3642   */\n      pop\n        /* \"#utility.yul\":2995:3649   */\n      swap3\n      pop\n      swap3\n      swap1\n      pop\n      jump\t// out\n        /* \"#utility.yul\":3655:4454   */\n    tag_68:\n        /* \"#utility.yul\":3742:3748   */\n      0x00\n        /* \"#utility.yul\":3750:3756   */\n      dup1\n        /* \"#utility.yul\":3758:3764   */\n      0x00\n        /* \"#utility.yul\":3807:3809   */\n      0x60\n        /* \"#utility.yul\":3795:3804   */\n      dup5\n        /* \"#utility.yul\":3786:3793   */\n      dup7\n        /* \"#utility.yul\":3782:3805   */\n      sub\n        /* \"#utility.yul\":3778:3810   */\n      slt\n        /* \"#utility.yul\":3775:3894   */\n      iszero\n      tag_188\n      jumpi\n        /* \"#utility.yul\":3813:3892   */\n      tag_189\n      tag_161\n      jump\t// in\n    tag_189:\n        /* \"#utility.yul\":3775:3894   */\n    tag_188:\n        /* \"#utility.yul\":3961:3962   */\n      0x00\n        /* \"#utility.yul\":3950:3959   */\n      dup5\n        /* \"#utility.yul\":3946:3963   */\n      add\n        /* \"#utility.yul\":3933:3964   */\n      calldataload\n        /* \"#utility.yul\":3991:4009   */\n      0xffffffffffffffff\n        /* \"#utility.yul\":3983:3989   */\n      dup2\n        /* \"#utility.yul\":3980:4010   */\n      gt\n        /* \"#utility.yul\":3977:4094   */\n      iszero\n      tag_190\n      jumpi\n        /* \"#utility.yul\":4013:4092   */\n      tag_191\n      tag_184\n      jump\t// in\n    tag_191:\n        /* \"#utility.yul\":3977:4094   */\n    tag_190:\n        /* \"#utility.yul\":4118:4181   */\n      tag_192\n        /* \"#utility.yul\":4173:4180   */\n      dup7\n        /* \"#utility.yul\":4164:4170   */\n      dup3\n        /* \"#utility.yul\":4153:4162   */\n      dup8\n        /* \"#utility.yul\":4149:4171   */\n      add\n        /* \"#utility.yul\":4118:4181   */\n      tag_148\n      jump\t// in\n    tag_192:\n        /* \"#utility.yul\":4108:4181   */\n      swap4\n      pop\n        /* \"#utility.yul\":3904:4191   */\n      pop\n        /* \"#utility.yul\":4230:4232   */\n      0x20\n        /* \"#utility.yul\":4256:4309   */\n      tag_193\n        /* \"#utility.yul\":4301:4308   */\n      dup7\n        /* \"#utility.yul\":4292:4298   */\n      dup3\n        /* \"#utility.yul\":4281:4290   */\n      dup8\n        /* \"#utility.yul\":4277:4299   */\n      add\n        /* \"#utility.yul\":4256:4309   */\n      tag_154\n      jump\t// in\n    tag_193:\n        /* \"#utility.yul\":4246:4309   */\n      swap3\n      pop\n        /* \"#utility.yul\":4201:4319   */\n      pop\n        /* \"#utility.yul\":4358:4360   */\n      0x40\n        /* \"#utility.yul\":4384:4437   */\n      tag_194\n        /* \"#utility.yul\":4429:4436   */\n      dup7\n        /* \"#utility.yul\":4420:4426   */\n      dup3\n        /* \"#utility.yul\":4409:4418   */\n      dup8\n        /* \"#utility.yul\":4405:4427   */\n      add\n        /* \"#utility.yul\":4384:4437   */\n      tag_154\n      jump\t// in\n    tag_194:\n        /* \"#utility.yul\":4374:4437   */\n      swap2\n      pop\n        /* \"#utility.yul\":4329:4447   */\n      pop\n        /* \"#utility.yul\":3655:4454   */\n      swap3\n      pop\n      swap3\n      pop\n      swap3\n      jump\t// out\n        /* \"#utility.yul\":4460:4578   */\n    tag_195:\n        /* \"#utility.yul\":4547:4571   */\n      tag_197\n        /* \"#utility.yul\":4565:4570   */\n      dup2\n        /* \"#utility.yul\":4547:4571   */\n      tag_198\n      jump\t// in\n    tag_197:\n        /* \"#utility.yul\":4542:4545   */\n      dup3\n        /* \"#utility.yul\":4535:4572   */\n      mstore\n        /* \"#utility.yul\":4460:4578   */\n      pop\n      pop\n      jump\t// out\n        /* \"#utility.yul\":4584:4693   */\n    tag_199:\n        /* \"#utility.yul\":4665:4686   */\n      tag_201\n        /* \"#utility.yul\":4680:4685   */\n      dup2\n        /* \"#utility.yul\":4665:4686   */\n      tag_202\n      jump\t// in\n    tag_201:\n        /* \"#utility.yul\":4660:4663   */\n      dup3\n        /* \"#utility.yul\":4653:4687   */\n      mstore\n        /* \"#utility.yul\":4584:4693   */\n      pop\n      pop\n      jump\t// out\n        /* \"#utility.yul\":4699:5063   */\n    tag_203:\n        /* \"#utility.yul\":4787:4790   */\n      0x00\n        /* \"#utility.yul\":4815:4854   */\n      tag_205\n        /* \"#utility.yul\":4848:4853   */\n      dup3\n        /* \"#utility.yul\":4815:4854   */\n      tag_206\n      jump\t// in\n    tag_205:\n        /* \"#utility.yul\":4870:4941   */\n      tag_207\n        /* \"#utility.yul\":4934:4940   */\n      dup2\n        /* \"#utility.yul\":4929:4932   */\n      dup6\n        /* \"#utility.yul\":4870:4941   */\n      tag_208\n      jump\t// in\n    tag_207:\n        /* \"#utility.yul\":4863:4941   */\n      swap4\n      pop\n        /* \"#utility.yul\":4950:5002   */\n      tag_209\n        /* \"#utility.yul\":4995:5001   */\n      dup2\n        /* \"#utility.yul\":4990:4993   */\n      dup6\n        /* \"#utility.yul\":4983:4987   */\n      0x20\n        /* \"#utility.yul\":4976:4981   */\n      dup7\n        /* \"#utility.yul\":4972:4988   */\n      add\n        /* \"#utility.yul\":4950:5002   */\n      tag_210\n      jump\t// in\n    tag_209:\n        /* \"#utility.yul\":5027:5056   */\n      tag_211\n        /* \"#utility.yul\":5049:5055   */\n      dup2\n        /* \"#utility.yul\":5027:5056   */\n      tag_212\n      jump\t// in\n    tag_211:\n        /* \"#utility.yul\":5022:5025   */\n      dup5\n        /* \"#utility.yul\":5018:5057   */\n      add\n        /* \"#utility.yul\":5011:5057   */\n      swap2\n      pop\n        /* \"#utility.yul\":4791:5063   */\n      pop\n        /* \"#utility.yul\":4699:5063   */\n      swap3\n      swap2\n      pop\n      pop\n      jump\t// out\n        /* \"#utility.yul\":5069:5446   */\n    tag_213:\n        /* \"#utility.yul\":5175:5178   */\n      0x00\n        /* \"#utility.yul\":5203:5242   */\n      tag_215\n        /* \"#utility.yul\":5236:5241   */\n      dup3\n        /* \"#utility.yul\":5203:5242   */\n      tag_206\n      jump\t// in\n    tag_215:\n        /* \"#utility.yul\":5258:5347   */\n      tag_216\n        /* \"#utility.yul\":5340:5346   */\n      dup2\n        /* \"#utility.yul\":5335:5338   */\n      dup6\n        /* \"#utility.yul\":5258:5347   */\n      tag_217\n      jump\t// in\n    tag_216:\n        /* \"#utility.yul\":5251:5347   */\n      swap4\n      pop\n        /* \"#utility.yul\":5356:5408   */\n      tag_218\n        /* \"#utility.yul\":5401:5407   */\n      dup2\n        /* \"#utility.yul\":5396:5399   */\n      dup6\n        /* \"#utility.yul\":5389:5393   */\n      0x20\n        /* \"#utility.yul\":5382:5387   */\n      dup7\n        /* \"#utility.yul\":5378:5394   */\n      add\n        /* \"#utility.yul\":5356:5408   */\n      tag_210\n      jump\t// in\n    tag_218:\n        /* \"#utility.yul\":5433:5439   */\n      dup1\n        /* \"#utility.yul\":5428:5431   */\n      dup5\n        /* \"#utility.yul\":5424:5440   */\n      add\n        /* \"#utility.yul\":5417:5440   */\n      swap2\n      pop\n        /* \"#utility.yul\":5179:5446   */\n      pop\n        /* \"#utility.yul\":5069:5446   */\n      swap3\n      swap2\n      pop\n      pop\n      jump\t// out\n        /* \"#utility.yul\":5476:6321   */\n    tag_219:\n        /* \"#utility.yul\":5579:5582   */\n      0x00\n        /* \"#utility.yul\":5616:5621   */\n      dup2\n        /* \"#utility.yul\":5610:5622   */\n      sload\n        /* \"#utility.yul\":5645:5681   */\n      tag_221\n        /* \"#utility.yul\":5671:5680   */\n      dup2\n        /* \"#utility.yul\":5645:5681   */\n      tag_104\n      jump\t// in\n    tag_221:\n        /* \"#utility.yul\":5697:5786   */\n      tag_222\n        /* \"#utility.yul\":5779:5785   */\n      dup2\n        /* \"#utility.yul\":5774:5777   */\n      dup7\n        /* \"#utility.yul\":5697:5786   */\n      tag_217\n      jump\t// in\n    tag_222:\n        /* \"#utility.yul\":5690:5786   */\n      swap5\n      pop\n        /* \"#utility.yul\":5817:5818   */\n      0x01\n        /* \"#utility.yul\":5806:5815   */\n      dup3\n        /* \"#utility.yul\":5802:5819   */\n      and\n        /* \"#utility.yul\":5833:5834   */\n      0x00\n        /* \"#utility.yul\":5828:5965   */\n      dup2\n      eq\n      tag_224\n      jumpi\n        /* \"#utility.yul\":5979:5980   */\n      0x01\n        /* \"#utility.yul\":5974:6315   */\n      dup2\n      eq\n      tag_225\n      jumpi\n        /* \"#utility.yul\":5795:6315   */\n      jump(tag_223)\n        /* \"#utility.yul\":5828:5965   */\n    tag_224:\n        /* \"#utility.yul\":5912:5916   */\n      0xff\n        /* \"#utility.yul\":5908:5917   */\n      not\n        /* \"#utility.yul\":5897:5906   */\n      dup4\n        /* \"#utility.yul\":5893:5918   */\n      and\n        /* \"#utility.yul\":5888:5891   */\n      dup7\n        /* \"#utility.yul\":5881:5919   */\n      mstore\n        /* \"#utility.yul\":5948:5954   */\n      dup2\n        /* \"#utility.yul\":5943:5946   */\n      dup7\n        /* \"#utility.yul\":5939:5955   */\n      add\n        /* \"#utility.yul\":5932:5955   */\n      swap4\n      pop\n        /* \"#utility.yul\":5828:5965   */\n      jump(tag_223)\n        /* \"#utility.yul\":5974:6315   */\n    tag_225:\n        /* \"#utility.yul\":6041:6079   */\n      tag_226\n        /* \"#utility.yul\":6073:6078   */\n      dup6\n        /* \"#utility.yul\":6041:6079   */\n      tag_227\n      jump\t// in\n    tag_226:\n        /* \"#utility.yul\":6101:6102   */\n      0x00\n        /* \"#utility.yul\":6115:6269   */\n    tag_228:\n        /* \"#utility.yul\":6129:6135   */\n      dup4\n        /* \"#utility.yul\":6126:6127   */\n      dup2\n        /* \"#utility.yul\":6123:6136   */\n      lt\n        /* \"#utility.yul\":6115:6269   */\n      iszero\n      tag_230\n      jumpi\n        /* \"#utility.yul\":6203:6210   */\n      dup2\n        /* \"#utility.yul\":6197:6211   */\n      sload\n        /* \"#utility.yul\":6193:6194   */\n      dup2\n        /* \"#utility.yul\":6188:6191   */\n      dup10\n        /* \"#utility.yul\":6184:6195   */\n      add\n        /* \"#utility.yul\":6177:6212   */\n      mstore\n        /* \"#utility.yul\":6253:6254   */\n      0x01\n        /* \"#utility.yul\":6244:6251   */\n      dup3\n        /* \"#utility.yul\":6240:6255   */\n      add\n        /* \"#utility.yul\":6229:6255   */\n      swap2\n      pop\n        /* \"#utility.yul\":6151:6155   */\n      0x20\n        /* \"#utility.yul\":6148:6149   */\n      dup2\n        /* \"#utility.yul\":6144:6156   */\n      add\n        /* \"#utility.yul\":6139:6156   */\n      swap1\n      pop\n        /* \"#utility.yul\":6115:6269   */\n      jump(tag_228)\n    tag_230:\n        /* \"#utility.yul\":6298:6304   */\n      dup4\n        /* \"#utility.yul\":6293:6296   */\n      dup9\n        /* \"#utility.yul\":6289:6305   */\n      add\n        /* \"#utility.yul\":6282:6305   */\n      swap6\n      pop\n        /* \"#utility.yul\":5981:6315   */\n      pop\n      pop\n        /* \"#utility.yul\":5795:6315   */\n    tag_223:\n      pop\n        /* \"#utility.yul\":5583:6321   */\n      pop\n      pop\n        /* \"#utility.yul\":5476:6321   */\n      swap3\n      swap2\n      pop\n      pop\n      jump\t// out\n        /* \"#utility.yul\":6327:6445   */\n    tag_231:\n        /* \"#utility.yul\":6414:6438   */\n      tag_233\n        /* \"#utility.yul\":6432:6437   */\n      dup2\n        /* \"#utility.yul\":6414:6438   */\n      tag_234\n      jump\t// in\n    tag_233:\n        /* \"#utility.yul\":6409:6412   */\n      dup3\n        /* \"#utility.yul\":6402:6439   */\n      mstore\n        /* \"#utility.yul\":6327:6445   */\n      pop\n      pop\n      jump\t// out\n        /* \"#utility.yul\":6451:6563   */\n    tag_235:\n        /* \"#utility.yul\":6534:6556   */\n      tag_237\n        /* \"#utility.yul\":6550:6555   */\n      dup2\n        /* \"#utility.yul\":6534:6556   */\n      tag_238\n      jump\t// in\n    tag_237:\n        /* \"#utility.yul\":6529:6532   */\n      dup3\n        /* \"#utility.yul\":6522:6557   */\n      mstore\n        /* \"#utility.yul\":6451:6563   */\n      pop\n      pop\n      jump\t// out\n        /* \"#utility.yul\":6569:6844   */\n    tag_75:\n        /* \"#utility.yul\":6701:6704   */\n      0x00\n        /* \"#utility.yul\":6723:6818   */\n      tag_240\n        /* \"#utility.yul\":6814:6817   */\n      dup3\n        /* \"#utility.yul\":6805:6811   */\n      dup5\n        /* \"#utility.yul\":6723:6818   */\n      tag_213\n      jump\t// in\n    tag_240:\n        /* \"#utility.yul\":6716:6818   */\n      swap2\n      pop\n        /* \"#utility.yul\":6835:6838   */\n      dup2\n        /* \"#utility.yul\":6828:6838   */\n      swap1\n      pop\n        /* \"#utility.yul\":6569:6844   */\n      swap3\n      swap2\n      pop\n      pop\n      jump\t// out\n        /* \"#utility.yul\":6850:7119   */\n    tag_110:\n        /* \"#utility.yul\":6979:6982   */\n      0x00\n        /* \"#utility.yul\":7001:7093   */\n      tag_242\n        /* \"#utility.yul\":7089:7092   */\n      dup3\n        /* \"#utility.yul\":7080:7086   */\n      dup5\n        /* \"#utility.yul\":7001:7093   */\n      tag_219\n      jump\t// in\n    tag_242:\n        /* \"#utility.yul\":6994:7093   */\n      swap2\n      pop\n        /* \"#utility.yul\":7110:7113   */\n      dup2\n        /* \"#utility.yul\":7103:7113   */\n      swap1\n      pop\n        /* \"#utility.yul\":6850:7119   */\n      swap3\n      swap2\n      pop\n      pop\n      jump\t// out\n        /* \"#utility.yul\":7125:7658   */\n    tag_91:\n        /* \"#utility.yul\":7294:7298   */\n      0x00\n        /* \"#utility.yul\":7332:7334   */\n      0x60\n        /* \"#utility.yul\":7321:7330   */\n      dup3\n        /* \"#utility.yul\":7317:7335   */\n      add\n        /* \"#utility.yul\":7309:7335   */\n      swap1\n      pop\n        /* \"#utility.yul\":7345:7416   */\n      tag_244\n        /* \"#utility.yul\":7413:7414   */\n      0x00\n        /* \"#utility.yul\":7402:7411   */\n      dup4\n        /* \"#utility.yul\":7398:7415   */\n      add\n        /* \"#utility.yul\":7389:7395   */\n      dup7\n        /* \"#utility.yul\":7345:7416   */\n      tag_195\n      jump\t// in\n    tag_244:\n        /* \"#utility.yul\":7463:7472   */\n      dup2\n        /* \"#utility.yul\":7457:7461   */\n      dup2\n        /* \"#utility.yul\":7453:7473   */\n      sub\n        /* \"#utility.yul\":7448:7450   */\n      0x20\n        /* \"#utility.yul\":7437:7446   */\n      dup4\n        /* \"#utility.yul\":7433:7451   */\n      add\n        /* \"#utility.yul\":7426:7474   */\n      mstore\n        /* \"#utility.yul\":7491:7569   */\n      tag_245\n        /* \"#utility.yul\":7564:7568   */\n      dup2\n        /* \"#utility.yul\":7555:7561   */\n      dup6\n        /* \"#utility.yul\":7491:7569   */\n      tag_203\n      jump\t// in\n    tag_245:\n        /* \"#utility.yul\":7483:7569   */\n      swap1\n      pop\n        /* \"#utility.yul\":7579:7651   */\n      tag_246\n        /* \"#utility.yul\":7647:7649   */\n      0x40\n        /* \"#utility.yul\":7636:7645   */\n      dup4\n        /* \"#utility.yul\":7632:7650   */\n      add\n        /* \"#utility.yul\":7623:7629   */\n      dup5\n        /* \"#utility.yul\":7579:7651   */\n      tag_231\n      jump\t// in\n    tag_246:\n        /* \"#utility.yul\":7125:7658   */\n      swap5\n      swap4\n      pop\n      pop\n      pop\n      pop\n      jump\t// out\n        /* \"#utility.yul\":7664:7874   */\n    tag_25:\n        /* \"#utility.yul\":7751:7755   */\n      0x00\n        /* \"#utility.yul\":7789:7791   */\n      0x20\n        /* \"#utility.yul\":7778:7787   */\n      dup3\n        /* \"#utility.yul\":7774:7792   */\n      add\n        /* \"#utility.yul\":7766:7792   */\n      swap1\n      pop\n        /* \"#utility.yul\":7802:7867   */\n      tag_248\n        /* \"#utility.yul\":7864:7865   */\n      0x00\n        /* \"#utility.yul\":7853:7862   */\n      dup4\n        /* \"#utility.yul\":7849:7866   */\n      add\n        /* \"#utility.yul\":7840:7846   */\n      dup5\n        /* \"#utility.yul\":7802:7867   */\n      tag_199\n      jump\t// in\n    tag_248:\n        /* \"#utility.yul\":7664:7874   */\n      swap3\n      swap2\n      pop\n      pop\n      jump\t// out\n        /* \"#utility.yul\":7880:8193   */\n    tag_19:\n        /* \"#utility.yul\":7993:7997   */\n      0x00\n        /* \"#utility.yul\":8031:8033   */\n      0x20\n        /* \"#utility.yul\":8020:8029   */\n      dup3\n        /* \"#utility.yul\":8016:8034   */\n      add\n        /* \"#utility.yul\":8008:8034   */\n      swap1\n      pop\n        /* \"#utility.yul\":8080:8089   */\n      dup2\n        /* \"#utility.yul\":8074:8078   */\n      dup2\n        /* \"#utility.yul\":8070:8090   */\n      sub\n        /* \"#utility.yul\":8066:8067   */\n      0x00\n        /* \"#utility.yul\":8055:8064   */\n      dup4\n        /* \"#utility.yul\":8051:8068   */\n      add\n        /* \"#utility.yul\":8044:8091   */\n      mstore\n        /* \"#utility.yul\":8108:8186   */\n      tag_250\n        /* \"#utility.yul\":8181:8185   */\n      dup2\n        /* \"#utility.yul\":8172:8178   */\n      dup5\n        /* \"#utility.yul\":8108:8186   */\n      tag_203\n      jump\t// in\n    tag_250:\n        /* \"#utility.yul\":8100:8186   */\n      swap1\n      pop\n        /* \"#utility.yul\":7880:8193   */\n      swap3\n      swap2\n      pop\n      pop\n      jump\t// out\n        /* \"#utility.yul\":8199:8622   */\n    tag_49:\n        /* \"#utility.yul\":8340:8344   */\n      0x00\n        /* \"#utility.yul\":8378:8380   */\n      0x40\n        /* \"#utility.yul\":8367:8376   */\n      dup3\n        /* \"#utility.yul\":8363:8381   */\n      add\n        /* \"#utility.yul\":8355:8381   */\n      swap1\n      pop\n        /* \"#utility.yul\":8427:8436   */\n      dup2\n        /* \"#utility.yul\":8421:8425   */\n      dup2\n        /* \"#utility.yul\":8417:8437   */\n      sub\n        /* \"#utility.yul\":8413:8414   */\n      0x00\n        /* \"#utility.yul\":8402:8411   */\n      dup4\n        /* \"#utility.yul\":8398:8415   */\n      add\n        /* \"#utility.yul\":8391:8438   */\n      mstore\n        /* \"#utility.yul\":8455:8533   */\n      tag_252\n        /* \"#utility.yul\":8528:8532   */\n      dup2\n        /* \"#utility.yul\":8519:8525   */\n      dup6\n        /* \"#utility.yul\":8455:8533   */\n      tag_203\n      jump\t// in\n    tag_252:\n        /* \"#utility.yul\":8447:8533   */\n      swap1\n      pop\n        /* \"#utility.yul\":8543:8615   */\n      tag_253\n        /* \"#utility.yul\":8611:8613   */\n      0x20\n        /* \"#utility.yul\":8600:8609   */\n      dup4\n        /* \"#utility.yul\":8596:8614   */\n      add\n        /* \"#utility.yul\":8587:8593   */\n      dup5\n        /* \"#utility.yul\":8543:8615   */\n      tag_231\n      jump\t// in\n    tag_253:\n        /* \"#utility.yul\":8199:8622   */\n      swap4\n      swap3\n      pop\n      pop\n      pop\n      jump\t// out\n        /* \"#utility.yul\":8628:8850   */\n    tag_34:\n        /* \"#utility.yul\":8721:8725   */\n      0x00\n        /* \"#utility.yul\":8759:8761   */\n      0x20\n        /* \"#utility.yul\":8748:8757   */\n      dup3\n        /* \"#utility.yul\":8744:8762   */\n      add\n        /* \"#utility.yul\":8736:8762   */\n      swap1\n      pop\n        /* \"#utility.yul\":8772:8843   */\n      tag_255\n        /* \"#utility.yul\":8840:8841   */\n      0x00\n        /* \"#utility.yul\":8829:8838   */\n      dup4\n        /* \"#utility.yul\":8825:8842   */\n      add\n        /* \"#utility.yul\":8816:8822   */\n      dup5\n        /* \"#utility.yul\":8772:8843   */\n      tag_231\n      jump\t// in\n    tag_255:\n        /* \"#utility.yul\":8628:8850   */\n      swap3\n      swap2\n      pop\n      pop\n      jump\t// out\n        /* \"#utility.yul\":8856:9070   */\n    tag_43:\n        /* \"#utility.yul\":8945:8949   */\n      0x00\n        /* \"#utility.yul\":8983:8985   */\n      0x20\n        /* \"#utility.yul\":8972:8981   */\n      dup3\n        /* \"#utility.yul\":8968:8986   */\n      add\n        /* \"#utility.yul\":8960:8986   */\n      swap1\n      pop\n        /* \"#utility.yul\":8996:9063   */\n      tag_257\n        /* \"#utility.yul\":9060:9061   */\n      0x00\n        /* \"#utility.yul\":9049:9058   */\n      dup4\n        /* \"#utility.yul\":9045:9062   */\n      add\n        /* \"#utility.yul\":9036:9042   */\n      dup5\n        /* \"#utility.yul\":8996:9063   */\n      tag_235\n      jump\t// in\n    tag_257:\n        /* \"#utility.yul\":8856:9070   */\n      swap3\n      swap2\n      pop\n      pop\n      jump\t// out\n        /* \"#utility.yul\":9076:9205   */\n    tag_138:\n        /* \"#utility.yul\":9110:9116   */\n      0x00\n        /* \"#utility.yul\":9137:9157   */\n      tag_259\n      tag_260\n      jump\t// in\n    tag_259:\n        /* \"#utility.yul\":9127:9157   */\n      swap1\n      pop\n        /* \"#utility.yul\":9166:9199   */\n      tag_261\n        /* \"#utility.yul\":9194:9198   */\n      dup3\n        /* \"#utility.yul\":9186:9192   */\n      dup3\n        /* \"#utility.yul\":9166:9199   */\n      tag_262\n      jump\t// in\n    tag_261:\n        /* \"#utility.yul\":9076:9205   */\n      swap2\n      swap1\n      pop\n      jump\t// out\n        /* \"#utility.yul\":9211:9286   */\n    tag_260:\n        /* \"#utility.yul\":9244:9250   */\n      0x00\n        /* \"#utility.yul\":9277:9279   */\n      0x40\n        /* \"#utility.yul\":9271:9280   */\n      mload\n        /* \"#utility.yul\":9261:9280   */\n      swap1\n      pop\n        /* \"#utility.yul\":9211:9286   */\n      swap1\n      jump\t// out\n        /* \"#utility.yul\":9292:9600   */\n    tag_137:\n        /* \"#utility.yul\":9354:9358   */\n      0x00\n        /* \"#utility.yul\":9444:9462   */\n      0xffffffffffffffff\n        /* \"#utility.yul\":9436:9442   */\n      dup3\n        /* \"#utility.yul\":9433:9463   */\n      gt\n        /* \"#utility.yul\":9430:9486   */\n      iszero\n      tag_265\n      jumpi\n        /* \"#utility.yul\":9466:9484   */\n      tag_266\n      tag_267\n      jump\t// in\n    tag_266:\n        /* \"#utility.yul\":9430:9486   */\n    tag_265:\n        /* \"#utility.yul\":9504:9533   */\n      tag_268\n        /* \"#utility.yul\":9526:9532   */\n      dup3\n        /* \"#utility.yul\":9504:9533   */\n      tag_212\n      jump\t// in\n    tag_268:\n        /* \"#utility.yul\":9496:9533   */\n      swap1\n      pop\n        /* \"#utility.yul\":9588:9592   */\n      0x20\n        /* \"#utility.yul\":9582:9586   */\n      dup2\n        /* \"#utility.yul\":9578:9593   */\n      add\n        /* \"#utility.yul\":9570:9593   */\n      swap1\n      pop\n        /* \"#utility.yul\":9292:9600   */\n      swap2\n      swap1\n      pop\n      jump\t// out\n        /* \"#utility.yul\":9606:9747   */\n    tag_227:\n        /* \"#utility.yul\":9655:9659   */\n      0x00\n        /* \"#utility.yul\":9678:9681   */\n      dup2\n        /* \"#utility.yul\":9670:9681   */\n      swap1\n      pop\n        /* \"#utility.yul\":9701:9704   */\n      dup2\n        /* \"#utility.yul\":9698:9699   */\n      0x00\n        /* \"#utility.yul\":9691:9705   */\n      mstore\n        /* \"#utility.yul\":9735:9739   */\n      0x20\n        /* \"#utility.yul\":9732:9733   */\n      0x00\n        /* \"#utility.yul\":9722:9740   */\n      keccak256\n        /* \"#utility.yul\":9714:9740   */\n      swap1\n      pop\n        /* \"#utility.yul\":9606:9747   */\n      swap2\n      swap1\n      pop\n      jump\t// out\n        /* \"#utility.yul\":9753:9852   */\n    tag_206:\n        /* \"#utility.yul\":9805:9811   */\n      0x00\n        /* \"#utility.yul\":9839:9844   */\n      dup2\n        /* \"#utility.yul\":9833:9845   */\n      mload\n        /* \"#utility.yul\":9823:9845   */\n      swap1\n      pop\n        /* \"#utility.yul\":9753:9852   */\n      swap2\n      swap1\n      pop\n      jump\t// out\n        /* \"#utility.yul\":9858:10027   */\n    tag_208:\n        /* \"#utility.yul\":9942:9953   */\n      0x00\n        /* \"#utility.yul\":9976:9982   */\n      dup3\n        /* \"#utility.yul\":9971:9974   */\n      dup3\n        /* \"#utility.yul\":9964:9983   */\n      mstore\n        /* \"#utility.yul\":10016:10020   */\n      0x20\n        /* \"#utility.yul\":10011:10014   */\n      dup3\n        /* \"#utility.yul\":10007:10021   */\n      add\n        /* \"#utility.yul\":9992:10021   */\n      swap1\n      pop\n        /* \"#utility.yul\":9858:10027   */\n      swap3\n      swap2\n      pop\n      pop\n      jump\t// out\n        /* \"#utility.yul\":10033:10181   */\n    tag_217:\n        /* \"#utility.yul\":10135:10146   */\n      0x00\n        /* \"#utility.yul\":10172:10175   */\n      dup2\n        /* \"#utility.yul\":10157:10175   */\n      swap1\n      pop\n        /* \"#utility.yul\":10033:10181   */\n      swap3\n      swap2\n      pop\n      pop\n      jump\t// out\n        /* \"#utility.yul\":10187:10492   */\n    tag_100:\n        /* \"#utility.yul\":10227:10230   */\n      0x00\n        /* \"#utility.yul\":10246:10266   */\n      tag_274\n        /* \"#utility.yul\":10264:10265   */\n      dup3\n        /* \"#utility.yul\":10246:10266   */\n      tag_234\n      jump\t// in\n    tag_274:\n        /* \"#utility.yul\":10241:10266   */\n      swap2\n      pop\n        /* \"#utility.yul\":10280:10300   */\n      tag_275\n        /* \"#utility.yul\":10298:10299   */\n      dup4\n        /* \"#utility.yul\":10280:10300   */\n      tag_234\n      jump\t// in\n    tag_275:\n        /* \"#utility.yul\":10275:10300   */\n      swap3\n      pop\n        /* \"#utility.yul\":10434:10435   */\n      dup3\n        /* \"#utility.yul\":10366:10432   */\n      0xffffffffffffffffffffffffffffffffffffffffffffffffffffffffffffffff\n        /* \"#utility.yul\":10362:10436   */\n      sub\n        /* \"#utility.yul\":10359:10360   */\n      dup3\n        /* \"#utility.yul\":10356:10437   */\n      gt\n        /* \"#utility.yul\":10353:10460   */\n      iszero\n      tag_276\n      jumpi\n        /* \"#utility.yul\":10440:10458   */\n      tag_277\n      tag_278\n      jump\t// in\n    tag_277:\n        /* \"#utility.yul\":10353:10460   */\n    tag_276:\n        /* \"#utility.yul\":10484:10485   */\n      dup3\n        /* \"#utility.yul\":10481:10482   */\n      dup3\n        /* \"#utility.yul\":10477:10486   */\n      add\n        /* \"#utility.yul\":10470:10486   */\n      swap1\n      pop\n        /* \"#utility.yul\":10187:10492   */\n      swap3\n      swap2\n      pop\n      pop\n      jump\t// out\n        /* \"#utility.yul\":10498:10846   */\n    tag_79:\n        /* \"#utility.yul\":10538:10545   */\n      0x00\n        /* \"#utility.yul\":10561:10581   */\n      tag_280\n        /* \"#utility.yul\":10579:10580   */\n      dup3\n        /* \"#utility.yul\":10561:10581   */\n      tag_234\n      jump\t// in\n    tag_280:\n        /* \"#utility.yul\":10556:10581   */\n      swap2\n      pop\n        /* \"#utility.yul\":10595:10615   */\n      tag_281\n        /* \"#utility.yul\":10613:10614   */\n      dup4\n        /* \"#utility.yul\":10595:10615   */\n      tag_234\n      jump\t// in\n    tag_281:\n        /* \"#utility.yul\":10590:10615   */\n      swap3\n      pop\n        /* \"#utility.yul\":10783:10784   */\n      dup2\n        /* \"#utility.yul\":10715:10781   */\n      0xffffffffffffffffffffffffffffffffffffffffffffffffffffffffffffffff\n        /* \"#utility.yul\":10711:10785   */\n      div\n        /* \"#utility.yul\":10708:10709   */\n      dup4\n        /* \"#utility.yul\":10705:10786   */\n      gt\n        /* \"#utility.yul\":10700:10701   */\n      dup3\n        /* \"#utility.yul\":10693:10702   */\n      iszero\n        /* \"#utility.yul\":10686:10703   */\n      iszero\n        /* \"#utility.yul\":10682:10787   */\n      and\n        /* \"#utility.yul\":10679:10810   */\n      iszero\n      tag_282\n      jumpi\n        /* \"#utility.yul\":10790:10808   */\n      tag_283\n      tag_278\n      jump\t// in\n    tag_283:\n        /* \"#utility.yul\":10679:10810   */\n    tag_282:\n        /* \"#utility.yul\":10838:10839   */\n      dup3\n        /* \"#utility.yul\":10835:10836   */\n      dup3\n        /* \"#utility.yul\":10831:10840   */\n      mul\n        /* \"#utility.yul\":10820:10840   */\n      swap1\n      pop\n        /* \"#utility.yul\":10498:10846   */\n      swap3\n      swap2\n      pop\n      pop\n      jump\t// out\n        /* \"#utility.yul\":10852:11043   */\n    tag_97:\n        /* \"#utility.yul\":10892:10896   */\n      0x00\n        /* \"#utility.yul\":10912:10932   */\n      tag_285\n        /* \"#utility.yul\":10930:10931   */\n      dup3\n        /* \"#utility.yul\":10912:10932   */\n      tag_234\n      jump\t// in\n    tag_285:\n        /* \"#utility.yul\":10907:10932   */\n      swap2\n      pop\n        /* \"#utility.yul\":10946:10966   */\n      tag_286\n        /* \"#utility.yul\":10964:10965   */\n      dup4\n        /* \"#utility.yul\":10946:10966   */\n      tag_234\n      jump\t// in\n    tag_286:\n        /* \"#utility.yul\":10941:10966   */\n      swap3\n      pop\n        /* \"#utility.yul\":10985:10986   */\n      dup3\n        /* \"#utility.yul\":10982:10983   */\n      dup3\n        /* \"#utility.yul\":10979:10987   */\n      lt\n        /* \"#utility.yul\":10976:11010   */\n      iszero\n      tag_287\n      jumpi\n        /* \"#utility.yul\":10990:11008   */\n      tag_288\n      tag_278\n      jump\t// in\n    tag_288:\n        /* \"#utility.yul\":10976:11010   */\n    tag_287:\n        /* \"#utility.yul\":11035:11036   */\n      dup3\n        /* \"#utility.yul\":11032:11033   */\n      dup3\n        /* \"#utility.yul\":11028:11037   */\n      sub\n        /* \"#utility.yul\":11020:11037   */\n      swap1\n      pop\n        /* \"#utility.yul\":10852:11043   */\n      swap3\n      swap2\n      pop\n      pop\n      jump\t// out\n        /* \"#utility.yul\":11049:11145   */\n    tag_198:\n        /* \"#utility.yul\":11086:11093   */\n      0x00\n        /* \"#utility.yul\":11115:11139   */\n      tag_290\n        /* \"#utility.yul\":11133:11138   */\n      dup3\n        /* \"#utility.yul\":11115:11139   */\n      tag_291\n      jump\t// in\n    tag_290:\n        /* \"#utility.yul\":11104:11139   */\n      swap1\n      pop\n        /* \"#utility.yul\":11049:11145   */\n      swap2\n      swap1\n      pop\n      jump\t// out\n        /* \"#utility.yul\":11151:11241   */\n    tag_202:\n        /* \"#utility.yul\":11185:11192   */\n      0x00\n        /* \"#utility.yul\":11228:11233   */\n      dup2\n        /* \"#utility.yul\":11221:11234   */\n      iszero\n        /* \"#utility.yul\":11214:11235   */\n      iszero\n        /* \"#utility.yul\":11203:11235   */\n      swap1\n      pop\n        /* \"#utility.yul\":11151:11241   */\n      swap2\n      swap1\n      pop\n      jump\t// out\n        /* \"#utility.yul\":11247:11373   */\n    tag_291:\n        /* \"#utility.yul\":11284:11291   */\n      0x00\n        /* \"#utility.yul\":11324:11366   */\n      0xffffffffffffffffffffffffffffffffffffffff\n        /* \"#utility.yul\":11317:11322   */\n      dup3\n        /* \"#utility.yul\":11313:11367   */\n      and\n        /* \"#utility.yul\":11302:11367   */\n      swap1\n      pop\n        /* \"#utility.yul\":11247:11373   */\n      swap2\n      swap1\n      pop\n      jump\t// out\n        /* \"#utility.yul\":11379:11456   */\n    tag_234:\n        /* \"#utility.yul\":11416:11423   */\n      0x00\n        /* \"#utility.yul\":11445:11450   */\n      dup2\n        /* \"#utility.yul\":11434:11450   */\n      swap1\n      pop\n        /* \"#utility.yul\":11379:11456   */\n      swap2\n      swap1\n      pop\n      jump\t// out\n        /* \"#utility.yul\":11462:11548   */\n    tag_238:\n        /* \"#utility.yul\":11497:11504   */\n      0x00\n        /* \"#utility.yul\":11537:11541   */\n      0xff\n        /* \"#utility.yul\":11530:11535   */\n      dup3\n        /* \"#utility.yul\":11526:11542   */\n      and\n        /* \"#utility.yul\":11515:11542   */\n      swap1\n      pop\n        /* \"#utility.yul\":11462:11548   */\n      swap2\n      swap1\n      pop\n      jump\t// out\n        /* \"#utility.yul\":11554:11708   */\n    tag_143:\n        /* \"#utility.yul\":11638:11644   */\n      dup3\n        /* \"#utility.yul\":11633:11636   */\n      dup2\n        /* \"#utility.yul\":11628:11631   */\n      dup4\n        /* \"#utility.yul\":11615:11645   */\n      calldatacopy\n        /* \"#utility.yul\":11700:11701   */\n      0x00\n        /* \"#utility.yul\":11691:11697   */\n      dup4\n        /* \"#utility.yul\":11686:11689   */\n      dup4\n        /* \"#utility.yul\":11682:11698   */\n      add\n        /* \"#utility.yul\":11675:11702   */\n      mstore\n        /* \"#utility.yul\":11554:11708   */\n      pop\n      pop\n      pop\n      jump\t// out\n        /* \"#utility.yul\":11714:12021   */\n    tag_210:\n        /* \"#utility.yul\":11782:11783   */\n      0x00\n        /* \"#utility.yul\":11792:11905   */\n    tag_298:\n        /* \"#utility.yul\":11806:11812   */\n      dup4\n        /* \"#utility.yul\":11803:11804   */\n      dup2\n        /* \"#utility.yul\":11800:11813   */\n      lt\n        /* \"#utility.yul\":11792:11905   */\n      iszero\n      tag_300\n      jumpi\n        /* \"#utility.yul\":11891:11892   */\n      dup1\n        /* \"#utility.yul\":11886:11889   */\n      dup3\n        /* \"#utility.yul\":11882:11893   */\n      add\n        /* \"#utility.yul\":11876:11894   */\n      mload\n        /* \"#utility.yul\":11872:11873   */\n      dup2\n        /* \"#utility.yul\":11867:11870   */\n      dup5\n        /* \"#utility.yul\":11863:11874   */\n      add\n        /* \"#utility.yul\":11856:11895   */\n      mstore\n        /* \"#utility.yul\":11828:11830   */\n      0x20\n        /* \"#utility.yul\":11825:11826   */\n      dup2\n        /* \"#utility.yul\":11821:11831   */\n      add\n        /* \"#utility.yul\":11816:11831   */\n      swap1\n      pop\n        /* \"#utility.yul\":11792:11905   */\n      jump(tag_298)\n    tag_300:\n        /* \"#utility.yul\":11923:11929   */\n      dup4\n        /* \"#utility.yul\":11920:11921   */\n      dup2\n        /* \"#utility.yul\":11917:11930   */\n      gt\n        /* \"#utility.yul\":11914:12015   */\n      iszero\n      tag_301\n      jumpi\n        /* \"#utility.yul\":12003:12004   */\n      0x00\n        /* \"#utility.yul\":11994:12000   */\n      dup5\n        /* \"#utility.yul\":11989:11992   */\n      dup5\n        /* \"#utility.yul\":11985:12001   */\n      add\n        /* \"#utility.yul\":11978:12005   */\n      mstore\n        /* \"#utility.yul\":11914:12015   */\n    tag_301:\n        /* \"#utility.yul\":11763:12021   */\n      pop\n        /* \"#utility.yul\":11714:12021   */\n      pop\n      pop\n      pop\n      jump\t// out\n        /* \"#utility.yul\":12027:12198   */\n    tag_86:\n        /* \"#utility.yul\":12066:12069   */\n      0x00\n        /* \"#utility.yul\":12089:12113   */\n      tag_303\n        /* \"#utility.yul\":12107:12112   */\n      dup3\n        /* \"#utility.yul\":12089:12113   */\n      tag_234\n      jump\t// in\n    tag_303:\n        /* \"#utility.yul\":12080:12113   */\n      swap2\n      pop\n        /* \"#utility.yul\":12135:12139   */\n      0x00\n        /* \"#utility.yul\":12128:12133   */\n      dup3\n        /* \"#utility.yul\":12125:12140   */\n      eq\n        /* \"#utility.yul\":12122:12163   */\n      iszero\n      tag_304\n      jumpi\n        /* \"#utility.yul\":12143:12161   */\n      tag_305\n      tag_278\n      jump\t// in\n    tag_305:\n        /* \"#utility.yul\":12122:12163   */\n    tag_304:\n        /* \"#utility.yul\":12190:12191   */\n      0x01\n        /* \"#utility.yul\":12183:12188   */\n      dup3\n        /* \"#utility.yul\":12179:12192   */\n      sub\n        /* \"#utility.yul\":12172:12192   */\n      swap1\n      pop\n        /* \"#utility.yul\":12027:12198   */\n      swap2\n      swap1\n      pop\n      jump\t// out\n        /* \"#utility.yul\":12204:12524   */\n    tag_104:\n        /* \"#utility.yul\":12248:12254   */\n      0x00\n        /* \"#utility.yul\":12285:12286   */\n      0x02\n        /* \"#utility.yul\":12279:12283   */\n      dup3\n        /* \"#utility.yul\":12275:12287   */\n      div\n        /* \"#utility.yul\":12265:12287   */\n      swap1\n      pop\n        /* \"#utility.yul\":12332:12333   */\n      0x01\n        /* \"#utility.yul\":12326:12330   */\n      dup3\n        /* \"#utility.yul\":12322:12334   */\n      and\n        /* \"#utility.yul\":12353:12371   */\n      dup1\n        /* \"#utility.yul\":12343:12424   */\n      tag_307\n      jumpi\n        /* \"#utility.yul\":12409:12413   */\n      0x7f\n        /* \"#utility.yul\":12401:12407   */\n      dup3\n        /* \"#utility.yul\":12397:12414   */\n      and\n        /* \"#utility.yul\":12387:12414   */\n      swap2\n      pop\n        /* \"#utility.yul\":12343:12424   */\n    tag_307:\n        /* \"#utility.yul\":12471:12473   */\n      0x20\n        /* \"#utility.yul\":12463:12469   */\n      dup3\n        /* \"#utility.yul\":12460:12474   */\n      lt\n        /* \"#utility.yul\":12440:12458   */\n      dup2\n        /* \"#utility.yul\":12437:12475   */\n      eq\n        /* \"#utility.yul\":12434:12518   */\n      iszero\n      tag_308\n      jumpi\n        /* \"#utility.yul\":12490:12508   */\n      tag_309\n      tag_310\n      jump\t// in\n    tag_309:\n        /* \"#utility.yul\":12434:12518   */\n    tag_308:\n        /* \"#utility.yul\":12255:12524   */\n      pop\n        /* \"#utility.yul\":12204:12524   */\n      swap2\n      swap1\n      pop\n      jump\t// out\n        /* \"#utility.yul\":12530:12811   */\n    tag_262:\n        /* \"#utility.yul\":12613:12640   */\n      tag_312\n        /* \"#utility.yul\":12635:12639   */\n      dup3\n        /* \"#utility.yul\":12613:12640   */\n      tag_212\n      jump\t// in\n    tag_312:\n        /* \"#utility.yul\":12605:12611   */\n      dup2\n        /* \"#utility.yul\":12601:12641   */\n      add\n        /* \"#utility.yul\":12743:12749   */\n      dup2\n        /* \"#utility.yul\":12731:12741   */\n      dup2\n        /* \"#utility.yul\":12728:12750   */\n      lt\n        /* \"#utility.yul\":12707:12725   */\n      0xffffffffffffffff\n        /* \"#utility.yul\":12695:12705   */\n      dup3\n        /* \"#utility.yul\":12692:12726   */\n      gt\n        /* \"#utility.yul\":12689:12751   */\n      or\n        /* \"#utility.yul\":12686:12774   */\n      iszero\n      tag_313\n      jumpi\n        /* \"#utility.yul\":12754:12772   */\n      tag_314\n      tag_267\n      jump\t// in\n    tag_314:\n        /* \"#utility.yul\":12686:12774   */\n    tag_313:\n        /* \"#utility.yul\":12794:12804   */\n      dup1\n        /* \"#utility.yul\":12790:12792   */\n      0x40\n        /* \"#utility.yul\":12783:12805   */\n      mstore\n        /* \"#utility.yul\":12573:12811   */\n      pop\n        /* \"#utility.yul\":12530:12811   */\n      pop\n      pop\n      jump\t// out\n        /* \"#utility.yul\":12817:12997   */\n    tag_278:\n        /* \"#utility.yul\":12865:12942   */\n      0x4e487b7100000000000000000000000000000000000000000000000000000000\n        /* \"#utility.yul\":12862:12863   */\n      0x00\n        /* \"#utility.yul\":12855:12943   */\n      mstore\n        /* \"#utility.yul\":12962:12966   */\n      0x11\n        /* \"#utility.yul\":12959:12960   */\n      0x04\n        /* \"#utility.yul\":12952:12967   */\n      mstore\n        /* \"#utility.yul\":12986:12990   */\n      0x24\n        /* \"#utility.yul\":12983:12984   */\n      0x00\n        /* \"#utility.yul\":12976:12991   */\n      revert\n        /* \"#utility.yul\":13003:13183   */\n    tag_310:\n        /* \"#utility.yul\":13051:13128   */\n      0x4e487b7100000000000000000000000000000000000000000000000000000000\n        /* \"#utility.yul\":13048:13049   */\n      0x00\n        /* \"#utility.yul\":13041:13129   */\n      mstore\n        /* \"#utility.yul\":13148:13152   */\n      0x22\n        /* \"#utility.yul\":13145:13146   */\n      0x04\n        /* \"#utility.yul\":13138:13153   */\n      mstore\n        /* \"#utility.yul\":13172:13176   */\n      0x24\n        /* \"#utility.yul\":13169:13170   */\n      0x00\n        /* \"#utility.yul\":13162:13177   */\n      revert\n        /* \"#utility.yul\":13189:13369   */\n    tag_267:\n        /* \"#utility.yul\":13237:13314   */\n      0x4e487b7100000000000000000000000000000000000000000000000000000000\n        /* \"#utility.yul\":13234:13235   */\n      0x00\n        /* \"#utility.yul\":13227:13315   */\n      mstore\n        /* \"#utility.yul\":13334:13338   */\n      0x41\n        /* \"#utility.yul\":13331:13332   */\n      0x04\n        /* \"#utility.yul\":13324:13339   */\n      mstore\n        /* \"#utility.yul\":13358:13362   */\n      0x24\n        /* \"#utility.yul\":13355:13356   */\n      0x00\n        /* \"#utility.yul\":13348:13363   */\n      revert\n        /* \"#utility.yul\":13375:13492   */\n    tag_152:\n        /* \"#utility.yul\":13484:13485   */\n      0x00\n        /* \"#utility.yul\":13481:13482   */\n      dup1\n        /* \"#utility.yul\":13474:13486   */\n      revert\n        /* \"#utility.yul\":13498:13615   */\n    tag_141:\n        /* \"#utility.yul\":13607:13608   */\n      0x00\n        /* \"#utility.yul\":13604:13605   */\n      dup1\n        /* \"#utility.yul\":13597:13609   */\n      revert\n        /* \"#utility.yul\":13621:13738   */\n    tag_184:\n        /* \"#utility.yul\":13730:13731   */\n      0x00\n        /* \"#utility.yul\":13727:13728   */\n      dup1\n        /* \"#utility.yul\":13720:13732   */\n      revert\n        /* \"#utility.yul\":13744:13861   */\n    tag_161:\n        /* \"#utility.yul\":13853:13854   */\n      0x00\n        /* \"#utility.yul\":13850:13851   */\n      dup1\n        /* \"#utility.yul\":13843:13855   */\n      revert\n        /* \"#utility.yul\":13867:13969   */\n    tag_212:\n        /* \"#utility.yul\":13908:13914   */\n      0x00\n        /* \"#utility.yul\":13959:13961   */\n      0x1f\n        /* \"#utility.yul\":13955:13962   */\n      not\n        /* \"#utility.yul\":13950:13952   */\n      0x1f\n        /* \"#utility.yul\":13943:13948   */\n      dup4\n        /* \"#utility.yul\":13939:13953   */\n      add\n        /* \"#utility.yul\":13935:13963   */\n      and\n        /* \"#utility.yul\":13925:13963   */\n      swap1\n      pop\n        /* \"#utility.yul\":13867:13969   */\n      swap2\n      swap1\n      pop\n      jump\t// out\n        /* \"#utility.yul\":13975:14097   */\n    tag_147:\n        /* \"#utility.yul\":14048:14072   */\n      tag_324\n        /* \"#utility.yul\":14066:14071   */\n      dup2\n        /* \"#utility.yul\":14048:14072   */\n      tag_198\n      jump\t// in\n    tag_324:\n        /* \"#utility.yul\":14041:14046   */\n      dup2\n        /* \"#utility.yul\":14038:14073   */\n      eq\n        /* \"#utility.yul\":14028:14091   */\n      tag_325\n      jumpi\n        /* \"#utility.yul\":14087:14088   */\n      0x00\n        /* \"#utility.yul\":14084:14085   */\n      dup1\n        /* \"#utility.yul\":14077:14089   */\n      revert\n        /* \"#utility.yul\":14028:14091   */\n    tag_325:\n        /* \"#utility.yul\":13975:14097   */\n      pop\n      jump\t// out\n        /* \"#utility.yul\":14103:14225   */\n    tag_157:\n        /* \"#utility.yul\":14176:14200   */\n      tag_327\n        /* \"#utility.yul\":14194:14199   */\n      dup2\n        /* \"#utility.yul\":14176:14200   */\n      tag_234\n      jump\t// in\n    tag_327:\n        /* \"#utility.yul\":14169:14174   */\n      dup2\n        /* \"#utility.yul\":14166:14201   */\n      eq\n        /* \"#utility.yul\":14156:14219   */\n      tag_328\n      jumpi\n        /* \"#utility.yul\":14215:14216   */\n      0x00\n        /* \"#utility.yul\":14212:14213   */\n      dup1\n        /* \"#utility.yul\":14205:14217   */\n      revert\n        /* \"#utility.yul\":14156:14219   */\n    tag_328:\n        /* \"#utility.yul\":14103:14225   */\n      pop\n      jump\t// out\n\n    auxdata: 0xa2646970667358221220a29fbf35983c44a1a9a6581ed8c0d47a19bea4a250bc108444672c5b476b360864736f6c63430008070033\n}\n",
				"bytecode": {
					"linkReferences": {},
					"object": "6080604052620f4240600055735b38da6a701c568545dcfcb03fcb875f56beddc4600160006101000a81548173ffffffffffffffffffffffffffffffffffffffff021916908373ffffffffffffffffffffffffffffffffffffffff1602179055506040518060400160405280600781526020017f6d6169446f6e670000000000000000000000000000000000000000000000000081525060089080519060200190620000ad92919062000520565b506040518060400160405280600981526020017f77616e674c616f4a69000000000000000000000000000000000000000000000081525060099080519060200190620000fb92919062000520565b506040518060400160405280600581526020017f6c76436861000000000000000000000000000000000000000000000000000000815250600a90805190602001906200014992919062000520565b506040518060400160405280600781526020017f686f6e6743686100000000000000000000000000000000000000000000000000815250600b90805190602001906200019792919062000520565b506040518060400160405280600c81526020017f7869616e4368656e675a68690000000000000000000000000000000000000000815250600c9080519060200190620001e592919062000520565b506040518060400160405280600581526020017f796942616f000000000000000000000000000000000000000000000000000000815250600d90805190602001906200023392919062000520565b506040518060400160405280601081526020017f79696e6759616e674b7561695869616e00000000000000000000000000000000815250600e90805190602001906200028192919062000520565b503480156200028f57600080fd5b5060005460026000600160009054906101000a900473ffffffffffffffffffffffffffffffffffffffff1673ffffffffffffffffffffffffffffffffffffffff1673ffffffffffffffffffffffffffffffffffffffff168152602001908152602001600020819055506064600460086040516200030d91906200065b565b9081526020016040518091039020819055506064600460096040516200033491906200065b565b90815260200160405180910390208190555060646004600a6040516200035b91906200065b565b90815260200160405180910390208190555060646004600b6040516200038291906200065b565b90815260200160405180910390208190555060646004600c604051620003a991906200065b565b90815260200160405180910390208190555060646004600d604051620003d091906200065b565b90815260200160405180910390208190555060646004600e604051620003f791906200065b565b9081526020016040518091039020819055506028600560086040516200041e91906200065b565b908152602001604051809103902081905550601e600560096040516200044591906200065b565b908152602001604051809103902081905550601e6005600a6040516200046c91906200065b565b908152602001604051809103902081905550601e6005600b6040516200049391906200065b565b90815260200160405180910390208190555060146005600c604051620004ba91906200065b565b908152602001604051809103902081905550600a6005600d604051620004e191906200065b565b90815260200160405180910390208190555060286005600e6040516200050891906200065b565b908152602001604051809103902081905550620006f9565b8280546200052e9062000694565b90600052602060002090601f0160209004810192826200055257600085556200059e565b82601f106200056d57805160ff19168380011785556200059e565b828001600101855582156200059e579182015b828111156200059d57825182559160200191906001019062000580565b5b509050620005ad9190620005b1565b5090565b5b80821115620005cc576000816000905550600101620005b2565b5090565b60008154620005df8162000694565b620005eb818662000689565b945060018216600081146200060957600181146200061b5762000652565b60ff1983168652818601935062000652565b620006268562000674565b60005b838110156200064a5781548189015260018201915060208101905062000629565b838801955050505b50505092915050565b6000620006698284620005d0565b915081905092915050565b60008190508160005260206000209050919050565b600081905092915050565b60006002820490506001821680620006ad57607f821691505b60208210811415620006c457620006c3620006ca565b5b50919050565b7f4e487b7100000000000000000000000000000000000000000000000000000000600052602260045260246000fd5b61174980620007096000396000f3fe608060405234801561001057600080fd5b50600436106100b45760003560e01c80636390b023116100715780636390b023146101a357806370a08231146101d457806395d89b4114610204578063a9059cbb14610222578063dd62ed3e14610252578063e095c25c14610282576100b4565b806306fdde03146100b9578063095ea7b3146100d75780630aa395051461010757806318160ddd1461013757806323b872dd14610155578063313ce56714610185575b600080fd5b6100c16102b2565b6040516100ce9190611311565b60405180910390f35b6100f160048036038101906100ec919061105a565b6102eb565b6040516100fe91906112f6565b60405180910390f35b610121600480360381019061011c919061109a565b6103dd565b60405161012e91906112f6565b60405180910390f35b61013f6105f4565b60405161014c9190611363565b60405180910390f35b61016f600480360381019061016a9190611007565b6105fd565b60405161017c91906112f6565b60405180910390f35b61018d610968565b60405161019a919061137e565b60405180910390f35b6101bd60048036038101906101b89190610f9a565b61096d565b6040516101cb929190611333565b60405180910390f35b6101ee60048036038101906101e99190610f9a565b610adc565b6040516101fb9190611363565b60405180910390f35b61020c610b25565b6040516102199190611311565b60405180910390f35b61023c6004803603810190610237919061105a565b610b5e565b60405161024991906112f6565b60405180910390f35b61026c60048036038101906102679190610fc7565b610d37565b6040516102799190611363565b60405180910390f35b61029c600480360381019061029791906110f6565b610dbe565b6040516102a991906112f6565b60405180910390f35b6040518060400160405280600981526020017f4472696e6b5f473132000000000000000000000000000000000000000000000081525081565b600081600360003373ffffffffffffffffffffffffffffffffffffffff1673ffffffffffffffffffffffffffffffffffffffff16815260200190815260200160002060008573ffffffffffffffffffffffffffffffffffffffff1673ffffffffffffffffffffffffffffffffffffffff168152602001908152602001600020819055508273ffffffffffffffffffffffffffffffffffffffff163373ffffffffffffffffffffffffffffffffffffffff167f8c5be1e5ebec7d5bd14f71427d1e84f3dd0314c0f7b2291e5b200ac8c7c3b925846040516103cb9190611363565b60405180910390a36001905092915050565b6000816004846040516103f0919061128a565b908152602001604051809103902054101561040a57600080fd5b60058360405161041a919061128a565b908152602001604051809103902054826104349190611481565b600260003373ffffffffffffffffffffffffffffffffffffffff1673ffffffffffffffffffffffffffffffffffffffff16815260200190815260200160002054101561047f57600080fd5b6104c6735b38da6a701c568545dcfcb03fcb875f56beddc46005856040516104a7919061128a565b908152602001604051809103902054846104c19190611481565b610b5e565b506004836040516104d7919061128a565b908152602001604051809103902060008154809291906104f6906115a6565b919050555082600660003373ffffffffffffffffffffffffffffffffffffffff1673ffffffffffffffffffffffffffffffffffffffff168152602001908152602001600020908051906020019061054e929190610e5d565b5081600760003373ffffffffffffffffffffffffffffffffffffffff1673ffffffffffffffffffffffffffffffffffffffff1681526020019081526020016000208460405161059d919061128a565b9081526020016040518091039020819055507f3d793e2ba72604006e0c2d8656f1af9b2acece635ad25c0c9787877239f33f313384846040516105e2939291906112b8565b60405180910390a16001905092915050565b60008054905090565b6000600260008573ffffffffffffffffffffffffffffffffffffffff1673ffffffffffffffffffffffffffffffffffffffff1681526020019081526020016000205482111561064b57600080fd5b600360008573ffffffffffffffffffffffffffffffffffffffff1673ffffffffffffffffffffffffffffffffffffffff16815260200190815260200160002060003373ffffffffffffffffffffffffffffffffffffffff1673ffffffffffffffffffffffffffffffffffffffff168152602001908152602001600020548211156106d457600080fd5b81600260008673ffffffffffffffffffffffffffffffffffffffff1673ffffffffffffffffffffffffffffffffffffffff1681526020019081526020016000205461071f91906114db565b600260008673ffffffffffffffffffffffffffffffffffffffff1673ffffffffffffffffffffffffffffffffffffffff1681526020019081526020016000208190555081600360008673ffffffffffffffffffffffffffffffffffffffff1673ffffffffffffffffffffffffffffffffffffffff16815260200190815260200160002060003373ffffffffffffffffffffffffffffffffffffffff1673ffffffffffffffffffffffffffffffffffffffff168152602001908152602001600020546107ea91906114db565b600360008673ffffffffffffffffffffffffffffffffffffffff1673ffffffffffffffffffffffffffffffffffffffff16815260200190815260200160002060003373ffffffffffffffffffffffffffffffffffffffff1673ffffffffffffffffffffffffffffffffffffffff1681526020019081526020016000208190555081600260008573ffffffffffffffffffffffffffffffffffffffff1673ffffffffffffffffffffffffffffffffffffffff168152602001908152602001600020546108b5919061142b565b600260008573ffffffffffffffffffffffffffffffffffffffff1673ffffffffffffffffffffffffffffffffffffffff168152602001908152602001600020819055508273ffffffffffffffffffffffffffffffffffffffff168473ffffffffffffffffffffffffffffffffffffffff167fddf252ad1be2c89b69c2b068fc378daa952ba7f163c4a11628f55a4df523b3ef846040516109559190611363565b60405180910390a3600190509392505050565b600281565b60606000600660003373ffffffffffffffffffffffffffffffffffffffff1673ffffffffffffffffffffffffffffffffffffffff16815260200190815260200160002080546109bb906115d0565b80601f01602080910402602001604051908101604052809291908181526020018280546109e7906115d0565b8015610a345780601f10610a0957610100808354040283529160200191610a34565b820191906000526020600020905b815481529060010190602001808311610a1757829003601f168201915b50505050509150600760003373ffffffffffffffffffffffffffffffffffffffff1673ffffffffffffffffffffffffffffffffffffffff168152602001908152602001600020600660003373ffffffffffffffffffffffffffffffffffffffff1673ffffffffffffffffffffffffffffffffffffffff168152602001908152602001600020604051610ac691906112a1565b9081526020016040518091039020549050915091565b6000600260008373ffffffffffffffffffffffffffffffffffffffff1673ffffffffffffffffffffffffffffffffffffffff168152602001908152602001600020549050919050565b6040518060400160405280600481526020017f445231320000000000000000000000000000000000000000000000000000000081525081565b6000600260003373ffffffffffffffffffffffffffffffffffffffff1673ffffffffffffffffffffffffffffffffffffffff16815260200190815260200160002054821115610bac57600080fd5b81600260003373ffffffffffffffffffffffffffffffffffffffff1673ffffffffffffffffffffffffffffffffffffffff16815260200190815260200160002054610bf791906114db565b600260003373ffffffffffffffffffffffffffffffffffffffff1673ffffffffffffffffffffffffffffffffffffffff1681526020019081526020016000208190555081600260008573ffffffffffffffffffffffffffffffffffffffff1673ffffffffffffffffffffffffffffffffffffffff16815260200190815260200160002054610c85919061142b565b600260008573ffffffffffffffffffffffffffffffffffffffff1673ffffffffffffffffffffffffffffffffffffffff168152602001908152602001600020819055508273ffffffffffffffffffffffffffffffffffffffff163373ffffffffffffffffffffffffffffffffffffffff167fddf252ad1be2c89b69c2b068fc378daa952ba7f163c4a11628f55a4df523b3ef84604051610d259190611363565b60405180910390a36001905092915050565b6000600360008473ffffffffffffffffffffffffffffffffffffffff1673ffffffffffffffffffffffffffffffffffffffff16815260200190815260200160002060008373ffffffffffffffffffffffffffffffffffffffff1673ffffffffffffffffffffffffffffffffffffffff16815260200190815260200160002054905092915050565b6000735b38da6a701c568545dcfcb03fcb875f56beddc473ffffffffffffffffffffffffffffffffffffffff163373ffffffffffffffffffffffffffffffffffffffff1614610e0c57600080fd5b82600585604051610e1d919061128a565b90815260200160405180910390208190555081600485604051610e40919061128a565b908152602001604051809103902081905550600190509392505050565b828054610e69906115d0565b90600052602060002090601f016020900481019282610e8b5760008555610ed2565b82601f10610ea457805160ff1916838001178555610ed2565b82800160010185558215610ed2579182015b82811115610ed1578251825591602001919060010190610eb6565b5b509050610edf9190610ee3565b5090565b5b80821115610efc576000816000905550600101610ee4565b5090565b6000610f13610f0e846113be565b611399565b905082815260208101848484011115610f2f57610f2e6116c5565b5b610f3a848285611564565b509392505050565b600081359050610f51816116e5565b92915050565b600082601f830112610f6c57610f6b6116c0565b5b8135610f7c848260208601610f00565b91505092915050565b600081359050610f94816116fc565b92915050565b600060208284031215610fb057610faf6116cf565b5b6000610fbe84828501610f42565b91505092915050565b60008060408385031215610fde57610fdd6116cf565b5b6000610fec85828601610f42565b9250506020610ffd85828601610f42565b9150509250929050565b6000806000606084860312156110205761101f6116cf565b5b600061102e86828701610f42565b935050602061103f86828701610f42565b925050604061105086828701610f85565b9150509250925092565b60008060408385031215611071576110706116cf565b5b600061107f85828601610f42565b925050602061109085828601610f85565b9150509250929050565b600080604083850312156110b1576110b06116cf565b5b600083013567ffffffffffffffff8111156110cf576110ce6116ca565b5b6110db85828601610f57565b92505060206110ec85828601610f85565b9150509250929050565b60008060006060848603121561110f5761110e6116cf565b5b600084013567ffffffffffffffff81111561112d5761112c6116ca565b5b61113986828701610f57565b935050602061114a86828701610f85565b925050604061115b86828701610f85565b9150509250925092565b61116e8161150f565b82525050565b61117d81611521565b82525050565b600061118e82611404565b611198818561140f565b93506111a8818560208601611573565b6111b1816116d4565b840191505092915050565b60006111c782611404565b6111d18185611420565b93506111e1818560208601611573565b80840191505092915050565b600081546111fa816115d0565b6112048186611420565b9450600182166000811461121f576001811461123057611263565b60ff19831686528186019350611263565b611239856113ef565b60005b8381101561125b5781548189015260018201915060208101905061123c565b838801955050505b50505092915050565b6112758161154d565b82525050565b61128481611557565b82525050565b600061129682846111bc565b915081905092915050565b60006112ad82846111ed565b915081905092915050565b60006060820190506112cd6000830186611165565b81810360208301526112df8185611183565b90506112ee604083018461126c565b949350505050565b600060208201905061130b6000830184611174565b92915050565b6000602082019050818103600083015261132b8184611183565b905092915050565b6000604082019050818103600083015261134d8185611183565b905061135c602083018461126c565b9392505050565b6000602082019050611378600083018461126c565b92915050565b6000602082019050611393600083018461127b565b92915050565b60006113a36113b4565b90506113af8282611602565b919050565b6000604051905090565b600067ffffffffffffffff8211156113d9576113d8611691565b5b6113e2826116d4565b9050602081019050919050565b60008190508160005260206000209050919050565b600081519050919050565b600082825260208201905092915050565b600081905092915050565b60006114368261154d565b91506114418361154d565b9250827fffffffffffffffffffffffffffffffffffffffffffffffffffffffffffffffff0382111561147657611475611633565b5b828201905092915050565b600061148c8261154d565b91506114978361154d565b9250817fffffffffffffffffffffffffffffffffffffffffffffffffffffffffffffffff04831182151516156114d0576114cf611633565b5b828202905092915050565b60006114e68261154d565b91506114f18361154d565b92508282101561150457611503611633565b5b828203905092915050565b600061151a8261152d565b9050919050565b60008115159050919050565b600073ffffffffffffffffffffffffffffffffffffffff82169050919050565b6000819050919050565b600060ff82169050919050565b82818337600083830152505050565b60005b83811015611591578082015181840152602081019050611576565b838111156115a0576000848401525b50505050565b60006115b18261154d565b915060008214156115c5576115c4611633565b5b600182039050919050565b600060028204905060018216806115e857607f821691505b602082108114156115fc576115fb611662565b5b50919050565b61160b826116d4565b810181811067ffffffffffffffff8211171561162a57611629611691565b5b80604052505050565b7f4e487b7100000000000000000000000000000000000000000000000000000000600052601160045260246000fd5b7f4e487b7100000000000000000000000000000000000000000000000000000000600052602260045260246000fd5b7f4e487b7100000000000000000000000000000000000000000000000000000000600052604160045260246000fd5b600080fd5b600080fd5b600080fd5b600080fd5b6000601f19601f8301169050919050565b6116ee8161150f565b81146116f957600080fd5b50565b6117058161154d565b811461171057600080fd5b5056fea2646970667358221220a29fbf35983c44a1a9a6581ed8c0d47a19bea4a250bc108444672c5b476b360864736f6c63430008070033",
					"opcodes": "PUSH1 0x80 PUSH1 0x40 MSTORE PUSH3 0xF4240 PUSH1 0x0 SSTORE PUSH20 0x5B38DA6A701C568545DCFCB03FCB875F56BEDDC4 PUSH1 0x1 PUSH1 0x0 PUSH2 0x100 EXP DUP2 SLOAD DUP2 PUSH20 0xFFFFFFFFFFFFFFFFFFFFFFFFFFFFFFFFFFFFFFFF MUL NOT AND SWAP1 DUP4 PUSH20 0xFFFFFFFFFFFFFFFFFFFFFFFFFFFFFFFFFFFFFFFF AND MUL OR SWAP1 SSTORE POP PUSH1 0x40 MLOAD DUP1 PUSH1 0x40 ADD PUSH1 0x40 MSTORE DUP1 PUSH1 0x7 DUP2 MSTORE PUSH1 0x20 ADD PUSH32 0x6D6169446F6E6700000000000000000000000000000000000000000000000000 DUP2 MSTORE POP PUSH1 0x8 SWAP1 DUP1 MLOAD SWAP1 PUSH1 0x20 ADD SWAP1 PUSH3 0xAD SWAP3 SWAP2 SWAP1 PUSH3 0x520 JUMP JUMPDEST POP PUSH1 0x40 MLOAD DUP1 PUSH1 0x40 ADD PUSH1 0x40 MSTORE DUP1 PUSH1 0x9 DUP2 MSTORE PUSH1 0x20 ADD PUSH32 0x77616E674C616F4A690000000000000000000000000000000000000000000000 DUP2 MSTORE POP PUSH1 0x9 SWAP1 DUP1 MLOAD SWAP1 PUSH1 0x20 ADD SWAP1 PUSH3 0xFB SWAP3 SWAP2 SWAP1 PUSH3 0x520 JUMP JUMPDEST POP PUSH1 0x40 MLOAD DUP1 PUSH1 0x40 ADD PUSH1 0x40 MSTORE DUP1 PUSH1 0x5 DUP2 MSTORE PUSH1 0x20 ADD PUSH32 0x6C76436861000000000000000000000000000000000000000000000000000000 DUP2 MSTORE POP PUSH1 0xA SWAP1 DUP1 MLOAD SWAP1 PUSH1 0x20 ADD SWAP1 PUSH3 0x149 SWAP3 SWAP2 SWAP1 PUSH3 0x520 JUMP JUMPDEST POP PUSH1 0x40 MLOAD DUP1 PUSH1 0x40 ADD PUSH1 0x40 MSTORE DUP1 PUSH1 0x7 DUP2 MSTORE PUSH1 0x20 ADD PUSH32 0x686F6E6743686100000000000000000000000000000000000000000000000000 DUP2 MSTORE POP PUSH1 0xB SWAP1 DUP1 MLOAD SWAP1 PUSH1 0x20 ADD SWAP1 PUSH3 0x197 SWAP3 SWAP2 SWAP1 PUSH3 0x520 JUMP JUMPDEST POP PUSH1 0x40 MLOAD DUP1 PUSH1 0x40 ADD PUSH1 0x40 MSTORE DUP1 PUSH1 0xC DUP2 MSTORE PUSH1 0x20 ADD PUSH32 0x7869616E4368656E675A68690000000000000000000000000000000000000000 DUP2 MSTORE POP PUSH1 0xC SWAP1 DUP1 MLOAD SWAP1 PUSH1 0x20 ADD SWAP1 PUSH3 0x1E5 SWAP3 SWAP2 SWAP1 PUSH3 0x520 JUMP JUMPDEST POP PUSH1 0x40 MLOAD DUP1 PUSH1 0x40 ADD PUSH1 0x40 MSTORE DUP1 PUSH1 0x5 DUP2 MSTORE PUSH1 0x20 ADD PUSH32 0x796942616F000000000000000000000000000000000000000000000000000000 DUP2 MSTORE POP PUSH1 0xD SWAP1 DUP1 MLOAD SWAP1 PUSH1 0x20 ADD SWAP1 PUSH3 0x233 SWAP3 SWAP2 SWAP1 PUSH3 0x520 JUMP JUMPDEST POP PUSH1 0x40 MLOAD DUP1 PUSH1 0x40 ADD PUSH1 0x40 MSTORE DUP1 PUSH1 0x10 DUP2 MSTORE PUSH1 0x20 ADD PUSH32 0x79696E6759616E674B7561695869616E00000000000000000000000000000000 DUP2 MSTORE POP PUSH1 0xE SWAP1 DUP1 MLOAD SWAP1 PUSH1 0x20 ADD SWAP1 PUSH3 0x281 SWAP3 SWAP2 SWAP1 PUSH3 0x520 JUMP JUMPDEST POP CALLVALUE DUP1 ISZERO PUSH3 0x28F JUMPI PUSH1 0x0 DUP1 REVERT JUMPDEST POP PUSH1 0x0 SLOAD PUSH1 0x2 PUSH1 0x0 PUSH1 0x1 PUSH1 0x0 SWAP1 SLOAD SWAP1 PUSH2 0x100 EXP SWAP1 DIV PUSH20 0xFFFFFFFFFFFFFFFFFFFFFFFFFFFFFFFFFFFFFFFF AND PUSH20 0xFFFFFFFFFFFFFFFFFFFFFFFFFFFFFFFFFFFFFFFF AND PUSH20 0xFFFFFFFFFFFFFFFFFFFFFFFFFFFFFFFFFFFFFFFF AND DUP2 MSTORE PUSH1 0x20 ADD SWAP1 DUP2 MSTORE PUSH1 0x20 ADD PUSH1 0x0 KECCAK256 DUP2 SWAP1 SSTORE POP PUSH1 0x64 PUSH1 0x4 PUSH1 0x8 PUSH1 0x40 MLOAD PUSH3 0x30D SWAP2 SWAP1 PUSH3 0x65B JUMP JUMPDEST SWAP1 DUP2 MSTORE PUSH1 0x20 ADD PUSH1 0x40 MLOAD DUP1 SWAP2 SUB SWAP1 KECCAK256 DUP2 SWAP1 SSTORE POP PUSH1 0x64 PUSH1 0x4 PUSH1 0x9 PUSH1 0x40 MLOAD PUSH3 0x334 SWAP2 SWAP1 PUSH3 0x65B JUMP JUMPDEST SWAP1 DUP2 MSTORE PUSH1 0x20 ADD PUSH1 0x40 MLOAD DUP1 SWAP2 SUB SWAP1 KECCAK256 DUP2 SWAP1 SSTORE POP PUSH1 0x64 PUSH1 0x4 PUSH1 0xA PUSH1 0x40 MLOAD PUSH3 0x35B SWAP2 SWAP1 PUSH3 0x65B JUMP JUMPDEST SWAP1 DUP2 MSTORE PUSH1 0x20 ADD PUSH1 0x40 MLOAD DUP1 SWAP2 SUB SWAP1 KECCAK256 DUP2 SWAP1 SSTORE POP PUSH1 0x64 PUSH1 0x4 PUSH1 0xB PUSH1 0x40 MLOAD PUSH3 0x382 SWAP2 SWAP1 PUSH3 0x65B JUMP JUMPDEST SWAP1 DUP2 MSTORE PUSH1 0x20 ADD PUSH1 0x40 MLOAD DUP1 SWAP2 SUB SWAP1 KECCAK256 DUP2 SWAP1 SSTORE POP PUSH1 0x64 PUSH1 0x4 PUSH1 0xC PUSH1 0x40 MLOAD PUSH3 0x3A9 SWAP2 SWAP1 PUSH3 0x65B JUMP JUMPDEST SWAP1 DUP2 MSTORE PUSH1 0x20 ADD PUSH1 0x40 MLOAD DUP1 SWAP2 SUB SWAP1 KECCAK256 DUP2 SWAP1 SSTORE POP PUSH1 0x64 PUSH1 0x4 PUSH1 0xD PUSH1 0x40 MLOAD PUSH3 0x3D0 SWAP2 SWAP1 PUSH3 0x65B JUMP JUMPDEST SWAP1 DUP2 MSTORE PUSH1 0x20 ADD PUSH1 0x40 MLOAD DUP1 SWAP2 SUB SWAP1 KECCAK256 DUP2 SWAP1 SSTORE POP PUSH1 0x64 PUSH1 0x4 PUSH1 0xE PUSH1 0x40 MLOAD PUSH3 0x3F7 SWAP2 SWAP1 PUSH3 0x65B JUMP JUMPDEST SWAP1 DUP2 MSTORE PUSH1 0x20 ADD PUSH1 0x40 MLOAD DUP1 SWAP2 SUB SWAP1 KECCAK256 DUP2 SWAP1 SSTORE POP PUSH1 0x28 PUSH1 0x5 PUSH1 0x8 PUSH1 0x40 MLOAD PUSH3 0x41E SWAP2 SWAP1 PUSH3 0x65B JUMP JUMPDEST SWAP1 DUP2 MSTORE PUSH1 0x20 ADD PUSH1 0x40 MLOAD DUP1 SWAP2 SUB SWAP1 KECCAK256 DUP2 SWAP1 SSTORE POP PUSH1 0x1E PUSH1 0x5 PUSH1 0x9 PUSH1 0x40 MLOAD PUSH3 0x445 SWAP2 SWAP1 PUSH3 0x65B JUMP JUMPDEST SWAP1 DUP2 MSTORE PUSH1 0x20 ADD PUSH1 0x40 MLOAD DUP1 SWAP2 SUB SWAP1 KECCAK256 DUP2 SWAP1 SSTORE POP PUSH1 0x1E PUSH1 0x5 PUSH1 0xA PUSH1 0x40 MLOAD PUSH3 0x46C SWAP2 SWAP1 PUSH3 0x65B JUMP JUMPDEST SWAP1 DUP2 MSTORE PUSH1 0x20 ADD PUSH1 0x40 MLOAD DUP1 SWAP2 SUB SWAP1 KECCAK256 DUP2 SWAP1 SSTORE POP PUSH1 0x1E PUSH1 0x5 PUSH1 0xB PUSH1 0x40 MLOAD PUSH3 0x493 SWAP2 SWAP1 PUSH3 0x65B JUMP JUMPDEST SWAP1 DUP2 MSTORE PUSH1 0x20 ADD PUSH1 0x40 MLOAD DUP1 SWAP2 SUB SWAP1 KECCAK256 DUP2 SWAP1 SSTORE POP PUSH1 0x14 PUSH1 0x5 PUSH1 0xC PUSH1 0x40 MLOAD PUSH3 0x4BA SWAP2 SWAP1 PUSH3 0x65B JUMP JUMPDEST SWAP1 DUP2 MSTORE PUSH1 0x20 ADD PUSH1 0x40 MLOAD DUP1 SWAP2 SUB SWAP1 KECCAK256 DUP2 SWAP1 SSTORE POP PUSH1 0xA PUSH1 0x5 PUSH1 0xD PUSH1 0x40 MLOAD PUSH3 0x4E1 SWAP2 SWAP1 PUSH3 0x65B JUMP JUMPDEST SWAP1 DUP2 MSTORE PUSH1 0x20 ADD PUSH1 0x40 MLOAD DUP1 SWAP2 SUB SWAP1 KECCAK256 DUP2 SWAP1 SSTORE POP PUSH1 0x28 PUSH1 0x5 PUSH1 0xE PUSH1 0x40 MLOAD PUSH3 0x508 SWAP2 SWAP1 PUSH3 0x65B JUMP JUMPDEST SWAP1 DUP2 MSTORE PUSH1 0x20 ADD PUSH1 0x40 MLOAD DUP1 SWAP2 SUB SWAP1 KECCAK256 DUP2 SWAP1 SSTORE POP PUSH3 0x6F9 JUMP JUMPDEST DUP3 DUP1 SLOAD PUSH3 0x52E SWAP1 PUSH3 0x694 JUMP JUMPDEST SWAP1 PUSH1 0x0 MSTORE PUSH1 0x20 PUSH1 0x0 KECCAK256 SWAP1 PUSH1 0x1F ADD PUSH1 0x20 SWAP1 DIV DUP2 ADD SWAP3 DUP3 PUSH3 0x552 JUMPI PUSH1 0x0 DUP6 SSTORE PUSH3 0x59E JUMP JUMPDEST DUP3 PUSH1 0x1F LT PUSH3 0x56D JUMPI DUP1 MLOAD PUSH1 0xFF NOT AND DUP4 DUP1 ADD OR DUP6 SSTORE PUSH3 0x59E JUMP JUMPDEST DUP3 DUP1 ADD PUSH1 0x1 ADD DUP6 SSTORE DUP3 ISZERO PUSH3 0x59E JUMPI SWAP2 DUP3 ADD JUMPDEST DUP3 DUP2 GT ISZERO PUSH3 0x59D JUMPI DUP3 MLOAD DUP3 SSTORE SWAP2 PUSH1 0x20 ADD SWAP2 SWAP1 PUSH1 0x1 ADD SWAP1 PUSH3 0x580 JUMP JUMPDEST JUMPDEST POP SWAP1 POP PUSH3 0x5AD SWAP2 SWAP1 PUSH3 0x5B1 JUMP JUMPDEST POP SWAP1 JUMP JUMPDEST JUMPDEST DUP1 DUP3 GT ISZERO PUSH3 0x5CC JUMPI PUSH1 0x0 DUP2 PUSH1 0x0 SWAP1 SSTORE POP PUSH1 0x1 ADD PUSH3 0x5B2 JUMP JUMPDEST POP SWAP1 JUMP JUMPDEST PUSH1 0x0 DUP2 SLOAD PUSH3 0x5DF DUP2 PUSH3 0x694 JUMP JUMPDEST PUSH3 0x5EB DUP2 DUP7 PUSH3 0x689 JUMP JUMPDEST SWAP5 POP PUSH1 0x1 DUP3 AND PUSH1 0x0 DUP2 EQ PUSH3 0x609 JUMPI PUSH1 0x1 DUP2 EQ PUSH3 0x61B JUMPI PUSH3 0x652 JUMP JUMPDEST PUSH1 0xFF NOT DUP4 AND DUP7 MSTORE DUP2 DUP7 ADD SWAP4 POP PUSH3 0x652 JUMP JUMPDEST PUSH3 0x626 DUP6 PUSH3 0x674 JUMP JUMPDEST PUSH1 0x0 JUMPDEST DUP4 DUP2 LT ISZERO PUSH3 0x64A JUMPI DUP2 SLOAD DUP2 DUP10 ADD MSTORE PUSH1 0x1 DUP3 ADD SWAP2 POP PUSH1 0x20 DUP2 ADD SWAP1 POP PUSH3 0x629 JUMP JUMPDEST DUP4 DUP9 ADD SWAP6 POP POP POP JUMPDEST POP POP POP SWAP3 SWAP2 POP POP JUMP JUMPDEST PUSH1 0x0 PUSH3 0x669 DUP3 DUP5 PUSH3 0x5D0 JUMP JUMPDEST SWAP2 POP DUP2 SWAP1 POP SWAP3 SWAP2 POP POP JUMP JUMPDEST PUSH1 0x0 DUP2 SWAP1 POP DUP2 PUSH1 0x0 MSTORE PUSH1 0x20 PUSH1 0x0 KECCAK256 SWAP1 POP SWAP2 SWAP1 POP JUMP JUMPDEST PUSH1 0x0 DUP2 SWAP1 POP SWAP3 SWAP2 POP POP JUMP JUMPDEST PUSH1 0x0 PUSH1 0x2 DUP3 DIV SWAP1 POP PUSH1 0x1 DUP3 AND DUP1 PUSH3 0x6AD JUMPI PUSH1 0x7F DUP3 AND SWAP2 POP JUMPDEST PUSH1 0x20 DUP3 LT DUP2 EQ ISZERO PUSH3 0x6C4 JUMPI PUSH3 0x6C3 PUSH3 0x6CA JUMP JUMPDEST JUMPDEST POP SWAP2 SWAP1 POP JUMP JUMPDEST PUSH32 0x4E487B7100000000000000000000000000000000000000000000000000000000 PUSH1 0x0 MSTORE PUSH1 0x22 PUSH1 0x4 MSTORE PUSH1 0x24 PUSH1 0x0 REVERT JUMPDEST PUSH2 0x1749 DUP1 PUSH3 0x709 PUSH1 0x0 CODECOPY PUSH1 0x0 RETURN INVALID PUSH1 0x80 PUSH1 0x40 MSTORE CALLVALUE DUP1 ISZERO PUSH2 0x10 JUMPI PUSH1 0x0 DUP1 REVERT JUMPDEST POP PUSH1 0x4 CALLDATASIZE LT PUSH2 0xB4 JUMPI PUSH1 0x0 CALLDATALOAD PUSH1 0xE0 SHR DUP1 PUSH4 0x6390B023 GT PUSH2 0x71 JUMPI DUP1 PUSH4 0x6390B023 EQ PUSH2 0x1A3 JUMPI DUP1 PUSH4 0x70A08231 EQ PUSH2 0x1D4 JUMPI DUP1 PUSH4 0x95D89B41 EQ PUSH2 0x204 JUMPI DUP1 PUSH4 0xA9059CBB EQ PUSH2 0x222 JUMPI DUP1 PUSH4 0xDD62ED3E EQ PUSH2 0x252 JUMPI DUP1 PUSH4 0xE095C25C EQ PUSH2 0x282 JUMPI PUSH2 0xB4 JUMP JUMPDEST DUP1 PUSH4 0x6FDDE03 EQ PUSH2 0xB9 JUMPI DUP1 PUSH4 0x95EA7B3 EQ PUSH2 0xD7 JUMPI DUP1 PUSH4 0xAA39505 EQ PUSH2 0x107 JUMPI DUP1 PUSH4 0x18160DDD EQ PUSH2 0x137 JUMPI DUP1 PUSH4 0x23B872DD EQ PUSH2 0x155 JUMPI DUP1 PUSH4 0x313CE567 EQ PUSH2 0x185 JUMPI JUMPDEST PUSH1 0x0 DUP1 REVERT JUMPDEST PUSH2 0xC1 PUSH2 0x2B2 JUMP JUMPDEST PUSH1 0x40 MLOAD PUSH2 0xCE SWAP2 SWAP1 PUSH2 0x1311 JUMP JUMPDEST PUSH1 0x40 MLOAD DUP1 SWAP2 SUB SWAP1 RETURN JUMPDEST PUSH2 0xF1 PUSH1 0x4 DUP1 CALLDATASIZE SUB DUP2 ADD SWAP1 PUSH2 0xEC SWAP2 SWAP1 PUSH2 0x105A JUMP JUMPDEST PUSH2 0x2EB JUMP JUMPDEST PUSH1 0x40 MLOAD PUSH2 0xFE SWAP2 SWAP1 PUSH2 0x12F6 JUMP JUMPDEST PUSH1 0x40 MLOAD DUP1 SWAP2 SUB SWAP1 RETURN JUMPDEST PUSH2 0x121 PUSH1 0x4 DUP1 CALLDATASIZE SUB DUP2 ADD SWAP1 PUSH2 0x11C SWAP2 SWAP1 PUSH2 0x109A JUMP JUMPDEST PUSH2 0x3DD JUMP JUMPDEST PUSH1 0x40 MLOAD PUSH2 0x12E SWAP2 SWAP1 PUSH2 0x12F6 JUMP JUMPDEST PUSH1 0x40 MLOAD DUP1 SWAP2 SUB SWAP1 RETURN JUMPDEST PUSH2 0x13F PUSH2 0x5F4 JUMP JUMPDEST PUSH1 0x40 MLOAD PUSH2 0x14C SWAP2 SWAP1 PUSH2 0x1363 JUMP JUMPDEST PUSH1 0x40 MLOAD DUP1 SWAP2 SUB SWAP1 RETURN JUMPDEST PUSH2 0x16F PUSH1 0x4 DUP1 CALLDATASIZE SUB DUP2 ADD SWAP1 PUSH2 0x16A SWAP2 SWAP1 PUSH2 0x1007 JUMP JUMPDEST PUSH2 0x5FD JUMP JUMPDEST PUSH1 0x40 MLOAD PUSH2 0x17C SWAP2 SWAP1 PUSH2 0x12F6 JUMP JUMPDEST PUSH1 0x40 MLOAD DUP1 SWAP2 SUB SWAP1 RETURN JUMPDEST PUSH2 0x18D PUSH2 0x968 JUMP JUMPDEST PUSH1 0x40 MLOAD PUSH2 0x19A SWAP2 SWAP1 PUSH2 0x137E JUMP JUMPDEST PUSH1 0x40 MLOAD DUP1 SWAP2 SUB SWAP1 RETURN JUMPDEST PUSH2 0x1BD PUSH1 0x4 DUP1 CALLDATASIZE SUB DUP2 ADD SWAP1 PUSH2 0x1B8 SWAP2 SWAP1 PUSH2 0xF9A JUMP JUMPDEST PUSH2 0x96D JUMP JUMPDEST PUSH1 0x40 MLOAD PUSH2 0x1CB SWAP3 SWAP2 SWAP1 PUSH2 0x1333 JUMP JUMPDEST PUSH1 0x40 MLOAD DUP1 SWAP2 SUB SWAP1 RETURN JUMPDEST PUSH2 0x1EE PUSH1 0x4 DUP1 CALLDATASIZE SUB DUP2 ADD SWAP1 PUSH2 0x1E9 SWAP2 SWAP1 PUSH2 0xF9A JUMP JUMPDEST PUSH2 0xADC JUMP JUMPDEST PUSH1 0x40 MLOAD PUSH2 0x1FB SWAP2 SWAP1 PUSH2 0x1363 JUMP JUMPDEST PUSH1 0x40 MLOAD DUP1 SWAP2 SUB SWAP1 RETURN JUMPDEST PUSH2 0x20C PUSH2 0xB25 JUMP JUMPDEST PUSH1 0x40 MLOAD PUSH2 0x219 SWAP2 SWAP1 PUSH2 0x1311 JUMP JUMPDEST PUSH1 0x40 MLOAD DUP1 SWAP2 SUB SWAP1 RETURN JUMPDEST PUSH2 0x23C PUSH1 0x4 DUP1 CALLDATASIZE SUB DUP2 ADD SWAP1 PUSH2 0x237 SWAP2 SWAP1 PUSH2 0x105A JUMP JUMPDEST PUSH2 0xB5E JUMP JUMPDEST PUSH1 0x40 MLOAD PUSH2 0x249 SWAP2 SWAP1 PUSH2 0x12F6 JUMP JUMPDEST PUSH1 0x40 MLOAD DUP1 SWAP2 SUB SWAP1 RETURN JUMPDEST PUSH2 0x26C PUSH1 0x4 DUP1 CALLDATASIZE SUB DUP2 ADD SWAP1 PUSH2 0x267 SWAP2 SWAP1 PUSH2 0xFC7 JUMP JUMPDEST PUSH2 0xD37 JUMP JUMPDEST PUSH1 0x40 MLOAD PUSH2 0x279 SWAP2 SWAP1 PUSH2 0x1363 JUMP JUMPDEST PUSH1 0x40 MLOAD DUP1 SWAP2 SUB SWAP1 RETURN JUMPDEST PUSH2 0x29C PUSH1 0x4 DUP1 CALLDATASIZE SUB DUP2 ADD SWAP1 PUSH2 0x297 SWAP2 SWAP1 PUSH2 0x10F6 JUMP JUMPDEST PUSH2 0xDBE JUMP JUMPDEST PUSH1 0x40 MLOAD PUSH2 0x2A9 SWAP2 SWAP1 PUSH2 0x12F6 JUMP JUMPDEST PUSH1 0x40 MLOAD DUP1 SWAP2 SUB SWAP1 RETURN JUMPDEST PUSH1 0x40 MLOAD DUP1 PUSH1 0x40 ADD PUSH1 0x40 MSTORE DUP1 PUSH1 0x9 DUP2 MSTORE PUSH1 0x20 ADD PUSH32 0x4472696E6B5F4731320000000000000000000000000000000000000000000000 DUP2 MSTORE POP DUP2 JUMP JUMPDEST PUSH1 0x0 DUP2 PUSH1 0x3 PUSH1 0x0 CALLER PUSH20 0xFFFFFFFFFFFFFFFFFFFFFFFFFFFFFFFFFFFFFFFF AND PUSH20 0xFFFFFFFFFFFFFFFFFFFFFFFFFFFFFFFFFFFFFFFF AND DUP2 MSTORE PUSH1 0x20 ADD SWAP1 DUP2 MSTORE PUSH1 0x20 ADD PUSH1 0x0 KECCAK256 PUSH1 0x0 DUP6 PUSH20 0xFFFFFFFFFFFFFFFFFFFFFFFFFFFFFFFFFFFFFFFF AND PUSH20 0xFFFFFFFFFFFFFFFFFFFFFFFFFFFFFFFFFFFFFFFF AND DUP2 MSTORE PUSH1 0x20 ADD SWAP1 DUP2 MSTORE PUSH1 0x20 ADD PUSH1 0x0 KECCAK256 DUP2 SWAP1 SSTORE POP DUP3 PUSH20 0xFFFFFFFFFFFFFFFFFFFFFFFFFFFFFFFFFFFFFFFF AND CALLER PUSH20 0xFFFFFFFFFFFFFFFFFFFFFFFFFFFFFFFFFFFFFFFF AND PUSH32 0x8C5BE1E5EBEC7D5BD14F71427D1E84F3DD0314C0F7B2291E5B200AC8C7C3B925 DUP5 PUSH1 0x40 MLOAD PUSH2 0x3CB SWAP2 SWAP1 PUSH2 0x1363 JUMP JUMPDEST PUSH1 0x40 MLOAD DUP1 SWAP2 SUB SWAP1 LOG3 PUSH1 0x1 SWAP1 POP SWAP3 SWAP2 POP POP JUMP JUMPDEST PUSH1 0x0 DUP2 PUSH1 0x4 DUP5 PUSH1 0x40 MLOAD PUSH2 0x3F0 SWAP2 SWAP1 PUSH2 0x128A JUMP JUMPDEST SWAP1 DUP2 MSTORE PUSH1 0x20 ADD PUSH1 0x40 MLOAD DUP1 SWAP2 SUB SWAP1 KECCAK256 SLOAD LT ISZERO PUSH2 0x40A JUMPI PUSH1 0x0 DUP1 REVERT JUMPDEST PUSH1 0x5 DUP4 PUSH1 0x40 MLOAD PUSH2 0x41A SWAP2 SWAP1 PUSH2 0x128A JUMP JUMPDEST SWAP1 DUP2 MSTORE PUSH1 0x20 ADD PUSH1 0x40 MLOAD DUP1 SWAP2 SUB SWAP1 KECCAK256 SLOAD DUP3 PUSH2 0x434 SWAP2 SWAP1 PUSH2 0x1481 JUMP JUMPDEST PUSH1 0x2 PUSH1 0x0 CALLER PUSH20 0xFFFFFFFFFFFFFFFFFFFFFFFFFFFFFFFFFFFFFFFF AND PUSH20 0xFFFFFFFFFFFFFFFFFFFFFFFFFFFFFFFFFFFFFFFF AND DUP2 MSTORE PUSH1 0x20 ADD SWAP1 DUP2 MSTORE PUSH1 0x20 ADD PUSH1 0x0 KECCAK256 SLOAD LT ISZERO PUSH2 0x47F JUMPI PUSH1 0x0 DUP1 REVERT JUMPDEST PUSH2 0x4C6 PUSH20 0x5B38DA6A701C568545DCFCB03FCB875F56BEDDC4 PUSH1 0x5 DUP6 PUSH1 0x40 MLOAD PUSH2 0x4A7 SWAP2 SWAP1 PUSH2 0x128A JUMP JUMPDEST SWAP1 DUP2 MSTORE PUSH1 0x20 ADD PUSH1 0x40 MLOAD DUP1 SWAP2 SUB SWAP1 KECCAK256 SLOAD DUP5 PUSH2 0x4C1 SWAP2 SWAP1 PUSH2 0x1481 JUMP JUMPDEST PUSH2 0xB5E JUMP JUMPDEST POP PUSH1 0x4 DUP4 PUSH1 0x40 MLOAD PUSH2 0x4D7 SWAP2 SWAP1 PUSH2 0x128A JUMP JUMPDEST SWAP1 DUP2 MSTORE PUSH1 0x20 ADD PUSH1 0x40 MLOAD DUP1 SWAP2 SUB SWAP1 KECCAK256 PUSH1 0x0 DUP2 SLOAD DUP1 SWAP3 SWAP2 SWAP1 PUSH2 0x4F6 SWAP1 PUSH2 0x15A6 JUMP JUMPDEST SWAP2 SWAP1 POP SSTORE POP DUP3 PUSH1 0x6 PUSH1 0x0 CALLER PUSH20 0xFFFFFFFFFFFFFFFFFFFFFFFFFFFFFFFFFFFFFFFF AND PUSH20 0xFFFFFFFFFFFFFFFFFFFFFFFFFFFFFFFFFFFFFFFF AND DUP2 MSTORE PUSH1 0x20 ADD SWAP1 DUP2 MSTORE PUSH1 0x20 ADD PUSH1 0x0 KECCAK256 SWAP1 DUP1 MLOAD SWAP1 PUSH1 0x20 ADD SWAP1 PUSH2 0x54E SWAP3 SWAP2 SWAP1 PUSH2 0xE5D JUMP JUMPDEST POP DUP2 PUSH1 0x7 PUSH1 0x0 CALLER PUSH20 0xFFFFFFFFFFFFFFFFFFFFFFFFFFFFFFFFFFFFFFFF AND PUSH20 0xFFFFFFFFFFFFFFFFFFFFFFFFFFFFFFFFFFFFFFFF AND DUP2 MSTORE PUSH1 0x20 ADD SWAP1 DUP2 MSTORE PUSH1 0x20 ADD PUSH1 0x0 KECCAK256 DUP5 PUSH1 0x40 MLOAD PUSH2 0x59D SWAP2 SWAP1 PUSH2 0x128A JUMP JUMPDEST SWAP1 DUP2 MSTORE PUSH1 0x20 ADD PUSH1 0x40 MLOAD DUP1 SWAP2 SUB SWAP1 KECCAK256 DUP2 SWAP1 SSTORE POP PUSH32 0x3D793E2BA72604006E0C2D8656F1AF9B2ACECE635AD25C0C9787877239F33F31 CALLER DUP5 DUP5 PUSH1 0x40 MLOAD PUSH2 0x5E2 SWAP4 SWAP3 SWAP2 SWAP1 PUSH2 0x12B8 JUMP JUMPDEST PUSH1 0x40 MLOAD DUP1 SWAP2 SUB SWAP1 LOG1 PUSH1 0x1 SWAP1 POP SWAP3 SWAP2 POP POP JUMP JUMPDEST PUSH1 0x0 DUP1 SLOAD SWAP1 POP SWAP1 JUMP JUMPDEST PUSH1 0x0 PUSH1 0x2 PUSH1 0x0 DUP6 PUSH20 0xFFFFFFFFFFFFFFFFFFFFFFFFFFFFFFFFFFFFFFFF AND PUSH20 0xFFFFFFFFFFFFFFFFFFFFFFFFFFFFFFFFFFFFFFFF AND DUP2 MSTORE PUSH1 0x20 ADD SWAP1 DUP2 MSTORE PUSH1 0x20 ADD PUSH1 0x0 KECCAK256 SLOAD DUP3 GT ISZERO PUSH2 0x64B JUMPI PUSH1 0x0 DUP1 REVERT JUMPDEST PUSH1 0x3 PUSH1 0x0 DUP6 PUSH20 0xFFFFFFFFFFFFFFFFFFFFFFFFFFFFFFFFFFFFFFFF AND PUSH20 0xFFFFFFFFFFFFFFFFFFFFFFFFFFFFFFFFFFFFFFFF AND DUP2 MSTORE PUSH1 0x20 ADD SWAP1 DUP2 MSTORE PUSH1 0x20 ADD PUSH1 0x0 KECCAK256 PUSH1 0x0 CALLER PUSH20 0xFFFFFFFFFFFFFFFFFFFFFFFFFFFFFFFFFFFFFFFF AND PUSH20 0xFFFFFFFFFFFFFFFFFFFFFFFFFFFFFFFFFFFFFFFF AND DUP2 MSTORE PUSH1 0x20 ADD SWAP1 DUP2 MSTORE PUSH1 0x20 ADD PUSH1 0x0 KECCAK256 SLOAD DUP3 GT ISZERO PUSH2 0x6D4 JUMPI PUSH1 0x0 DUP1 REVERT JUMPDEST DUP2 PUSH1 0x2 PUSH1 0x0 DUP7 PUSH20 0xFFFFFFFFFFFFFFFFFFFFFFFFFFFFFFFFFFFFFFFF AND PUSH20 0xFFFFFFFFFFFFFFFFFFFFFFFFFFFFFFFFFFFFFFFF AND DUP2 MSTORE PUSH1 0x20 ADD SWAP1 DUP2 MSTORE PUSH1 0x20 ADD PUSH1 0x0 KECCAK256 SLOAD PUSH2 0x71F SWAP2 SWAP1 PUSH2 0x14DB JUMP JUMPDEST PUSH1 0x2 PUSH1 0x0 DUP7 PUSH20 0xFFFFFFFFFFFFFFFFFFFFFFFFFFFFFFFFFFFFFFFF AND PUSH20 0xFFFFFFFFFFFFFFFFFFFFFFFFFFFFFFFFFFFFFFFF AND DUP2 MSTORE PUSH1 0x20 ADD SWAP1 DUP2 MSTORE PUSH1 0x20 ADD PUSH1 0x0 KECCAK256 DUP2 SWAP1 SSTORE POP DUP2 PUSH1 0x3 PUSH1 0x0 DUP7 PUSH20 0xFFFFFFFFFFFFFFFFFFFFFFFFFFFFFFFFFFFFFFFF AND PUSH20 0xFFFFFFFFFFFFFFFFFFFFFFFFFFFFFFFFFFFFFFFF AND DUP2 MSTORE PUSH1 0x20 ADD SWAP1 DUP2 MSTORE PUSH1 0x20 ADD PUSH1 0x0 KECCAK256 PUSH1 0x0 CALLER PUSH20 0xFFFFFFFFFFFFFFFFFFFFFFFFFFFFFFFFFFFFFFFF AND PUSH20 0xFFFFFFFFFFFFFFFFFFFFFFFFFFFFFFFFFFFFFFFF AND DUP2 MSTORE PUSH1 0x20 ADD SWAP1 DUP2 MSTORE PUSH1 0x20 ADD PUSH1 0x0 KECCAK256 SLOAD PUSH2 0x7EA SWAP2 SWAP1 PUSH2 0x14DB JUMP JUMPDEST PUSH1 0x3 PUSH1 0x0 DUP7 PUSH20 0xFFFFFFFFFFFFFFFFFFFFFFFFFFFFFFFFFFFFFFFF AND PUSH20 0xFFFFFFFFFFFFFFFFFFFFFFFFFFFFFFFFFFFFFFFF AND DUP2 MSTORE PUSH1 0x20 ADD SWAP1 DUP2 MSTORE PUSH1 0x20 ADD PUSH1 0x0 KECCAK256 PUSH1 0x0 CALLER PUSH20 0xFFFFFFFFFFFFFFFFFFFFFFFFFFFFFFFFFFFFFFFF AND PUSH20 0xFFFFFFFFFFFFFFFFFFFFFFFFFFFFFFFFFFFFFFFF AND DUP2 MSTORE PUSH1 0x20 ADD SWAP1 DUP2 MSTORE PUSH1 0x20 ADD PUSH1 0x0 KECCAK256 DUP2 SWAP1 SSTORE POP DUP2 PUSH1 0x2 PUSH1 0x0 DUP6 PUSH20 0xFFFFFFFFFFFFFFFFFFFFFFFFFFFFFFFFFFFFFFFF AND PUSH20 0xFFFFFFFFFFFFFFFFFFFFFFFFFFFFFFFFFFFFFFFF AND DUP2 MSTORE PUSH1 0x20 ADD SWAP1 DUP2 MSTORE PUSH1 0x20 ADD PUSH1 0x0 KECCAK256 SLOAD PUSH2 0x8B5 SWAP2 SWAP1 PUSH2 0x142B JUMP JUMPDEST PUSH1 0x2 PUSH1 0x0 DUP6 PUSH20 0xFFFFFFFFFFFFFFFFFFFFFFFFFFFFFFFFFFFFFFFF AND PUSH20 0xFFFFFFFFFFFFFFFFFFFFFFFFFFFFFFFFFFFFFFFF AND DUP2 MSTORE PUSH1 0x20 ADD SWAP1 DUP2 MSTORE PUSH1 0x20 ADD PUSH1 0x0 KECCAK256 DUP2 SWAP1 SSTORE POP DUP3 PUSH20 0xFFFFFFFFFFFFFFFFFFFFFFFFFFFFFFFFFFFFFFFF AND DUP5 PUSH20 0xFFFFFFFFFFFFFFFFFFFFFFFFFFFFFFFFFFFFFFFF AND PUSH32 0xDDF252AD1BE2C89B69C2B068FC378DAA952BA7F163C4A11628F55A4DF523B3EF DUP5 PUSH1 0x40 MLOAD PUSH2 0x955 SWAP2 SWAP1 PUSH2 0x1363 JUMP JUMPDEST PUSH1 0x40 MLOAD DUP1 SWAP2 SUB SWAP1 LOG3 PUSH1 0x1 SWAP1 POP SWAP4 SWAP3 POP POP POP JUMP JUMPDEST PUSH1 0x2 DUP2 JUMP JUMPDEST PUSH1 0x60 PUSH1 0x0 PUSH1 0x6 PUSH1 0x0 CALLER PUSH20 0xFFFFFFFFFFFFFFFFFFFFFFFFFFFFFFFFFFFFFFFF AND PUSH20 0xFFFFFFFFFFFFFFFFFFFFFFFFFFFFFFFFFFFFFFFF AND DUP2 MSTORE PUSH1 0x20 ADD SWAP1 DUP2 MSTORE PUSH1 0x20 ADD PUSH1 0x0 KECCAK256 DUP1 SLOAD PUSH2 0x9BB SWAP1 PUSH2 0x15D0 JUMP JUMPDEST DUP1 PUSH1 0x1F ADD PUSH1 0x20 DUP1 SWAP2 DIV MUL PUSH1 0x20 ADD PUSH1 0x40 MLOAD SWAP1 DUP2 ADD PUSH1 0x40 MSTORE DUP1 SWAP3 SWAP2 SWAP1 DUP2 DUP2 MSTORE PUSH1 0x20 ADD DUP3 DUP1 SLOAD PUSH2 0x9E7 SWAP1 PUSH2 0x15D0 JUMP JUMPDEST DUP1 ISZERO PUSH2 0xA34 JUMPI DUP1 PUSH1 0x1F LT PUSH2 0xA09 JUMPI PUSH2 0x100 DUP1 DUP4 SLOAD DIV MUL DUP4 MSTORE SWAP2 PUSH1 0x20 ADD SWAP2 PUSH2 0xA34 JUMP JUMPDEST DUP3 ADD SWAP2 SWAP1 PUSH1 0x0 MSTORE PUSH1 0x20 PUSH1 0x0 KECCAK256 SWAP1 JUMPDEST DUP2 SLOAD DUP2 MSTORE SWAP1 PUSH1 0x1 ADD SWAP1 PUSH1 0x20 ADD DUP1 DUP4 GT PUSH2 0xA17 JUMPI DUP3 SWAP1 SUB PUSH1 0x1F AND DUP3 ADD SWAP2 JUMPDEST POP POP POP POP POP SWAP2 POP PUSH1 0x7 PUSH1 0x0 CALLER PUSH20 0xFFFFFFFFFFFFFFFFFFFFFFFFFFFFFFFFFFFFFFFF AND PUSH20 0xFFFFFFFFFFFFFFFFFFFFFFFFFFFFFFFFFFFFFFFF AND DUP2 MSTORE PUSH1 0x20 ADD SWAP1 DUP2 MSTORE PUSH1 0x20 ADD PUSH1 0x0 KECCAK256 PUSH1 0x6 PUSH1 0x0 CALLER PUSH20 0xFFFFFFFFFFFFFFFFFFFFFFFFFFFFFFFFFFFFFFFF AND PUSH20 0xFFFFFFFFFFFFFFFFFFFFFFFFFFFFFFFFFFFFFFFF AND DUP2 MSTORE PUSH1 0x20 ADD SWAP1 DUP2 MSTORE PUSH1 0x20 ADD PUSH1 0x0 KECCAK256 PUSH1 0x40 MLOAD PUSH2 0xAC6 SWAP2 SWAP1 PUSH2 0x12A1 JUMP JUMPDEST SWAP1 DUP2 MSTORE PUSH1 0x20 ADD PUSH1 0x40 MLOAD DUP1 SWAP2 SUB SWAP1 KECCAK256 SLOAD SWAP1 POP SWAP2 POP SWAP2 JUMP JUMPDEST PUSH1 0x0 PUSH1 0x2 PUSH1 0x0 DUP4 PUSH20 0xFFFFFFFFFFFFFFFFFFFFFFFFFFFFFFFFFFFFFFFF AND PUSH20 0xFFFFFFFFFFFFFFFFFFFFFFFFFFFFFFFFFFFFFFFF AND DUP2 MSTORE PUSH1 0x20 ADD SWAP1 DUP2 MSTORE PUSH1 0x20 ADD PUSH1 0x0 KECCAK256 SLOAD SWAP1 POP SWAP2 SWAP1 POP JUMP JUMPDEST PUSH1 0x40 MLOAD DUP1 PUSH1 0x40 ADD PUSH1 0x40 MSTORE DUP1 PUSH1 0x4 DUP2 MSTORE PUSH1 0x20 ADD PUSH32 0x4452313200000000000000000000000000000000000000000000000000000000 DUP2 MSTORE POP DUP2 JUMP JUMPDEST PUSH1 0x0 PUSH1 0x2 PUSH1 0x0 CALLER PUSH20 0xFFFFFFFFFFFFFFFFFFFFFFFFFFFFFFFFFFFFFFFF AND PUSH20 0xFFFFFFFFFFFFFFFFFFFFFFFFFFFFFFFFFFFFFFFF AND DUP2 MSTORE PUSH1 0x20 ADD SWAP1 DUP2 MSTORE PUSH1 0x20 ADD PUSH1 0x0 KECCAK256 SLOAD DUP3 GT ISZERO PUSH2 0xBAC JUMPI PUSH1 0x0 DUP1 REVERT JUMPDEST DUP2 PUSH1 0x2 PUSH1 0x0 CALLER PUSH20 0xFFFFFFFFFFFFFFFFFFFFFFFFFFFFFFFFFFFFFFFF AND PUSH20 0xFFFFFFFFFFFFFFFFFFFFFFFFFFFFFFFFFFFFFFFF AND DUP2 MSTORE PUSH1 0x20 ADD SWAP1 DUP2 MSTORE PUSH1 0x20 ADD PUSH1 0x0 KECCAK256 SLOAD PUSH2 0xBF7 SWAP2 SWAP1 PUSH2 0x14DB JUMP JUMPDEST PUSH1 0x2 PUSH1 0x0 CALLER PUSH20 0xFFFFFFFFFFFFFFFFFFFFFFFFFFFFFFFFFFFFFFFF AND PUSH20 0xFFFFFFFFFFFFFFFFFFFFFFFFFFFFFFFFFFFFFFFF AND DUP2 MSTORE PUSH1 0x20 ADD SWAP1 DUP2 MSTORE PUSH1 0x20 ADD PUSH1 0x0 KECCAK256 DUP2 SWAP1 SSTORE POP DUP2 PUSH1 0x2 PUSH1 0x0 DUP6 PUSH20 0xFFFFFFFFFFFFFFFFFFFFFFFFFFFFFFFFFFFFFFFF AND PUSH20 0xFFFFFFFFFFFFFFFFFFFFFFFFFFFFFFFFFFFFFFFF AND DUP2 MSTORE PUSH1 0x20 ADD SWAP1 DUP2 MSTORE PUSH1 0x20 ADD PUSH1 0x0 KECCAK256 SLOAD PUSH2 0xC85 SWAP2 SWAP1 PUSH2 0x142B JUMP JUMPDEST PUSH1 0x2 PUSH1 0x0 DUP6 PUSH20 0xFFFFFFFFFFFFFFFFFFFFFFFFFFFFFFFFFFFFFFFF AND PUSH20 0xFFFFFFFFFFFFFFFFFFFFFFFFFFFFFFFFFFFFFFFF AND DUP2 MSTORE PUSH1 0x20 ADD SWAP1 DUP2 MSTORE PUSH1 0x20 ADD PUSH1 0x0 KECCAK256 DUP2 SWAP1 SSTORE POP DUP3 PUSH20 0xFFFFFFFFFFFFFFFFFFFFFFFFFFFFFFFFFFFFFFFF AND CALLER PUSH20 0xFFFFFFFFFFFFFFFFFFFFFFFFFFFFFFFFFFFFFFFF AND PUSH32 0xDDF252AD1BE2C89B69C2B068FC378DAA952BA7F163C4A11628F55A4DF523B3EF DUP5 PUSH1 0x40 MLOAD PUSH2 0xD25 SWAP2 SWAP1 PUSH2 0x1363 JUMP JUMPDEST PUSH1 0x40 MLOAD DUP1 SWAP2 SUB SWAP1 LOG3 PUSH1 0x1 SWAP1 POP SWAP3 SWAP2 POP POP JUMP JUMPDEST PUSH1 0x0 PUSH1 0x3 PUSH1 0x0 DUP5 PUSH20 0xFFFFFFFFFFFFFFFFFFFFFFFFFFFFFFFFFFFFFFFF AND PUSH20 0xFFFFFFFFFFFFFFFFFFFFFFFFFFFFFFFFFFFFFFFF AND DUP2 MSTORE PUSH1 0x20 ADD SWAP1 DUP2 MSTORE PUSH1 0x20 ADD PUSH1 0x0 KECCAK256 PUSH1 0x0 DUP4 PUSH20 0xFFFFFFFFFFFFFFFFFFFFFFFFFFFFFFFFFFFFFFFF AND PUSH20 0xFFFFFFFFFFFFFFFFFFFFFFFFFFFFFFFFFFFFFFFF AND DUP2 MSTORE PUSH1 0x20 ADD SWAP1 DUP2 MSTORE PUSH1 0x20 ADD PUSH1 0x0 KECCAK256 SLOAD SWAP1 POP SWAP3 SWAP2 POP POP JUMP JUMPDEST PUSH1 0x0 PUSH20 0x5B38DA6A701C568545DCFCB03FCB875F56BEDDC4 PUSH20 0xFFFFFFFFFFFFFFFFFFFFFFFFFFFFFFFFFFFFFFFF AND CALLER PUSH20 0xFFFFFFFFFFFFFFFFFFFFFFFFFFFFFFFFFFFFFFFF AND EQ PUSH2 0xE0C JUMPI PUSH1 0x0 DUP1 REVERT JUMPDEST DUP3 PUSH1 0x5 DUP6 PUSH1 0x40 MLOAD PUSH2 0xE1D SWAP2 SWAP1 PUSH2 0x128A JUMP JUMPDEST SWAP1 DUP2 MSTORE PUSH1 0x20 ADD PUSH1 0x40 MLOAD DUP1 SWAP2 SUB SWAP1 KECCAK256 DUP2 SWAP1 SSTORE POP DUP2 PUSH1 0x4 DUP6 PUSH1 0x40 MLOAD PUSH2 0xE40 SWAP2 SWAP1 PUSH2 0x128A JUMP JUMPDEST SWAP1 DUP2 MSTORE PUSH1 0x20 ADD PUSH1 0x40 MLOAD DUP1 SWAP2 SUB SWAP1 KECCAK256 DUP2 SWAP1 SSTORE POP PUSH1 0x1 SWAP1 POP SWAP4 SWAP3 POP POP POP JUMP JUMPDEST DUP3 DUP1 SLOAD PUSH2 0xE69 SWAP1 PUSH2 0x15D0 JUMP JUMPDEST SWAP1 PUSH1 0x0 MSTORE PUSH1 0x20 PUSH1 0x0 KECCAK256 SWAP1 PUSH1 0x1F ADD PUSH1 0x20 SWAP1 DIV DUP2 ADD SWAP3 DUP3 PUSH2 0xE8B JUMPI PUSH1 0x0 DUP6 SSTORE PUSH2 0xED2 JUMP JUMPDEST DUP3 PUSH1 0x1F LT PUSH2 0xEA4 JUMPI DUP1 MLOAD PUSH1 0xFF NOT AND DUP4 DUP1 ADD OR DUP6 SSTORE PUSH2 0xED2 JUMP JUMPDEST DUP3 DUP1 ADD PUSH1 0x1 ADD DUP6 SSTORE DUP3 ISZERO PUSH2 0xED2 JUMPI SWAP2 DUP3 ADD JUMPDEST DUP3 DUP2 GT ISZERO PUSH2 0xED1 JUMPI DUP3 MLOAD DUP3 SSTORE SWAP2 PUSH1 0x20 ADD SWAP2 SWAP1 PUSH1 0x1 ADD SWAP1 PUSH2 0xEB6 JUMP JUMPDEST JUMPDEST POP SWAP1 POP PUSH2 0xEDF SWAP2 SWAP1 PUSH2 0xEE3 JUMP JUMPDEST POP SWAP1 JUMP JUMPDEST JUMPDEST DUP1 DUP3 GT ISZERO PUSH2 0xEFC JUMPI PUSH1 0x0 DUP2 PUSH1 0x0 SWAP1 SSTORE POP PUSH1 0x1 ADD PUSH2 0xEE4 JUMP JUMPDEST POP SWAP1 JUMP JUMPDEST PUSH1 0x0 PUSH2 0xF13 PUSH2 0xF0E DUP5 PUSH2 0x13BE JUMP JUMPDEST PUSH2 0x1399 JUMP JUMPDEST SWAP1 POP DUP3 DUP2 MSTORE PUSH1 0x20 DUP2 ADD DUP5 DUP5 DUP5 ADD GT ISZERO PUSH2 0xF2F JUMPI PUSH2 0xF2E PUSH2 0x16C5 JUMP JUMPDEST JUMPDEST PUSH2 0xF3A DUP5 DUP3 DUP6 PUSH2 0x1564 JUMP JUMPDEST POP SWAP4 SWAP3 POP POP POP JUMP JUMPDEST PUSH1 0x0 DUP2 CALLDATALOAD SWAP1 POP PUSH2 0xF51 DUP2 PUSH2 0x16E5 JUMP JUMPDEST SWAP3 SWAP2 POP POP JUMP JUMPDEST PUSH1 0x0 DUP3 PUSH1 0x1F DUP4 ADD SLT PUSH2 0xF6C JUMPI PUSH2 0xF6B PUSH2 0x16C0 JUMP JUMPDEST JUMPDEST DUP2 CALLDATALOAD PUSH2 0xF7C DUP5 DUP3 PUSH1 0x20 DUP7 ADD PUSH2 0xF00 JUMP JUMPDEST SWAP2 POP POP SWAP3 SWAP2 POP POP JUMP JUMPDEST PUSH1 0x0 DUP2 CALLDATALOAD SWAP1 POP PUSH2 0xF94 DUP2 PUSH2 0x16FC JUMP JUMPDEST SWAP3 SWAP2 POP POP JUMP JUMPDEST PUSH1 0x0 PUSH1 0x20 DUP3 DUP5 SUB SLT ISZERO PUSH2 0xFB0 JUMPI PUSH2 0xFAF PUSH2 0x16CF JUMP JUMPDEST JUMPDEST PUSH1 0x0 PUSH2 0xFBE DUP5 DUP3 DUP6 ADD PUSH2 0xF42 JUMP JUMPDEST SWAP2 POP POP SWAP3 SWAP2 POP POP JUMP JUMPDEST PUSH1 0x0 DUP1 PUSH1 0x40 DUP4 DUP6 SUB SLT ISZERO PUSH2 0xFDE JUMPI PUSH2 0xFDD PUSH2 0x16CF JUMP JUMPDEST JUMPDEST PUSH1 0x0 PUSH2 0xFEC DUP6 DUP3 DUP7 ADD PUSH2 0xF42 JUMP JUMPDEST SWAP3 POP POP PUSH1 0x20 PUSH2 0xFFD DUP6 DUP3 DUP7 ADD PUSH2 0xF42 JUMP JUMPDEST SWAP2 POP POP SWAP3 POP SWAP3 SWAP1 POP JUMP JUMPDEST PUSH1 0x0 DUP1 PUSH1 0x0 PUSH1 0x60 DUP5 DUP7 SUB SLT ISZERO PUSH2 0x1020 JUMPI PUSH2 0x101F PUSH2 0x16CF JUMP JUMPDEST JUMPDEST PUSH1 0x0 PUSH2 0x102E DUP7 DUP3 DUP8 ADD PUSH2 0xF42 JUMP JUMPDEST SWAP4 POP POP PUSH1 0x20 PUSH2 0x103F DUP7 DUP3 DUP8 ADD PUSH2 0xF42 JUMP JUMPDEST SWAP3 POP POP PUSH1 0x40 PUSH2 0x1050 DUP7 DUP3 DUP8 ADD PUSH2 0xF85 JUMP JUMPDEST SWAP2 POP POP SWAP3 POP SWAP3 POP SWAP3 JUMP JUMPDEST PUSH1 0x0 DUP1 PUSH1 0x40 DUP4 DUP6 SUB SLT ISZERO PUSH2 0x1071 JUMPI PUSH2 0x1070 PUSH2 0x16CF JUMP JUMPDEST JUMPDEST PUSH1 0x0 PUSH2 0x107F DUP6 DUP3 DUP7 ADD PUSH2 0xF42 JUMP JUMPDEST SWAP3 POP POP PUSH1 0x20 PUSH2 0x1090 DUP6 DUP3 DUP7 ADD PUSH2 0xF85 JUMP JUMPDEST SWAP2 POP POP SWAP3 POP SWAP3 SWAP1 POP JUMP JUMPDEST PUSH1 0x0 DUP1 PUSH1 0x40 DUP4 DUP6 SUB SLT ISZERO PUSH2 0x10B1 JUMPI PUSH2 0x10B0 PUSH2 0x16CF JUMP JUMPDEST JUMPDEST PUSH1 0x0 DUP4 ADD CALLDATALOAD PUSH8 0xFFFFFFFFFFFFFFFF DUP2 GT ISZERO PUSH2 0x10CF JUMPI PUSH2 0x10CE PUSH2 0x16CA JUMP JUMPDEST JUMPDEST PUSH2 0x10DB DUP6 DUP3 DUP7 ADD PUSH2 0xF57 JUMP JUMPDEST SWAP3 POP POP PUSH1 0x20 PUSH2 0x10EC DUP6 DUP3 DUP7 ADD PUSH2 0xF85 JUMP JUMPDEST SWAP2 POP POP SWAP3 POP SWAP3 SWAP1 POP JUMP JUMPDEST PUSH1 0x0 DUP1 PUSH1 0x0 PUSH1 0x60 DUP5 DUP7 SUB SLT ISZERO PUSH2 0x110F JUMPI PUSH2 0x110E PUSH2 0x16CF JUMP JUMPDEST JUMPDEST PUSH1 0x0 DUP5 ADD CALLDATALOAD PUSH8 0xFFFFFFFFFFFFFFFF DUP2 GT ISZERO PUSH2 0x112D JUMPI PUSH2 0x112C PUSH2 0x16CA JUMP JUMPDEST JUMPDEST PUSH2 0x1139 DUP7 DUP3 DUP8 ADD PUSH2 0xF57 JUMP JUMPDEST SWAP4 POP POP PUSH1 0x20 PUSH2 0x114A DUP7 DUP3 DUP8 ADD PUSH2 0xF85 JUMP JUMPDEST SWAP3 POP POP PUSH1 0x40 PUSH2 0x115B DUP7 DUP3 DUP8 ADD PUSH2 0xF85 JUMP JUMPDEST SWAP2 POP POP SWAP3 POP SWAP3 POP SWAP3 JUMP JUMPDEST PUSH2 0x116E DUP2 PUSH2 0x150F JUMP JUMPDEST DUP3 MSTORE POP POP JUMP JUMPDEST PUSH2 0x117D DUP2 PUSH2 0x1521 JUMP JUMPDEST DUP3 MSTORE POP POP JUMP JUMPDEST PUSH1 0x0 PUSH2 0x118E DUP3 PUSH2 0x1404 JUMP JUMPDEST PUSH2 0x1198 DUP2 DUP6 PUSH2 0x140F JUMP JUMPDEST SWAP4 POP PUSH2 0x11A8 DUP2 DUP6 PUSH1 0x20 DUP7 ADD PUSH2 0x1573 JUMP JUMPDEST PUSH2 0x11B1 DUP2 PUSH2 0x16D4 JUMP JUMPDEST DUP5 ADD SWAP2 POP POP SWAP3 SWAP2 POP POP JUMP JUMPDEST PUSH1 0x0 PUSH2 0x11C7 DUP3 PUSH2 0x1404 JUMP JUMPDEST PUSH2 0x11D1 DUP2 DUP6 PUSH2 0x1420 JUMP JUMPDEST SWAP4 POP PUSH2 0x11E1 DUP2 DUP6 PUSH1 0x20 DUP7 ADD PUSH2 0x1573 JUMP JUMPDEST DUP1 DUP5 ADD SWAP2 POP POP SWAP3 SWAP2 POP POP JUMP JUMPDEST PUSH1 0x0 DUP2 SLOAD PUSH2 0x11FA DUP2 PUSH2 0x15D0 JUMP JUMPDEST PUSH2 0x1204 DUP2 DUP7 PUSH2 0x1420 JUMP JUMPDEST SWAP5 POP PUSH1 0x1 DUP3 AND PUSH1 0x0 DUP2 EQ PUSH2 0x121F JUMPI PUSH1 0x1 DUP2 EQ PUSH2 0x1230 JUMPI PUSH2 0x1263 JUMP JUMPDEST PUSH1 0xFF NOT DUP4 AND DUP7 MSTORE DUP2 DUP7 ADD SWAP4 POP PUSH2 0x1263 JUMP JUMPDEST PUSH2 0x1239 DUP6 PUSH2 0x13EF JUMP JUMPDEST PUSH1 0x0 JUMPDEST DUP4 DUP2 LT ISZERO PUSH2 0x125B JUMPI DUP2 SLOAD DUP2 DUP10 ADD MSTORE PUSH1 0x1 DUP3 ADD SWAP2 POP PUSH1 0x20 DUP2 ADD SWAP1 POP PUSH2 0x123C JUMP JUMPDEST DUP4 DUP9 ADD SWAP6 POP POP POP JUMPDEST POP POP POP SWAP3 SWAP2 POP POP JUMP JUMPDEST PUSH2 0x1275 DUP2 PUSH2 0x154D JUMP JUMPDEST DUP3 MSTORE POP POP JUMP JUMPDEST PUSH2 0x1284 DUP2 PUSH2 0x1557 JUMP JUMPDEST DUP3 MSTORE POP POP JUMP JUMPDEST PUSH1 0x0 PUSH2 0x1296 DUP3 DUP5 PUSH2 0x11BC JUMP JUMPDEST SWAP2 POP DUP2 SWAP1 POP SWAP3 SWAP2 POP POP JUMP JUMPDEST PUSH1 0x0 PUSH2 0x12AD DUP3 DUP5 PUSH2 0x11ED JUMP JUMPDEST SWAP2 POP DUP2 SWAP1 POP SWAP3 SWAP2 POP POP JUMP JUMPDEST PUSH1 0x0 PUSH1 0x60 DUP3 ADD SWAP1 POP PUSH2 0x12CD PUSH1 0x0 DUP4 ADD DUP7 PUSH2 0x1165 JUMP JUMPDEST DUP2 DUP2 SUB PUSH1 0x20 DUP4 ADD MSTORE PUSH2 0x12DF DUP2 DUP6 PUSH2 0x1183 JUMP JUMPDEST SWAP1 POP PUSH2 0x12EE PUSH1 0x40 DUP4 ADD DUP5 PUSH2 0x126C JUMP JUMPDEST SWAP5 SWAP4 POP POP POP POP JUMP JUMPDEST PUSH1 0x0 PUSH1 0x20 DUP3 ADD SWAP1 POP PUSH2 0x130B PUSH1 0x0 DUP4 ADD DUP5 PUSH2 0x1174 JUMP JUMPDEST SWAP3 SWAP2 POP POP JUMP JUMPDEST PUSH1 0x0 PUSH1 0x20 DUP3 ADD SWAP1 POP DUP2 DUP2 SUB PUSH1 0x0 DUP4 ADD MSTORE PUSH2 0x132B DUP2 DUP5 PUSH2 0x1183 JUMP JUMPDEST SWAP1 POP SWAP3 SWAP2 POP POP JUMP JUMPDEST PUSH1 0x0 PUSH1 0x40 DUP3 ADD SWAP1 POP DUP2 DUP2 SUB PUSH1 0x0 DUP4 ADD MSTORE PUSH2 0x134D DUP2 DUP6 PUSH2 0x1183 JUMP JUMPDEST SWAP1 POP PUSH2 0x135C PUSH1 0x20 DUP4 ADD DUP5 PUSH2 0x126C JUMP JUMPDEST SWAP4 SWAP3 POP POP POP JUMP JUMPDEST PUSH1 0x0 PUSH1 0x20 DUP3 ADD SWAP1 POP PUSH2 0x1378 PUSH1 0x0 DUP4 ADD DUP5 PUSH2 0x126C JUMP JUMPDEST SWAP3 SWAP2 POP POP JUMP JUMPDEST PUSH1 0x0 PUSH1 0x20 DUP3 ADD SWAP1 POP PUSH2 0x1393 PUSH1 0x0 DUP4 ADD DUP5 PUSH2 0x127B JUMP JUMPDEST SWAP3 SWAP2 POP POP JUMP JUMPDEST PUSH1 0x0 PUSH2 0x13A3 PUSH2 0x13B4 JUMP JUMPDEST SWAP1 POP PUSH2 0x13AF DUP3 DUP3 PUSH2 0x1602 JUMP JUMPDEST SWAP2 SWAP1 POP JUMP JUMPDEST PUSH1 0x0 PUSH1 0x40 MLOAD SWAP1 POP SWAP1 JUMP JUMPDEST PUSH1 0x0 PUSH8 0xFFFFFFFFFFFFFFFF DUP3 GT ISZERO PUSH2 0x13D9 JUMPI PUSH2 0x13D8 PUSH2 0x1691 JUMP JUMPDEST JUMPDEST PUSH2 0x13E2 DUP3 PUSH2 0x16D4 JUMP JUMPDEST SWAP1 POP PUSH1 0x20 DUP2 ADD SWAP1 POP SWAP2 SWAP1 POP JUMP JUMPDEST PUSH1 0x0 DUP2 SWAP1 POP DUP2 PUSH1 0x0 MSTORE PUSH1 0x20 PUSH1 0x0 KECCAK256 SWAP1 POP SWAP2 SWAP1 POP JUMP JUMPDEST PUSH1 0x0 DUP2 MLOAD SWAP1 POP SWAP2 SWAP1 POP JUMP JUMPDEST PUSH1 0x0 DUP3 DUP3 MSTORE PUSH1 0x20 DUP3 ADD SWAP1 POP SWAP3 SWAP2 POP POP JUMP JUMPDEST PUSH1 0x0 DUP2 SWAP1 POP SWAP3 SWAP2 POP POP JUMP JUMPDEST PUSH1 0x0 PUSH2 0x1436 DUP3 PUSH2 0x154D JUMP JUMPDEST SWAP2 POP PUSH2 0x1441 DUP4 PUSH2 0x154D JUMP JUMPDEST SWAP3 POP DUP3 PUSH32 0xFFFFFFFFFFFFFFFFFFFFFFFFFFFFFFFFFFFFFFFFFFFFFFFFFFFFFFFFFFFFFFFF SUB DUP3 GT ISZERO PUSH2 0x1476 JUMPI PUSH2 0x1475 PUSH2 0x1633 JUMP JUMPDEST JUMPDEST DUP3 DUP3 ADD SWAP1 POP SWAP3 SWAP2 POP POP JUMP JUMPDEST PUSH1 0x0 PUSH2 0x148C DUP3 PUSH2 0x154D JUMP JUMPDEST SWAP2 POP PUSH2 0x1497 DUP4 PUSH2 0x154D JUMP JUMPDEST SWAP3 POP DUP2 PUSH32 0xFFFFFFFFFFFFFFFFFFFFFFFFFFFFFFFFFFFFFFFFFFFFFFFFFFFFFFFFFFFFFFFF DIV DUP4 GT DUP3 ISZERO ISZERO AND ISZERO PUSH2 0x14D0 JUMPI PUSH2 0x14CF PUSH2 0x1633 JUMP JUMPDEST JUMPDEST DUP3 DUP3 MUL SWAP1 POP SWAP3 SWAP2 POP POP JUMP JUMPDEST PUSH1 0x0 PUSH2 0x14E6 DUP3 PUSH2 0x154D JUMP JUMPDEST SWAP2 POP PUSH2 0x14F1 DUP4 PUSH2 0x154D JUMP JUMPDEST SWAP3 POP DUP3 DUP3 LT ISZERO PUSH2 0x1504 JUMPI PUSH2 0x1503 PUSH2 0x1633 JUMP JUMPDEST JUMPDEST DUP3 DUP3 SUB SWAP1 POP SWAP3 SWAP2 POP POP JUMP JUMPDEST PUSH1 0x0 PUSH2 0x151A DUP3 PUSH2 0x152D JUMP JUMPDEST SWAP1 POP SWAP2 SWAP1 POP JUMP JUMPDEST PUSH1 0x0 DUP2 ISZERO ISZERO SWAP1 POP SWAP2 SWAP1 POP JUMP JUMPDEST PUSH1 0x0 PUSH20 0xFFFFFFFFFFFFFFFFFFFFFFFFFFFFFFFFFFFFFFFF DUP3 AND SWAP1 POP SWAP2 SWAP1 POP JUMP JUMPDEST PUSH1 0x0 DUP2 SWAP1 POP SWAP2 SWAP1 POP JUMP JUMPDEST PUSH1 0x0 PUSH1 0xFF DUP3 AND SWAP1 POP SWAP2 SWAP1 POP JUMP JUMPDEST DUP3 DUP2 DUP4 CALLDATACOPY PUSH1 0x0 DUP4 DUP4 ADD MSTORE POP POP POP JUMP JUMPDEST PUSH1 0x0 JUMPDEST DUP4 DUP2 LT ISZERO PUSH2 0x1591 JUMPI DUP1 DUP3 ADD MLOAD DUP2 DUP5 ADD MSTORE PUSH1 0x20 DUP2 ADD SWAP1 POP PUSH2 0x1576 JUMP JUMPDEST DUP4 DUP2 GT ISZERO PUSH2 0x15A0 JUMPI PUSH1 0x0 DUP5 DUP5 ADD MSTORE JUMPDEST POP POP POP POP JUMP JUMPDEST PUSH1 0x0 PUSH2 0x15B1 DUP3 PUSH2 0x154D JUMP JUMPDEST SWAP2 POP PUSH1 0x0 DUP3 EQ ISZERO PUSH2 0x15C5 JUMPI PUSH2 0x15C4 PUSH2 0x1633 JUMP JUMPDEST JUMPDEST PUSH1 0x1 DUP3 SUB SWAP1 POP SWAP2 SWAP1 POP JUMP JUMPDEST PUSH1 0x0 PUSH1 0x2 DUP3 DIV SWAP1 POP PUSH1 0x1 DUP3 AND DUP1 PUSH2 0x15E8 JUMPI PUSH1 0x7F DUP3 AND SWAP2 POP JUMPDEST PUSH1 0x20 DUP3 LT DUP2 EQ ISZERO PUSH2 0x15FC JUMPI PUSH2 0x15FB PUSH2 0x1662 JUMP JUMPDEST JUMPDEST POP SWAP2 SWAP1 POP JUMP JUMPDEST PUSH2 0x160B DUP3 PUSH2 0x16D4 JUMP JUMPDEST DUP2 ADD DUP2 DUP2 LT PUSH8 0xFFFFFFFFFFFFFFFF DUP3 GT OR ISZERO PUSH2 0x162A JUMPI PUSH2 0x1629 PUSH2 0x1691 JUMP JUMPDEST JUMPDEST DUP1 PUSH1 0x40 MSTORE POP POP POP JUMP JUMPDEST PUSH32 0x4E487B7100000000000000000000000000000000000000000000000000000000 PUSH1 0x0 MSTORE PUSH1 0x11 PUSH1 0x4 MSTORE PUSH1 0x24 PUSH1 0x0 REVERT JUMPDEST PUSH32 0x4E487B7100000000000000000000000000000000000000000000000000000000 PUSH1 0x0 MSTORE PUSH1 0x22 PUSH1 0x4 MSTORE PUSH1 0x24 PUSH1 0x0 REVERT JUMPDEST PUSH32 0x4E487B7100000000000000000000000000000000000000000000000000000000 PUSH1 0x0 MSTORE PUSH1 0x41 PUSH1 0x4 MSTORE PUSH1 0x24 PUSH1 0x0 REVERT JUMPDEST PUSH1 0x0 DUP1 REVERT JUMPDEST PUSH1 0x0 DUP1 REVERT JUMPDEST PUSH1 0x0 DUP1 REVERT JUMPDEST PUSH1 0x0 DUP1 REVERT JUMPDEST PUSH1 0x0 PUSH1 0x1F NOT PUSH1 0x1F DUP4 ADD AND SWAP1 POP SWAP2 SWAP1 POP JUMP JUMPDEST PUSH2 0x16EE DUP2 PUSH2 0x150F JUMP JUMPDEST DUP2 EQ PUSH2 0x16F9 JUMPI PUSH1 0x0 DUP1 REVERT JUMPDEST POP JUMP JUMPDEST PUSH2 0x1705 DUP2 PUSH2 0x154D JUMP JUMPDEST DUP2 EQ PUSH2 0x1710 JUMPI PUSH1 0x0 DUP1 REVERT JUMPDEST POP JUMP INVALID LOG2 PUSH5 0x6970667358 0x22 SLT KECCAK256 LOG2 SWAP16 0xBF CALLDATALOAD SWAP9 EXTCODECOPY DIFFICULTY LOG1 0xA9 0xA6 PC 0x1E 0xD8 0xC0 0xD4 PUSH27 0x19BEA4A250BC108444672C5B476B360864736F6C63430008070033 "
				},
				"gasEstimates": {
					"creation": {
						"codeDepositCost": "1192200",
						"executionCost": "infinite",
						"totalCost": "infinite"
					},
					"external": {
						"_buyDrink(string,uint256)": "infinite",
						"_updateDrink(string,uint256,uint256)": "infinite",
						"allowance(address,address)": "infinite",
						"approve(address,uint256)": "infinite",
						"balanceOf(address)": "2863",
						"calBuyerDrink(address)": "infinite",
						"decimals()": "446",
						"name()": "infinite",
						"symbol()": "infinite",
						"totalSupply()": "2504",
						"transfer(address,uint256)": "infinite",
						"transferFrom(address,address,uint256)": "infinite"
					}
				},
				"methodIdentifiers": {
					"_buyDrink(string,uint256)": "0aa39505",
					"_updateDrink(string,uint256,uint256)": "e095c25c",
					"allowance(address,address)": "dd62ed3e",
					"approve(address,uint256)": "095ea7b3",
					"balanceOf(address)": "70a08231",
					"calBuyerDrink(address)": "6390b023",
					"decimals()": "313ce567",
					"name()": "06fdde03",
					"symbol()": "95d89b41",
					"totalSupply()": "18160ddd",
					"transfer(address,uint256)": "a9059cbb",
					"transferFrom(address,address,uint256)": "23b872dd"
				}
			},
			"storageLayout": {
				"storage": [
					{
						"astId": 82,
						"contract": "ERC_exp/ERC20_G12_6.0.sol:Drink_Buy",
						"label": "totalSupply_",
						"offset": 0,
						"slot": "0",
						"type": "t_uint256"
					},
					{
						"astId": 85,
						"contract": "ERC_exp/ERC20_G12_6.0.sol:Drink_Buy",
						"label": "zhou",
						"offset": 0,
						"slot": "1",
						"type": "t_address"
					},
					{
						"astId": 89,
						"contract": "ERC_exp/ERC20_G12_6.0.sol:Drink_Buy",
						"label": "balances",
						"offset": 0,
						"slot": "2",
						"type": "t_mapping(t_address,t_uint256)"
					},
					{
						"astId": 95,
						"contract": "ERC_exp/ERC20_G12_6.0.sol:Drink_Buy",
						"label": "allowed",
						"offset": 0,
						"slot": "3",
						"type": "t_mapping(t_address,t_mapping(t_address,t_uint256))"
					},
					{
						"astId": 310,
						"contract": "ERC_exp/ERC20_G12_6.0.sol:Drink_Buy",
						"label": "DrinkNN",
						"offset": 0,
						"slot": "4",
						"type": "t_mapping(t_string_memory_ptr,t_uint256)"
					},
					{
						"astId": 314,
						"contract": "ERC_exp/ERC20_G12_6.0.sol:Drink_Buy",
						"label": "DrinkNP",
						"offset": 0,
						"slot": "5",
						"type": "t_mapping(t_string_memory_ptr,t_uint256)"
					},
					{
						"astId": 318,
						"contract": "ERC_exp/ERC20_G12_6.0.sol:Drink_Buy",
						"label": "BuyerName",
						"offset": 0,
						"slot": "6",
						"type": "t_mapping(t_address,t_string_storage)"
					},
					{
						"astId": 324,
						"contract": "ERC_exp/ERC20_G12_6.0.sol:Drink_Buy",
						"label": "BuyerDrink",
						"offset": 0,
						"slot": "7",
						"type": "t_mapping(t_address,t_mapping(t_string_memory_ptr,t_uint256))"
					},
					{
						"astId": 335,
						"contract": "ERC_exp/ERC20_G12_6.0.sol:Drink_Buy",
						"label": "maiDong",
						"offset": 0,
						"slot": "8",
						"type": "t_string_storage"
					},
					{
						"astId": 338,
						"contract": "ERC_exp/ERC20_G12_6.0.sol:Drink_Buy",
						"label": "wangLaoJi",
						"offset": 0,
						"slot": "9",
						"type": "t_string_storage"
					},
					{
						"astId": 341,
						"contract": "ERC_exp/ERC20_G12_6.0.sol:Drink_Buy",
						"label": "lvCha",
						"offset": 0,
						"slot": "10",
						"type": "t_string_storage"
					},
					{
						"astId": 344,
						"contract": "ERC_exp/ERC20_G12_6.0.sol:Drink_Buy",
						"label": "hongCha",
						"offset": 0,
						"slot": "11",
						"type": "t_string_storage"
					},
					{
						"astId": 347,
						"contract": "ERC_exp/ERC20_G12_6.0.sol:Drink_Buy",
						"label": "xianChengZhi",
						"offset": 0,
						"slot": "12",
						"type": "t_string_storage"
					},
					{
						"astId": 350,
						"contract": "ERC_exp/ERC20_G12_6.0.sol:Drink_Buy",
						"label": "yiBao",
						"offset": 0,
						"slot": "13",
						"type": "t_string_storage"
					},
					{
						"astId": 353,
						"contract": "ERC_exp/ERC20_G12_6.0.sol:Drink_Buy",
						"label": "yingYangKuaiXian",
						"offset": 0,
						"slot": "14",
						"type": "t_string_storage"
					}
				],
				"types": {
					"t_address": {
						"encoding": "inplace",
						"label": "address",
						"numberOfBytes": "20"
					},
					"t_mapping(t_address,t_mapping(t_address,t_uint256))": {
						"encoding": "mapping",
						"key": "t_address",
						"label": "mapping(address => mapping(address => uint256))",
						"numberOfBytes": "32",
						"value": "t_mapping(t_address,t_uint256)"
					},
					"t_mapping(t_address,t_mapping(t_string_memory_ptr,t_uint256))": {
						"encoding": "mapping",
						"key": "t_address",
						"label": "mapping(address => mapping(string => uint256))",
						"numberOfBytes": "32",
						"value": "t_mapping(t_string_memory_ptr,t_uint256)"
					},
					"t_mapping(t_address,t_string_storage)": {
						"encoding": "mapping",
						"key": "t_address",
						"label": "mapping(address => string)",
						"numberOfBytes": "32",
						"value": "t_string_storage"
					},
					"t_mapping(t_address,t_uint256)": {
						"encoding": "mapping",
						"key": "t_address",
						"label": "mapping(address => uint256)",
						"numberOfBytes": "32",
						"value": "t_uint256"
					},
					"t_mapping(t_string_memory_ptr,t_uint256)": {
						"encoding": "mapping",
						"key": "t_string_memory_ptr",
						"label": "mapping(string => uint256)",
						"numberOfBytes": "32",
						"value": "t_uint256"
					},
					"t_string_memory_ptr": {
						"encoding": "bytes",
						"label": "string",
						"numberOfBytes": "32"
					},
					"t_string_storage": {
						"encoding": "bytes",
						"label": "string",
						"numberOfBytes": "32"
					},
					"t_uint256": {
						"encoding": "inplace",
						"label": "uint256",
						"numberOfBytes": "32"
					}
				}
			},
			"userdoc": {
				"kind": "user",
				"methods": {},
				"version": 1
			}
		}
	}
}