{
	"data": {
		"bytecode": {
			"linkReferences": {},
			"object": "608060405234801561001057600080fd5b50610133806100206000396000f3fe6080604052348015600f57600080fd5b506004361060285760003560e01c80636ebf0d2a14602d575b600080fd5b60436004803603810190603f9190609e565b6057565b604051604e919060e4565b60405180910390f35b6000818318905092915050565b600080fd5b600061ffff82169050919050565b607e816069565b8114608857600080fd5b50565b6000813590506098816077565b92915050565b6000806040838503121560b25760b16064565b5b600060be85828601608b565b925050602060cd85828601608b565b9150509250929050565b60de816069565b82525050565b600060208201905060f7600083018460d7565b9291505056fea2646970667358221220faaa09e25b1578433d76c8b4a7a837992c1f87c95e769f5e8b30431c0f5e3feb64736f6c63430008110033",
			"opcodes": "PUSH1 0x80 PUSH1 0x40 MSTORE CALLVALUE DUP1 ISZERO PUSH2 0x10 JUMPI PUSH1 0x0 DUP1 REVERT JUMPDEST POP PUSH2 0x133 DUP1 PUSH2 0x20 PUSH1 0x0 CODECOPY PUSH1 0x0 RETURN INVALID PUSH1 0x80 PUSH1 0x40 MSTORE CALLVALUE DUP1 ISZERO PUSH1 0xF JUMPI PUSH1 0x0 DUP1 REVERT JUMPDEST POP PUSH1 0x4 CALLDATASIZE LT PUSH1 0x28 JUMPI PUSH1 0x0 CALLDATALOAD PUSH1 0xE0 SHR DUP1 PUSH4 0x6EBF0D2A EQ PUSH1 0x2D JUMPI JUMPDEST PUSH1 0x0 DUP1 REVERT JUMPDEST PUSH1 0x43 PUSH1 0x4 DUP1 CALLDATASIZE SUB DUP2 ADD SWAP1 PUSH1 0x3F SWAP2 SWAP1 PUSH1 0x9E JUMP JUMPDEST PUSH1 0x57 JUMP JUMPDEST PUSH1 0x40 MLOAD PUSH1 0x4E SWAP2 SWAP1 PUSH1 0xE4 JUMP JUMPDEST PUSH1 0x40 MLOAD DUP1 SWAP2 SUB SWAP1 RETURN JUMPDEST PUSH1 0x0 DUP2 DUP4 XOR SWAP1 POP SWAP3 SWAP2 POP POP JUMP JUMPDEST PUSH1 0x0 DUP1 REVERT JUMPDEST PUSH1 0x0 PUSH2 0xFFFF DUP3 AND SWAP1 POP SWAP2 SWAP1 POP JUMP JUMPDEST PUSH1 0x7E DUP2 PUSH1 0x69 JUMP JUMPDEST DUP2 EQ PUSH1 0x88 JUMPI PUSH1 0x0 DUP1 REVERT JUMPDEST POP JUMP JUMPDEST PUSH1 0x0 DUP2 CALLDATALOAD SWAP1 POP PUSH1 0x98 DUP2 PUSH1 0x77 JUMP JUMPDEST SWAP3 SWAP2 POP POP JUMP JUMPDEST PUSH1 0x0 DUP1 PUSH1 0x40 DUP4 DUP6 SUB SLT ISZERO PUSH1 0xB2 JUMPI PUSH1 0xB1 PUSH1 0x64 JUMP JUMPDEST JUMPDEST PUSH1 0x0 PUSH1 0xBE DUP6 DUP3 DUP7 ADD PUSH1 0x8B JUMP JUMPDEST SWAP3 POP POP PUSH1 0x20 PUSH1 0xCD DUP6 DUP3 DUP7 ADD PUSH1 0x8B JUMP JUMPDEST SWAP2 POP POP SWAP3 POP SWAP3 SWAP1 POP JUMP JUMPDEST PUSH1 0xDE DUP2 PUSH1 0x69 JUMP JUMPDEST DUP3 MSTORE POP POP JUMP JUMPDEST PUSH1 0x0 PUSH1 0x20 DUP3 ADD SWAP1 POP PUSH1 0xF7 PUSH1 0x0 DUP4 ADD DUP5 PUSH1 0xD7 JUMP JUMPDEST SWAP3 SWAP2 POP POP JUMP INVALID LOG2 PUSH5 0x6970667358 0x22 SLT KECCAK256 STATICCALL 0xAA MULMOD 0xE2 JUMPDEST ISZERO PUSH25 0x433D76C8B4A7A837992C1F87C95E769F5E8B30431C0F5E3FEB PUSH5 0x736F6C6343 STOP ADDMOD GT STOP CALLER "
		},
		"gasEstimates": {
			"creation": {
				"codeDepositCost": "61400",
				"executionCost": "111",
				"totalCost": "61511"
			},
			"external": {
				"operation(uint16,uint16)": "infinite"
			}
		},
		"methodIdentifiers": {
			"operation(uint16,uint16)": "6ebf0d2a"
		}
	},
	"abi": [
		{
			"inputs": [
				{
					"internalType": "uint16",
					"name": "input1",
					"type": "uint16"
				},
				{
					"internalType": "uint16",
					"name": "input2",
					"type": "uint16"
				}
			],
			"name": "operation",
			"outputs": [
				{
					"internalType": "uint16",
					"name": "output",
					"type": "uint16"
				}
			],
			"stateMutability": "pure",
			"type": "function"
		}
	]
}