{
	"data": {
		"bytecode": {
			"linkReferences": {
				"StringUtil.sol": {
					"StringUtil": [
						{
							"length": 20,
							"start": 175
						}
					]
				}
			},
			"object": "608060405234801561001057600080fd5b50610466806100206000396000f3fe608060405234801561001057600080fd5b506004361061002b5760003560e01c8063a00d7b2714610030575b600080fd5b61003861004e565b604051610045919061023b565b60405180910390f35b6060600061005a61018b565b9050600060405180606001604052806022815260200161040f6022913990506000600381111561008d5761008c61025d565b5b73__$08607d1bb5b6d0fa68f8c7c614bb2845bf$__633a96fdd784846040518363ffffffff1660e01b81526004016100c69291906102d6565b602060405180830381865af41580156100e3573d6000803e3d6000fd5b505050506040513d601f19601f820116820180604052508101906101079190610337565b60038111156101195761011861025d565b5b1461014d5760008260405160200161013191906103c6565b6040516020818303038152906040529050809350505050610188565b6040518060400160405280600c81526020017f49742773206e6f74206d65210000000000000000000000000000000000000000815250925050505b90565b60606040518060600160405280602281526020016103ed60229139905090565b600081519050919050565b600082825260208201905092915050565b60005b838110156101e55780820151818401526020810190506101ca565b60008484015250505050565b6000601f19601f8301169050919050565b600061020d826101ab565b61021781856101b6565b93506102278185602086016101c7565b610230816101f1565b840191505092915050565b600060208201905081810360008301526102558184610202565b905092915050565b7f4e487b7100000000000000000000000000000000000000000000000000000000600052602160045260246000fd5b600082825260208201905092915050565b60006102a8826101ab565b6102b2818561028c565b93506102c28185602086016101c7565b6102cb816101f1565b840191505092915050565b600060408201905081810360008301526102f0818561029d565b90508181036020830152610304818461029d565b90509392505050565b600080fd5b6004811061031f57600080fd5b50565b60008151905061033181610312565b92915050565b60006020828403121561034d5761034c61030d565b5b600061035b84828501610322565b91505092915050565b600081905092915050565b600061037a826101ab565b6103848185610364565b93506103948185602086016101c7565b80840191505092915050565b7f204d7920636c617373206e756d626572206973203230322e0000000000000000815250565b60006103d2828461036f565b91506103dd826103a0565b6018820191508190509291505056fe48656c6c6f20576f726c6421204d79206e616d65206973205a68616f204368656e2e48656c6c6f20576f726c6421204d79206e616d65206973205a68616e672053616e2ea264697066735822122020f2696a736ec10445ab6eb8f30ce2706d4c8bb6de69538f6970f9f39f0bbba964736f6c63430008110033",
			"opcodes": "PUSH1 0x80 PUSH1 0x40 MSTORE CALLVALUE DUP1 ISZERO PUSH2 0x10 JUMPI PUSH1 0x0 DUP1 REVERT JUMPDEST POP PUSH2 0x466 DUP1 PUSH2 0x20 PUSH1 0x0 CODECOPY PUSH1 0x0 RETURN INVALID PUSH1 0x80 PUSH1 0x40 MSTORE CALLVALUE DUP1 ISZERO PUSH2 0x10 JUMPI PUSH1 0x0 DUP1 REVERT JUMPDEST POP PUSH1 0x4 CALLDATASIZE LT PUSH2 0x2B JUMPI PUSH1 0x0 CALLDATALOAD PUSH1 0xE0 SHR DUP1 PUSH4 0xA00D7B27 EQ PUSH2 0x30 JUMPI JUMPDEST PUSH1 0x0 DUP1 REVERT JUMPDEST PUSH2 0x38 PUSH2 0x4E JUMP JUMPDEST PUSH1 0x40 MLOAD PUSH2 0x45 SWAP2 SWAP1 PUSH2 0x23B JUMP JUMPDEST PUSH1 0x40 MLOAD DUP1 SWAP2 SUB SWAP1 RETURN JUMPDEST PUSH1 0x60 PUSH1 0x0 PUSH2 0x5A PUSH2 0x18B JUMP JUMPDEST SWAP1 POP PUSH1 0x0 PUSH1 0x40 MLOAD DUP1 PUSH1 0x60 ADD PUSH1 0x40 MSTORE DUP1 PUSH1 0x22 DUP2 MSTORE PUSH1 0x20 ADD PUSH2 0x40F PUSH1 0x22 SWAP2 CODECOPY SWAP1 POP PUSH1 0x0 PUSH1 0x3 DUP2 GT ISZERO PUSH2 0x8D JUMPI PUSH2 0x8C PUSH2 0x25D JUMP JUMPDEST JUMPDEST PUSH20 0x0 PUSH4 0x3A96FDD7 DUP5 DUP5 PUSH1 0x40 MLOAD DUP4 PUSH4 0xFFFFFFFF AND PUSH1 0xE0 SHL DUP2 MSTORE PUSH1 0x4 ADD PUSH2 0xC6 SWAP3 SWAP2 SWAP1 PUSH2 0x2D6 JUMP JUMPDEST PUSH1 0x20 PUSH1 0x40 MLOAD DUP1 DUP4 SUB DUP2 DUP7 GAS DELEGATECALL ISZERO DUP1 ISZERO PUSH2 0xE3 JUMPI RETURNDATASIZE PUSH1 0x0 DUP1 RETURNDATACOPY RETURNDATASIZE PUSH1 0x0 REVERT JUMPDEST POP POP POP POP PUSH1 0x40 MLOAD RETURNDATASIZE PUSH1 0x1F NOT PUSH1 0x1F DUP3 ADD AND DUP3 ADD DUP1 PUSH1 0x40 MSTORE POP DUP2 ADD SWAP1 PUSH2 0x107 SWAP2 SWAP1 PUSH2 0x337 JUMP JUMPDEST PUSH1 0x3 DUP2 GT ISZERO PUSH2 0x119 JUMPI PUSH2 0x118 PUSH2 0x25D JUMP JUMPDEST JUMPDEST EQ PUSH2 0x14D JUMPI PUSH1 0x0 DUP3 PUSH1 0x40 MLOAD PUSH1 0x20 ADD PUSH2 0x131 SWAP2 SWAP1 PUSH2 0x3C6 JUMP JUMPDEST PUSH1 0x40 MLOAD PUSH1 0x20 DUP2 DUP4 SUB SUB DUP2 MSTORE SWAP1 PUSH1 0x40 MSTORE SWAP1 POP DUP1 SWAP4 POP POP POP POP PUSH2 0x188 JUMP JUMPDEST PUSH1 0x40 MLOAD DUP1 PUSH1 0x40 ADD PUSH1 0x40 MSTORE DUP1 PUSH1 0xC DUP2 MSTORE PUSH1 0x20 ADD PUSH32 0x49742773206E6F74206D65210000000000000000000000000000000000000000 DUP2 MSTORE POP SWAP3 POP POP POP JUMPDEST SWAP1 JUMP JUMPDEST PUSH1 0x60 PUSH1 0x40 MLOAD DUP1 PUSH1 0x60 ADD PUSH1 0x40 MSTORE DUP1 PUSH1 0x22 DUP2 MSTORE PUSH1 0x20 ADD PUSH2 0x3ED PUSH1 0x22 SWAP2 CODECOPY SWAP1 POP SWAP1 JUMP JUMPDEST PUSH1 0x0 DUP2 MLOAD SWAP1 POP SWAP2 SWAP1 POP JUMP JUMPDEST PUSH1 0x0 DUP3 DUP3 MSTORE PUSH1 0x20 DUP3 ADD SWAP1 POP SWAP3 SWAP2 POP POP JUMP JUMPDEST PUSH1 0x0 JUMPDEST DUP4 DUP2 LT ISZERO PUSH2 0x1E5 JUMPI DUP1 DUP3 ADD MLOAD DUP2 DUP5 ADD MSTORE PUSH1 0x20 DUP2 ADD SWAP1 POP PUSH2 0x1CA JUMP JUMPDEST PUSH1 0x0 DUP5 DUP5 ADD MSTORE POP POP POP POP JUMP JUMPDEST PUSH1 0x0 PUSH1 0x1F NOT PUSH1 0x1F DUP4 ADD AND SWAP1 POP SWAP2 SWAP1 POP JUMP JUMPDEST PUSH1 0x0 PUSH2 0x20D DUP3 PUSH2 0x1AB JUMP JUMPDEST PUSH2 0x217 DUP2 DUP6 PUSH2 0x1B6 JUMP JUMPDEST SWAP4 POP PUSH2 0x227 DUP2 DUP6 PUSH1 0x20 DUP7 ADD PUSH2 0x1C7 JUMP JUMPDEST PUSH2 0x230 DUP2 PUSH2 0x1F1 JUMP JUMPDEST DUP5 ADD SWAP2 POP POP SWAP3 SWAP2 POP POP JUMP JUMPDEST PUSH1 0x0 PUSH1 0x20 DUP3 ADD SWAP1 POP DUP2 DUP2 SUB PUSH1 0x0 DUP4 ADD MSTORE PUSH2 0x255 DUP2 DUP5 PUSH2 0x202 JUMP JUMPDEST SWAP1 POP SWAP3 SWAP2 POP POP JUMP JUMPDEST PUSH32 0x4E487B7100000000000000000000000000000000000000000000000000000000 PUSH1 0x0 MSTORE PUSH1 0x21 PUSH1 0x4 MSTORE PUSH1 0x24 PUSH1 0x0 REVERT JUMPDEST PUSH1 0x0 DUP3 DUP3 MSTORE PUSH1 0x20 DUP3 ADD SWAP1 POP SWAP3 SWAP2 POP POP JUMP JUMPDEST PUSH1 0x0 PUSH2 0x2A8 DUP3 PUSH2 0x1AB JUMP JUMPDEST PUSH2 0x2B2 DUP2 DUP6 PUSH2 0x28C JUMP JUMPDEST SWAP4 POP PUSH2 0x2C2 DUP2 DUP6 PUSH1 0x20 DUP7 ADD PUSH2 0x1C7 JUMP JUMPDEST PUSH2 0x2CB DUP2 PUSH2 0x1F1 JUMP JUMPDEST DUP5 ADD SWAP2 POP POP SWAP3 SWAP2 POP POP JUMP JUMPDEST PUSH1 0x0 PUSH1 0x40 DUP3 ADD SWAP1 POP DUP2 DUP2 SUB PUSH1 0x0 DUP4 ADD MSTORE PUSH2 0x2F0 DUP2 DUP6 PUSH2 0x29D JUMP JUMPDEST SWAP1 POP DUP2 DUP2 SUB PUSH1 0x20 DUP4 ADD MSTORE PUSH2 0x304 DUP2 DUP5 PUSH2 0x29D JUMP JUMPDEST SWAP1 POP SWAP4 SWAP3 POP POP POP JUMP JUMPDEST PUSH1 0x0 DUP1 REVERT JUMPDEST PUSH1 0x4 DUP2 LT PUSH2 0x31F JUMPI PUSH1 0x0 DUP1 REVERT JUMPDEST POP JUMP JUMPDEST PUSH1 0x0 DUP2 MLOAD SWAP1 POP PUSH2 0x331 DUP2 PUSH2 0x312 JUMP JUMPDEST SWAP3 SWAP2 POP POP JUMP JUMPDEST PUSH1 0x0 PUSH1 0x20 DUP3 DUP5 SUB SLT ISZERO PUSH2 0x34D JUMPI PUSH2 0x34C PUSH2 0x30D JUMP JUMPDEST JUMPDEST PUSH1 0x0 PUSH2 0x35B DUP5 DUP3 DUP6 ADD PUSH2 0x322 JUMP JUMPDEST SWAP2 POP POP SWAP3 SWAP2 POP POP JUMP JUMPDEST PUSH1 0x0 DUP2 SWAP1 POP SWAP3 SWAP2 POP POP JUMP JUMPDEST PUSH1 0x0 PUSH2 0x37A DUP3 PUSH2 0x1AB JUMP JUMPDEST PUSH2 0x384 DUP2 DUP6 PUSH2 0x364 JUMP JUMPDEST SWAP4 POP PUSH2 0x394 DUP2 DUP6 PUSH1 0x20 DUP7 ADD PUSH2 0x1C7 JUMP JUMPDEST DUP1 DUP5 ADD SWAP2 POP POP SWAP3 SWAP2 POP POP JUMP JUMPDEST PUSH32 0x204D7920636C617373206E756D626572206973203230322E0000000000000000 DUP2 MSTORE POP JUMP JUMPDEST PUSH1 0x0 PUSH2 0x3D2 DUP3 DUP5 PUSH2 0x36F JUMP JUMPDEST SWAP2 POP PUSH2 0x3DD DUP3 PUSH2 0x3A0 JUMP JUMPDEST PUSH1 0x18 DUP3 ADD SWAP2 POP DUP2 SWAP1 POP SWAP3 SWAP2 POP POP JUMP INVALID BASEFEE PUSH6 0x6C6C6F20576F PUSH19 0x6C6421204D79206E616D65206973205A68616F KECCAK256 NUMBER PUSH9 0x656E2E48656C6C6F20 JUMPI PUSH16 0x726C6421204D79206E616D6520697320 GAS PUSH9 0x616E672053616E2EA2 PUSH5 0x6970667358 0x22 SLT KECCAK256 KECCAK256 CALLCODE PUSH10 0x6A736EC10445AB6EB8F3 0xC 0xE2 PUSH17 0x6D4C8BB6DE69538F6970F9F39F0BBBA964 PUSH20 0x6F6C634300081100330000000000000000000000 "
		},
		"gasEstimates": {
			"creation": {
				"codeDepositCost": "225200",
				"executionCost": "269",
				"totalCost": "225469"
			},
			"external": {
				"myFirstHelloWorld()": "infinite"
			}
		},
		"methodIdentifiers": {
			"myFirstHelloWorld()": "a00d7b27"
		}
	},
	"abi": [
		{
			"inputs": [],
			"name": "myFirstHelloWorld",
			"outputs": [
				{
					"internalType": "string",
					"name": "",
					"type": "string"
				}
			],
			"stateMutability": "pure",
			"type": "function"
		}
	]
}