{
	"CODE_SOL/StringUtil.sol": {
		"StringUtilTest": {
			"abi": [
				{
					"inputs": [
						{
							"internalType": "string",
							"name": "t1",
							"type": "string"
						},
						{
							"internalType": "string",
							"name": "t2",
							"type": "string"
						}
					],
					"name": "cpt",
					"outputs": [
						{
							"internalType": "enum StringUtil.CompareResult",
							"name": "",
							"type": "uint8"
						}
					],
					"stateMutability": "pure",
					"type": "function"
				}
			],
			"devdoc": {
				"kind": "dev",
				"methods": {},
				"version": 1
			},
			"evm": {
				"assembly": "    /* \"CODE_SOL/StringUtil.sol\":63:320  contract StringUtilTest{... */\n  mstore(0x40, 0x80)\n  callvalue\n  dup1\n  iszero\n  tag_1\n  jumpi\n  0x00\n  dup1\n  revert\ntag_1:\n  pop\n  dataSize(sub_0)\n  dup1\n  dataOffset(sub_0)\n  0x00\n  codecopy\n  0x00\n  return\nstop\n\nsub_0: assembly {\n        /* \"CODE_SOL/StringUtil.sol\":63:320  contract StringUtilTest{... */\n      mstore(0x40, 0x80)\n      callvalue\n      dup1\n      iszero\n      tag_1\n      jumpi\n      0x00\n      dup1\n      revert\n    tag_1:\n      pop\n      jumpi(tag_2, lt(calldatasize, 0x04))\n      shr(0xe0, calldataload(0x00))\n      dup1\n      0xae003700\n      eq\n      tag_3\n      jumpi\n    tag_2:\n      0x00\n      dup1\n      revert\n        /* \"CODE_SOL/StringUtil.sol\":166:317  function cpt(string memory t1,string memory t2) public pure returns (StringUtil.CompareResult){... */\n    tag_3:\n      tag_4\n      0x04\n      dup1\n      calldatasize\n      sub\n      dup2\n      add\n      swap1\n      tag_5\n      swap2\n      swap1\n      tag_6\n      jump\t// in\n    tag_5:\n      tag_7\n      jump\t// in\n    tag_4:\n      mload(0x40)\n      tag_8\n      swap2\n      swap1\n      tag_9\n      jump\t// in\n    tag_8:\n      mload(0x40)\n      dup1\n      swap2\n      sub\n      swap1\n      return\n    tag_7:\n        /* \"CODE_SOL/StringUtil.sol\":235:259  StringUtil.CompareResult */\n      0x00\n        /* \"CODE_SOL/StringUtil.sol\":278:288  StringUtil */\n      linkerSymbol(\"f339b63412a5d2b4284e701e24ae33768f5756b4396209e943da47837c7ca261\")\n        /* \"CODE_SOL/StringUtil.sol\":278:296  StringUtil.compare */\n      0x3a96fdd7\n        /* \"CODE_SOL/StringUtil.sol\":297:299  t1 */\n      dup5\n        /* \"CODE_SOL/StringUtil.sol\":301:303  t2 */\n      dup5\n        /* \"CODE_SOL/StringUtil.sol\":278:304  StringUtil.compare(t1, t2) */\n      mload(0x40)\n      dup4\n      0xffffffff\n      and\n      0xe0\n      shl\n      dup2\n      mstore\n      0x04\n      add\n      tag_11\n      swap3\n      swap2\n      swap1\n      tag_12\n      jump\t// in\n    tag_11:\n      0x20\n      mload(0x40)\n      dup1\n      dup4\n      sub\n      dup2\n      dup7\n      gas\n      delegatecall\n      iszero\n      dup1\n      iszero\n      tag_14\n      jumpi\n      returndatasize\n      0x00\n      dup1\n      returndatacopy\n      revert(0x00, returndatasize)\n    tag_14:\n      pop\n      pop\n      pop\n      pop\n      mload(0x40)\n      returndatasize\n      not(0x1f)\n      0x1f\n      dup3\n      add\n      and\n      dup3\n      add\n      dup1\n      0x40\n      mstore\n      pop\n      dup2\n      add\n      swap1\n      tag_15\n      swap2\n      swap1\n      tag_16\n      jump\t// in\n    tag_15:\n        /* \"CODE_SOL/StringUtil.sol\":271:304  return StringUtil.compare(t1, t2) */\n      swap1\n      pop\n        /* \"CODE_SOL/StringUtil.sol\":166:317  function cpt(string memory t1,string memory t2) public pure returns (StringUtil.CompareResult){... */\n      swap3\n      swap2\n      pop\n      pop\n      jump\t// out\n        /* \"#utility.yul\":7:82   */\n    tag_17:\n        /* \"#utility.yul\":40:46   */\n      0x00\n        /* \"#utility.yul\":73:75   */\n      0x40\n        /* \"#utility.yul\":67:76   */\n      mload\n        /* \"#utility.yul\":57:76   */\n      swap1\n      pop\n        /* \"#utility.yul\":7:82   */\n      swap1\n      jump\t// out\n        /* \"#utility.yul\":88:205   */\n    tag_18:\n        /* \"#utility.yul\":197:198   */\n      0x00\n        /* \"#utility.yul\":194:195   */\n      dup1\n        /* \"#utility.yul\":187:199   */\n      revert\n        /* \"#utility.yul\":211:328   */\n    tag_19:\n        /* \"#utility.yul\":320:321   */\n      0x00\n        /* \"#utility.yul\":317:318   */\n      dup1\n        /* \"#utility.yul\":310:322   */\n      revert\n        /* \"#utility.yul\":334:451   */\n    tag_20:\n        /* \"#utility.yul\":443:444   */\n      0x00\n        /* \"#utility.yul\":440:441   */\n      dup1\n        /* \"#utility.yul\":433:445   */\n      revert\n        /* \"#utility.yul\":457:574   */\n    tag_21:\n        /* \"#utility.yul\":566:567   */\n      0x00\n        /* \"#utility.yul\":563:564   */\n      dup1\n        /* \"#utility.yul\":556:568   */\n      revert\n        /* \"#utility.yul\":580:682   */\n    tag_22:\n        /* \"#utility.yul\":621:627   */\n      0x00\n        /* \"#utility.yul\":672:674   */\n      0x1f\n        /* \"#utility.yul\":668:675   */\n      not\n        /* \"#utility.yul\":663:665   */\n      0x1f\n        /* \"#utility.yul\":656:661   */\n      dup4\n        /* \"#utility.yul\":652:666   */\n      add\n        /* \"#utility.yul\":648:676   */\n      and\n        /* \"#utility.yul\":638:676   */\n      swap1\n      pop\n        /* \"#utility.yul\":580:682   */\n      swap2\n      swap1\n      pop\n      jump\t// out\n        /* \"#utility.yul\":688:868   */\n    tag_23:\n        /* \"#utility.yul\":736:813   */\n      0x4e487b7100000000000000000000000000000000000000000000000000000000\n        /* \"#utility.yul\":733:734   */\n      0x00\n        /* \"#utility.yul\":726:814   */\n      mstore\n        /* \"#utility.yul\":833:837   */\n      0x41\n        /* \"#utility.yul\":830:831   */\n      0x04\n        /* \"#utility.yul\":823:838   */\n      mstore\n        /* \"#utility.yul\":857:861   */\n      0x24\n        /* \"#utility.yul\":854:855   */\n      0x00\n        /* \"#utility.yul\":847:862   */\n      revert\n        /* \"#utility.yul\":874:1155   */\n    tag_24:\n        /* \"#utility.yul\":957:984   */\n      tag_50\n        /* \"#utility.yul\":979:983   */\n      dup3\n        /* \"#utility.yul\":957:984   */\n      tag_22\n      jump\t// in\n    tag_50:\n        /* \"#utility.yul\":949:955   */\n      dup2\n        /* \"#utility.yul\":945:985   */\n      add\n        /* \"#utility.yul\":1087:1093   */\n      dup2\n        /* \"#utility.yul\":1075:1085   */\n      dup2\n        /* \"#utility.yul\":1072:1094   */\n      lt\n        /* \"#utility.yul\":1051:1069   */\n      0xffffffffffffffff\n        /* \"#utility.yul\":1039:1049   */\n      dup3\n        /* \"#utility.yul\":1036:1070   */\n      gt\n        /* \"#utility.yul\":1033:1095   */\n      or\n        /* \"#utility.yul\":1030:1118   */\n      iszero\n      tag_51\n      jumpi\n        /* \"#utility.yul\":1098:1116   */\n      tag_52\n      tag_23\n      jump\t// in\n    tag_52:\n        /* \"#utility.yul\":1030:1118   */\n    tag_51:\n        /* \"#utility.yul\":1138:1148   */\n      dup1\n        /* \"#utility.yul\":1134:1136   */\n      0x40\n        /* \"#utility.yul\":1127:1149   */\n      mstore\n        /* \"#utility.yul\":917:1155   */\n      pop\n        /* \"#utility.yul\":874:1155   */\n      pop\n      pop\n      jump\t// out\n        /* \"#utility.yul\":1161:1290   */\n    tag_25:\n        /* \"#utility.yul\":1195:1201   */\n      0x00\n        /* \"#utility.yul\":1222:1242   */\n      tag_54\n      tag_17\n      jump\t// in\n    tag_54:\n        /* \"#utility.yul\":1212:1242   */\n      swap1\n      pop\n        /* \"#utility.yul\":1251:1284   */\n      tag_55\n        /* \"#utility.yul\":1279:1283   */\n      dup3\n        /* \"#utility.yul\":1271:1277   */\n      dup3\n        /* \"#utility.yul\":1251:1284   */\n      tag_24\n      jump\t// in\n    tag_55:\n        /* \"#utility.yul\":1161:1290   */\n      swap2\n      swap1\n      pop\n      jump\t// out\n        /* \"#utility.yul\":1296:1604   */\n    tag_26:\n        /* \"#utility.yul\":1358:1362   */\n      0x00\n        /* \"#utility.yul\":1448:1466   */\n      0xffffffffffffffff\n        /* \"#utility.yul\":1440:1446   */\n      dup3\n        /* \"#utility.yul\":1437:1467   */\n      gt\n        /* \"#utility.yul\":1434:1490   */\n      iszero\n      tag_57\n      jumpi\n        /* \"#utility.yul\":1470:1488   */\n      tag_58\n      tag_23\n      jump\t// in\n    tag_58:\n        /* \"#utility.yul\":1434:1490   */\n    tag_57:\n        /* \"#utility.yul\":1508:1537   */\n      tag_59\n        /* \"#utility.yul\":1530:1536   */\n      dup3\n        /* \"#utility.yul\":1508:1537   */\n      tag_22\n      jump\t// in\n    tag_59:\n        /* \"#utility.yul\":1500:1537   */\n      swap1\n      pop\n        /* \"#utility.yul\":1592:1596   */\n      0x20\n        /* \"#utility.yul\":1586:1590   */\n      dup2\n        /* \"#utility.yul\":1582:1597   */\n      add\n        /* \"#utility.yul\":1574:1597   */\n      swap1\n      pop\n        /* \"#utility.yul\":1296:1604   */\n      swap2\n      swap1\n      pop\n      jump\t// out\n        /* \"#utility.yul\":1610:1756   */\n    tag_27:\n        /* \"#utility.yul\":1707:1713   */\n      dup3\n        /* \"#utility.yul\":1702:1705   */\n      dup2\n        /* \"#utility.yul\":1697:1700   */\n      dup4\n        /* \"#utility.yul\":1684:1714   */\n      calldatacopy\n        /* \"#utility.yul\":1748:1749   */\n      0x00\n        /* \"#utility.yul\":1739:1745   */\n      dup4\n        /* \"#utility.yul\":1734:1737   */\n      dup4\n        /* \"#utility.yul\":1730:1746   */\n      add\n        /* \"#utility.yul\":1723:1750   */\n      mstore\n        /* \"#utility.yul\":1610:1756   */\n      pop\n      pop\n      pop\n      jump\t// out\n        /* \"#utility.yul\":1762:2187   */\n    tag_28:\n        /* \"#utility.yul\":1840:1845   */\n      0x00\n        /* \"#utility.yul\":1865:1931   */\n      tag_62\n        /* \"#utility.yul\":1881:1930   */\n      tag_63\n        /* \"#utility.yul\":1923:1929   */\n      dup5\n        /* \"#utility.yul\":1881:1930   */\n      tag_26\n      jump\t// in\n    tag_63:\n        /* \"#utility.yul\":1865:1931   */\n      tag_25\n      jump\t// in\n    tag_62:\n        /* \"#utility.yul\":1856:1931   */\n      swap1\n      pop\n        /* \"#utility.yul\":1954:1960   */\n      dup3\n        /* \"#utility.yul\":1947:1952   */\n      dup2\n        /* \"#utility.yul\":1940:1961   */\n      mstore\n        /* \"#utility.yul\":1992:1996   */\n      0x20\n        /* \"#utility.yul\":1985:1990   */\n      dup2\n        /* \"#utility.yul\":1981:1997   */\n      add\n        /* \"#utility.yul\":2030:2033   */\n      dup5\n        /* \"#utility.yul\":2021:2027   */\n      dup5\n        /* \"#utility.yul\":2016:2019   */\n      dup5\n        /* \"#utility.yul\":2012:2028   */\n      add\n        /* \"#utility.yul\":2009:2034   */\n      gt\n        /* \"#utility.yul\":2006:2118   */\n      iszero\n      tag_64\n      jumpi\n        /* \"#utility.yul\":2037:2116   */\n      tag_65\n      tag_21\n      jump\t// in\n    tag_65:\n        /* \"#utility.yul\":2006:2118   */\n    tag_64:\n        /* \"#utility.yul\":2127:2181   */\n      tag_66\n        /* \"#utility.yul\":2174:2180   */\n      dup5\n        /* \"#utility.yul\":2169:2172   */\n      dup3\n        /* \"#utility.yul\":2164:2167   */\n      dup6\n        /* \"#utility.yul\":2127:2181   */\n      tag_27\n      jump\t// in\n    tag_66:\n        /* \"#utility.yul\":1846:2187   */\n      pop\n        /* \"#utility.yul\":1762:2187   */\n      swap4\n      swap3\n      pop\n      pop\n      pop\n      jump\t// out\n        /* \"#utility.yul\":2207:2547   */\n    tag_29:\n        /* \"#utility.yul\":2263:2268   */\n      0x00\n        /* \"#utility.yul\":2312:2315   */\n      dup3\n        /* \"#utility.yul\":2305:2309   */\n      0x1f\n        /* \"#utility.yul\":2297:2303   */\n      dup4\n        /* \"#utility.yul\":2293:2310   */\n      add\n        /* \"#utility.yul\":2289:2316   */\n      slt\n        /* \"#utility.yul\":2279:2401   */\n      tag_68\n      jumpi\n        /* \"#utility.yul\":2320:2399   */\n      tag_69\n      tag_20\n      jump\t// in\n    tag_69:\n        /* \"#utility.yul\":2279:2401   */\n    tag_68:\n        /* \"#utility.yul\":2437:2443   */\n      dup2\n        /* \"#utility.yul\":2424:2444   */\n      calldataload\n        /* \"#utility.yul\":2462:2541   */\n      tag_70\n        /* \"#utility.yul\":2537:2540   */\n      dup5\n        /* \"#utility.yul\":2529:2535   */\n      dup3\n        /* \"#utility.yul\":2522:2526   */\n      0x20\n        /* \"#utility.yul\":2514:2520   */\n      dup7\n        /* \"#utility.yul\":2510:2527   */\n      add\n        /* \"#utility.yul\":2462:2541   */\n      tag_28\n      jump\t// in\n    tag_70:\n        /* \"#utility.yul\":2453:2541   */\n      swap2\n      pop\n        /* \"#utility.yul\":2269:2547   */\n      pop\n        /* \"#utility.yul\":2207:2547   */\n      swap3\n      swap2\n      pop\n      pop\n      jump\t// out\n        /* \"#utility.yul\":2553:3387   */\n    tag_6:\n        /* \"#utility.yul\":2641:2647   */\n      0x00\n        /* \"#utility.yul\":2649:2655   */\n      dup1\n        /* \"#utility.yul\":2698:2700   */\n      0x40\n        /* \"#utility.yul\":2686:2695   */\n      dup4\n        /* \"#utility.yul\":2677:2684   */\n      dup6\n        /* \"#utility.yul\":2673:2696   */\n      sub\n        /* \"#utility.yul\":2669:2701   */\n      slt\n        /* \"#utility.yul\":2666:2785   */\n      iszero\n      tag_72\n      jumpi\n        /* \"#utility.yul\":2704:2783   */\n      tag_73\n      tag_18\n      jump\t// in\n    tag_73:\n        /* \"#utility.yul\":2666:2785   */\n    tag_72:\n        /* \"#utility.yul\":2852:2853   */\n      0x00\n        /* \"#utility.yul\":2841:2850   */\n      dup4\n        /* \"#utility.yul\":2837:2854   */\n      add\n        /* \"#utility.yul\":2824:2855   */\n      calldataload\n        /* \"#utility.yul\":2882:2900   */\n      0xffffffffffffffff\n        /* \"#utility.yul\":2874:2880   */\n      dup2\n        /* \"#utility.yul\":2871:2901   */\n      gt\n        /* \"#utility.yul\":2868:2985   */\n      iszero\n      tag_74\n      jumpi\n        /* \"#utility.yul\":2904:2983   */\n      tag_75\n      tag_19\n      jump\t// in\n    tag_75:\n        /* \"#utility.yul\":2868:2985   */\n    tag_74:\n        /* \"#utility.yul\":3009:3072   */\n      tag_76\n        /* \"#utility.yul\":3064:3071   */\n      dup6\n        /* \"#utility.yul\":3055:3061   */\n      dup3\n        /* \"#utility.yul\":3044:3053   */\n      dup7\n        /* \"#utility.yul\":3040:3062   */\n      add\n        /* \"#utility.yul\":3009:3072   */\n      tag_29\n      jump\t// in\n    tag_76:\n        /* \"#utility.yul\":2999:3072   */\n      swap3\n      pop\n        /* \"#utility.yul\":2795:3082   */\n      pop\n        /* \"#utility.yul\":3149:3151   */\n      0x20\n        /* \"#utility.yul\":3138:3147   */\n      dup4\n        /* \"#utility.yul\":3134:3152   */\n      add\n        /* \"#utility.yul\":3121:3153   */\n      calldataload\n        /* \"#utility.yul\":3180:3198   */\n      0xffffffffffffffff\n        /* \"#utility.yul\":3172:3178   */\n      dup2\n        /* \"#utility.yul\":3169:3199   */\n      gt\n        /* \"#utility.yul\":3166:3283   */\n      iszero\n      tag_77\n      jumpi\n        /* \"#utility.yul\":3202:3281   */\n      tag_78\n      tag_19\n      jump\t// in\n    tag_78:\n        /* \"#utility.yul\":3166:3283   */\n    tag_77:\n        /* \"#utility.yul\":3307:3370   */\n      tag_79\n        /* \"#utility.yul\":3362:3369   */\n      dup6\n        /* \"#utility.yul\":3353:3359   */\n      dup3\n        /* \"#utility.yul\":3342:3351   */\n      dup7\n        /* \"#utility.yul\":3338:3360   */\n      add\n        /* \"#utility.yul\":3307:3370   */\n      tag_29\n      jump\t// in\n    tag_79:\n        /* \"#utility.yul\":3297:3370   */\n      swap2\n      pop\n        /* \"#utility.yul\":3092:3380   */\n      pop\n        /* \"#utility.yul\":2553:3387   */\n      swap3\n      pop\n      swap3\n      swap1\n      pop\n      jump\t// out\n        /* \"#utility.yul\":3393:3573   */\n    tag_30:\n        /* \"#utility.yul\":3441:3518   */\n      0x4e487b7100000000000000000000000000000000000000000000000000000000\n        /* \"#utility.yul\":3438:3439   */\n      0x00\n        /* \"#utility.yul\":3431:3519   */\n      mstore\n        /* \"#utility.yul\":3538:3542   */\n      0x21\n        /* \"#utility.yul\":3535:3536   */\n      0x04\n        /* \"#utility.yul\":3528:3543   */\n      mstore\n        /* \"#utility.yul\":3562:3566   */\n      0x24\n        /* \"#utility.yul\":3559:3560   */\n      0x00\n        /* \"#utility.yul\":3552:3567   */\n      revert\n        /* \"#utility.yul\":3579:3701   */\n    tag_31:\n        /* \"#utility.yul\":3669:3670   */\n      0x04\n        /* \"#utility.yul\":3662:3667   */\n      dup2\n        /* \"#utility.yul\":3659:3671   */\n      lt\n        /* \"#utility.yul\":3649:3695   */\n      tag_82\n      jumpi\n        /* \"#utility.yul\":3675:3693   */\n      tag_83\n      tag_30\n      jump\t// in\n    tag_83:\n        /* \"#utility.yul\":3649:3695   */\n    tag_82:\n        /* \"#utility.yul\":3579:3701   */\n      pop\n      jump\t// out\n        /* \"#utility.yul\":3707:3852   */\n    tag_32:\n        /* \"#utility.yul\":3761:3768   */\n      0x00\n        /* \"#utility.yul\":3790:3795   */\n      dup2\n        /* \"#utility.yul\":3779:3795   */\n      swap1\n      pop\n        /* \"#utility.yul\":3796:3846   */\n      tag_85\n        /* \"#utility.yul\":3840:3845   */\n      dup3\n        /* \"#utility.yul\":3796:3846   */\n      tag_31\n      jump\t// in\n    tag_85:\n        /* \"#utility.yul\":3707:3852   */\n      swap2\n      swap1\n      pop\n      jump\t// out\n        /* \"#utility.yul\":3858:4003   */\n    tag_33:\n        /* \"#utility.yul\":3923:3932   */\n      0x00\n        /* \"#utility.yul\":3956:3997   */\n      tag_87\n        /* \"#utility.yul\":3991:3996   */\n      dup3\n        /* \"#utility.yul\":3956:3997   */\n      tag_32\n      jump\t// in\n    tag_87:\n        /* \"#utility.yul\":3943:3997   */\n      swap1\n      pop\n        /* \"#utility.yul\":3858:4003   */\n      swap2\n      swap1\n      pop\n      jump\t// out\n        /* \"#utility.yul\":4009:4170   */\n    tag_34:\n        /* \"#utility.yul\":4111:4163   */\n      tag_89\n        /* \"#utility.yul\":4157:4162   */\n      dup2\n        /* \"#utility.yul\":4111:4163   */\n      tag_33\n      jump\t// in\n    tag_89:\n        /* \"#utility.yul\":4106:4109   */\n      dup3\n        /* \"#utility.yul\":4099:4164   */\n      mstore\n        /* \"#utility.yul\":4009:4170   */\n      pop\n      pop\n      jump\t// out\n        /* \"#utility.yul\":4176:4428   */\n    tag_9:\n        /* \"#utility.yul\":4284:4288   */\n      0x00\n        /* \"#utility.yul\":4322:4324   */\n      0x20\n        /* \"#utility.yul\":4311:4320   */\n      dup3\n        /* \"#utility.yul\":4307:4325   */\n      add\n        /* \"#utility.yul\":4299:4325   */\n      swap1\n      pop\n        /* \"#utility.yul\":4335:4421   */\n      tag_91\n        /* \"#utility.yul\":4418:4419   */\n      0x00\n        /* \"#utility.yul\":4407:4416   */\n      dup4\n        /* \"#utility.yul\":4403:4420   */\n      add\n        /* \"#utility.yul\":4394:4400   */\n      dup5\n        /* \"#utility.yul\":4335:4421   */\n      tag_34\n      jump\t// in\n    tag_91:\n        /* \"#utility.yul\":4176:4428   */\n      swap3\n      swap2\n      pop\n      pop\n      jump\t// out\n        /* \"#utility.yul\":4434:4533   */\n    tag_35:\n        /* \"#utility.yul\":4486:4492   */\n      0x00\n        /* \"#utility.yul\":4520:4525   */\n      dup2\n        /* \"#utility.yul\":4514:4526   */\n      mload\n        /* \"#utility.yul\":4504:4526   */\n      swap1\n      pop\n        /* \"#utility.yul\":4434:4533   */\n      swap2\n      swap1\n      pop\n      jump\t// out\n        /* \"#utility.yul\":4539:4716   */\n    tag_36:\n        /* \"#utility.yul\":4631:4642   */\n      0x00\n        /* \"#utility.yul\":4665:4671   */\n      dup3\n        /* \"#utility.yul\":4660:4663   */\n      dup3\n        /* \"#utility.yul\":4653:4672   */\n      mstore\n        /* \"#utility.yul\":4705:4709   */\n      0x20\n        /* \"#utility.yul\":4700:4703   */\n      dup3\n        /* \"#utility.yul\":4696:4710   */\n      add\n        /* \"#utility.yul\":4681:4710   */\n      swap1\n      pop\n        /* \"#utility.yul\":4539:4716   */\n      swap3\n      swap2\n      pop\n      pop\n      jump\t// out\n        /* \"#utility.yul\":4722:4968   */\n    tag_37:\n        /* \"#utility.yul\":4803:4804   */\n      0x00\n        /* \"#utility.yul\":4813:4926   */\n    tag_95:\n        /* \"#utility.yul\":4827:4833   */\n      dup4\n        /* \"#utility.yul\":4824:4825   */\n      dup2\n        /* \"#utility.yul\":4821:4834   */\n      lt\n        /* \"#utility.yul\":4813:4926   */\n      iszero\n      tag_97\n      jumpi\n        /* \"#utility.yul\":4912:4913   */\n      dup1\n        /* \"#utility.yul\":4907:4910   */\n      dup3\n        /* \"#utility.yul\":4903:4914   */\n      add\n        /* \"#utility.yul\":4897:4915   */\n      mload\n        /* \"#utility.yul\":4893:4894   */\n      dup2\n        /* \"#utility.yul\":4888:4891   */\n      dup5\n        /* \"#utility.yul\":4884:4895   */\n      add\n        /* \"#utility.yul\":4877:4916   */\n      mstore\n        /* \"#utility.yul\":4849:4851   */\n      0x20\n        /* \"#utility.yul\":4846:4847   */\n      dup2\n        /* \"#utility.yul\":4842:4852   */\n      add\n        /* \"#utility.yul\":4837:4852   */\n      swap1\n      pop\n        /* \"#utility.yul\":4813:4926   */\n      jump(tag_95)\n    tag_97:\n        /* \"#utility.yul\":4960:4961   */\n      0x00\n        /* \"#utility.yul\":4951:4957   */\n      dup5\n        /* \"#utility.yul\":4946:4949   */\n      dup5\n        /* \"#utility.yul\":4942:4958   */\n      add\n        /* \"#utility.yul\":4935:4962   */\n      mstore\n        /* \"#utility.yul\":4784:4968   */\n      pop\n        /* \"#utility.yul\":4722:4968   */\n      pop\n      pop\n      pop\n      jump\t// out\n        /* \"#utility.yul\":4974:5367   */\n    tag_38:\n        /* \"#utility.yul\":5070:5073   */\n      0x00\n        /* \"#utility.yul\":5098:5137   */\n      tag_99\n        /* \"#utility.yul\":5131:5136   */\n      dup3\n        /* \"#utility.yul\":5098:5137   */\n      tag_35\n      jump\t// in\n    tag_99:\n        /* \"#utility.yul\":5153:5232   */\n      tag_100\n        /* \"#utility.yul\":5225:5231   */\n      dup2\n        /* \"#utility.yul\":5220:5223   */\n      dup6\n        /* \"#utility.yul\":5153:5232   */\n      tag_36\n      jump\t// in\n    tag_100:\n        /* \"#utility.yul\":5146:5232   */\n      swap4\n      pop\n        /* \"#utility.yul\":5241:5306   */\n      tag_101\n        /* \"#utility.yul\":5299:5305   */\n      dup2\n        /* \"#utility.yul\":5294:5297   */\n      dup6\n        /* \"#utility.yul\":5287:5291   */\n      0x20\n        /* \"#utility.yul\":5280:5285   */\n      dup7\n        /* \"#utility.yul\":5276:5292   */\n      add\n        /* \"#utility.yul\":5241:5306   */\n      tag_37\n      jump\t// in\n    tag_101:\n        /* \"#utility.yul\":5331:5360   */\n      tag_102\n        /* \"#utility.yul\":5353:5359   */\n      dup2\n        /* \"#utility.yul\":5331:5360   */\n      tag_22\n      jump\t// in\n    tag_102:\n        /* \"#utility.yul\":5326:5329   */\n      dup5\n        /* \"#utility.yul\":5322:5361   */\n      add\n        /* \"#utility.yul\":5315:5361   */\n      swap2\n      pop\n        /* \"#utility.yul\":5074:5367   */\n      pop\n        /* \"#utility.yul\":4974:5367   */\n      swap3\n      swap2\n      pop\n      pop\n      jump\t// out\n        /* \"#utility.yul\":5373:5911   */\n    tag_12:\n        /* \"#utility.yul\":5542:5546   */\n      0x00\n        /* \"#utility.yul\":5580:5582   */\n      0x40\n        /* \"#utility.yul\":5569:5578   */\n      dup3\n        /* \"#utility.yul\":5565:5583   */\n      add\n        /* \"#utility.yul\":5557:5583   */\n      swap1\n      pop\n        /* \"#utility.yul\":5629:5638   */\n      dup2\n        /* \"#utility.yul\":5623:5627   */\n      dup2\n        /* \"#utility.yul\":5619:5639   */\n      sub\n        /* \"#utility.yul\":5615:5616   */\n      0x00\n        /* \"#utility.yul\":5604:5613   */\n      dup4\n        /* \"#utility.yul\":5600:5617   */\n      add\n        /* \"#utility.yul\":5593:5640   */\n      mstore\n        /* \"#utility.yul\":5657:5743   */\n      tag_104\n        /* \"#utility.yul\":5738:5742   */\n      dup2\n        /* \"#utility.yul\":5729:5735   */\n      dup6\n        /* \"#utility.yul\":5657:5743   */\n      tag_38\n      jump\t// in\n    tag_104:\n        /* \"#utility.yul\":5649:5743   */\n      swap1\n      pop\n        /* \"#utility.yul\":5790:5799   */\n      dup2\n        /* \"#utility.yul\":5784:5788   */\n      dup2\n        /* \"#utility.yul\":5780:5800   */\n      sub\n        /* \"#utility.yul\":5775:5777   */\n      0x20\n        /* \"#utility.yul\":5764:5773   */\n      dup4\n        /* \"#utility.yul\":5760:5778   */\n      add\n        /* \"#utility.yul\":5753:5801   */\n      mstore\n        /* \"#utility.yul\":5818:5904   */\n      tag_105\n        /* \"#utility.yul\":5899:5903   */\n      dup2\n        /* \"#utility.yul\":5890:5896   */\n      dup5\n        /* \"#utility.yul\":5818:5904   */\n      tag_38\n      jump\t// in\n    tag_105:\n        /* \"#utility.yul\":5810:5904   */\n      swap1\n      pop\n        /* \"#utility.yul\":5373:5911   */\n      swap4\n      swap3\n      pop\n      pop\n      pop\n      jump\t// out\n        /* \"#utility.yul\":5917:6033   */\n    tag_39:\n        /* \"#utility.yul\":6007:6008   */\n      0x04\n        /* \"#utility.yul\":6000:6005   */\n      dup2\n        /* \"#utility.yul\":5997:6009   */\n      lt\n        /* \"#utility.yul\":5987:6027   */\n      tag_107\n      jumpi\n        /* \"#utility.yul\":6023:6024   */\n      0x00\n        /* \"#utility.yul\":6020:6021   */\n      dup1\n        /* \"#utility.yul\":6013:6025   */\n      revert\n        /* \"#utility.yul\":5987:6027   */\n    tag_107:\n        /* \"#utility.yul\":5917:6033   */\n      pop\n      jump\t// out\n        /* \"#utility.yul\":6039:6216   */\n    tag_40:\n        /* \"#utility.yul\":6113:6118   */\n      0x00\n        /* \"#utility.yul\":6144:6150   */\n      dup2\n        /* \"#utility.yul\":6138:6151   */\n      mload\n        /* \"#utility.yul\":6129:6151   */\n      swap1\n      pop\n        /* \"#utility.yul\":6160:6210   */\n      tag_109\n        /* \"#utility.yul\":6204:6209   */\n      dup2\n        /* \"#utility.yul\":6160:6210   */\n      tag_39\n      jump\t// in\n    tag_109:\n        /* \"#utility.yul\":6039:6216   */\n      swap3\n      swap2\n      pop\n      pop\n      jump\t// out\n        /* \"#utility.yul\":6222:6607   */\n    tag_16:\n        /* \"#utility.yul\":6309:6315   */\n      0x00\n        /* \"#utility.yul\":6358:6360   */\n      0x20\n        /* \"#utility.yul\":6346:6355   */\n      dup3\n        /* \"#utility.yul\":6337:6344   */\n      dup5\n        /* \"#utility.yul\":6333:6356   */\n      sub\n        /* \"#utility.yul\":6329:6361   */\n      slt\n        /* \"#utility.yul\":6326:6445   */\n      iszero\n      tag_111\n      jumpi\n        /* \"#utility.yul\":6364:6443   */\n      tag_112\n      tag_18\n      jump\t// in\n    tag_112:\n        /* \"#utility.yul\":6326:6445   */\n    tag_111:\n        /* \"#utility.yul\":6484:6485   */\n      0x00\n        /* \"#utility.yul\":6509:6590   */\n      tag_113\n        /* \"#utility.yul\":6582:6589   */\n      dup5\n        /* \"#utility.yul\":6573:6579   */\n      dup3\n        /* \"#utility.yul\":6562:6571   */\n      dup6\n        /* \"#utility.yul\":6558:6580   */\n      add\n        /* \"#utility.yul\":6509:6590   */\n      tag_40\n      jump\t// in\n    tag_113:\n        /* \"#utility.yul\":6499:6590   */\n      swap2\n      pop\n        /* \"#utility.yul\":6455:6600   */\n      pop\n        /* \"#utility.yul\":6222:6607   */\n      swap3\n      swap2\n      pop\n      pop\n      jump\t// out\n\n    auxdata: 0xa264697066735822122022b97f4a945595b177fb3197282084b3cb04593063e2370048a7dd3c340e481564736f6c63430008110033\n}\n",
				"bytecode": {
					"linkReferences": {
						"CODE_SOL/StringUtil.sol": {
							"StringUtil": [
								{
									"length": 20,
									"start": 132
								}
							]
						}
					},
					"object": "608060405234801561001057600080fd5b50610486806100206000396000f3fe608060405234801561001057600080fd5b506004361061002b5760003560e01c8063ae00370014610030575b600080fd5b61004a6004803603810190610045919061023e565b610060565b604051610057919061032d565b60405180910390f35b600073__$f339b63412a5d2b4284e701e24ae33768f$__633a96fdd784846040518363ffffffff1660e01b815260040161009b9291906103c7565b602060405180830381865af41580156100b8573d6000803e3d6000fd5b505050506040513d601f19601f820116820180604052508101906100dc9190610423565b905092915050565b6000604051905090565b600080fd5b600080fd5b600080fd5b600080fd5b6000601f19601f8301169050919050565b7f4e487b7100000000000000000000000000000000000000000000000000000000600052604160045260246000fd5b61014b82610102565b810181811067ffffffffffffffff8211171561016a57610169610113565b5b80604052505050565b600061017d6100e4565b90506101898282610142565b919050565b600067ffffffffffffffff8211156101a9576101a8610113565b5b6101b282610102565b9050602081019050919050565b82818337600083830152505050565b60006101e16101dc8461018e565b610173565b9050828152602081018484840111156101fd576101fc6100fd565b5b6102088482856101bf565b509392505050565b600082601f830112610225576102246100f8565b5b81356102358482602086016101ce565b91505092915050565b60008060408385031215610255576102546100ee565b5b600083013567ffffffffffffffff811115610273576102726100f3565b5b61027f85828601610210565b925050602083013567ffffffffffffffff8111156102a05761029f6100f3565b5b6102ac85828601610210565b9150509250929050565b7f4e487b7100000000000000000000000000000000000000000000000000000000600052602160045260246000fd5b600481106102f6576102f56102b6565b5b50565b6000819050610307826102e5565b919050565b6000610317826102f9565b9050919050565b6103278161030c565b82525050565b6000602082019050610342600083018461031e565b92915050565b600081519050919050565b600082825260208201905092915050565b60005b83811015610382578082015181840152602081019050610367565b60008484015250505050565b600061039982610348565b6103a38185610353565b93506103b3818560208601610364565b6103bc81610102565b840191505092915050565b600060408201905081810360008301526103e1818561038e565b905081810360208301526103f5818461038e565b90509392505050565b6004811061040b57600080fd5b50565b60008151905061041d816103fe565b92915050565b600060208284031215610439576104386100ee565b5b60006104478482850161040e565b9150509291505056fea264697066735822122022b97f4a945595b177fb3197282084b3cb04593063e2370048a7dd3c340e481564736f6c63430008110033",
					"opcodes": "PUSH1 0x80 PUSH1 0x40 MSTORE CALLVALUE DUP1 ISZERO PUSH2 0x10 JUMPI PUSH1 0x0 DUP1 REVERT JUMPDEST POP PUSH2 0x486 DUP1 PUSH2 0x20 PUSH1 0x0 CODECOPY PUSH1 0x0 RETURN INVALID PUSH1 0x80 PUSH1 0x40 MSTORE CALLVALUE DUP1 ISZERO PUSH2 0x10 JUMPI PUSH1 0x0 DUP1 REVERT JUMPDEST POP PUSH1 0x4 CALLDATASIZE LT PUSH2 0x2B JUMPI PUSH1 0x0 CALLDATALOAD PUSH1 0xE0 SHR DUP1 PUSH4 0xAE003700 EQ PUSH2 0x30 JUMPI JUMPDEST PUSH1 0x0 DUP1 REVERT JUMPDEST PUSH2 0x4A PUSH1 0x4 DUP1 CALLDATASIZE SUB DUP2 ADD SWAP1 PUSH2 0x45 SWAP2 SWAP1 PUSH2 0x23E JUMP JUMPDEST PUSH2 0x60 JUMP JUMPDEST PUSH1 0x40 MLOAD PUSH2 0x57 SWAP2 SWAP1 PUSH2 0x32D JUMP JUMPDEST PUSH1 0x40 MLOAD DUP1 SWAP2 SUB SWAP1 RETURN JUMPDEST PUSH1 0x0 PUSH20 0x0 PUSH4 0x3A96FDD7 DUP5 DUP5 PUSH1 0x40 MLOAD DUP4 PUSH4 0xFFFFFFFF AND PUSH1 0xE0 SHL DUP2 MSTORE PUSH1 0x4 ADD PUSH2 0x9B SWAP3 SWAP2 SWAP1 PUSH2 0x3C7 JUMP JUMPDEST PUSH1 0x20 PUSH1 0x40 MLOAD DUP1 DUP4 SUB DUP2 DUP7 GAS DELEGATECALL ISZERO DUP1 ISZERO PUSH2 0xB8 JUMPI RETURNDATASIZE PUSH1 0x0 DUP1 RETURNDATACOPY RETURNDATASIZE PUSH1 0x0 REVERT JUMPDEST POP POP POP POP PUSH1 0x40 MLOAD RETURNDATASIZE PUSH1 0x1F NOT PUSH1 0x1F DUP3 ADD AND DUP3 ADD DUP1 PUSH1 0x40 MSTORE POP DUP2 ADD SWAP1 PUSH2 0xDC SWAP2 SWAP1 PUSH2 0x423 JUMP JUMPDEST SWAP1 POP SWAP3 SWAP2 POP POP JUMP JUMPDEST PUSH1 0x0 PUSH1 0x40 MLOAD SWAP1 POP SWAP1 JUMP JUMPDEST PUSH1 0x0 DUP1 REVERT JUMPDEST PUSH1 0x0 DUP1 REVERT JUMPDEST PUSH1 0x0 DUP1 REVERT JUMPDEST PUSH1 0x0 DUP1 REVERT JUMPDEST PUSH1 0x0 PUSH1 0x1F NOT PUSH1 0x1F DUP4 ADD AND SWAP1 POP SWAP2 SWAP1 POP JUMP JUMPDEST PUSH32 0x4E487B7100000000000000000000000000000000000000000000000000000000 PUSH1 0x0 MSTORE PUSH1 0x41 PUSH1 0x4 MSTORE PUSH1 0x24 PUSH1 0x0 REVERT JUMPDEST PUSH2 0x14B DUP3 PUSH2 0x102 JUMP JUMPDEST DUP2 ADD DUP2 DUP2 LT PUSH8 0xFFFFFFFFFFFFFFFF DUP3 GT OR ISZERO PUSH2 0x16A JUMPI PUSH2 0x169 PUSH2 0x113 JUMP JUMPDEST JUMPDEST DUP1 PUSH1 0x40 MSTORE POP POP POP JUMP JUMPDEST PUSH1 0x0 PUSH2 0x17D PUSH2 0xE4 JUMP JUMPDEST SWAP1 POP PUSH2 0x189 DUP3 DUP3 PUSH2 0x142 JUMP JUMPDEST SWAP2 SWAP1 POP JUMP JUMPDEST PUSH1 0x0 PUSH8 0xFFFFFFFFFFFFFFFF DUP3 GT ISZERO PUSH2 0x1A9 JUMPI PUSH2 0x1A8 PUSH2 0x113 JUMP JUMPDEST JUMPDEST PUSH2 0x1B2 DUP3 PUSH2 0x102 JUMP JUMPDEST SWAP1 POP PUSH1 0x20 DUP2 ADD SWAP1 POP SWAP2 SWAP1 POP JUMP JUMPDEST DUP3 DUP2 DUP4 CALLDATACOPY PUSH1 0x0 DUP4 DUP4 ADD MSTORE POP POP POP JUMP JUMPDEST PUSH1 0x0 PUSH2 0x1E1 PUSH2 0x1DC DUP5 PUSH2 0x18E JUMP JUMPDEST PUSH2 0x173 JUMP JUMPDEST SWAP1 POP DUP3 DUP2 MSTORE PUSH1 0x20 DUP2 ADD DUP5 DUP5 DUP5 ADD GT ISZERO PUSH2 0x1FD JUMPI PUSH2 0x1FC PUSH2 0xFD JUMP JUMPDEST JUMPDEST PUSH2 0x208 DUP5 DUP3 DUP6 PUSH2 0x1BF JUMP JUMPDEST POP SWAP4 SWAP3 POP POP POP JUMP JUMPDEST PUSH1 0x0 DUP3 PUSH1 0x1F DUP4 ADD SLT PUSH2 0x225 JUMPI PUSH2 0x224 PUSH2 0xF8 JUMP JUMPDEST JUMPDEST DUP2 CALLDATALOAD PUSH2 0x235 DUP5 DUP3 PUSH1 0x20 DUP7 ADD PUSH2 0x1CE JUMP JUMPDEST SWAP2 POP POP SWAP3 SWAP2 POP POP JUMP JUMPDEST PUSH1 0x0 DUP1 PUSH1 0x40 DUP4 DUP6 SUB SLT ISZERO PUSH2 0x255 JUMPI PUSH2 0x254 PUSH2 0xEE JUMP JUMPDEST JUMPDEST PUSH1 0x0 DUP4 ADD CALLDATALOAD PUSH8 0xFFFFFFFFFFFFFFFF DUP2 GT ISZERO PUSH2 0x273 JUMPI PUSH2 0x272 PUSH2 0xF3 JUMP JUMPDEST JUMPDEST PUSH2 0x27F DUP6 DUP3 DUP7 ADD PUSH2 0x210 JUMP JUMPDEST SWAP3 POP POP PUSH1 0x20 DUP4 ADD CALLDATALOAD PUSH8 0xFFFFFFFFFFFFFFFF DUP2 GT ISZERO PUSH2 0x2A0 JUMPI PUSH2 0x29F PUSH2 0xF3 JUMP JUMPDEST JUMPDEST PUSH2 0x2AC DUP6 DUP3 DUP7 ADD PUSH2 0x210 JUMP JUMPDEST SWAP2 POP POP SWAP3 POP SWAP3 SWAP1 POP JUMP JUMPDEST PUSH32 0x4E487B7100000000000000000000000000000000000000000000000000000000 PUSH1 0x0 MSTORE PUSH1 0x21 PUSH1 0x4 MSTORE PUSH1 0x24 PUSH1 0x0 REVERT JUMPDEST PUSH1 0x4 DUP2 LT PUSH2 0x2F6 JUMPI PUSH2 0x2F5 PUSH2 0x2B6 JUMP JUMPDEST JUMPDEST POP JUMP JUMPDEST PUSH1 0x0 DUP2 SWAP1 POP PUSH2 0x307 DUP3 PUSH2 0x2E5 JUMP JUMPDEST SWAP2 SWAP1 POP JUMP JUMPDEST PUSH1 0x0 PUSH2 0x317 DUP3 PUSH2 0x2F9 JUMP JUMPDEST SWAP1 POP SWAP2 SWAP1 POP JUMP JUMPDEST PUSH2 0x327 DUP2 PUSH2 0x30C JUMP JUMPDEST DUP3 MSTORE POP POP JUMP JUMPDEST PUSH1 0x0 PUSH1 0x20 DUP3 ADD SWAP1 POP PUSH2 0x342 PUSH1 0x0 DUP4 ADD DUP5 PUSH2 0x31E JUMP JUMPDEST SWAP3 SWAP2 POP POP JUMP JUMPDEST PUSH1 0x0 DUP2 MLOAD SWAP1 POP SWAP2 SWAP1 POP JUMP JUMPDEST PUSH1 0x0 DUP3 DUP3 MSTORE PUSH1 0x20 DUP3 ADD SWAP1 POP SWAP3 SWAP2 POP POP JUMP JUMPDEST PUSH1 0x0 JUMPDEST DUP4 DUP2 LT ISZERO PUSH2 0x382 JUMPI DUP1 DUP3 ADD MLOAD DUP2 DUP5 ADD MSTORE PUSH1 0x20 DUP2 ADD SWAP1 POP PUSH2 0x367 JUMP JUMPDEST PUSH1 0x0 DUP5 DUP5 ADD MSTORE POP POP POP POP JUMP JUMPDEST PUSH1 0x0 PUSH2 0x399 DUP3 PUSH2 0x348 JUMP JUMPDEST PUSH2 0x3A3 DUP2 DUP6 PUSH2 0x353 JUMP JUMPDEST SWAP4 POP PUSH2 0x3B3 DUP2 DUP6 PUSH1 0x20 DUP7 ADD PUSH2 0x364 JUMP JUMPDEST PUSH2 0x3BC DUP2 PUSH2 0x102 JUMP JUMPDEST DUP5 ADD SWAP2 POP POP SWAP3 SWAP2 POP POP JUMP JUMPDEST PUSH1 0x0 PUSH1 0x40 DUP3 ADD SWAP1 POP DUP2 DUP2 SUB PUSH1 0x0 DUP4 ADD MSTORE PUSH2 0x3E1 DUP2 DUP6 PUSH2 0x38E JUMP JUMPDEST SWAP1 POP DUP2 DUP2 SUB PUSH1 0x20 DUP4 ADD MSTORE PUSH2 0x3F5 DUP2 DUP5 PUSH2 0x38E JUMP JUMPDEST SWAP1 POP SWAP4 SWAP3 POP POP POP JUMP JUMPDEST PUSH1 0x4 DUP2 LT PUSH2 0x40B JUMPI PUSH1 0x0 DUP1 REVERT JUMPDEST POP JUMP JUMPDEST PUSH1 0x0 DUP2 MLOAD SWAP1 POP PUSH2 0x41D DUP2 PUSH2 0x3FE JUMP JUMPDEST SWAP3 SWAP2 POP POP JUMP JUMPDEST PUSH1 0x0 PUSH1 0x20 DUP3 DUP5 SUB SLT ISZERO PUSH2 0x439 JUMPI PUSH2 0x438 PUSH2 0xEE JUMP JUMPDEST JUMPDEST PUSH1 0x0 PUSH2 0x447 DUP5 DUP3 DUP6 ADD PUSH2 0x40E JUMP JUMPDEST SWAP2 POP POP SWAP3 SWAP2 POP POP JUMP INVALID LOG2 PUSH5 0x6970667358 0x22 SLT KECCAK256 0x22 0xB9 PUSH32 0x4A945595B177FB3197282084B3CB04593063E2370048A7DD3C340E481564736F PUSH13 0x63430008110033000000000000 "
				},
				"gasEstimates": {
					"creation": {
						"codeDepositCost": "231600",
						"executionCost": "275",
						"totalCost": "231875"
					},
					"external": {
						"cpt(string,string)": "infinite"
					}
				},
				"methodIdentifiers": {
					"cpt(string,string)": "ae003700"
				}
			},
			"storageLayout": {
				"storage": [],
				"types": null
			},
			"userdoc": {
				"kind": "user",
				"methods": {},
				"version": 1
			}
		}
	}
}