{
	"CODE_SOL/06.sol": {
		"test": {
			"abi": [
				{
					"constant": true,
					"inputs": [],
					"name": "getChoice",
					"outputs": [
						{
							"internalType": "enum test.FreshJuiceSize",
							"name": "",
							"type": "uint8"
						}
					],
					"payable": false,
					"stateMutability": "view",
					"type": "function"
				},
				{
					"constant": true,
					"inputs": [],
					"name": "getDefaultChoice",
					"outputs": [
						{
							"internalType": "uint256",
							"name": "",
							"type": "uint256"
						}
					],
					"payable": false,
					"stateMutability": "view",
					"type": "function"
				},
				{
					"constant": false,
					"inputs": [],
					"name": "setLarge",
					"outputs": [],
					"payable": false,
					"stateMutability": "nonpayable",
					"type": "function"
				}
			],
			"devdoc": {
				"methods": {}
			},
			"evm": {
				"assembly": "    /* \"CODE_SOL/06.sol\":25:456  contract test {\r... */\n  mstore(0x40, 0x80)\n  callvalue\n    /* \"--CODEGEN--\":8:17   */\n  dup1\n    /* \"--CODEGEN--\":5:7   */\n  iszero\n  tag_1\n  jumpi\n    /* \"--CODEGEN--\":30:31   */\n  0x00\n    /* \"--CODEGEN--\":27:28   */\n  dup1\n    /* \"--CODEGEN--\":20:32   */\n  revert\n    /* \"--CODEGEN--\":5:7   */\ntag_1:\n    /* \"CODE_SOL/06.sol\":25:456  contract test {\r... */\n  pop\n  dataSize(sub_0)\n  dup1\n  dataOffset(sub_0)\n  0x00\n  codecopy\n  0x00\n  return\nstop\n\nsub_0: assembly {\n        /* \"CODE_SOL/06.sol\":25:456  contract test {\r... */\n      mstore(0x40, 0x80)\n      callvalue\n        /* \"--CODEGEN--\":8:17   */\n      dup1\n        /* \"--CODEGEN--\":5:7   */\n      iszero\n      tag_1\n      jumpi\n        /* \"--CODEGEN--\":30:31   */\n      0x00\n        /* \"--CODEGEN--\":27:28   */\n      dup1\n        /* \"--CODEGEN--\":20:32   */\n      revert\n        /* \"--CODEGEN--\":5:7   */\n    tag_1:\n        /* \"CODE_SOL/06.sol\":25:456  contract test {\r... */\n      pop\n      jumpi(tag_2, lt(calldatasize, 0x04))\n      shr(0xe0, calldataload(0x00))\n      dup1\n      0x67cb61b6\n      eq\n      tag_3\n      jumpi\n      dup1\n      0x694ebe4f\n      eq\n      tag_4\n      jumpi\n      dup1\n      0x843f7258\n      eq\n      tag_5\n      jumpi\n    tag_2:\n      0x00\n      dup1\n      revert\n        /* \"CODE_SOL/06.sol\":264:351  function getChoice() public view returns (FreshJuiceSize) {\r... */\n    tag_3:\n      tag_6\n      tag_7\n      jump\t// in\n    tag_6:\n      mload(0x40)\n      dup1\n      dup3\n      0x02\n      dup2\n      gt\n      iszero\n      tag_8\n      jumpi\n      invalid\n    tag_8:\n      0xff\n      and\n      dup2\n      mstore\n      0x20\n      add\n      swap2\n      pop\n      pop\n      mload(0x40)\n      dup1\n      swap2\n      sub\n      swap1\n      return\n        /* \"CODE_SOL/06.sol\":187:259  function setLarge() public {\r... */\n    tag_4:\n      tag_9\n      tag_10\n      jump\t// in\n    tag_9:\n      stop\n        /* \"CODE_SOL/06.sol\":356:453  function getDefaultChoice() public pure returns (uint) {\r... */\n    tag_5:\n      tag_11\n      tag_12\n      jump\t// in\n    tag_11:\n      mload(0x40)\n      dup1\n      dup3\n      dup2\n      mstore\n      0x20\n      add\n      swap2\n      pop\n      pop\n      mload(0x40)\n      dup1\n      swap2\n      sub\n      swap1\n      return\n        /* \"CODE_SOL/06.sol\":264:351  function getChoice() public view returns (FreshJuiceSize) {\r... */\n    tag_7:\n        /* \"CODE_SOL/06.sol\":306:320  FreshJuiceSize */\n      0x00\n        /* \"CODE_SOL/06.sol\":338:344  choice */\n      dup1\n      0x00\n      swap1\n      sload\n      swap1\n      0x0100\n      exp\n      swap1\n      div\n      0xff\n      and\n        /* \"CODE_SOL/06.sol\":331:344  return choice */\n      swap1\n      pop\n        /* \"CODE_SOL/06.sol\":264:351  function getChoice() public view returns (FreshJuiceSize) {\r... */\n      swap1\n      jump\t// out\n        /* \"CODE_SOL/06.sol\":187:259  function setLarge() public {\r... */\n    tag_10:\n        /* \"CODE_SOL/06.sol\":232:252  FreshJuiceSize.LARGE */\n      0x02\n        /* \"CODE_SOL/06.sol\":223:229  choice */\n      0x00\n      dup1\n        /* \"CODE_SOL/06.sol\":223:252  choice = FreshJuiceSize.LARGE */\n      0x0100\n      exp\n      dup2\n      sload\n      dup2\n      0xff\n      mul\n      not\n      and\n      swap1\n      dup4\n      0x02\n      dup2\n      gt\n      iszero\n      tag_15\n      jumpi\n      invalid\n    tag_15:\n      mul\n      or\n      swap1\n      sstore\n      pop\n        /* \"CODE_SOL/06.sol\":187:259  function setLarge() public {\r... */\n      jump\t// out\n        /* \"CODE_SOL/06.sol\":356:453  function getDefaultChoice() public pure returns (uint) {\r... */\n    tag_12:\n        /* \"CODE_SOL/06.sol\":405:409  uint */\n      0x00\n        /* \"CODE_SOL/06.sol\":160:181  FreshJuiceSize.MEDIUM */\n      0x01\n        /* \"CODE_SOL/06.sol\":427:446  uint(defaultChoice) */\n      0x02\n      dup2\n      gt\n      iszero\n      tag_17\n      jumpi\n      invalid\n    tag_17:\n        /* \"CODE_SOL/06.sol\":420:446  return uint(defaultChoice) */\n      swap1\n      pop\n        /* \"CODE_SOL/06.sol\":356:453  function getDefaultChoice() public pure returns (uint) {\r... */\n      swap1\n      jump\t// out\n\n    auxdata: 0xa265627a7a72315820185985fa281bc39087dfae45d5c3b35a1b57149912d7458402148e3070d4e81664736f6c63430005110032\n}\n",
				"bytecode": {
					"linkReferences": {},
					"object": "608060405234801561001057600080fd5b50610110806100206000396000f3fe6080604052348015600f57600080fd5b5060043610603c5760003560e01c806367cb61b6146041578063694ebe4f14606a578063843f7258146072575b600080fd5b6047608e565b60405180826002811115605657fe5b60ff16815260200191505060405180910390f35b607060a4565b005b607860c8565b6040518082815260200191505060405180910390f35b60008060009054906101000a900460ff16905090565b60026000806101000a81548160ff0219169083600281111560c157fe5b0217905550565b60006001600281111560d657fe5b90509056fea265627a7a72315820185985fa281bc39087dfae45d5c3b35a1b57149912d7458402148e3070d4e81664736f6c63430005110032",
					"opcodes": "PUSH1 0x80 PUSH1 0x40 MSTORE CALLVALUE DUP1 ISZERO PUSH2 0x10 JUMPI PUSH1 0x0 DUP1 REVERT JUMPDEST POP PUSH2 0x110 DUP1 PUSH2 0x20 PUSH1 0x0 CODECOPY PUSH1 0x0 RETURN INVALID PUSH1 0x80 PUSH1 0x40 MSTORE CALLVALUE DUP1 ISZERO PUSH1 0xF JUMPI PUSH1 0x0 DUP1 REVERT JUMPDEST POP PUSH1 0x4 CALLDATASIZE LT PUSH1 0x3C JUMPI PUSH1 0x0 CALLDATALOAD PUSH1 0xE0 SHR DUP1 PUSH4 0x67CB61B6 EQ PUSH1 0x41 JUMPI DUP1 PUSH4 0x694EBE4F EQ PUSH1 0x6A JUMPI DUP1 PUSH4 0x843F7258 EQ PUSH1 0x72 JUMPI JUMPDEST PUSH1 0x0 DUP1 REVERT JUMPDEST PUSH1 0x47 PUSH1 0x8E JUMP JUMPDEST PUSH1 0x40 MLOAD DUP1 DUP3 PUSH1 0x2 DUP2 GT ISZERO PUSH1 0x56 JUMPI INVALID JUMPDEST PUSH1 0xFF AND DUP2 MSTORE PUSH1 0x20 ADD SWAP2 POP POP PUSH1 0x40 MLOAD DUP1 SWAP2 SUB SWAP1 RETURN JUMPDEST PUSH1 0x70 PUSH1 0xA4 JUMP JUMPDEST STOP JUMPDEST PUSH1 0x78 PUSH1 0xC8 JUMP JUMPDEST PUSH1 0x40 MLOAD DUP1 DUP3 DUP2 MSTORE PUSH1 0x20 ADD SWAP2 POP POP PUSH1 0x40 MLOAD DUP1 SWAP2 SUB SWAP1 RETURN JUMPDEST PUSH1 0x0 DUP1 PUSH1 0x0 SWAP1 SLOAD SWAP1 PUSH2 0x100 EXP SWAP1 DIV PUSH1 0xFF AND SWAP1 POP SWAP1 JUMP JUMPDEST PUSH1 0x2 PUSH1 0x0 DUP1 PUSH2 0x100 EXP DUP2 SLOAD DUP2 PUSH1 0xFF MUL NOT AND SWAP1 DUP4 PUSH1 0x2 DUP2 GT ISZERO PUSH1 0xC1 JUMPI INVALID JUMPDEST MUL OR SWAP1 SSTORE POP JUMP JUMPDEST PUSH1 0x0 PUSH1 0x1 PUSH1 0x2 DUP2 GT ISZERO PUSH1 0xD6 JUMPI INVALID JUMPDEST SWAP1 POP SWAP1 JUMP INVALID LOG2 PUSH6 0x627A7A723158 KECCAK256 XOR MSIZE DUP6 STATICCALL 0x28 SHL 0xC3 SWAP1 DUP8 0xDF 0xAE GASLIMIT 0xD5 0xC3 0xB3 GAS SHL JUMPI EQ SWAP10 SLT 0xD7 GASLIMIT DUP5 MUL EQ DUP15 ADDRESS PUSH17 0xD4E81664736F6C63430005110032000000 "
				},
				"gasEstimates": {
					"creation": {
						"codeDepositCost": "54400",
						"executionCost": "105",
						"totalCost": "54505"
					},
					"external": {
						"getChoice()": "1059",
						"getDefaultChoice()": "261",
						"setLarge()": "21031"
					}
				},
				"methodIdentifiers": {
					"getChoice()": "67cb61b6",
					"getDefaultChoice()": "843f7258",
					"setLarge()": "694ebe4f"
				}
			},
			"storageLayout": {
				"storage": [
					{
						"astId": 7,
						"contract": "CODE_SOL/06.sol:test",
						"label": "choice",
						"offset": 0,
						"slot": "0",
						"type": "t_enum(FreshJuiceSize)5"
					}
				],
				"types": {
					"t_enum(FreshJuiceSize)5": {
						"encoding": "inplace",
						"label": "enum test.FreshJuiceSize",
						"numberOfBytes": "1"
					}
				}
			},
			"userdoc": {
				"methods": {}
			}
		}
	}
}