{
	"CODE_SOL/06.sol": {
		"test": {
			"abi": [
				{
					"constant": true,
					"inputs": [],
					"name": "getChoice",
					"outputs": [
						{
							"internalType": "enum test.FreshJuiceSize",
							"name": "",
							"type": "uint8"
						}
					],
					"payable": false,
					"stateMutability": "view",
					"type": "function"
				},
				{
					"constant": true,
					"inputs": [],
					"name": "getDefaultChoice",
					"outputs": [
						{
							"internalType": "uint256",
							"name": "",
							"type": "uint256"
						}
					],
					"payable": false,
					"stateMutability": "view",
					"type": "function"
				},
				{
					"constant": false,
					"inputs": [],
					"name": "setLarge",
					"outputs": [],
					"payable": false,
					"stateMutability": "nonpayable",
					"type": "function"
				}
			],
			"devdoc": {
				"methods": {}
			},
			"evm": {
				"assembly": "    /* \"CODE_SOL/06.sol\":25:459  contract test {\r... */\n  mstore(0x40, 0x80)\n  callvalue\n    /* \"--CODEGEN--\":8:17   */\n  dup1\n    /* \"--CODEGEN--\":5:7   */\n  iszero\n  tag_1\n  jumpi\n    /* \"--CODEGEN--\":30:31   */\n  0x00\n    /* \"--CODEGEN--\":27:28   */\n  dup1\n    /* \"--CODEGEN--\":20:32   */\n  revert\n    /* \"--CODEGEN--\":5:7   */\ntag_1:\n    /* \"CODE_SOL/06.sol\":25:459  contract test {\r... */\n  pop\n  dataSize(sub_0)\n  dup1\n  dataOffset(sub_0)\n  0x00\n  codecopy\n  0x00\n  return\nstop\n\nsub_0: assembly {\n        /* \"CODE_SOL/06.sol\":25:459  contract test {\r... */\n      mstore(0x40, 0x80)\n      callvalue\n        /* \"--CODEGEN--\":8:17   */\n      dup1\n        /* \"--CODEGEN--\":5:7   */\n      iszero\n      tag_1\n      jumpi\n        /* \"--CODEGEN--\":30:31   */\n      0x00\n        /* \"--CODEGEN--\":27:28   */\n      dup1\n        /* \"--CODEGEN--\":20:32   */\n      revert\n        /* \"--CODEGEN--\":5:7   */\n    tag_1:\n        /* \"CODE_SOL/06.sol\":25:459  contract test {\r... */\n      pop\n      jumpi(tag_2, lt(calldatasize, 0x04))\n      shr(0xe0, calldataload(0x00))\n      dup1\n      0x67cb61b6\n      eq\n      tag_3\n      jumpi\n      dup1\n      0x694ebe4f\n      eq\n      tag_4\n      jumpi\n      dup1\n      0x843f7258\n      eq\n      tag_5\n      jumpi\n    tag_2:\n      0x00\n      dup1\n      revert\n        /* \"CODE_SOL/06.sol\":266:353  function getChoice() public view returns (FreshJuiceSize) {\r... */\n    tag_3:\n      tag_6\n      tag_7\n      jump\t// in\n    tag_6:\n      mload(0x40)\n      dup1\n      dup3\n      0x03\n      dup2\n      gt\n      iszero\n      tag_8\n      jumpi\n      invalid\n    tag_8:\n      0xff\n      and\n      dup2\n      mstore\n      0x20\n      add\n      swap2\n      pop\n      pop\n      mload(0x40)\n      dup1\n      swap2\n      sub\n      swap1\n      return\n        /* \"CODE_SOL/06.sol\":189:261  function setLarge() public {\r... */\n    tag_4:\n      tag_9\n      tag_10\n      jump\t// in\n    tag_9:\n      stop\n        /* \"CODE_SOL/06.sol\":358:456  function getDefaultChoice() public view  returns (uint) {\r... */\n    tag_5:\n      tag_11\n      tag_12\n      jump\t// in\n    tag_11:\n      mload(0x40)\n      dup1\n      dup3\n      dup2\n      mstore\n      0x20\n      add\n      swap2\n      pop\n      pop\n      mload(0x40)\n      dup1\n      swap2\n      sub\n      swap1\n      return\n        /* \"CODE_SOL/06.sol\":266:353  function getChoice() public view returns (FreshJuiceSize) {\r... */\n    tag_7:\n        /* \"CODE_SOL/06.sol\":308:322  FreshJuiceSize */\n      0x00\n        /* \"CODE_SOL/06.sol\":340:346  choice */\n      dup1\n      0x00\n      swap1\n      sload\n      swap1\n      0x0100\n      exp\n      swap1\n      div\n      0xff\n      and\n        /* \"CODE_SOL/06.sol\":333:346  return choice */\n      swap1\n      pop\n        /* \"CODE_SOL/06.sol\":266:353  function getChoice() public view returns (FreshJuiceSize) {\r... */\n      swap1\n      jump\t// out\n        /* \"CODE_SOL/06.sol\":189:261  function setLarge() public {\r... */\n    tag_10:\n        /* \"CODE_SOL/06.sol\":234:254  FreshJuiceSize.LARGE */\n      0x03\n        /* \"CODE_SOL/06.sol\":225:231  choice */\n      0x00\n      dup1\n        /* \"CODE_SOL/06.sol\":225:254  choice = FreshJuiceSize.LARGE */\n      0x0100\n      exp\n      dup2\n      sload\n      dup2\n      0xff\n      mul\n      not\n      and\n      swap1\n      dup4\n      0x03\n      dup2\n      gt\n      iszero\n      tag_15\n      jumpi\n      invalid\n    tag_15:\n      mul\n      or\n      swap1\n      sstore\n      pop\n        /* \"CODE_SOL/06.sol\":189:261  function setLarge() public {\r... */\n      jump\t// out\n        /* \"CODE_SOL/06.sol\":358:456  function getDefaultChoice() public view  returns (uint) {\r... */\n    tag_12:\n        /* \"CODE_SOL/06.sol\":408:412  uint */\n      0x00\n        /* \"CODE_SOL/06.sol\":162:183  FreshJuiceSize.MEDIUM */\n      0x02\n        /* \"CODE_SOL/06.sol\":430:449  uint(defaultChoice) */\n      0x03\n      dup2\n      gt\n      iszero\n      tag_17\n      jumpi\n      invalid\n    tag_17:\n        /* \"CODE_SOL/06.sol\":423:449  return uint(defaultChoice) */\n      swap1\n      pop\n        /* \"CODE_SOL/06.sol\":358:456  function getDefaultChoice() public view  returns (uint) {\r... */\n      swap1\n      jump\t// out\n\n    auxdata: 0xa265627a7a72315820a593bd1a9e2d7f30f9944cb11b1b7dfffd323b1da2a37ffb24a1461b7ba6941a64736f6c63430005110032\n}\n",
				"bytecode": {
					"linkReferences": {},
					"object": "608060405234801561001057600080fd5b50610110806100206000396000f3fe6080604052348015600f57600080fd5b5060043610603c5760003560e01c806367cb61b6146041578063694ebe4f14606a578063843f7258146072575b600080fd5b6047608e565b60405180826003811115605657fe5b60ff16815260200191505060405180910390f35b607060a4565b005b607860c8565b6040518082815260200191505060405180910390f35b60008060009054906101000a900460ff16905090565b60036000806101000a81548160ff0219169083600381111560c157fe5b0217905550565b60006002600381111560d657fe5b90509056fea265627a7a72315820a593bd1a9e2d7f30f9944cb11b1b7dfffd323b1da2a37ffb24a1461b7ba6941a64736f6c63430005110032",
					"opcodes": "PUSH1 0x80 PUSH1 0x40 MSTORE CALLVALUE DUP1 ISZERO PUSH2 0x10 JUMPI PUSH1 0x0 DUP1 REVERT JUMPDEST POP PUSH2 0x110 DUP1 PUSH2 0x20 PUSH1 0x0 CODECOPY PUSH1 0x0 RETURN INVALID PUSH1 0x80 PUSH1 0x40 MSTORE CALLVALUE DUP1 ISZERO PUSH1 0xF JUMPI PUSH1 0x0 DUP1 REVERT JUMPDEST POP PUSH1 0x4 CALLDATASIZE LT PUSH1 0x3C JUMPI PUSH1 0x0 CALLDATALOAD PUSH1 0xE0 SHR DUP1 PUSH4 0x67CB61B6 EQ PUSH1 0x41 JUMPI DUP1 PUSH4 0x694EBE4F EQ PUSH1 0x6A JUMPI DUP1 PUSH4 0x843F7258 EQ PUSH1 0x72 JUMPI JUMPDEST PUSH1 0x0 DUP1 REVERT JUMPDEST PUSH1 0x47 PUSH1 0x8E JUMP JUMPDEST PUSH1 0x40 MLOAD DUP1 DUP3 PUSH1 0x3 DUP2 GT ISZERO PUSH1 0x56 JUMPI INVALID JUMPDEST PUSH1 0xFF AND DUP2 MSTORE PUSH1 0x20 ADD SWAP2 POP POP PUSH1 0x40 MLOAD DUP1 SWAP2 SUB SWAP1 RETURN JUMPDEST PUSH1 0x70 PUSH1 0xA4 JUMP JUMPDEST STOP JUMPDEST PUSH1 0x78 PUSH1 0xC8 JUMP JUMPDEST PUSH1 0x40 MLOAD DUP1 DUP3 DUP2 MSTORE PUSH1 0x20 ADD SWAP2 POP POP PUSH1 0x40 MLOAD DUP1 SWAP2 SUB SWAP1 RETURN JUMPDEST PUSH1 0x0 DUP1 PUSH1 0x0 SWAP1 SLOAD SWAP1 PUSH2 0x100 EXP SWAP1 DIV PUSH1 0xFF AND SWAP1 POP SWAP1 JUMP JUMPDEST PUSH1 0x3 PUSH1 0x0 DUP1 PUSH2 0x100 EXP DUP2 SLOAD DUP2 PUSH1 0xFF MUL NOT AND SWAP1 DUP4 PUSH1 0x3 DUP2 GT ISZERO PUSH1 0xC1 JUMPI INVALID JUMPDEST MUL OR SWAP1 SSTORE POP JUMP JUMPDEST PUSH1 0x0 PUSH1 0x2 PUSH1 0x3 DUP2 GT ISZERO PUSH1 0xD6 JUMPI INVALID JUMPDEST SWAP1 POP SWAP1 JUMP INVALID LOG2 PUSH6 0x627A7A723158 KECCAK256 0xA5 SWAP4 0xBD BYTE SWAP15 0x2D PUSH32 0x30F9944CB11B1B7DFFFD323B1DA2A37FFB24A1461B7BA6941A64736F6C634300 SDIV GT STOP ORIGIN "
				},
				"gasEstimates": {
					"creation": {
						"codeDepositCost": "54400",
						"executionCost": "105",
						"totalCost": "54505"
					},
					"external": {
						"getChoice()": "1059",
						"getDefaultChoice()": "261",
						"setLarge()": "21031"
					}
				},
				"methodIdentifiers": {
					"getChoice()": "67cb61b6",
					"getDefaultChoice()": "843f7258",
					"setLarge()": "694ebe4f"
				}
			},
			"storageLayout": {
				"storage": [
					{
						"astId": 8,
						"contract": "CODE_SOL/06.sol:test",
						"label": "choice",
						"offset": 0,
						"slot": "0",
						"type": "t_enum(FreshJuiceSize)6"
					}
				],
				"types": {
					"t_enum(FreshJuiceSize)6": {
						"encoding": "inplace",
						"label": "enum test.FreshJuiceSize",
						"numberOfBytes": "1"
					}
				}
			},
			"userdoc": {
				"methods": {}
			}
		}
	}
}