{
	"CODE_SOL/05.sol": {
		"Locations": {
			"abi": [
				{
					"constant": false,
					"inputs": [],
					"name": "doSomething",
					"outputs": [
						{
							"internalType": "uint256",
							"name": "",
							"type": "uint256"
						}
					],
					"payable": false,
					"stateMutability": "nonpayable",
					"type": "function"
				},
				{
					"constant": true,
					"inputs": [],
					"name": "stateVar1",
					"outputs": [
						{
							"internalType": "uint256",
							"name": "",
							"type": "uint256"
						}
					],
					"payable": false,
					"stateMutability": "view",
					"type": "function"
				}
			],
			"devdoc": {
				"methods": {}
			},
			"evm": {
				"assembly": "    /* \"CODE_SOL/05.sol\":25:244  contract Locations {\r... */\n  mstore(0x40, 0x80)\n    /* \"CODE_SOL/05.sol\":73:75  10 */\n  0x0a\n    /* \"CODE_SOL/05.sol\":49:75  uint public stateVar1 = 10 */\n  0x00\n  sstore\n    /* \"CODE_SOL/05.sol\":97:99  20 */\n  0x14\n    /* \"CODE_SOL/05.sol\":80:99  uint stateVar2 = 20 */\n  0x01\n  sstore\n    /* \"CODE_SOL/05.sol\":25:244  contract Locations {\r... */\n  callvalue\n    /* \"--CODEGEN--\":8:17   */\n  dup1\n    /* \"--CODEGEN--\":5:7   */\n  iszero\n  tag_1\n  jumpi\n    /* \"--CODEGEN--\":30:31   */\n  0x00\n    /* \"--CODEGEN--\":27:28   */\n  dup1\n    /* \"--CODEGEN--\":20:32   */\n  revert\n    /* \"--CODEGEN--\":5:7   */\ntag_1:\n    /* \"CODE_SOL/05.sol\":25:244  contract Locations {\r... */\n  pop\n  dataSize(sub_0)\n  dup1\n  dataOffset(sub_0)\n  0x00\n  codecopy\n  0x00\n  return\nstop\n\nsub_0: assembly {\n        /* \"CODE_SOL/05.sol\":25:244  contract Locations {\r... */\n      mstore(0x40, 0x80)\n      callvalue\n        /* \"--CODEGEN--\":8:17   */\n      dup1\n        /* \"--CODEGEN--\":5:7   */\n      iszero\n      tag_1\n      jumpi\n        /* \"--CODEGEN--\":30:31   */\n      0x00\n        /* \"--CODEGEN--\":27:28   */\n      dup1\n        /* \"--CODEGEN--\":20:32   */\n      revert\n        /* \"--CODEGEN--\":5:7   */\n    tag_1:\n        /* \"CODE_SOL/05.sol\":25:244  contract Locations {\r... */\n      pop\n      jumpi(tag_2, lt(calldatasize, 0x04))\n      shr(0xe0, calldataload(0x00))\n      dup1\n      0x82692679\n      eq\n      tag_3\n      jumpi\n      dup1\n      0xc7b50df3\n      eq\n      tag_4\n      jumpi\n    tag_2:\n      0x00\n      dup1\n      revert\n        /* \"CODE_SOL/05.sol\":104:241  function doSomething() public returns (uint) {\r... */\n    tag_3:\n      tag_5\n      tag_6\n      jump\t// in\n    tag_5:\n      mload(0x40)\n      dup1\n      dup3\n      dup2\n      mstore\n      0x20\n      add\n      swap2\n      pop\n      pop\n      mload(0x40)\n      dup1\n      swap2\n      sub\n      swap1\n      return\n        /* \"CODE_SOL/05.sol\":49:75  uint public stateVar1 = 10 */\n    tag_4:\n      tag_7\n      tag_8\n      jump\t// in\n    tag_7:\n      mload(0x40)\n      dup1\n      dup3\n      dup2\n      mstore\n      0x20\n      add\n      swap2\n      pop\n      pop\n      mload(0x40)\n      dup1\n      swap2\n      sub\n      swap1\n      return\n        /* \"CODE_SOL/05.sol\":104:241  function doSomething() public returns (uint) {\r... */\n    tag_6:\n        /* \"CODE_SOL/05.sol\":143:147  uint */\n      0x00\n        /* \"CODE_SOL/05.sol\":167:176  stateVar2 */\n      sload(0x01)\n        /* \"CODE_SOL/05.sol\":155:164  stateVar1 */\n      0x00\n        /* \"CODE_SOL/05.sol\":155:176  stateVar1 = stateVar2 */\n      dup2\n      swap1\n      sstore\n      pop\n        /* \"CODE_SOL/05.sol\":194:196  30 */\n      0x1e\n        /* \"CODE_SOL/05.sol\":182:191  stateVar2 */\n      0x01\n        /* \"CODE_SOL/05.sol\":182:196  stateVar2 = 30 */\n      dup2\n      swap1\n      sstore\n      pop\n        /* \"CODE_SOL/05.sol\":209:218  stateVar1 */\n      sload(0x00)\n        /* \"CODE_SOL/05.sol\":202:218  return stateVar1 */\n      swap1\n      pop\n        /* \"CODE_SOL/05.sol\":104:241  function doSomething() public returns (uint) {\r... */\n      swap1\n      jump\t// out\n        /* \"CODE_SOL/05.sol\":49:75  uint public stateVar1 = 10 */\n    tag_8:\n      sload(0x00)\n      dup2\n      jump\t// out\n\n    auxdata: 0xa265627a7a72315820f799f4fc0b1a9ea0fb4c93a4ed3ef3e41e2794195f1be63dc4565b5f21c5ad2f64736f6c63430005110032\n}\n",
				"bytecode": {
					"linkReferences": {},
					"object": "6080604052600a600055601460015534801561001a57600080fd5b5060c5806100296000396000f3fe6080604052348015600f57600080fd5b506004361060325760003560e01c806382692679146037578063c7b50df3146053575b600080fd5b603d606f565b6040518082815260200191505060405180910390f35b6059608a565b6040518082815260200191505060405180910390f35b6000600154600081905550601e600181905550600054905090565b6000548156fea265627a7a72315820f799f4fc0b1a9ea0fb4c93a4ed3ef3e41e2794195f1be63dc4565b5f21c5ad2f64736f6c63430005110032",
					"opcodes": "PUSH1 0x80 PUSH1 0x40 MSTORE PUSH1 0xA PUSH1 0x0 SSTORE PUSH1 0x14 PUSH1 0x1 SSTORE CALLVALUE DUP1 ISZERO PUSH2 0x1A JUMPI PUSH1 0x0 DUP1 REVERT JUMPDEST POP PUSH1 0xC5 DUP1 PUSH2 0x29 PUSH1 0x0 CODECOPY PUSH1 0x0 RETURN INVALID PUSH1 0x80 PUSH1 0x40 MSTORE CALLVALUE DUP1 ISZERO PUSH1 0xF JUMPI PUSH1 0x0 DUP1 REVERT JUMPDEST POP PUSH1 0x4 CALLDATASIZE LT PUSH1 0x32 JUMPI PUSH1 0x0 CALLDATALOAD PUSH1 0xE0 SHR DUP1 PUSH4 0x82692679 EQ PUSH1 0x37 JUMPI DUP1 PUSH4 0xC7B50DF3 EQ PUSH1 0x53 JUMPI JUMPDEST PUSH1 0x0 DUP1 REVERT JUMPDEST PUSH1 0x3D PUSH1 0x6F JUMP JUMPDEST PUSH1 0x40 MLOAD DUP1 DUP3 DUP2 MSTORE PUSH1 0x20 ADD SWAP2 POP POP PUSH1 0x40 MLOAD DUP1 SWAP2 SUB SWAP1 RETURN JUMPDEST PUSH1 0x59 PUSH1 0x8A JUMP JUMPDEST PUSH1 0x40 MLOAD DUP1 DUP3 DUP2 MSTORE PUSH1 0x20 ADD SWAP2 POP POP PUSH1 0x40 MLOAD DUP1 SWAP2 SUB SWAP1 RETURN JUMPDEST PUSH1 0x0 PUSH1 0x1 SLOAD PUSH1 0x0 DUP2 SWAP1 SSTORE POP PUSH1 0x1E PUSH1 0x1 DUP2 SWAP1 SSTORE POP PUSH1 0x0 SLOAD SWAP1 POP SWAP1 JUMP JUMPDEST PUSH1 0x0 SLOAD DUP2 JUMP INVALID LOG2 PUSH6 0x627A7A723158 KECCAK256 0xF7 SWAP10 DELEGATECALL 0xFC SIGNEXTEND BYTE SWAP15 LOG0 0xFB 0x4C SWAP4 LOG4 0xED RETURNDATACOPY RETURN 0xE4 0x1E 0x27 SWAP5 NOT 0x5F SHL 0xE6 RETURNDATASIZE 0xC4 JUMP JUMPDEST 0x5F 0x21 0xC5 0xAD 0x2F PUSH5 0x736F6C6343 STOP SDIV GT STOP ORIGIN "
				},
				"gasEstimates": {
					"creation": {
						"codeDepositCost": "39400",
						"executionCost": "40105",
						"totalCost": "79505"
					},
					"external": {
						"doSomething()": "41819",
						"stateVar1()": "1005"
					}
				},
				"methodIdentifiers": {
					"doSomething()": "82692679",
					"stateVar1()": "c7b50df3"
				}
			},
			"storageLayout": {
				"storage": [
					{
						"astId": 4,
						"contract": "CODE_SOL/05.sol:Locations",
						"label": "stateVar1",
						"offset": 0,
						"slot": "0",
						"type": "t_uint256"
					},
					{
						"astId": 7,
						"contract": "CODE_SOL/05.sol:Locations",
						"label": "stateVar2",
						"offset": 0,
						"slot": "1",
						"type": "t_uint256"
					}
				],
				"types": {
					"t_uint256": {
						"encoding": "inplace",
						"label": "uint256",
						"numberOfBytes": "32"
					}
				}
			},
			"userdoc": {
				"methods": {}
			}
		}
	}
}