{
	"CODE_SOL/Test_WorkSpace.sol": {
		"Caller": {
			"abi": [
				{
					"inputs": [],
					"name": "func",
					"outputs": [
						{
							"internalType": "bool",
							"name": "",
							"type": "bool"
						}
					],
					"stateMutability": "pure",
					"type": "function"
				},
				{
					"inputs": [],
					"name": "operation",
					"outputs": [
						{
							"internalType": "uint256",
							"name": "result",
							"type": "uint256"
						}
					],
					"stateMutability": "view",
					"type": "function"
				}
			],
			"devdoc": {
				"kind": "dev",
				"methods": {},
				"version": 1
			},
			"evm": {
				"assembly": "    /* \"CODE_SOL/Test_WorkSpace.sol\":165:630  contract Caller {... */\n  mstore(0x40, 0x80)\n    /* \"CODE_SOL/Test_WorkSpace.sol\":206:218  new Callee() */\n  mload(0x40)\n  tag_1\n  swap1\n  tag_2\n  jump\t// in\ntag_1:\n  mload(0x40)\n  dup1\n  swap2\n  sub\n  swap1\n  0x00\n  create\n  dup1\n  iszero\n  dup1\n  iszero\n  tag_3\n  jumpi\n  returndatasize\n  0x00\n  dup1\n  returndatacopy\n  revert(0x00, returndatasize)\ntag_3:\n  pop\n    /* \"CODE_SOL/Test_WorkSpace.sol\":190:218  Callee callee = new Callee() */\n  0x00\n  dup1\n  0x0100\n  exp\n  dup2\n  sload\n  dup2\n  0xffffffffffffffffffffffffffffffffffffffff\n  mul\n  not\n  and\n  swap1\n  dup4\n  0xffffffffffffffffffffffffffffffffffffffff\n  and\n  mul\n  or\n  swap1\n  sstore\n  pop\n    /* \"CODE_SOL/Test_WorkSpace.sol\":165:630  contract Caller {... */\n  callvalue\n  dup1\n  iszero\n  tag_4\n  jumpi\n  0x00\n  dup1\n  revert\ntag_4:\n  pop\n  jump(tag_5)\ntag_2:\n  dataSize(sub_1)\n  dup1\n  dataOffset(sub_1)\n  dup4\n  codecopy\n  add\n  swap1\n  jump\t// out\ntag_5:\n  dataSize(sub_0)\n  dup1\n  dataOffset(sub_0)\n  0x00\n  codecopy\n  0x00\n  return\nstop\n\nsub_0: assembly {\n        /* \"CODE_SOL/Test_WorkSpace.sol\":165:630  contract Caller {... */\n      mstore(0x40, 0x80)\n      callvalue\n      dup1\n      iszero\n      tag_1\n      jumpi\n      0x00\n      dup1\n      revert\n    tag_1:\n      pop\n      jumpi(tag_2, lt(calldatasize, 0x04))\n      shr(0xe0, calldataload(0x00))\n      dup1\n      0x775fc127\n      eq\n      tag_3\n      jumpi\n      dup1\n      0xbfa814b5\n      eq\n      tag_4\n      jumpi\n    tag_2:\n      0x00\n      dup1\n      revert\n        /* \"CODE_SOL/Test_WorkSpace.sol\":304:625  function operation() public view returns (uint result) {... */\n    tag_3:\n      tag_5\n      tag_6\n      jump\t// in\n    tag_5:\n      mload(0x40)\n      tag_7\n      swap2\n      swap1\n      tag_8\n      jump\t// in\n    tag_7:\n      mload(0x40)\n      dup1\n      swap2\n      sub\n      swap1\n      return\n        /* \"CODE_SOL/Test_WorkSpace.sol\":227:296  function func() public pure returns (bool) {revert(\"intent revert\");} */\n    tag_4:\n      tag_9\n      tag_10\n      jump\t// in\n    tag_9:\n      mload(0x40)\n      tag_11\n      swap2\n      swap1\n      tag_12\n      jump\t// in\n    tag_11:\n      mload(0x40)\n      dup1\n      swap2\n      sub\n      swap1\n      return\n        /* \"CODE_SOL/Test_WorkSpace.sol\":304:625  function operation() public view returns (uint result) {... */\n    tag_6:\n        /* \"CODE_SOL/Test_WorkSpace.sol\":346:357  uint result */\n      0x00\n        /* \"CODE_SOL/Test_WorkSpace.sol\":376:382  callee */\n      dup1\n      0x00\n      swap1\n      sload\n      swap1\n      0x0100\n      exp\n      swap1\n      div\n      0xffffffffffffffffffffffffffffffffffffffff\n      and\n        /* \"CODE_SOL/Test_WorkSpace.sol\":376:387  callee.func */\n      0xffffffffffffffffffffffffffffffffffffffff\n      and\n      0xbfa814b5\n        /* \"CODE_SOL/Test_WorkSpace.sol\":376:389  callee.func() */\n      mload(0x40)\n      dup2\n      0xffffffff\n      and\n      0xe0\n      shl\n      dup2\n      mstore\n      0x04\n      add\n      0x20\n      mload(0x40)\n      dup1\n      dup4\n      sub\n      dup2\n      dup7\n      gas\n      staticcall\n      swap3\n      pop\n      pop\n      pop\n      dup1\n      iszero\n      tag_14\n      jumpi\n      pop\n      mload(0x40)\n      returndatasize\n      not(0x1f)\n      0x1f\n      dup3\n      add\n      and\n      dup3\n      add\n      dup1\n      0x40\n      mstore\n      pop\n      dup2\n      add\n      swap1\n      tag_15\n      swap2\n      swap1\n      tag_16\n      jump\t// in\n    tag_15:\n      0x01\n    tag_14:\n        /* \"CODE_SOL/Test_WorkSpace.sol\":372:616  try callee.func() {... */\n      tag_17\n      jumpi\n      tag_21\n      tag_22\n      jump\t// in\n    tag_21:\n      dup1\n      0x08c379a0\n      sub\n      tag_20\n      jumpi\n      pop\n      tag_23\n      tag_24\n      jump\t// in\n    tag_23:\n      dup1\n      tag_25\n      jumpi\n      pop\n      jump(tag_19)\n    tag_25:\n        /* \"CODE_SOL/Test_WorkSpace.sol\":598:602  0xff */\n      0xff\n        /* \"CODE_SOL/Test_WorkSpace.sol\":589:602  result = 0xff */\n      swap2\n      pop\n        /* \"CODE_SOL/Test_WorkSpace.sol\":538:616  catch Error(string memory reason) {... */\n      pop\n        /* \"CODE_SOL/Test_WorkSpace.sol\":372:616  try callee.func() {... */\n      jump(tag_18)\n    tag_20:\n      0x4e487b71\n      sub\n      tag_19\n      jumpi\n      tag_26\n      tag_27\n      jump\t// in\n    tag_26:\n      swap1\n      tag_28\n      jumpi\n      pop\n      jump(tag_19)\n    tag_28:\n        /* \"CODE_SOL/Test_WorkSpace.sol\":514:523  errorCode */\n      dup1\n        /* \"CODE_SOL/Test_WorkSpace.sol\":505:523  result = errorCode */\n      swap2\n      pop\n        /* \"CODE_SOL/Test_WorkSpace.sol\":460:537  catch Panic(uint errorCode) {... */\n      pop\n        /* \"CODE_SOL/Test_WorkSpace.sol\":372:616  try callee.func() {... */\n      jump(tag_18)\n    tag_19:\n      returndatasize\n      0x00\n      dup1\n      returndatacopy\n      revert(0x00, returndatasize)\n    tag_18:\n      jump(tag_29)\n    tag_17:\n      pop\n        /* \"CODE_SOL/Test_WorkSpace.sol\":416:417  0 */\n      0x00\n        /* \"CODE_SOL/Test_WorkSpace.sol\":407:417  result = 0 */\n      swap1\n      pop\n        /* \"CODE_SOL/Test_WorkSpace.sol\":434:438  this */\n      address\n        /* \"CODE_SOL/Test_WorkSpace.sol\":434:443  this.func */\n      0xffffffffffffffffffffffffffffffffffffffff\n      and\n      0xbfa814b5\n        /* \"CODE_SOL/Test_WorkSpace.sol\":434:445  this.func() */\n      mload(0x40)\n      dup2\n      0xffffffff\n      and\n      0xe0\n      shl\n      dup2\n      mstore\n      0x04\n      add\n      0x20\n      mload(0x40)\n      dup1\n      dup4\n      sub\n      dup2\n      dup7\n      gas\n      staticcall\n      iszero\n      dup1\n      iszero\n      tag_31\n      jumpi\n      returndatasize\n      0x00\n      dup1\n      returndatacopy\n      revert(0x00, returndatasize)\n    tag_31:\n      pop\n      pop\n      pop\n      pop\n      mload(0x40)\n      returndatasize\n      not(0x1f)\n      0x1f\n      dup3\n      add\n      and\n      dup3\n      add\n      dup1\n      0x40\n      mstore\n      pop\n      dup2\n      add\n      swap1\n      tag_32\n      swap2\n      swap1\n      tag_16\n      jump\t// in\n    tag_32:\n      pop\n        /* \"CODE_SOL/Test_WorkSpace.sol\":372:616  try callee.func() {... */\n    tag_29:\n        /* \"CODE_SOL/Test_WorkSpace.sol\":304:625  function operation() public view returns (uint result) {... */\n      swap1\n      jump\t// out\n        /* \"CODE_SOL/Test_WorkSpace.sol\":227:296  function func() public pure returns (bool) {revert(\"intent revert\");} */\n    tag_10:\n        /* \"CODE_SOL/Test_WorkSpace.sol\":264:268  bool */\n      0x00\n        /* \"CODE_SOL/Test_WorkSpace.sol\":271:294  revert(\"intent revert\") */\n      mload(0x40)\n      0x08c379a000000000000000000000000000000000000000000000000000000000\n      dup2\n      mstore\n      0x04\n      add\n      tag_34\n      swap1\n      tag_35\n      jump\t// in\n    tag_34:\n      mload(0x40)\n      dup1\n      swap2\n      sub\n      swap1\n      revert\n        /* \"#utility.yul\":7:84   */\n    tag_36:\n        /* \"#utility.yul\":44:51   */\n      0x00\n        /* \"#utility.yul\":73:78   */\n      dup2\n        /* \"#utility.yul\":62:78   */\n      swap1\n      pop\n        /* \"#utility.yul\":7:84   */\n      swap2\n      swap1\n      pop\n      jump\t// out\n        /* \"#utility.yul\":90:208   */\n    tag_37:\n        /* \"#utility.yul\":177:201   */\n      tag_55\n        /* \"#utility.yul\":195:200   */\n      dup2\n        /* \"#utility.yul\":177:201   */\n      tag_36\n      jump\t// in\n    tag_55:\n        /* \"#utility.yul\":172:175   */\n      dup3\n        /* \"#utility.yul\":165:202   */\n      mstore\n        /* \"#utility.yul\":90:208   */\n      pop\n      pop\n      jump\t// out\n        /* \"#utility.yul\":214:436   */\n    tag_8:\n        /* \"#utility.yul\":307:311   */\n      0x00\n        /* \"#utility.yul\":345:347   */\n      0x20\n        /* \"#utility.yul\":334:343   */\n      dup3\n        /* \"#utility.yul\":330:348   */\n      add\n        /* \"#utility.yul\":322:348   */\n      swap1\n      pop\n        /* \"#utility.yul\":358:429   */\n      tag_57\n        /* \"#utility.yul\":426:427   */\n      0x00\n        /* \"#utility.yul\":415:424   */\n      dup4\n        /* \"#utility.yul\":411:428   */\n      add\n        /* \"#utility.yul\":402:408   */\n      dup5\n        /* \"#utility.yul\":358:429   */\n      tag_37\n      jump\t// in\n    tag_57:\n        /* \"#utility.yul\":214:436   */\n      swap3\n      swap2\n      pop\n      pop\n      jump\t// out\n        /* \"#utility.yul\":442:532   */\n    tag_38:\n        /* \"#utility.yul\":476:483   */\n      0x00\n        /* \"#utility.yul\":519:524   */\n      dup2\n        /* \"#utility.yul\":512:525   */\n      iszero\n        /* \"#utility.yul\":505:526   */\n      iszero\n        /* \"#utility.yul\":494:526   */\n      swap1\n      pop\n        /* \"#utility.yul\":442:532   */\n      swap2\n      swap1\n      pop\n      jump\t// out\n        /* \"#utility.yul\":538:647   */\n    tag_39:\n        /* \"#utility.yul\":619:640   */\n      tag_60\n        /* \"#utility.yul\":634:639   */\n      dup2\n        /* \"#utility.yul\":619:640   */\n      tag_38\n      jump\t// in\n    tag_60:\n        /* \"#utility.yul\":614:617   */\n      dup3\n        /* \"#utility.yul\":607:641   */\n      mstore\n        /* \"#utility.yul\":538:647   */\n      pop\n      pop\n      jump\t// out\n        /* \"#utility.yul\":653:863   */\n    tag_12:\n        /* \"#utility.yul\":740:744   */\n      0x00\n        /* \"#utility.yul\":778:780   */\n      0x20\n        /* \"#utility.yul\":767:776   */\n      dup3\n        /* \"#utility.yul\":763:781   */\n      add\n        /* \"#utility.yul\":755:781   */\n      swap1\n      pop\n        /* \"#utility.yul\":791:856   */\n      tag_62\n        /* \"#utility.yul\":853:854   */\n      0x00\n        /* \"#utility.yul\":842:851   */\n      dup4\n        /* \"#utility.yul\":838:855   */\n      add\n        /* \"#utility.yul\":829:835   */\n      dup5\n        /* \"#utility.yul\":791:856   */\n      tag_39\n      jump\t// in\n    tag_62:\n        /* \"#utility.yul\":653:863   */\n      swap3\n      swap2\n      pop\n      pop\n      jump\t// out\n        /* \"#utility.yul\":869:944   */\n    tag_40:\n        /* \"#utility.yul\":902:908   */\n      0x00\n        /* \"#utility.yul\":935:937   */\n      0x40\n        /* \"#utility.yul\":929:938   */\n      mload\n        /* \"#utility.yul\":919:938   */\n      swap1\n      pop\n        /* \"#utility.yul\":869:944   */\n      swap1\n      jump\t// out\n        /* \"#utility.yul\":950:1067   */\n    tag_41:\n        /* \"#utility.yul\":1059:1060   */\n      0x00\n        /* \"#utility.yul\":1056:1057   */\n      dup1\n        /* \"#utility.yul\":1049:1061   */\n      revert\n        /* \"#utility.yul\":1196:1312   */\n    tag_43:\n        /* \"#utility.yul\":1266:1287   */\n      tag_67\n        /* \"#utility.yul\":1281:1286   */\n      dup2\n        /* \"#utility.yul\":1266:1287   */\n      tag_38\n      jump\t// in\n    tag_67:\n        /* \"#utility.yul\":1259:1264   */\n      dup2\n        /* \"#utility.yul\":1256:1288   */\n      eq\n        /* \"#utility.yul\":1246:1306   */\n      tag_68\n      jumpi\n        /* \"#utility.yul\":1302:1303   */\n      0x00\n        /* \"#utility.yul\":1299:1300   */\n      dup1\n        /* \"#utility.yul\":1292:1304   */\n      revert\n        /* \"#utility.yul\":1246:1306   */\n    tag_68:\n        /* \"#utility.yul\":1196:1312   */\n      pop\n      jump\t// out\n        /* \"#utility.yul\":1318:1455   */\n    tag_44:\n        /* \"#utility.yul\":1372:1377   */\n      0x00\n        /* \"#utility.yul\":1403:1409   */\n      dup2\n        /* \"#utility.yul\":1397:1410   */\n      mload\n        /* \"#utility.yul\":1388:1410   */\n      swap1\n      pop\n        /* \"#utility.yul\":1419:1449   */\n      tag_70\n        /* \"#utility.yul\":1443:1448   */\n      dup2\n        /* \"#utility.yul\":1419:1449   */\n      tag_43\n      jump\t// in\n    tag_70:\n        /* \"#utility.yul\":1318:1455   */\n      swap3\n      swap2\n      pop\n      pop\n      jump\t// out\n        /* \"#utility.yul\":1461:1806   */\n    tag_16:\n        /* \"#utility.yul\":1528:1534   */\n      0x00\n        /* \"#utility.yul\":1577:1579   */\n      0x20\n        /* \"#utility.yul\":1565:1574   */\n      dup3\n        /* \"#utility.yul\":1556:1563   */\n      dup5\n        /* \"#utility.yul\":1552:1575   */\n      sub\n        /* \"#utility.yul\":1548:1580   */\n      slt\n        /* \"#utility.yul\":1545:1664   */\n      iszero\n      tag_72\n      jumpi\n        /* \"#utility.yul\":1583:1662   */\n      tag_73\n      tag_41\n      jump\t// in\n    tag_73:\n        /* \"#utility.yul\":1545:1664   */\n    tag_72:\n        /* \"#utility.yul\":1703:1704   */\n      0x00\n        /* \"#utility.yul\":1728:1789   */\n      tag_74\n        /* \"#utility.yul\":1781:1788   */\n      dup5\n        /* \"#utility.yul\":1772:1778   */\n      dup3\n        /* \"#utility.yul\":1761:1770   */\n      dup6\n        /* \"#utility.yul\":1757:1779   */\n      add\n        /* \"#utility.yul\":1728:1789   */\n      tag_44\n      jump\t// in\n    tag_74:\n        /* \"#utility.yul\":1718:1789   */\n      swap2\n      pop\n        /* \"#utility.yul\":1674:1799   */\n      pop\n        /* \"#utility.yul\":1461:1806   */\n      swap3\n      swap2\n      pop\n      pop\n      jump\t// out\n        /* \"#utility.yul\":1812:1918   */\n    tag_45:\n        /* \"#utility.yul\":1856:1864   */\n      0x00\n        /* \"#utility.yul\":1905:1910   */\n      dup2\n        /* \"#utility.yul\":1900:1903   */\n      0xe0\n        /* \"#utility.yul\":1896:1911   */\n      shr\n        /* \"#utility.yul\":1875:1911   */\n      swap1\n      pop\n        /* \"#utility.yul\":1812:1918   */\n      swap2\n      swap1\n      pop\n      jump\t// out\n        /* \"#utility.yul\":1924:2107   */\n    tag_22:\n        /* \"#utility.yul\":1959:1962   */\n      0x00\n        /* \"#utility.yul\":1997:1998   */\n      0x03\n        /* \"#utility.yul\":1979:1995   */\n      returndatasize\n        /* \"#utility.yul\":1976:1999   */\n      gt\n        /* \"#utility.yul\":1973:2101   */\n      iszero\n      tag_77\n      jumpi\n        /* \"#utility.yul\":2035:2036   */\n      0x04\n        /* \"#utility.yul\":2032:2033   */\n      0x00\n        /* \"#utility.yul\":2029:2030   */\n      dup1\n        /* \"#utility.yul\":2014:2037   */\n      returndatacopy\n        /* \"#utility.yul\":2057:2091   */\n      tag_78\n        /* \"#utility.yul\":2088:2089   */\n      0x00\n        /* \"#utility.yul\":2082:2090   */\n      mload\n        /* \"#utility.yul\":2057:2091   */\n      tag_45\n      jump\t// in\n    tag_78:\n        /* \"#utility.yul\":2050:2091   */\n      swap1\n      pop\n        /* \"#utility.yul\":1973:2101   */\n    tag_77:\n        /* \"#utility.yul\":1924:2107   */\n      swap1\n      jump\t// out\n        /* \"#utility.yul\":2113:2215   */\n    tag_46:\n        /* \"#utility.yul\":2154:2160   */\n      0x00\n        /* \"#utility.yul\":2205:2207   */\n      0x1f\n        /* \"#utility.yul\":2201:2208   */\n      not\n        /* \"#utility.yul\":2196:2198   */\n      0x1f\n        /* \"#utility.yul\":2189:2194   */\n      dup4\n        /* \"#utility.yul\":2185:2199   */\n      add\n        /* \"#utility.yul\":2181:2209   */\n      and\n        /* \"#utility.yul\":2171:2209   */\n      swap1\n      pop\n        /* \"#utility.yul\":2113:2215   */\n      swap2\n      swap1\n      pop\n      jump\t// out\n        /* \"#utility.yul\":2221:2401   */\n    tag_47:\n        /* \"#utility.yul\":2269:2346   */\n      0x4e487b7100000000000000000000000000000000000000000000000000000000\n        /* \"#utility.yul\":2266:2267   */\n      0x00\n        /* \"#utility.yul\":2259:2347   */\n      mstore\n        /* \"#utility.yul\":2366:2370   */\n      0x41\n        /* \"#utility.yul\":2363:2364   */\n      0x04\n        /* \"#utility.yul\":2356:2371   */\n      mstore\n        /* \"#utility.yul\":2390:2394   */\n      0x24\n        /* \"#utility.yul\":2387:2388   */\n      0x00\n        /* \"#utility.yul\":2380:2395   */\n      revert\n        /* \"#utility.yul\":2407:2688   */\n    tag_48:\n        /* \"#utility.yul\":2490:2517   */\n      tag_82\n        /* \"#utility.yul\":2512:2516   */\n      dup3\n        /* \"#utility.yul\":2490:2517   */\n      tag_46\n      jump\t// in\n    tag_82:\n        /* \"#utility.yul\":2482:2488   */\n      dup2\n        /* \"#utility.yul\":2478:2518   */\n      add\n        /* \"#utility.yul\":2620:2626   */\n      dup2\n        /* \"#utility.yul\":2608:2618   */\n      dup2\n        /* \"#utility.yul\":2605:2627   */\n      lt\n        /* \"#utility.yul\":2584:2602   */\n      0xffffffffffffffff\n        /* \"#utility.yul\":2572:2582   */\n      dup3\n        /* \"#utility.yul\":2569:2603   */\n      gt\n        /* \"#utility.yul\":2566:2628   */\n      or\n        /* \"#utility.yul\":2563:2651   */\n      iszero\n      tag_83\n      jumpi\n        /* \"#utility.yul\":2631:2649   */\n      tag_84\n      tag_47\n      jump\t// in\n    tag_84:\n        /* \"#utility.yul\":2563:2651   */\n    tag_83:\n        /* \"#utility.yul\":2671:2681   */\n      dup1\n        /* \"#utility.yul\":2667:2669   */\n      0x40\n        /* \"#utility.yul\":2660:2682   */\n      mstore\n        /* \"#utility.yul\":2450:2688   */\n      pop\n        /* \"#utility.yul\":2407:2688   */\n      pop\n      pop\n      jump\t// out\n        /* \"#utility.yul\":2694:3405   */\n    tag_24:\n        /* \"#utility.yul\":2733:2736   */\n      0x00\n        /* \"#utility.yul\":2771:2775   */\n      0x44\n        /* \"#utility.yul\":2753:2769   */\n      returndatasize\n        /* \"#utility.yul\":2750:2776   */\n      lt\n        /* \"#utility.yul\":2779:2784   */\n      tag_85\n        /* \"#utility.yul\":2747:2786   */\n      jumpi\n        /* \"#utility.yul\":2808:2828   */\n      tag_87\n      tag_40\n      jump\t// in\n    tag_87:\n        /* \"#utility.yul\":2883:2884   */\n      0x04\n        /* \"#utility.yul\":2865:2881   */\n      returndatasize\n        /* \"#utility.yul\":2861:2885   */\n      sub\n        /* \"#utility.yul\":2858:2859   */\n      0x04\n        /* \"#utility.yul\":2852:2856   */\n      dup3\n        /* \"#utility.yul\":2837:2886   */\n      returndatacopy\n        /* \"#utility.yul\":2916:2920   */\n      dup1\n        /* \"#utility.yul\":2910:2921   */\n      mload\n        /* \"#utility.yul\":3015:3031   */\n      returndatasize\n        /* \"#utility.yul\":3008:3012   */\n      0x24\n        /* \"#utility.yul\":3000:3006   */\n      dup3\n        /* \"#utility.yul\":2996:3013   */\n      add\n        /* \"#utility.yul\":2993:3032   */\n      gt\n        /* \"#utility.yul\":2960:2978   */\n      0xffffffffffffffff\n        /* \"#utility.yul\":2952:2958   */\n      dup3\n        /* \"#utility.yul\":2949:2979   */\n      gt\n        /* \"#utility.yul\":2933:3046   */\n      or\n        /* \"#utility.yul\":2930:3076   */\n      iszero\n      tag_88\n      jumpi\n        /* \"#utility.yul\":3061:3066   */\n      pop\n      pop\n      jump(tag_85)\n        /* \"#utility.yul\":2930:3076   */\n    tag_88:\n        /* \"#utility.yul\":3107:3113   */\n      dup1\n        /* \"#utility.yul\":3101:3105   */\n      dup3\n        /* \"#utility.yul\":3097:3114   */\n      add\n        /* \"#utility.yul\":3143:3146   */\n      dup1\n        /* \"#utility.yul\":3137:3147   */\n      mload\n        /* \"#utility.yul\":3170:3188   */\n      0xffffffffffffffff\n        /* \"#utility.yul\":3162:3168   */\n      dup2\n        /* \"#utility.yul\":3159:3189   */\n      gt\n        /* \"#utility.yul\":3156:3199   */\n      iszero\n      tag_89\n      jumpi\n        /* \"#utility.yul\":3192:3197   */\n      pop\n      pop\n      pop\n      pop\n      jump(tag_85)\n        /* \"#utility.yul\":3156:3199   */\n    tag_89:\n        /* \"#utility.yul\":3240:3246   */\n      dup1\n        /* \"#utility.yul\":3233:3237   */\n      0x20\n        /* \"#utility.yul\":3228:3231   */\n      dup4\n        /* \"#utility.yul\":3224:3238   */\n      add\n        /* \"#utility.yul\":3220:3247   */\n      add\n        /* \"#utility.yul\":3299:3300   */\n      0x04\n        /* \"#utility.yul\":3281:3297   */\n      returndatasize\n        /* \"#utility.yul\":3277:3301   */\n      sub\n        /* \"#utility.yul\":3271:3275   */\n      dup6\n        /* \"#utility.yul\":3267:3302   */\n      add\n        /* \"#utility.yul\":3262:3265   */\n      dup2\n        /* \"#utility.yul\":3259:3303   */\n      gt\n        /* \"#utility.yul\":3256:3313   */\n      iszero\n      tag_90\n      jumpi\n        /* \"#utility.yul\":3306:3311   */\n      pop\n      pop\n      pop\n      pop\n      pop\n      jump(tag_85)\n        /* \"#utility.yul\":3256:3313   */\n    tag_90:\n        /* \"#utility.yul\":3323:3380   */\n      tag_91\n        /* \"#utility.yul\":3371:3377   */\n      dup3\n        /* \"#utility.yul\":3365:3369   */\n      0x20\n        /* \"#utility.yul\":3361:3378   */\n      add\n        /* \"#utility.yul\":3353:3359   */\n      dup6\n        /* \"#utility.yul\":3349:3379   */\n      add\n        /* \"#utility.yul\":3343:3347   */\n      dup7\n        /* \"#utility.yul\":3323:3380   */\n      tag_48\n      jump\t// in\n    tag_91:\n        /* \"#utility.yul\":3396:3399   */\n      dup3\n        /* \"#utility.yul\":3389:3399   */\n      swap6\n      pop\n        /* \"#utility.yul\":2737:3405   */\n      pop\n      pop\n      pop\n      pop\n      pop\n        /* \"#utility.yul\":2694:3405   */\n    tag_85:\n      swap1\n      jump\t// out\n        /* \"#utility.yul\":3411:3611   */\n    tag_27:\n        /* \"#utility.yul\":3447:3454   */\n      0x00\n        /* \"#utility.yul\":3456:3460   */\n      dup1\n        /* \"#utility.yul\":3495:3499   */\n      0x23\n        /* \"#utility.yul\":3477:3493   */\n      returndatasize\n        /* \"#utility.yul\":3474:3500   */\n      gt\n        /* \"#utility.yul\":3471:3605   */\n      iszero\n      tag_93\n      jumpi\n        /* \"#utility.yul\":3536:3540   */\n      0x20\n        /* \"#utility.yul\":3533:3534   */\n      0x04\n        /* \"#utility.yul\":3530:3531   */\n      0x00\n        /* \"#utility.yul\":3515:3541   */\n      returndatacopy\n        /* \"#utility.yul\":3565:3566   */\n      0x01\n        /* \"#utility.yul\":3554:3566   */\n      swap2\n      pop\n        /* \"#utility.yul\":3593:3594   */\n      0x00\n        /* \"#utility.yul\":3587:3595   */\n      mload\n        /* \"#utility.yul\":3579:3595   */\n      swap1\n      pop\n        /* \"#utility.yul\":3471:3605   */\n    tag_93:\n        /* \"#utility.yul\":3411:3611   */\n      swap1\n      swap2\n      jump\t// out\n        /* \"#utility.yul\":3617:3786   */\n    tag_49:\n        /* \"#utility.yul\":3701:3712   */\n      0x00\n        /* \"#utility.yul\":3735:3741   */\n      dup3\n        /* \"#utility.yul\":3730:3733   */\n      dup3\n        /* \"#utility.yul\":3723:3742   */\n      mstore\n        /* \"#utility.yul\":3775:3779   */\n      0x20\n        /* \"#utility.yul\":3770:3773   */\n      dup3\n        /* \"#utility.yul\":3766:3780   */\n      add\n        /* \"#utility.yul\":3751:3780   */\n      swap1\n      pop\n        /* \"#utility.yul\":3617:3786   */\n      swap3\n      swap2\n      pop\n      pop\n      jump\t// out\n        /* \"#utility.yul\":3792:3955   */\n    tag_50:\n        /* \"#utility.yul\":3932:3947   */\n      0x696e74656e742072657665727400000000000000000000000000000000000000\n        /* \"#utility.yul\":3928:3929   */\n      0x00\n        /* \"#utility.yul\":3920:3926   */\n      dup3\n        /* \"#utility.yul\":3916:3930   */\n      add\n        /* \"#utility.yul\":3909:3948   */\n      mstore\n        /* \"#utility.yul\":3792:3955   */\n      pop\n      jump\t// out\n        /* \"#utility.yul\":3961:4327   */\n    tag_51:\n        /* \"#utility.yul\":4103:4106   */\n      0x00\n        /* \"#utility.yul\":4124:4191   */\n      tag_97\n        /* \"#utility.yul\":4188:4190   */\n      0x0d\n        /* \"#utility.yul\":4183:4186   */\n      dup4\n        /* \"#utility.yul\":4124:4191   */\n      tag_49\n      jump\t// in\n    tag_97:\n        /* \"#utility.yul\":4117:4191   */\n      swap2\n      pop\n        /* \"#utility.yul\":4200:4293   */\n      tag_98\n        /* \"#utility.yul\":4289:4292   */\n      dup3\n        /* \"#utility.yul\":4200:4293   */\n      tag_50\n      jump\t// in\n    tag_98:\n        /* \"#utility.yul\":4318:4320   */\n      0x20\n        /* \"#utility.yul\":4313:4316   */\n      dup3\n        /* \"#utility.yul\":4309:4321   */\n      add\n        /* \"#utility.yul\":4302:4321   */\n      swap1\n      pop\n        /* \"#utility.yul\":3961:4327   */\n      swap2\n      swap1\n      pop\n      jump\t// out\n        /* \"#utility.yul\":4333:4752   */\n    tag_35:\n        /* \"#utility.yul\":4499:4503   */\n      0x00\n        /* \"#utility.yul\":4537:4539   */\n      0x20\n        /* \"#utility.yul\":4526:4535   */\n      dup3\n        /* \"#utility.yul\":4522:4540   */\n      add\n        /* \"#utility.yul\":4514:4540   */\n      swap1\n      pop\n        /* \"#utility.yul\":4586:4595   */\n      dup2\n        /* \"#utility.yul\":4580:4584   */\n      dup2\n        /* \"#utility.yul\":4576:4596   */\n      sub\n        /* \"#utility.yul\":4572:4573   */\n      0x00\n        /* \"#utility.yul\":4561:4570   */\n      dup4\n        /* \"#utility.yul\":4557:4574   */\n      add\n        /* \"#utility.yul\":4550:4597   */\n      mstore\n        /* \"#utility.yul\":4614:4745   */\n      tag_100\n        /* \"#utility.yul\":4740:4744   */\n      dup2\n        /* \"#utility.yul\":4614:4745   */\n      tag_51\n      jump\t// in\n    tag_100:\n        /* \"#utility.yul\":4606:4745   */\n      swap1\n      pop\n        /* \"#utility.yul\":4333:4752   */\n      swap2\n      swap1\n      pop\n      jump\t// out\n\n    auxdata: 0xa26469706673582212205c0dade04359c1a2b4f5b6e0349eeaa226f3caa69fe933fc4b9a66b8c25ad97464736f6c63430008110033\n}\n\nsub_1: assembly {\n        /* \"CODE_SOL/Test_WorkSpace.sol\":61:161  contract Callee {... */\n      mstore(0x40, 0x80)\n      callvalue\n      dup1\n      iszero\n      tag_1\n      jumpi\n      0x00\n      dup1\n      revert\n    tag_1:\n      pop\n      dataSize(sub_0)\n      dup1\n      dataOffset(sub_0)\n      0x00\n      codecopy\n      0x00\n      return\n    stop\n\n    sub_0: assembly {\n            /* \"CODE_SOL/Test_WorkSpace.sol\":61:161  contract Callee {... */\n          mstore(0x40, 0x80)\n          callvalue\n          dup1\n          iszero\n          tag_1\n          jumpi\n          0x00\n          dup1\n          revert\n        tag_1:\n          pop\n          jumpi(tag_2, lt(calldatasize, 0x04))\n          shr(0xe0, calldataload(0x00))\n          dup1\n          0xbfa814b5\n          eq\n          tag_3\n          jumpi\n        tag_2:\n          0x00\n          dup1\n          revert\n            /* \"CODE_SOL/Test_WorkSpace.sol\":86:156  function func() public pure returns (bool) {assert(true);return true;} */\n        tag_3:\n          tag_4\n          tag_5\n          jump\t// in\n        tag_4:\n          mload(0x40)\n          tag_6\n          swap2\n          swap1\n          tag_7\n          jump\t// in\n        tag_6:\n          mload(0x40)\n          dup1\n          swap2\n          sub\n          swap1\n          return\n        tag_5:\n            /* \"CODE_SOL/Test_WorkSpace.sol\":123:127  bool */\n          0x00\n            /* \"CODE_SOL/Test_WorkSpace.sol\":137:141  true */\n          0x01\n            /* \"CODE_SOL/Test_WorkSpace.sol\":130:142  assert(true) */\n          tag_9\n          jumpi\n          tag_10\n          tag_11\n          jump\t// in\n        tag_10:\n        tag_9:\n            /* \"CODE_SOL/Test_WorkSpace.sol\":150:154  true */\n          0x01\n            /* \"CODE_SOL/Test_WorkSpace.sol\":143:154  return true */\n          swap1\n          pop\n            /* \"CODE_SOL/Test_WorkSpace.sol\":86:156  function func() public pure returns (bool) {assert(true);return true;} */\n          swap1\n          jump\t// out\n            /* \"#utility.yul\":7:97   */\n        tag_12:\n            /* \"#utility.yul\":41:48   */\n          0x00\n            /* \"#utility.yul\":84:89   */\n          dup2\n            /* \"#utility.yul\":77:90   */\n          iszero\n            /* \"#utility.yul\":70:91   */\n          iszero\n            /* \"#utility.yul\":59:91   */\n          swap1\n          pop\n            /* \"#utility.yul\":7:97   */\n          swap2\n          swap1\n          pop\n          jump\t// out\n            /* \"#utility.yul\":103:212   */\n        tag_13:\n            /* \"#utility.yul\":184:205   */\n          tag_17\n            /* \"#utility.yul\":199:204   */\n          dup2\n            /* \"#utility.yul\":184:205   */\n          tag_12\n          jump\t// in\n        tag_17:\n            /* \"#utility.yul\":179:182   */\n          dup3\n            /* \"#utility.yul\":172:206   */\n          mstore\n            /* \"#utility.yul\":103:212   */\n          pop\n          pop\n          jump\t// out\n            /* \"#utility.yul\":218:428   */\n        tag_7:\n            /* \"#utility.yul\":305:309   */\n          0x00\n            /* \"#utility.yul\":343:345   */\n          0x20\n            /* \"#utility.yul\":332:341   */\n          dup3\n            /* \"#utility.yul\":328:346   */\n          add\n            /* \"#utility.yul\":320:346   */\n          swap1\n          pop\n            /* \"#utility.yul\":356:421   */\n          tag_19\n            /* \"#utility.yul\":418:419   */\n          0x00\n            /* \"#utility.yul\":407:416   */\n          dup4\n            /* \"#utility.yul\":403:420   */\n          add\n            /* \"#utility.yul\":394:400   */\n          dup5\n            /* \"#utility.yul\":356:421   */\n          tag_13\n          jump\t// in\n        tag_19:\n            /* \"#utility.yul\":218:428   */\n          swap3\n          swap2\n          pop\n          pop\n          jump\t// out\n            /* \"#utility.yul\":434:614   */\n        tag_11:\n            /* \"#utility.yul\":482:559   */\n          0x4e487b7100000000000000000000000000000000000000000000000000000000\n            /* \"#utility.yul\":479:480   */\n          0x00\n            /* \"#utility.yul\":472:560   */\n          mstore\n            /* \"#utility.yul\":579:583   */\n          0x01\n            /* \"#utility.yul\":576:577   */\n          0x04\n            /* \"#utility.yul\":569:584   */\n          mstore\n            /* \"#utility.yul\":603:607   */\n          0x24\n            /* \"#utility.yul\":600:601   */\n          0x00\n            /* \"#utility.yul\":593:608   */\n          revert\n\n        auxdata: 0xa26469706673582212200e9d1d8dd669872e3d2c9818cb3d5f56f83a6d49f9a62408601fddfd049ab58564736f6c63430008110033\n    }\n}\n",
				"bytecode": {
					"linkReferences": {},
					"object": "60806040526040516100109061007e565b604051809103906000f08015801561002c573d6000803e3d6000fd5b506000806101000a81548173ffffffffffffffffffffffffffffffffffffffff021916908373ffffffffffffffffffffffffffffffffffffffff16021790555034801561007857600080fd5b5061008b565b6101128061059283390190565b6104f88061009a6000396000f3fe608060405234801561001057600080fd5b50600436106100365760003560e01c8063775fc1271461003b578063bfa814b514610059575b600080fd5b610043610077565b604051610050919061023b565b60405180910390f35b6100616101e5565b60405161006e9190610271565b60405180910390f35b60008060009054906101000a900473ffffffffffffffffffffffffffffffffffffffff1673ffffffffffffffffffffffffffffffffffffffff1663bfa814b56040518163ffffffff1660e01b8152600401602060405180830381865afa92505050801561010257506040513d601f19601f820116820180604052508101906100ff91906102c7565b60015b61016c5761010e610301565b806308c379a0036101375750610122610394565b8061012d575061015d565b60ff915050610167565b634e487b710361015d57610149610424565b90610154575061015d565b80915050610167565b3d6000803e3d6000fd5b6101e2565b50600090503073ffffffffffffffffffffffffffffffffffffffff1663bfa814b56040518163ffffffff1660e01b8152600401602060405180830381865afa1580156101bc573d6000803e3d6000fd5b505050506040513d601f19601f820116820180604052508101906101e091906102c7565b505b90565b60006040517f08c379a0000000000000000000000000000000000000000000000000000000008152600401610219906104a2565b60405180910390fd5b6000819050919050565b61023581610222565b82525050565b6000602082019050610250600083018461022c565b92915050565b60008115159050919050565b61026b81610256565b82525050565b60006020820190506102866000830184610262565b92915050565b6000604051905090565b600080fd5b6102a481610256565b81146102af57600080fd5b50565b6000815190506102c18161029b565b92915050565b6000602082840312156102dd576102dc610296565b5b60006102eb848285016102b2565b91505092915050565b60008160e01c9050919050565b600060033d11156103205760046000803e61031d6000516102f4565b90505b90565b6000601f19601f8301169050919050565b7f4e487b7100000000000000000000000000000000000000000000000000000000600052604160045260246000fd5b61036c82610323565b810181811067ffffffffffffffff8211171561038b5761038a610334565b5b80604052505050565b600060443d10610421576103a661028c565b60043d036004823e80513d602482011167ffffffffffffffff821117156103ce575050610421565b808201805167ffffffffffffffff8111156103ec5750505050610421565b80602083010160043d038501811115610409575050505050610421565b61041882602001850186610363565b82955050505050505b90565b60008060233d1115610441576020600460003e6001915060005190505b9091565b600082825260208201905092915050565b7f696e74656e742072657665727400000000000000000000000000000000000000600082015250565b600061048c600d83610445565b915061049782610456565b602082019050919050565b600060208201905081810360008301526104bb8161047f565b905091905056fea26469706673582212205c0dade04359c1a2b4f5b6e0349eeaa226f3caa69fe933fc4b9a66b8c25ad97464736f6c63430008110033608060405234801561001057600080fd5b5060f38061001f6000396000f3fe6080604052348015600f57600080fd5b506004361060285760003560e01c8063bfa814b514602d575b600080fd5b60336047565b604051603e91906075565b60405180910390f35b600060016055576054608e565b5b6001905090565b60008115159050919050565b606f81605c565b82525050565b6000602082019050608860008301846068565b92915050565b7f4e487b7100000000000000000000000000000000000000000000000000000000600052600160045260246000fdfea26469706673582212200e9d1d8dd669872e3d2c9818cb3d5f56f83a6d49f9a62408601fddfd049ab58564736f6c63430008110033",
					"opcodes": "PUSH1 0x80 PUSH1 0x40 MSTORE PUSH1 0x40 MLOAD PUSH2 0x10 SWAP1 PUSH2 0x7E JUMP JUMPDEST PUSH1 0x40 MLOAD DUP1 SWAP2 SUB SWAP1 PUSH1 0x0 CREATE DUP1 ISZERO DUP1 ISZERO PUSH2 0x2C JUMPI RETURNDATASIZE PUSH1 0x0 DUP1 RETURNDATACOPY RETURNDATASIZE PUSH1 0x0 REVERT JUMPDEST POP PUSH1 0x0 DUP1 PUSH2 0x100 EXP DUP2 SLOAD DUP2 PUSH20 0xFFFFFFFFFFFFFFFFFFFFFFFFFFFFFFFFFFFFFFFF MUL NOT AND SWAP1 DUP4 PUSH20 0xFFFFFFFFFFFFFFFFFFFFFFFFFFFFFFFFFFFFFFFF AND MUL OR SWAP1 SSTORE POP CALLVALUE DUP1 ISZERO PUSH2 0x78 JUMPI PUSH1 0x0 DUP1 REVERT JUMPDEST POP PUSH2 0x8B JUMP JUMPDEST PUSH2 0x112 DUP1 PUSH2 0x592 DUP4 CODECOPY ADD SWAP1 JUMP JUMPDEST PUSH2 0x4F8 DUP1 PUSH2 0x9A PUSH1 0x0 CODECOPY PUSH1 0x0 RETURN INVALID PUSH1 0x80 PUSH1 0x40 MSTORE CALLVALUE DUP1 ISZERO PUSH2 0x10 JUMPI PUSH1 0x0 DUP1 REVERT JUMPDEST POP PUSH1 0x4 CALLDATASIZE LT PUSH2 0x36 JUMPI PUSH1 0x0 CALLDATALOAD PUSH1 0xE0 SHR DUP1 PUSH4 0x775FC127 EQ PUSH2 0x3B JUMPI DUP1 PUSH4 0xBFA814B5 EQ PUSH2 0x59 JUMPI JUMPDEST PUSH1 0x0 DUP1 REVERT JUMPDEST PUSH2 0x43 PUSH2 0x77 JUMP JUMPDEST PUSH1 0x40 MLOAD PUSH2 0x50 SWAP2 SWAP1 PUSH2 0x23B JUMP JUMPDEST PUSH1 0x40 MLOAD DUP1 SWAP2 SUB SWAP1 RETURN JUMPDEST PUSH2 0x61 PUSH2 0x1E5 JUMP JUMPDEST PUSH1 0x40 MLOAD PUSH2 0x6E SWAP2 SWAP1 PUSH2 0x271 JUMP JUMPDEST PUSH1 0x40 MLOAD DUP1 SWAP2 SUB SWAP1 RETURN JUMPDEST PUSH1 0x0 DUP1 PUSH1 0x0 SWAP1 SLOAD SWAP1 PUSH2 0x100 EXP SWAP1 DIV PUSH20 0xFFFFFFFFFFFFFFFFFFFFFFFFFFFFFFFFFFFFFFFF AND PUSH20 0xFFFFFFFFFFFFFFFFFFFFFFFFFFFFFFFFFFFFFFFF AND PUSH4 0xBFA814B5 PUSH1 0x40 MLOAD DUP2 PUSH4 0xFFFFFFFF AND PUSH1 0xE0 SHL DUP2 MSTORE PUSH1 0x4 ADD PUSH1 0x20 PUSH1 0x40 MLOAD DUP1 DUP4 SUB DUP2 DUP7 GAS STATICCALL SWAP3 POP POP POP DUP1 ISZERO PUSH2 0x102 JUMPI POP PUSH1 0x40 MLOAD RETURNDATASIZE PUSH1 0x1F NOT PUSH1 0x1F DUP3 ADD AND DUP3 ADD DUP1 PUSH1 0x40 MSTORE POP DUP2 ADD SWAP1 PUSH2 0xFF SWAP2 SWAP1 PUSH2 0x2C7 JUMP JUMPDEST PUSH1 0x1 JUMPDEST PUSH2 0x16C JUMPI PUSH2 0x10E PUSH2 0x301 JUMP JUMPDEST DUP1 PUSH4 0x8C379A0 SUB PUSH2 0x137 JUMPI POP PUSH2 0x122 PUSH2 0x394 JUMP JUMPDEST DUP1 PUSH2 0x12D JUMPI POP PUSH2 0x15D JUMP JUMPDEST PUSH1 0xFF SWAP2 POP POP PUSH2 0x167 JUMP JUMPDEST PUSH4 0x4E487B71 SUB PUSH2 0x15D JUMPI PUSH2 0x149 PUSH2 0x424 JUMP JUMPDEST SWAP1 PUSH2 0x154 JUMPI POP PUSH2 0x15D JUMP JUMPDEST DUP1 SWAP2 POP POP PUSH2 0x167 JUMP JUMPDEST RETURNDATASIZE PUSH1 0x0 DUP1 RETURNDATACOPY RETURNDATASIZE PUSH1 0x0 REVERT JUMPDEST PUSH2 0x1E2 JUMP JUMPDEST POP PUSH1 0x0 SWAP1 POP ADDRESS PUSH20 0xFFFFFFFFFFFFFFFFFFFFFFFFFFFFFFFFFFFFFFFF AND PUSH4 0xBFA814B5 PUSH1 0x40 MLOAD DUP2 PUSH4 0xFFFFFFFF AND PUSH1 0xE0 SHL DUP2 MSTORE PUSH1 0x4 ADD PUSH1 0x20 PUSH1 0x40 MLOAD DUP1 DUP4 SUB DUP2 DUP7 GAS STATICCALL ISZERO DUP1 ISZERO PUSH2 0x1BC JUMPI RETURNDATASIZE PUSH1 0x0 DUP1 RETURNDATACOPY RETURNDATASIZE PUSH1 0x0 REVERT JUMPDEST POP POP POP POP PUSH1 0x40 MLOAD RETURNDATASIZE PUSH1 0x1F NOT PUSH1 0x1F DUP3 ADD AND DUP3 ADD DUP1 PUSH1 0x40 MSTORE POP DUP2 ADD SWAP1 PUSH2 0x1E0 SWAP2 SWAP1 PUSH2 0x2C7 JUMP JUMPDEST POP JUMPDEST SWAP1 JUMP JUMPDEST PUSH1 0x0 PUSH1 0x40 MLOAD PUSH32 0x8C379A000000000000000000000000000000000000000000000000000000000 DUP2 MSTORE PUSH1 0x4 ADD PUSH2 0x219 SWAP1 PUSH2 0x4A2 JUMP JUMPDEST PUSH1 0x40 MLOAD DUP1 SWAP2 SUB SWAP1 REVERT JUMPDEST PUSH1 0x0 DUP2 SWAP1 POP SWAP2 SWAP1 POP JUMP JUMPDEST PUSH2 0x235 DUP2 PUSH2 0x222 JUMP JUMPDEST DUP3 MSTORE POP POP JUMP JUMPDEST PUSH1 0x0 PUSH1 0x20 DUP3 ADD SWAP1 POP PUSH2 0x250 PUSH1 0x0 DUP4 ADD DUP5 PUSH2 0x22C JUMP JUMPDEST SWAP3 SWAP2 POP POP JUMP JUMPDEST PUSH1 0x0 DUP2 ISZERO ISZERO SWAP1 POP SWAP2 SWAP1 POP JUMP JUMPDEST PUSH2 0x26B DUP2 PUSH2 0x256 JUMP JUMPDEST DUP3 MSTORE POP POP JUMP JUMPDEST PUSH1 0x0 PUSH1 0x20 DUP3 ADD SWAP1 POP PUSH2 0x286 PUSH1 0x0 DUP4 ADD DUP5 PUSH2 0x262 JUMP JUMPDEST SWAP3 SWAP2 POP POP JUMP JUMPDEST PUSH1 0x0 PUSH1 0x40 MLOAD SWAP1 POP SWAP1 JUMP JUMPDEST PUSH1 0x0 DUP1 REVERT JUMPDEST PUSH2 0x2A4 DUP2 PUSH2 0x256 JUMP JUMPDEST DUP2 EQ PUSH2 0x2AF JUMPI PUSH1 0x0 DUP1 REVERT JUMPDEST POP JUMP JUMPDEST PUSH1 0x0 DUP2 MLOAD SWAP1 POP PUSH2 0x2C1 DUP2 PUSH2 0x29B JUMP JUMPDEST SWAP3 SWAP2 POP POP JUMP JUMPDEST PUSH1 0x0 PUSH1 0x20 DUP3 DUP5 SUB SLT ISZERO PUSH2 0x2DD JUMPI PUSH2 0x2DC PUSH2 0x296 JUMP JUMPDEST JUMPDEST PUSH1 0x0 PUSH2 0x2EB DUP5 DUP3 DUP6 ADD PUSH2 0x2B2 JUMP JUMPDEST SWAP2 POP POP SWAP3 SWAP2 POP POP JUMP JUMPDEST PUSH1 0x0 DUP2 PUSH1 0xE0 SHR SWAP1 POP SWAP2 SWAP1 POP JUMP JUMPDEST PUSH1 0x0 PUSH1 0x3 RETURNDATASIZE GT ISZERO PUSH2 0x320 JUMPI PUSH1 0x4 PUSH1 0x0 DUP1 RETURNDATACOPY PUSH2 0x31D PUSH1 0x0 MLOAD PUSH2 0x2F4 JUMP JUMPDEST SWAP1 POP JUMPDEST SWAP1 JUMP JUMPDEST PUSH1 0x0 PUSH1 0x1F NOT PUSH1 0x1F DUP4 ADD AND SWAP1 POP SWAP2 SWAP1 POP JUMP JUMPDEST PUSH32 0x4E487B7100000000000000000000000000000000000000000000000000000000 PUSH1 0x0 MSTORE PUSH1 0x41 PUSH1 0x4 MSTORE PUSH1 0x24 PUSH1 0x0 REVERT JUMPDEST PUSH2 0x36C DUP3 PUSH2 0x323 JUMP JUMPDEST DUP2 ADD DUP2 DUP2 LT PUSH8 0xFFFFFFFFFFFFFFFF DUP3 GT OR ISZERO PUSH2 0x38B JUMPI PUSH2 0x38A PUSH2 0x334 JUMP JUMPDEST JUMPDEST DUP1 PUSH1 0x40 MSTORE POP POP POP JUMP JUMPDEST PUSH1 0x0 PUSH1 0x44 RETURNDATASIZE LT PUSH2 0x421 JUMPI PUSH2 0x3A6 PUSH2 0x28C JUMP JUMPDEST PUSH1 0x4 RETURNDATASIZE SUB PUSH1 0x4 DUP3 RETURNDATACOPY DUP1 MLOAD RETURNDATASIZE PUSH1 0x24 DUP3 ADD GT PUSH8 0xFFFFFFFFFFFFFFFF DUP3 GT OR ISZERO PUSH2 0x3CE JUMPI POP POP PUSH2 0x421 JUMP JUMPDEST DUP1 DUP3 ADD DUP1 MLOAD PUSH8 0xFFFFFFFFFFFFFFFF DUP2 GT ISZERO PUSH2 0x3EC JUMPI POP POP POP POP PUSH2 0x421 JUMP JUMPDEST DUP1 PUSH1 0x20 DUP4 ADD ADD PUSH1 0x4 RETURNDATASIZE SUB DUP6 ADD DUP2 GT ISZERO PUSH2 0x409 JUMPI POP POP POP POP POP PUSH2 0x421 JUMP JUMPDEST PUSH2 0x418 DUP3 PUSH1 0x20 ADD DUP6 ADD DUP7 PUSH2 0x363 JUMP JUMPDEST DUP3 SWAP6 POP POP POP POP POP POP JUMPDEST SWAP1 JUMP JUMPDEST PUSH1 0x0 DUP1 PUSH1 0x23 RETURNDATASIZE GT ISZERO PUSH2 0x441 JUMPI PUSH1 0x20 PUSH1 0x4 PUSH1 0x0 RETURNDATACOPY PUSH1 0x1 SWAP2 POP PUSH1 0x0 MLOAD SWAP1 POP JUMPDEST SWAP1 SWAP2 JUMP JUMPDEST PUSH1 0x0 DUP3 DUP3 MSTORE PUSH1 0x20 DUP3 ADD SWAP1 POP SWAP3 SWAP2 POP POP JUMP JUMPDEST PUSH32 0x696E74656E742072657665727400000000000000000000000000000000000000 PUSH1 0x0 DUP3 ADD MSTORE POP JUMP JUMPDEST PUSH1 0x0 PUSH2 0x48C PUSH1 0xD DUP4 PUSH2 0x445 JUMP JUMPDEST SWAP2 POP PUSH2 0x497 DUP3 PUSH2 0x456 JUMP JUMPDEST PUSH1 0x20 DUP3 ADD SWAP1 POP SWAP2 SWAP1 POP JUMP JUMPDEST PUSH1 0x0 PUSH1 0x20 DUP3 ADD SWAP1 POP DUP2 DUP2 SUB PUSH1 0x0 DUP4 ADD MSTORE PUSH2 0x4BB DUP2 PUSH2 0x47F JUMP JUMPDEST SWAP1 POP SWAP2 SWAP1 POP JUMP INVALID LOG2 PUSH5 0x6970667358 0x22 SLT KECCAK256 0x5C 0xD 0xAD 0xE0 NUMBER MSIZE 0xC1 LOG2 0xB4 CREATE2 0xB6 0xE0 CALLVALUE SWAP15 0xEA LOG2 0x26 RETURN 0xCA 0xA6 SWAP16 0xE9 CALLER 0xFC 0x4B SWAP11 PUSH7 0xB8C25AD9746473 PUSH16 0x6C634300081100336080604052348015 PUSH2 0x10 JUMPI PUSH1 0x0 DUP1 REVERT JUMPDEST POP PUSH1 0xF3 DUP1 PUSH2 0x1F PUSH1 0x0 CODECOPY PUSH1 0x0 RETURN INVALID PUSH1 0x80 PUSH1 0x40 MSTORE CALLVALUE DUP1 ISZERO PUSH1 0xF JUMPI PUSH1 0x0 DUP1 REVERT JUMPDEST POP PUSH1 0x4 CALLDATASIZE LT PUSH1 0x28 JUMPI PUSH1 0x0 CALLDATALOAD PUSH1 0xE0 SHR DUP1 PUSH4 0xBFA814B5 EQ PUSH1 0x2D JUMPI JUMPDEST PUSH1 0x0 DUP1 REVERT JUMPDEST PUSH1 0x33 PUSH1 0x47 JUMP JUMPDEST PUSH1 0x40 MLOAD PUSH1 0x3E SWAP2 SWAP1 PUSH1 0x75 JUMP JUMPDEST PUSH1 0x40 MLOAD DUP1 SWAP2 SUB SWAP1 RETURN JUMPDEST PUSH1 0x0 PUSH1 0x1 PUSH1 0x55 JUMPI PUSH1 0x54 PUSH1 0x8E JUMP JUMPDEST JUMPDEST PUSH1 0x1 SWAP1 POP SWAP1 JUMP JUMPDEST PUSH1 0x0 DUP2 ISZERO ISZERO SWAP1 POP SWAP2 SWAP1 POP JUMP JUMPDEST PUSH1 0x6F DUP2 PUSH1 0x5C JUMP JUMPDEST DUP3 MSTORE POP POP JUMP JUMPDEST PUSH1 0x0 PUSH1 0x20 DUP3 ADD SWAP1 POP PUSH1 0x88 PUSH1 0x0 DUP4 ADD DUP5 PUSH1 0x68 JUMP JUMPDEST SWAP3 SWAP2 POP POP JUMP JUMPDEST PUSH32 0x4E487B7100000000000000000000000000000000000000000000000000000000 PUSH1 0x0 MSTORE PUSH1 0x1 PUSH1 0x4 MSTORE PUSH1 0x24 PUSH1 0x0 REVERT INVALID LOG2 PUSH5 0x6970667358 0x22 SLT KECCAK256 0xE SWAP14 SAR DUP14 0xD6 PUSH10 0x872E3D2C9818CB3D5F56 0xF8 GASPRICE PUSH14 0x49F9A62408601FDDFD049AB58564 PUSH20 0x6F6C634300081100330000000000000000000000 "
				},
				"gasEstimates": {
					"creation": {
						"codeDepositCost": "254400",
						"executionCost": "infinite",
						"totalCost": "infinite"
					},
					"external": {
						"func()": "437",
						"operation()": "infinite"
					}
				},
				"methodIdentifiers": {
					"func()": "bfa814b5",
					"operation()": "775fc127"
				}
			},
			"storageLayout": {
				"storage": [
					{
						"astId": 21,
						"contract": "CODE_SOL/Test_WorkSpace.sol:Caller",
						"label": "callee",
						"offset": 0,
						"slot": "0",
						"type": "t_contract(Callee)14"
					}
				],
				"types": {
					"t_contract(Callee)14": {
						"encoding": "inplace",
						"label": "contract Callee",
						"numberOfBytes": "20"
					}
				}
			},
			"userdoc": {
				"kind": "user",
				"methods": {},
				"version": 1
			}
		}
	}
}