{
	"CODE_SOL/Test_WorkSpace.sol": {
		"A": {
			"abi": [
				{
					"inputs": [],
					"stateMutability": "nonpayable",
					"type": "constructor"
				},
				{
					"inputs": [],
					"name": "b",
					"outputs": [
						{
							"internalType": "uint256",
							"name": "",
							"type": "uint256"
						}
					],
					"stateMutability": "view",
					"type": "function"
				}
			],
			"devdoc": {
				"kind": "dev",
				"methods": {},
				"version": 1
			},
			"evm": {
				"assembly": "    /* \"CODE_SOL/Test_WorkSpace.sol\":61:412  contract A {... */\n  mstore(0x40, 0x80)\n    /* \"CODE_SOL/Test_WorkSpace.sol\":110:314  constructor () {... */\n  callvalue\n  dup1\n  iszero\n  tag_1\n  jumpi\n  0x00\n  dup1\n  revert\ntag_1:\n  pop\n    /* \"CODE_SOL/Test_WorkSpace.sol\":138:163  arrayDemo1[0] = [1, 2, 3] */\n  mload(0x40)\n  dup1\n  0x60\n  add\n  0x40\n  mstore\n  dup1\n    /* \"CODE_SOL/Test_WorkSpace.sol\":155:156  1 */\n  0x01\n    /* \"CODE_SOL/Test_WorkSpace.sol\":138:163  arrayDemo1[0] = [1, 2, 3] */\n  0xff\n  and\n  dup2\n  mstore\n  0x20\n  add\n    /* \"CODE_SOL/Test_WorkSpace.sol\":158:159  2 */\n  0x02\n    /* \"CODE_SOL/Test_WorkSpace.sol\":138:163  arrayDemo1[0] = [1, 2, 3] */\n  0xff\n  and\n  dup2\n  mstore\n  0x20\n  add\n    /* \"CODE_SOL/Test_WorkSpace.sol\":161:162  3 */\n  0x03\n    /* \"CODE_SOL/Test_WorkSpace.sol\":138:163  arrayDemo1[0] = [1, 2, 3] */\n  0xff\n  and\n  dup2\n  mstore\n  pop\n    /* \"CODE_SOL/Test_WorkSpace.sol\":138:148  arrayDemo1 */\n  0x00\n    /* \"CODE_SOL/Test_WorkSpace.sol\":149:150  0 */\n  dup1\n    /* \"CODE_SOL/Test_WorkSpace.sol\":138:151  arrayDemo1[0] */\n  0x04\n  dup2\n  lt\n  tag_4\n  jumpi\n  tag_5\n  tag_6\n  jump\t// in\ntag_5:\ntag_4:\n  add\n    /* \"CODE_SOL/Test_WorkSpace.sol\":138:163  arrayDemo1[0] = [1, 2, 3] */\n  swap1\n  0x03\n  tag_8\n  swap3\n  swap2\n  swap1\n  tag_9\n  jump\t// in\ntag_8:\n  pop\n    /* \"CODE_SOL/Test_WorkSpace.sol\":176:204  arrayDemo1[1] = [4, 5, 6, 7] */\n  mload(0x40)\n  dup1\n  0x80\n  add\n  0x40\n  mstore\n  dup1\n    /* \"CODE_SOL/Test_WorkSpace.sol\":193:194  4 */\n  0x04\n    /* \"CODE_SOL/Test_WorkSpace.sol\":176:204  arrayDemo1[1] = [4, 5, 6, 7] */\n  0xff\n  and\n  dup2\n  mstore\n  0x20\n  add\n    /* \"CODE_SOL/Test_WorkSpace.sol\":196:197  5 */\n  0x05\n    /* \"CODE_SOL/Test_WorkSpace.sol\":176:204  arrayDemo1[1] = [4, 5, 6, 7] */\n  0xff\n  and\n  dup2\n  mstore\n  0x20\n  add\n    /* \"CODE_SOL/Test_WorkSpace.sol\":199:200  6 */\n  0x06\n    /* \"CODE_SOL/Test_WorkSpace.sol\":176:204  arrayDemo1[1] = [4, 5, 6, 7] */\n  0xff\n  and\n  dup2\n  mstore\n  0x20\n  add\n    /* \"CODE_SOL/Test_WorkSpace.sol\":202:203  7 */\n  0x07\n    /* \"CODE_SOL/Test_WorkSpace.sol\":176:204  arrayDemo1[1] = [4, 5, 6, 7] */\n  0xff\n  and\n  dup2\n  mstore\n  pop\n    /* \"CODE_SOL/Test_WorkSpace.sol\":176:186  arrayDemo1 */\n  0x00\n    /* \"CODE_SOL/Test_WorkSpace.sol\":187:188  1 */\n  0x01\n    /* \"CODE_SOL/Test_WorkSpace.sol\":176:189  arrayDemo1[1] */\n  0x04\n  dup2\n  lt\n  tag_10\n  jumpi\n  tag_11\n  tag_6\n  jump\t// in\ntag_11:\ntag_10:\n  add\n    /* \"CODE_SOL/Test_WorkSpace.sol\":176:204  arrayDemo1[1] = [4, 5, 6, 7] */\n  swap1\n  0x04\n  tag_13\n  swap3\n  swap2\n  swap1\n  tag_14\n  jump\t// in\ntag_13:\n  pop\n    /* \"CODE_SOL/Test_WorkSpace.sol\":217:251  arrayDemo1[2] = [8, 9, 10, 11, 12] */\n  mload(0x40)\n  dup1\n  0xa0\n  add\n  0x40\n  mstore\n  dup1\n    /* \"CODE_SOL/Test_WorkSpace.sol\":234:235  8 */\n  0x08\n    /* \"CODE_SOL/Test_WorkSpace.sol\":217:251  arrayDemo1[2] = [8, 9, 10, 11, 12] */\n  0xff\n  and\n  dup2\n  mstore\n  0x20\n  add\n    /* \"CODE_SOL/Test_WorkSpace.sol\":237:238  9 */\n  0x09\n    /* \"CODE_SOL/Test_WorkSpace.sol\":217:251  arrayDemo1[2] = [8, 9, 10, 11, 12] */\n  0xff\n  and\n  dup2\n  mstore\n  0x20\n  add\n    /* \"CODE_SOL/Test_WorkSpace.sol\":240:242  10 */\n  0x0a\n    /* \"CODE_SOL/Test_WorkSpace.sol\":217:251  arrayDemo1[2] = [8, 9, 10, 11, 12] */\n  0xff\n  and\n  dup2\n  mstore\n  0x20\n  add\n    /* \"CODE_SOL/Test_WorkSpace.sol\":244:246  11 */\n  0x0b\n    /* \"CODE_SOL/Test_WorkSpace.sol\":217:251  arrayDemo1[2] = [8, 9, 10, 11, 12] */\n  0xff\n  and\n  dup2\n  mstore\n  0x20\n  add\n    /* \"CODE_SOL/Test_WorkSpace.sol\":248:250  12 */\n  0x0c\n    /* \"CODE_SOL/Test_WorkSpace.sol\":217:251  arrayDemo1[2] = [8, 9, 10, 11, 12] */\n  0xff\n  and\n  dup2\n  mstore\n  pop\n    /* \"CODE_SOL/Test_WorkSpace.sol\":217:227  arrayDemo1 */\n  0x00\n    /* \"CODE_SOL/Test_WorkSpace.sol\":228:229  2 */\n  0x02\n    /* \"CODE_SOL/Test_WorkSpace.sol\":217:230  arrayDemo1[2] */\n  0x04\n  dup2\n  lt\n  tag_15\n  jumpi\n  tag_16\n  tag_6\n  jump\t// in\ntag_16:\ntag_15:\n  add\n    /* \"CODE_SOL/Test_WorkSpace.sol\":217:251  arrayDemo1[2] = [8, 9, 10, 11, 12] */\n  swap1\n  0x05\n  tag_18\n  swap3\n  swap2\n  swap1\n  tag_19\n  jump\t// in\ntag_18:\n  pop\n    /* \"CODE_SOL/Test_WorkSpace.sol\":264:304  arrayDemo1[3] = [13, 14, 15, 16, 17, 18] */\n  mload(0x40)\n  dup1\n  0xc0\n  add\n  0x40\n  mstore\n  dup1\n    /* \"CODE_SOL/Test_WorkSpace.sol\":281:283  13 */\n  0x0d\n    /* \"CODE_SOL/Test_WorkSpace.sol\":264:304  arrayDemo1[3] = [13, 14, 15, 16, 17, 18] */\n  0xff\n  and\n  dup2\n  mstore\n  0x20\n  add\n    /* \"CODE_SOL/Test_WorkSpace.sol\":285:287  14 */\n  0x0e\n    /* \"CODE_SOL/Test_WorkSpace.sol\":264:304  arrayDemo1[3] = [13, 14, 15, 16, 17, 18] */\n  0xff\n  and\n  dup2\n  mstore\n  0x20\n  add\n    /* \"CODE_SOL/Test_WorkSpace.sol\":289:291  15 */\n  0x0f\n    /* \"CODE_SOL/Test_WorkSpace.sol\":264:304  arrayDemo1[3] = [13, 14, 15, 16, 17, 18] */\n  0xff\n  and\n  dup2\n  mstore\n  0x20\n  add\n    /* \"CODE_SOL/Test_WorkSpace.sol\":293:295  16 */\n  0x10\n    /* \"CODE_SOL/Test_WorkSpace.sol\":264:304  arrayDemo1[3] = [13, 14, 15, 16, 17, 18] */\n  0xff\n  and\n  dup2\n  mstore\n  0x20\n  add\n    /* \"CODE_SOL/Test_WorkSpace.sol\":297:299  17 */\n  0x11\n    /* \"CODE_SOL/Test_WorkSpace.sol\":264:304  arrayDemo1[3] = [13, 14, 15, 16, 17, 18] */\n  0xff\n  and\n  dup2\n  mstore\n  0x20\n  add\n    /* \"CODE_SOL/Test_WorkSpace.sol\":301:303  18 */\n  0x12\n    /* \"CODE_SOL/Test_WorkSpace.sol\":264:304  arrayDemo1[3] = [13, 14, 15, 16, 17, 18] */\n  0xff\n  and\n  dup2\n  mstore\n  pop\n    /* \"CODE_SOL/Test_WorkSpace.sol\":264:274  arrayDemo1 */\n  0x00\n    /* \"CODE_SOL/Test_WorkSpace.sol\":275:276  3 */\n  0x03\n    /* \"CODE_SOL/Test_WorkSpace.sol\":264:277  arrayDemo1[3] */\n  0x04\n  dup2\n  lt\n  tag_20\n  jumpi\n  tag_21\n  tag_6\n  jump\t// in\ntag_21:\ntag_20:\n  add\n    /* \"CODE_SOL/Test_WorkSpace.sol\":264:304  arrayDemo1[3] = [13, 14, 15, 16, 17, 18] */\n  swap1\n  0x06\n  tag_23\n  swap3\n  swap2\n  swap1\n  tag_24\n  jump\t// in\ntag_23:\n  pop\n    /* \"CODE_SOL/Test_WorkSpace.sol\":61:412  contract A {... */\n  jump(tag_25)\ntag_9:\n  dup3\n  dup1\n  sload\n  dup3\n  dup3\n  sstore\n  swap1\n  0x00\n  mstore\n  keccak256(0x00, 0x20)\n  swap1\n  dup2\n  add\n  swap3\n  dup3\n  iszero\n  tag_26\n  jumpi\n  swap2\n  0x20\n  mul\n  dup3\n  add\ntag_27:\n  dup3\n  dup2\n  gt\n  iszero\n  tag_28\n  jumpi\n  dup3\n  mload\n  dup3\n  swap1\n  0xff\n  and\n  swap1\n  sstore\n  swap2\n  0x20\n  add\n  swap2\n  swap1\n  0x01\n  add\n  swap1\n  jump(tag_27)\ntag_28:\ntag_26:\n  pop\n  swap1\n  pop\n  tag_29\n  swap2\n  swap1\n  tag_30\n  jump\t// in\ntag_29:\n  pop\n  swap1\n  jump\t// out\ntag_14:\n  dup3\n  dup1\n  sload\n  dup3\n  dup3\n  sstore\n  swap1\n  0x00\n  mstore\n  keccak256(0x00, 0x20)\n  swap1\n  dup2\n  add\n  swap3\n  dup3\n  iszero\n  tag_31\n  jumpi\n  swap2\n  0x20\n  mul\n  dup3\n  add\ntag_32:\n  dup3\n  dup2\n  gt\n  iszero\n  tag_33\n  jumpi\n  dup3\n  mload\n  dup3\n  swap1\n  0xff\n  and\n  swap1\n  sstore\n  swap2\n  0x20\n  add\n  swap2\n  swap1\n  0x01\n  add\n  swap1\n  jump(tag_32)\ntag_33:\ntag_31:\n  pop\n  swap1\n  pop\n  tag_34\n  swap2\n  swap1\n  tag_30\n  jump\t// in\ntag_34:\n  pop\n  swap1\n  jump\t// out\ntag_19:\n  dup3\n  dup1\n  sload\n  dup3\n  dup3\n  sstore\n  swap1\n  0x00\n  mstore\n  keccak256(0x00, 0x20)\n  swap1\n  dup2\n  add\n  swap3\n  dup3\n  iszero\n  tag_35\n  jumpi\n  swap2\n  0x20\n  mul\n  dup3\n  add\ntag_36:\n  dup3\n  dup2\n  gt\n  iszero\n  tag_37\n  jumpi\n  dup3\n  mload\n  dup3\n  swap1\n  0xff\n  and\n  swap1\n  sstore\n  swap2\n  0x20\n  add\n  swap2\n  swap1\n  0x01\n  add\n  swap1\n  jump(tag_36)\ntag_37:\ntag_35:\n  pop\n  swap1\n  pop\n  tag_38\n  swap2\n  swap1\n  tag_30\n  jump\t// in\ntag_38:\n  pop\n  swap1\n  jump\t// out\ntag_24:\n  dup3\n  dup1\n  sload\n  dup3\n  dup3\n  sstore\n  swap1\n  0x00\n  mstore\n  keccak256(0x00, 0x20)\n  swap1\n  dup2\n  add\n  swap3\n  dup3\n  iszero\n  tag_39\n  jumpi\n  swap2\n  0x20\n  mul\n  dup3\n  add\ntag_40:\n  dup3\n  dup2\n  gt\n  iszero\n  tag_41\n  jumpi\n  dup3\n  mload\n  dup3\n  swap1\n  0xff\n  and\n  swap1\n  sstore\n  swap2\n  0x20\n  add\n  swap2\n  swap1\n  0x01\n  add\n  swap1\n  jump(tag_40)\ntag_41:\ntag_39:\n  pop\n  swap1\n  pop\n  tag_42\n  swap2\n  swap1\n  tag_30\n  jump\t// in\ntag_42:\n  pop\n  swap1\n  jump\t// out\ntag_30:\ntag_43:\n  dup1\n  dup3\n  gt\n  iszero\n  tag_44\n  jumpi\n  0x00\n  dup2\n  0x00\n  swap1\n  sstore\n  pop\n  0x01\n  add\n  jump(tag_43)\ntag_44:\n  pop\n  swap1\n  jump\t// out\n    /* \"#utility.yul\":7:187   */\ntag_6:\n    /* \"#utility.yul\":55:132   */\n  0x4e487b7100000000000000000000000000000000000000000000000000000000\n    /* \"#utility.yul\":52:53   */\n  0x00\n    /* \"#utility.yul\":45:133   */\n  mstore\n    /* \"#utility.yul\":152:156   */\n  0x32\n    /* \"#utility.yul\":149:150   */\n  0x04\n    /* \"#utility.yul\":142:157   */\n  mstore\n    /* \"#utility.yul\":176:180   */\n  0x24\n    /* \"#utility.yul\":173:174   */\n  0x00\n    /* \"#utility.yul\":166:181   */\n  revert\n    /* \"CODE_SOL/Test_WorkSpace.sol\":61:412  contract A {... */\ntag_25:\n  dataSize(sub_0)\n  dup1\n  dataOffset(sub_0)\n  0x00\n  codecopy\n  0x00\n  return\nstop\n\nsub_0: assembly {\n        /* \"CODE_SOL/Test_WorkSpace.sol\":61:412  contract A {... */\n      mstore(0x40, 0x80)\n      callvalue\n      dup1\n      iszero\n      tag_1\n      jumpi\n      0x00\n      dup1\n      revert\n    tag_1:\n      pop\n      jumpi(tag_2, lt(calldatasize, 0x04))\n      shr(0xe0, calldataload(0x00))\n      dup1\n      0x4df7e3d0\n      eq\n      tag_3\n      jumpi\n    tag_2:\n      0x00\n      dup1\n      revert\n        /* \"CODE_SOL/Test_WorkSpace.sol\":322:407  function b() public view returns (uint){... */\n    tag_3:\n      tag_4\n      tag_5\n      jump\t// in\n    tag_4:\n      mload(0x40)\n      tag_6\n      swap2\n      swap1\n      tag_7\n      jump\t// in\n    tag_6:\n      mload(0x40)\n      dup1\n      swap2\n      sub\n      swap1\n      return\n    tag_5:\n        /* \"CODE_SOL/Test_WorkSpace.sol\":356:360  uint */\n      0x00\n        /* \"CODE_SOL/Test_WorkSpace.sol\":381:391  arrayDemo1 */\n      dup1\n        /* \"CODE_SOL/Test_WorkSpace.sol\":392:393  2 */\n      0x02\n        /* \"CODE_SOL/Test_WorkSpace.sol\":381:394  arrayDemo1[2] */\n      0x04\n      dup2\n      lt\n      tag_9\n      jumpi\n      tag_10\n      tag_11\n      jump\t// in\n    tag_10:\n    tag_9:\n      add\n        /* \"CODE_SOL/Test_WorkSpace.sol\":395:396  3 */\n      0x03\n        /* \"CODE_SOL/Test_WorkSpace.sol\":381:397  arrayDemo1[2][3] */\n      dup2\n      sload\n      dup2\n      lt\n      tag_13\n      jumpi\n      tag_14\n      tag_11\n      jump\t// in\n    tag_14:\n    tag_13:\n      swap1\n      0x00\n      mstore\n      keccak256(0x00, 0x20)\n      add\n      sload\n        /* \"CODE_SOL/Test_WorkSpace.sol\":374:397  return arrayDemo1[2][3] */\n      swap1\n      pop\n        /* \"CODE_SOL/Test_WorkSpace.sol\":322:407  function b() public view returns (uint){... */\n      swap1\n      jump\t// out\n        /* \"#utility.yul\":7:84   */\n    tag_16:\n        /* \"#utility.yul\":44:51   */\n      0x00\n        /* \"#utility.yul\":73:78   */\n      dup2\n        /* \"#utility.yul\":62:78   */\n      swap1\n      pop\n        /* \"#utility.yul\":7:84   */\n      swap2\n      swap1\n      pop\n      jump\t// out\n        /* \"#utility.yul\":90:208   */\n    tag_17:\n        /* \"#utility.yul\":177:201   */\n      tag_21\n        /* \"#utility.yul\":195:200   */\n      dup2\n        /* \"#utility.yul\":177:201   */\n      tag_16\n      jump\t// in\n    tag_21:\n        /* \"#utility.yul\":172:175   */\n      dup3\n        /* \"#utility.yul\":165:202   */\n      mstore\n        /* \"#utility.yul\":90:208   */\n      pop\n      pop\n      jump\t// out\n        /* \"#utility.yul\":214:436   */\n    tag_7:\n        /* \"#utility.yul\":307:311   */\n      0x00\n        /* \"#utility.yul\":345:347   */\n      0x20\n        /* \"#utility.yul\":334:343   */\n      dup3\n        /* \"#utility.yul\":330:348   */\n      add\n        /* \"#utility.yul\":322:348   */\n      swap1\n      pop\n        /* \"#utility.yul\":358:429   */\n      tag_23\n        /* \"#utility.yul\":426:427   */\n      0x00\n        /* \"#utility.yul\":415:424   */\n      dup4\n        /* \"#utility.yul\":411:428   */\n      add\n        /* \"#utility.yul\":402:408   */\n      dup5\n        /* \"#utility.yul\":358:429   */\n      tag_17\n      jump\t// in\n    tag_23:\n        /* \"#utility.yul\":214:436   */\n      swap3\n      swap2\n      pop\n      pop\n      jump\t// out\n        /* \"#utility.yul\":442:622   */\n    tag_11:\n        /* \"#utility.yul\":490:567   */\n      0x4e487b7100000000000000000000000000000000000000000000000000000000\n        /* \"#utility.yul\":487:488   */\n      0x00\n        /* \"#utility.yul\":480:568   */\n      mstore\n        /* \"#utility.yul\":587:591   */\n      0x32\n        /* \"#utility.yul\":584:585   */\n      0x04\n        /* \"#utility.yul\":577:592   */\n      mstore\n        /* \"#utility.yul\":611:615   */\n      0x24\n        /* \"#utility.yul\":608:609   */\n      0x00\n        /* \"#utility.yul\":601:616   */\n      revert\n\n    auxdata: 0xa264697066735822122056e761e734cd32cea39093bca2256681ed5430f12197306ca6a6f7b6e79b4ed164736f6c63430008110033\n}\n",
				"bytecode": {
					"linkReferences": {},
					"object": "608060405234801561001057600080fd5b506040518060600160405280600160ff168152602001600260ff168152602001600360ff168152506000806004811061004c5761004b6102e6565b5b0190600361005b929190610181565b506040518060800160405280600460ff168152602001600560ff168152602001600660ff168152602001600760ff1681525060006001600481106100a2576100a16102e6565b5b019060046100b19291906101d3565b506040518060a00160405280600860ff168152602001600960ff168152602001600a60ff168152602001600b60ff168152602001600c60ff168152506000600260048110610102576101016102e6565b5b01906005610111929190610225565b506040518060c00160405280600d60ff168152602001600e60ff168152602001600f60ff168152602001601060ff168152602001601160ff168152602001601260ff16815250600060036004811061016c5761016b6102e6565b5b0190600661017b929190610277565b50610315565b8280548282559060005260206000209081019282156101c2579160200282015b828111156101c1578251829060ff169055916020019190600101906101a1565b5b5090506101cf91906102c9565b5090565b828054828255906000526020600020908101928215610214579160200282015b82811115610213578251829060ff169055916020019190600101906101f3565b5b50905061022191906102c9565b5090565b828054828255906000526020600020908101928215610266579160200282015b82811115610265578251829060ff16905591602001919060010190610245565b5b50905061027391906102c9565b5090565b8280548282559060005260206000209081019282156102b8579160200282015b828111156102b7578251829060ff16905591602001919060010190610297565b5b5090506102c591906102c9565b5090565b5b808211156102e25760008160009055506001016102ca565b5090565b7f4e487b7100000000000000000000000000000000000000000000000000000000600052603260045260246000fd5b610110806103246000396000f3fe6080604052348015600f57600080fd5b506004361060285760003560e01c80634df7e3d014602d575b600080fd5b60336047565b604051603e91906092565b60405180910390f35b600080600260048110605a57605960ab565b5b01600381548110606b57606a60ab565b5b9060005260206000200154905090565b6000819050919050565b608c81607b565b82525050565b600060208201905060a560008301846085565b92915050565b7f4e487b7100000000000000000000000000000000000000000000000000000000600052603260045260246000fdfea264697066735822122056e761e734cd32cea39093bca2256681ed5430f12197306ca6a6f7b6e79b4ed164736f6c63430008110033",
					"opcodes": "PUSH1 0x80 PUSH1 0x40 MSTORE CALLVALUE DUP1 ISZERO PUSH2 0x10 JUMPI PUSH1 0x0 DUP1 REVERT JUMPDEST POP PUSH1 0x40 MLOAD DUP1 PUSH1 0x60 ADD PUSH1 0x40 MSTORE DUP1 PUSH1 0x1 PUSH1 0xFF AND DUP2 MSTORE PUSH1 0x20 ADD PUSH1 0x2 PUSH1 0xFF AND DUP2 MSTORE PUSH1 0x20 ADD PUSH1 0x3 PUSH1 0xFF AND DUP2 MSTORE POP PUSH1 0x0 DUP1 PUSH1 0x4 DUP2 LT PUSH2 0x4C JUMPI PUSH2 0x4B PUSH2 0x2E6 JUMP JUMPDEST JUMPDEST ADD SWAP1 PUSH1 0x3 PUSH2 0x5B SWAP3 SWAP2 SWAP1 PUSH2 0x181 JUMP JUMPDEST POP PUSH1 0x40 MLOAD DUP1 PUSH1 0x80 ADD PUSH1 0x40 MSTORE DUP1 PUSH1 0x4 PUSH1 0xFF AND DUP2 MSTORE PUSH1 0x20 ADD PUSH1 0x5 PUSH1 0xFF AND DUP2 MSTORE PUSH1 0x20 ADD PUSH1 0x6 PUSH1 0xFF AND DUP2 MSTORE PUSH1 0x20 ADD PUSH1 0x7 PUSH1 0xFF AND DUP2 MSTORE POP PUSH1 0x0 PUSH1 0x1 PUSH1 0x4 DUP2 LT PUSH2 0xA2 JUMPI PUSH2 0xA1 PUSH2 0x2E6 JUMP JUMPDEST JUMPDEST ADD SWAP1 PUSH1 0x4 PUSH2 0xB1 SWAP3 SWAP2 SWAP1 PUSH2 0x1D3 JUMP JUMPDEST POP PUSH1 0x40 MLOAD DUP1 PUSH1 0xA0 ADD PUSH1 0x40 MSTORE DUP1 PUSH1 0x8 PUSH1 0xFF AND DUP2 MSTORE PUSH1 0x20 ADD PUSH1 0x9 PUSH1 0xFF AND DUP2 MSTORE PUSH1 0x20 ADD PUSH1 0xA PUSH1 0xFF AND DUP2 MSTORE PUSH1 0x20 ADD PUSH1 0xB PUSH1 0xFF AND DUP2 MSTORE PUSH1 0x20 ADD PUSH1 0xC PUSH1 0xFF AND DUP2 MSTORE POP PUSH1 0x0 PUSH1 0x2 PUSH1 0x4 DUP2 LT PUSH2 0x102 JUMPI PUSH2 0x101 PUSH2 0x2E6 JUMP JUMPDEST JUMPDEST ADD SWAP1 PUSH1 0x5 PUSH2 0x111 SWAP3 SWAP2 SWAP1 PUSH2 0x225 JUMP JUMPDEST POP PUSH1 0x40 MLOAD DUP1 PUSH1 0xC0 ADD PUSH1 0x40 MSTORE DUP1 PUSH1 0xD PUSH1 0xFF AND DUP2 MSTORE PUSH1 0x20 ADD PUSH1 0xE PUSH1 0xFF AND DUP2 MSTORE PUSH1 0x20 ADD PUSH1 0xF PUSH1 0xFF AND DUP2 MSTORE PUSH1 0x20 ADD PUSH1 0x10 PUSH1 0xFF AND DUP2 MSTORE PUSH1 0x20 ADD PUSH1 0x11 PUSH1 0xFF AND DUP2 MSTORE PUSH1 0x20 ADD PUSH1 0x12 PUSH1 0xFF AND DUP2 MSTORE POP PUSH1 0x0 PUSH1 0x3 PUSH1 0x4 DUP2 LT PUSH2 0x16C JUMPI PUSH2 0x16B PUSH2 0x2E6 JUMP JUMPDEST JUMPDEST ADD SWAP1 PUSH1 0x6 PUSH2 0x17B SWAP3 SWAP2 SWAP1 PUSH2 0x277 JUMP JUMPDEST POP PUSH2 0x315 JUMP JUMPDEST DUP3 DUP1 SLOAD DUP3 DUP3 SSTORE SWAP1 PUSH1 0x0 MSTORE PUSH1 0x20 PUSH1 0x0 KECCAK256 SWAP1 DUP2 ADD SWAP3 DUP3 ISZERO PUSH2 0x1C2 JUMPI SWAP2 PUSH1 0x20 MUL DUP3 ADD JUMPDEST DUP3 DUP2 GT ISZERO PUSH2 0x1C1 JUMPI DUP3 MLOAD DUP3 SWAP1 PUSH1 0xFF AND SWAP1 SSTORE SWAP2 PUSH1 0x20 ADD SWAP2 SWAP1 PUSH1 0x1 ADD SWAP1 PUSH2 0x1A1 JUMP JUMPDEST JUMPDEST POP SWAP1 POP PUSH2 0x1CF SWAP2 SWAP1 PUSH2 0x2C9 JUMP JUMPDEST POP SWAP1 JUMP JUMPDEST DUP3 DUP1 SLOAD DUP3 DUP3 SSTORE SWAP1 PUSH1 0x0 MSTORE PUSH1 0x20 PUSH1 0x0 KECCAK256 SWAP1 DUP2 ADD SWAP3 DUP3 ISZERO PUSH2 0x214 JUMPI SWAP2 PUSH1 0x20 MUL DUP3 ADD JUMPDEST DUP3 DUP2 GT ISZERO PUSH2 0x213 JUMPI DUP3 MLOAD DUP3 SWAP1 PUSH1 0xFF AND SWAP1 SSTORE SWAP2 PUSH1 0x20 ADD SWAP2 SWAP1 PUSH1 0x1 ADD SWAP1 PUSH2 0x1F3 JUMP JUMPDEST JUMPDEST POP SWAP1 POP PUSH2 0x221 SWAP2 SWAP1 PUSH2 0x2C9 JUMP JUMPDEST POP SWAP1 JUMP JUMPDEST DUP3 DUP1 SLOAD DUP3 DUP3 SSTORE SWAP1 PUSH1 0x0 MSTORE PUSH1 0x20 PUSH1 0x0 KECCAK256 SWAP1 DUP2 ADD SWAP3 DUP3 ISZERO PUSH2 0x266 JUMPI SWAP2 PUSH1 0x20 MUL DUP3 ADD JUMPDEST DUP3 DUP2 GT ISZERO PUSH2 0x265 JUMPI DUP3 MLOAD DUP3 SWAP1 PUSH1 0xFF AND SWAP1 SSTORE SWAP2 PUSH1 0x20 ADD SWAP2 SWAP1 PUSH1 0x1 ADD SWAP1 PUSH2 0x245 JUMP JUMPDEST JUMPDEST POP SWAP1 POP PUSH2 0x273 SWAP2 SWAP1 PUSH2 0x2C9 JUMP JUMPDEST POP SWAP1 JUMP JUMPDEST DUP3 DUP1 SLOAD DUP3 DUP3 SSTORE SWAP1 PUSH1 0x0 MSTORE PUSH1 0x20 PUSH1 0x0 KECCAK256 SWAP1 DUP2 ADD SWAP3 DUP3 ISZERO PUSH2 0x2B8 JUMPI SWAP2 PUSH1 0x20 MUL DUP3 ADD JUMPDEST DUP3 DUP2 GT ISZERO PUSH2 0x2B7 JUMPI DUP3 MLOAD DUP3 SWAP1 PUSH1 0xFF AND SWAP1 SSTORE SWAP2 PUSH1 0x20 ADD SWAP2 SWAP1 PUSH1 0x1 ADD SWAP1 PUSH2 0x297 JUMP JUMPDEST JUMPDEST POP SWAP1 POP PUSH2 0x2C5 SWAP2 SWAP1 PUSH2 0x2C9 JUMP JUMPDEST POP SWAP1 JUMP JUMPDEST JUMPDEST DUP1 DUP3 GT ISZERO PUSH2 0x2E2 JUMPI PUSH1 0x0 DUP2 PUSH1 0x0 SWAP1 SSTORE POP PUSH1 0x1 ADD PUSH2 0x2CA JUMP JUMPDEST POP SWAP1 JUMP JUMPDEST PUSH32 0x4E487B7100000000000000000000000000000000000000000000000000000000 PUSH1 0x0 MSTORE PUSH1 0x32 PUSH1 0x4 MSTORE PUSH1 0x24 PUSH1 0x0 REVERT JUMPDEST PUSH2 0x110 DUP1 PUSH2 0x324 PUSH1 0x0 CODECOPY PUSH1 0x0 RETURN INVALID PUSH1 0x80 PUSH1 0x40 MSTORE CALLVALUE DUP1 ISZERO PUSH1 0xF JUMPI PUSH1 0x0 DUP1 REVERT JUMPDEST POP PUSH1 0x4 CALLDATASIZE LT PUSH1 0x28 JUMPI PUSH1 0x0 CALLDATALOAD PUSH1 0xE0 SHR DUP1 PUSH4 0x4DF7E3D0 EQ PUSH1 0x2D JUMPI JUMPDEST PUSH1 0x0 DUP1 REVERT JUMPDEST PUSH1 0x33 PUSH1 0x47 JUMP JUMPDEST PUSH1 0x40 MLOAD PUSH1 0x3E SWAP2 SWAP1 PUSH1 0x92 JUMP JUMPDEST PUSH1 0x40 MLOAD DUP1 SWAP2 SUB SWAP1 RETURN JUMPDEST PUSH1 0x0 DUP1 PUSH1 0x2 PUSH1 0x4 DUP2 LT PUSH1 0x5A JUMPI PUSH1 0x59 PUSH1 0xAB JUMP JUMPDEST JUMPDEST ADD PUSH1 0x3 DUP2 SLOAD DUP2 LT PUSH1 0x6B JUMPI PUSH1 0x6A PUSH1 0xAB JUMP JUMPDEST JUMPDEST SWAP1 PUSH1 0x0 MSTORE PUSH1 0x20 PUSH1 0x0 KECCAK256 ADD SLOAD SWAP1 POP SWAP1 JUMP JUMPDEST PUSH1 0x0 DUP2 SWAP1 POP SWAP2 SWAP1 POP JUMP JUMPDEST PUSH1 0x8C DUP2 PUSH1 0x7B JUMP JUMPDEST DUP3 MSTORE POP POP JUMP JUMPDEST PUSH1 0x0 PUSH1 0x20 DUP3 ADD SWAP1 POP PUSH1 0xA5 PUSH1 0x0 DUP4 ADD DUP5 PUSH1 0x85 JUMP JUMPDEST SWAP3 SWAP2 POP POP JUMP JUMPDEST PUSH32 0x4E487B7100000000000000000000000000000000000000000000000000000000 PUSH1 0x0 MSTORE PUSH1 0x32 PUSH1 0x4 MSTORE PUSH1 0x24 PUSH1 0x0 REVERT INVALID LOG2 PUSH5 0x6970667358 0x22 SLT KECCAK256 JUMP 0xE7 PUSH2 0xE734 0xCD ORIGIN 0xCE LOG3 SWAP1 SWAP4 0xBC LOG2 0x25 PUSH7 0x81ED5430F12197 ADDRESS PUSH13 0xA6A6F7B6E79B4ED164736F6C63 NUMBER STOP ADDMOD GT STOP CALLER "
				},
				"gasEstimates": {
					"creation": {
						"codeDepositCost": "54400",
						"executionCost": "infinite",
						"totalCost": "infinite"
					},
					"external": {
						"b()": "4624"
					}
				},
				"methodIdentifiers": {
					"b()": "4df7e3d0"
				}
			},
			"storageLayout": {
				"storage": [
					{
						"astId": 6,
						"contract": "CODE_SOL/Test_WorkSpace.sol:A",
						"label": "arrayDemo1",
						"offset": 0,
						"slot": "0",
						"type": "t_array(t_array(t_uint256)dyn_storage)4_storage"
					}
				],
				"types": {
					"t_array(t_array(t_uint256)dyn_storage)4_storage": {
						"base": "t_array(t_uint256)dyn_storage",
						"encoding": "inplace",
						"label": "uint256[][4]",
						"numberOfBytes": "128"
					},
					"t_array(t_uint256)dyn_storage": {
						"base": "t_uint256",
						"encoding": "dynamic_array",
						"label": "uint256[]",
						"numberOfBytes": "32"
					},
					"t_uint256": {
						"encoding": "inplace",
						"label": "uint256",
						"numberOfBytes": "32"
					}
				}
			},
			"userdoc": {
				"kind": "user",
				"methods": {},
				"version": 1
			}
		}
	}
}