{
	"CODE_SOL/StringUtil.sol": {
		"StringUtil": {
			"abi": [
				{
					"inputs": [
						{
							"internalType": "string",
							"name": "t1",
							"type": "string"
						},
						{
							"internalType": "string",
							"name": "t2",
							"type": "string"
						}
					],
					"name": "compare",
					"outputs": [
						{
							"internalType": "enum StringUtil.CompareResult",
							"name": "res",
							"type": "StringUtil.CompareResult"
						}
					],
					"stateMutability": "pure",
					"type": "function"
				}
			],
			"devdoc": {
				"kind": "dev",
				"methods": {},
				"version": 1
			},
			"evm": {
				"assembly": "    /* \"CODE_SOL/StringUtil.sol\":260:4481  library StringUtil{... */\n  dataSize(sub_0)\n  dataOffset(sub_0)\n  0x0b\n  dup3\n  dup3\n  dup3\n  codecopy\n  dup1\n  mload\n  0x00\n  byte\n  0x73\n  eq\n  tag_1\n  jumpi\n  mstore(0x00, 0x4e487b7100000000000000000000000000000000000000000000000000000000)\n  mstore(0x04, 0x00)\n  revert(0x00, 0x24)\ntag_1:\n  mstore(0x00, address)\n  0x73\n  dup2\n  mstore8\n  dup3\n  dup2\n  return\nstop\n\nsub_0: assembly {\n        /* \"CODE_SOL/StringUtil.sol\":260:4481  library StringUtil{... */\n      eq(address, deployTimeAddress())\n      mstore(0x40, 0x80)\n      jumpi(tag_1, lt(calldatasize, 0x04))\n      shr(0xe0, calldataload(0x00))\n      dup1\n      0x3a96fdd7\n      eq\n      tag_2\n      jumpi\n    tag_1:\n      0x00\n      dup1\n      revert\n        /* \"CODE_SOL/StringUtil.sol\":843:3350  function compare(string memory t1, string memory t2) public pure returns(CompareResult res){... */\n    tag_2:\n      tag_3\n      0x04\n      dup1\n      calldatasize\n      sub\n      dup2\n      add\n      swap1\n      tag_4\n      swap2\n      swap1\n      tag_5\n      jump\t// in\n    tag_4:\n      tag_6\n      jump\t// in\n    tag_3:\n      mload(0x40)\n      tag_7\n      swap2\n      swap1\n      tag_8\n      jump\t// in\n    tag_7:\n      mload(0x40)\n      dup1\n      swap2\n      sub\n      swap1\n      return\n    tag_6:\n        /* \"CODE_SOL/StringUtil.sol\":916:933  CompareResult res */\n      0x00\n        /* \"CODE_SOL/StringUtil.sol\":945:961  bytes memory tb1 */\n      dup1\n        /* \"CODE_SOL/StringUtil.sol\":970:972  t1 */\n      dup4\n        /* \"CODE_SOL/StringUtil.sol\":945:973  bytes memory tb1 = bytes(t1) */\n      swap1\n      pop\n        /* \"CODE_SOL/StringUtil.sol\":984:1000  bytes memory tb2 */\n      0x00\n        /* \"CODE_SOL/StringUtil.sol\":1009:1011  t2 */\n      dup4\n        /* \"CODE_SOL/StringUtil.sol\":984:1012  bytes memory tb2 = bytes(t2) */\n      swap1\n      pop\n        /* \"CODE_SOL/StringUtil.sol\":1023:1036  uint  s_small */\n      0x00\n        /* \"CODE_SOL/StringUtil.sol\":1053:1056  tb2 */\n      dup2\n        /* \"CODE_SOL/StringUtil.sol\":1053:1063  tb2.length */\n      mload\n        /* \"CODE_SOL/StringUtil.sol\":1039:1042  tb1 */\n      dup4\n        /* \"CODE_SOL/StringUtil.sol\":1039:1049  tb1.length */\n      mload\n        /* \"CODE_SOL/StringUtil.sol\":1039:1063  tb1.length <= tb2.length */\n      gt\n      iszero\n        /* \"CODE_SOL/StringUtil.sol\":1039:1087  tb1.length <= tb2.length ? tb1.length:tb2.length */\n      tag_10\n      jumpi\n        /* \"CODE_SOL/StringUtil.sol\":1077:1080  tb2 */\n      dup2\n        /* \"CODE_SOL/StringUtil.sol\":1077:1087  tb2.length */\n      mload\n        /* \"CODE_SOL/StringUtil.sol\":1039:1087  tb1.length <= tb2.length ? tb1.length:tb2.length */\n      jump(tag_11)\n    tag_10:\n        /* \"CODE_SOL/StringUtil.sol\":1066:1069  tb1 */\n      dup3\n        /* \"CODE_SOL/StringUtil.sol\":1066:1076  tb1.length */\n      mload\n        /* \"CODE_SOL/StringUtil.sol\":1039:1087  tb1.length <= tb2.length ? tb1.length:tb2.length */\n    tag_11:\n        /* \"CODE_SOL/StringUtil.sol\":1023:1087  uint  s_small = tb1.length <= tb2.length ? tb1.length:tb2.length */\n      swap1\n      pop\n        /* \"CODE_SOL/StringUtil.sol\":1098:1106  uint num */\n      0x00\n        /* \"CODE_SOL/StringUtil.sol\":1138:1141  tb2 */\n      dup3\n        /* \"CODE_SOL/StringUtil.sol\":1138:1148  tb2.length */\n      mload\n        /* \"CODE_SOL/StringUtil.sol\":1124:1127  tb1 */\n      dup5\n        /* \"CODE_SOL/StringUtil.sol\":1124:1134  tb1.length */\n      mload\n        /* \"CODE_SOL/StringUtil.sol\":1124:1148  tb1.length == tb2.length */\n      sub\n        /* \"CODE_SOL/StringUtil.sol\":1121:1847  if(tb1.length == tb2.length){... */\n      tag_12\n      jumpi\n        /* \"CODE_SOL/StringUtil.sol\":1169:1178  uint256 i */\n      0x00\n        /* \"CODE_SOL/StringUtil.sol\":1164:1419  for (uint256 i = 0; i < s_small; i++) {... */\n    tag_13:\n        /* \"CODE_SOL/StringUtil.sol\":1188:1195  s_small */\n      dup3\n        /* \"CODE_SOL/StringUtil.sol\":1184:1185  i */\n      dup2\n        /* \"CODE_SOL/StringUtil.sol\":1184:1195  i < s_small */\n      lt\n        /* \"CODE_SOL/StringUtil.sol\":1164:1419  for (uint256 i = 0; i < s_small; i++) {... */\n      iszero\n      tag_14\n      jumpi\n        /* \"CODE_SOL/StringUtil.sol\":1232:1235  tb2 */\n      dup4\n        /* \"CODE_SOL/StringUtil.sol\":1236:1237  i */\n      dup2\n        /* \"CODE_SOL/StringUtil.sol\":1232:1238  tb2[i] */\n      dup2\n      mload\n      dup2\n      lt\n      tag_16\n      jumpi\n      tag_17\n      tag_18\n      jump\t// in\n    tag_17:\n    tag_16:\n      0x20\n      add\n      add\n      mload\n      0xf8\n      shr\n      0xf8\n      shl\n        /* \"CODE_SOL/StringUtil.sol\":1224:1238  tb1[i]==tb2[i] */\n      not(0xffffffffffffffffffffffffffffffffffffffffffffffffffffffffffffff)\n      and\n        /* \"CODE_SOL/StringUtil.sol\":1224:1227  tb1 */\n      dup6\n        /* \"CODE_SOL/StringUtil.sol\":1228:1229  i */\n      dup3\n        /* \"CODE_SOL/StringUtil.sol\":1224:1230  tb1[i] */\n      dup2\n      mload\n      dup2\n      lt\n      tag_19\n      jumpi\n      tag_20\n      tag_18\n      jump\t// in\n    tag_20:\n    tag_19:\n      0x20\n      add\n      add\n      mload\n      0xf8\n      shr\n      0xf8\n      shl\n        /* \"CODE_SOL/StringUtil.sol\":1224:1238  tb1[i]==tb2[i] */\n      not(0xffffffffffffffffffffffffffffffffffffffffffffffffffffffffffffff)\n      and\n      sub\n        /* \"CODE_SOL/StringUtil.sol\":1221:1287  if(tb1[i]==tb2[i]){... */\n      tag_21\n      jumpi\n        /* \"CODE_SOL/StringUtil.sol\":1262:1267  num++ */\n      dup2\n      dup1\n      tag_22\n      swap1\n      tag_23\n      jump\t// in\n    tag_22:\n      swap3\n      pop\n      pop\n        /* \"CODE_SOL/StringUtil.sol\":1221:1287  if(tb1[i]==tb2[i]){... */\n    tag_21:\n        /* \"CODE_SOL/StringUtil.sol\":1313:1320  s_small */\n      dup3\n        /* \"CODE_SOL/StringUtil.sol\":1308:1311  num */\n      dup3\n        /* \"CODE_SOL/StringUtil.sol\":1308:1320  num==s_small */\n      sub\n        /* \"CODE_SOL/StringUtil.sol\":1305:1390  if(num==s_small){... */\n      tag_24\n      jumpi\n        /* \"CODE_SOL/StringUtil.sol\":1351:1370  CompareResult.Equal */\n      0x00\n        /* \"CODE_SOL/StringUtil.sol\":1344:1370  return CompareResult.Equal */\n      swap6\n      pop\n      pop\n      pop\n      pop\n      pop\n      pop\n      jump(tag_9)\n        /* \"CODE_SOL/StringUtil.sol\":1305:1390  if(num==s_small){... */\n    tag_24:\n        /* \"CODE_SOL/StringUtil.sol\":1197:1200  i++ */\n      dup1\n      dup1\n      tag_25\n      swap1\n      tag_23\n      jump\t// in\n    tag_25:\n      swap2\n      pop\n      pop\n        /* \"CODE_SOL/StringUtil.sol\":1164:1419  for (uint256 i = 0; i < s_small; i++) {... */\n      jump(tag_13)\n    tag_14:\n      pop\n        /* \"CODE_SOL/StringUtil.sol\":1121:1847  if(tb1.length == tb2.length){... */\n      jump(tag_26)\n    tag_12:\n        /* \"CODE_SOL/StringUtil.sol\":1468:1477  uint256 j */\n      0x00\n        /* \"CODE_SOL/StringUtil.sol\":1463:1836  for (uint256 j = 0; j < s_small; j++) {... */\n    tag_27:\n        /* \"CODE_SOL/StringUtil.sol\":1487:1494  s_small */\n      dup3\n        /* \"CODE_SOL/StringUtil.sol\":1483:1484  j */\n      dup2\n        /* \"CODE_SOL/StringUtil.sol\":1483:1494  j < s_small */\n      lt\n        /* \"CODE_SOL/StringUtil.sol\":1463:1836  for (uint256 j = 0; j < s_small; j++) {... */\n      iszero\n      tag_28\n      jumpi\n        /* \"CODE_SOL/StringUtil.sol\":1531:1534  tb2 */\n      dup4\n        /* \"CODE_SOL/StringUtil.sol\":1535:1536  j */\n      dup2\n        /* \"CODE_SOL/StringUtil.sol\":1531:1537  tb2[j] */\n      dup2\n      mload\n      dup2\n      lt\n      tag_30\n      jumpi\n      tag_31\n      tag_18\n      jump\t// in\n    tag_31:\n    tag_30:\n      0x20\n      add\n      add\n      mload\n      0xf8\n      shr\n      0xf8\n      shl\n        /* \"CODE_SOL/StringUtil.sol\":1523:1537  tb1[j]==tb2[j] */\n      not(0xffffffffffffffffffffffffffffffffffffffffffffffffffffffffffffff)\n      and\n        /* \"CODE_SOL/StringUtil.sol\":1523:1526  tb1 */\n      dup6\n        /* \"CODE_SOL/StringUtil.sol\":1527:1528  j */\n      dup3\n        /* \"CODE_SOL/StringUtil.sol\":1523:1529  tb1[j] */\n      dup2\n      mload\n      dup2\n      lt\n      tag_32\n      jumpi\n      tag_33\n      tag_18\n      jump\t// in\n    tag_33:\n    tag_32:\n      0x20\n      add\n      add\n      mload\n      0xf8\n      shr\n      0xf8\n      shl\n        /* \"CODE_SOL/StringUtil.sol\":1523:1537  tb1[j]==tb2[j] */\n      not(0xffffffffffffffffffffffffffffffffffffffffffffffffffffffffffffff)\n      and\n      sub\n        /* \"CODE_SOL/StringUtil.sol\":1520:1589  if(tb1[j]==tb2[j]){... */\n      iszero\n        /* \"CODE_SOL/StringUtil.sol\":1561:1569  continue */\n      tag_29\n        /* \"CODE_SOL/StringUtil.sol\":1520:1589  if(tb1[j]==tb2[j]){... */\n      jumpi\n        /* \"CODE_SOL/StringUtil.sol\":1617:1620  tb2 */\n      dup4\n        /* \"CODE_SOL/StringUtil.sol\":1621:1622  j */\n      dup2\n        /* \"CODE_SOL/StringUtil.sol\":1617:1623  tb2[j] */\n      dup2\n      mload\n      dup2\n      lt\n      tag_35\n      jumpi\n      tag_36\n      tag_18\n      jump\t// in\n    tag_36:\n    tag_35:\n      0x20\n      add\n      add\n      mload\n      0xf8\n      shr\n      0xf8\n      shl\n        /* \"CODE_SOL/StringUtil.sol\":1610:1623  tb1[j]>tb2[j] */\n      not(0xffffffffffffffffffffffffffffffffffffffffffffffffffffffffffffff)\n      and\n        /* \"CODE_SOL/StringUtil.sol\":1610:1613  tb1 */\n      dup6\n        /* \"CODE_SOL/StringUtil.sol\":1614:1615  j */\n      dup3\n        /* \"CODE_SOL/StringUtil.sol\":1610:1616  tb1[j] */\n      dup2\n      mload\n      dup2\n      lt\n      tag_37\n      jumpi\n      tag_38\n      tag_18\n      jump\t// in\n    tag_38:\n    tag_37:\n      0x20\n      add\n      add\n      mload\n      0xf8\n      shr\n      0xf8\n      shl\n        /* \"CODE_SOL/StringUtil.sol\":1610:1623  tb1[j]>tb2[j] */\n      not(0xffffffffffffffffffffffffffffffffffffffffffffffffffffffffffffff)\n      and\n      gt\n        /* \"CODE_SOL/StringUtil.sol\":1607:1785  if(tb1[j]>tb2[j]){... */\n      iszero\n      tag_39\n      jumpi\n        /* \"CODE_SOL/StringUtil.sol\":1654:1675  CompareResult.Greater */\n      0x02\n        /* \"CODE_SOL/StringUtil.sol\":1647:1675  return CompareResult.Greater */\n      swap6\n      pop\n      pop\n      pop\n      pop\n      pop\n      pop\n      jump(tag_9)\n        /* \"CODE_SOL/StringUtil.sol\":1607:1785  if(tb1[j]>tb2[j]){... */\n    tag_39:\n        /* \"CODE_SOL/StringUtil.sol\":1747:1765  CompareResult.Less */\n      0x01\n        /* \"CODE_SOL/StringUtil.sol\":1740:1765  return CompareResult.Less */\n      swap6\n      pop\n      pop\n      pop\n      pop\n      pop\n      pop\n      jump(tag_9)\n        /* \"CODE_SOL/StringUtil.sol\":1463:1836  for (uint256 j = 0; j < s_small; j++) {... */\n    tag_29:\n        /* \"CODE_SOL/StringUtil.sol\":1496:1499  j++ */\n      dup1\n      dup1\n      tag_41\n      swap1\n      tag_23\n      jump\t// in\n    tag_41:\n      swap2\n      pop\n      pop\n        /* \"CODE_SOL/StringUtil.sol\":1463:1836  for (uint256 j = 0; j < s_small; j++) {... */\n      jump(tag_27)\n    tag_28:\n      pop\n        /* \"CODE_SOL/StringUtil.sol\":1121:1847  if(tb1.length == tb2.length){... */\n    tag_26:\n        /* \"CODE_SOL/StringUtil.sol\":934:3350  {... */\n      pop\n      pop\n      pop\n      pop\n        /* \"CODE_SOL/StringUtil.sol\":843:3350  function compare(string memory t1, string memory t2) public pure returns(CompareResult res){... */\n    tag_9:\n      swap3\n      swap2\n      pop\n      pop\n      jump\t// out\n        /* \"#utility.yul\":7:82   */\n    tag_42:\n        /* \"#utility.yul\":40:46   */\n      0x00\n        /* \"#utility.yul\":73:75   */\n      0x40\n        /* \"#utility.yul\":67:76   */\n      mload\n        /* \"#utility.yul\":57:76   */\n      swap1\n      pop\n        /* \"#utility.yul\":7:82   */\n      swap1\n      jump\t// out\n        /* \"#utility.yul\":88:205   */\n    tag_43:\n        /* \"#utility.yul\":197:198   */\n      0x00\n        /* \"#utility.yul\":194:195   */\n      dup1\n        /* \"#utility.yul\":187:199   */\n      revert\n        /* \"#utility.yul\":211:328   */\n    tag_44:\n        /* \"#utility.yul\":320:321   */\n      0x00\n        /* \"#utility.yul\":317:318   */\n      dup1\n        /* \"#utility.yul\":310:322   */\n      revert\n        /* \"#utility.yul\":334:451   */\n    tag_45:\n        /* \"#utility.yul\":443:444   */\n      0x00\n        /* \"#utility.yul\":440:441   */\n      dup1\n        /* \"#utility.yul\":433:445   */\n      revert\n        /* \"#utility.yul\":457:574   */\n    tag_46:\n        /* \"#utility.yul\":566:567   */\n      0x00\n        /* \"#utility.yul\":563:564   */\n      dup1\n        /* \"#utility.yul\":556:568   */\n      revert\n        /* \"#utility.yul\":580:682   */\n    tag_47:\n        /* \"#utility.yul\":621:627   */\n      0x00\n        /* \"#utility.yul\":672:674   */\n      0x1f\n        /* \"#utility.yul\":668:675   */\n      not\n        /* \"#utility.yul\":663:665   */\n      0x1f\n        /* \"#utility.yul\":656:661   */\n      dup4\n        /* \"#utility.yul\":652:666   */\n      add\n        /* \"#utility.yul\":648:676   */\n      and\n        /* \"#utility.yul\":638:676   */\n      swap1\n      pop\n        /* \"#utility.yul\":580:682   */\n      swap2\n      swap1\n      pop\n      jump\t// out\n        /* \"#utility.yul\":688:868   */\n    tag_48:\n        /* \"#utility.yul\":736:813   */\n      0x4e487b7100000000000000000000000000000000000000000000000000000000\n        /* \"#utility.yul\":733:734   */\n      0x00\n        /* \"#utility.yul\":726:814   */\n      mstore\n        /* \"#utility.yul\":833:837   */\n      0x41\n        /* \"#utility.yul\":830:831   */\n      0x04\n        /* \"#utility.yul\":823:838   */\n      mstore\n        /* \"#utility.yul\":857:861   */\n      0x24\n        /* \"#utility.yul\":854:855   */\n      0x00\n        /* \"#utility.yul\":847:862   */\n      revert\n        /* \"#utility.yul\":874:1155   */\n    tag_49:\n        /* \"#utility.yul\":957:984   */\n      tag_71\n        /* \"#utility.yul\":979:983   */\n      dup3\n        /* \"#utility.yul\":957:984   */\n      tag_47\n      jump\t// in\n    tag_71:\n        /* \"#utility.yul\":949:955   */\n      dup2\n        /* \"#utility.yul\":945:985   */\n      add\n        /* \"#utility.yul\":1087:1093   */\n      dup2\n        /* \"#utility.yul\":1075:1085   */\n      dup2\n        /* \"#utility.yul\":1072:1094   */\n      lt\n        /* \"#utility.yul\":1051:1069   */\n      0xffffffffffffffff\n        /* \"#utility.yul\":1039:1049   */\n      dup3\n        /* \"#utility.yul\":1036:1070   */\n      gt\n        /* \"#utility.yul\":1033:1095   */\n      or\n        /* \"#utility.yul\":1030:1118   */\n      iszero\n      tag_72\n      jumpi\n        /* \"#utility.yul\":1098:1116   */\n      tag_73\n      tag_48\n      jump\t// in\n    tag_73:\n        /* \"#utility.yul\":1030:1118   */\n    tag_72:\n        /* \"#utility.yul\":1138:1148   */\n      dup1\n        /* \"#utility.yul\":1134:1136   */\n      0x40\n        /* \"#utility.yul\":1127:1149   */\n      mstore\n        /* \"#utility.yul\":917:1155   */\n      pop\n        /* \"#utility.yul\":874:1155   */\n      pop\n      pop\n      jump\t// out\n        /* \"#utility.yul\":1161:1290   */\n    tag_50:\n        /* \"#utility.yul\":1195:1201   */\n      0x00\n        /* \"#utility.yul\":1222:1242   */\n      tag_75\n      tag_42\n      jump\t// in\n    tag_75:\n        /* \"#utility.yul\":1212:1242   */\n      swap1\n      pop\n        /* \"#utility.yul\":1251:1284   */\n      tag_76\n        /* \"#utility.yul\":1279:1283   */\n      dup3\n        /* \"#utility.yul\":1271:1277   */\n      dup3\n        /* \"#utility.yul\":1251:1284   */\n      tag_49\n      jump\t// in\n    tag_76:\n        /* \"#utility.yul\":1161:1290   */\n      swap2\n      swap1\n      pop\n      jump\t// out\n        /* \"#utility.yul\":1296:1604   */\n    tag_51:\n        /* \"#utility.yul\":1358:1362   */\n      0x00\n        /* \"#utility.yul\":1448:1466   */\n      0xffffffffffffffff\n        /* \"#utility.yul\":1440:1446   */\n      dup3\n        /* \"#utility.yul\":1437:1467   */\n      gt\n        /* \"#utility.yul\":1434:1490   */\n      iszero\n      tag_78\n      jumpi\n        /* \"#utility.yul\":1470:1488   */\n      tag_79\n      tag_48\n      jump\t// in\n    tag_79:\n        /* \"#utility.yul\":1434:1490   */\n    tag_78:\n        /* \"#utility.yul\":1508:1537   */\n      tag_80\n        /* \"#utility.yul\":1530:1536   */\n      dup3\n        /* \"#utility.yul\":1508:1537   */\n      tag_47\n      jump\t// in\n    tag_80:\n        /* \"#utility.yul\":1500:1537   */\n      swap1\n      pop\n        /* \"#utility.yul\":1592:1596   */\n      0x20\n        /* \"#utility.yul\":1586:1590   */\n      dup2\n        /* \"#utility.yul\":1582:1597   */\n      add\n        /* \"#utility.yul\":1574:1597   */\n      swap1\n      pop\n        /* \"#utility.yul\":1296:1604   */\n      swap2\n      swap1\n      pop\n      jump\t// out\n        /* \"#utility.yul\":1610:1756   */\n    tag_52:\n        /* \"#utility.yul\":1707:1713   */\n      dup3\n        /* \"#utility.yul\":1702:1705   */\n      dup2\n        /* \"#utility.yul\":1697:1700   */\n      dup4\n        /* \"#utility.yul\":1684:1714   */\n      calldatacopy\n        /* \"#utility.yul\":1748:1749   */\n      0x00\n        /* \"#utility.yul\":1739:1745   */\n      dup4\n        /* \"#utility.yul\":1734:1737   */\n      dup4\n        /* \"#utility.yul\":1730:1746   */\n      add\n        /* \"#utility.yul\":1723:1750   */\n      mstore\n        /* \"#utility.yul\":1610:1756   */\n      pop\n      pop\n      pop\n      jump\t// out\n        /* \"#utility.yul\":1762:2187   */\n    tag_53:\n        /* \"#utility.yul\":1840:1845   */\n      0x00\n        /* \"#utility.yul\":1865:1931   */\n      tag_83\n        /* \"#utility.yul\":1881:1930   */\n      tag_84\n        /* \"#utility.yul\":1923:1929   */\n      dup5\n        /* \"#utility.yul\":1881:1930   */\n      tag_51\n      jump\t// in\n    tag_84:\n        /* \"#utility.yul\":1865:1931   */\n      tag_50\n      jump\t// in\n    tag_83:\n        /* \"#utility.yul\":1856:1931   */\n      swap1\n      pop\n        /* \"#utility.yul\":1954:1960   */\n      dup3\n        /* \"#utility.yul\":1947:1952   */\n      dup2\n        /* \"#utility.yul\":1940:1961   */\n      mstore\n        /* \"#utility.yul\":1992:1996   */\n      0x20\n        /* \"#utility.yul\":1985:1990   */\n      dup2\n        /* \"#utility.yul\":1981:1997   */\n      add\n        /* \"#utility.yul\":2030:2033   */\n      dup5\n        /* \"#utility.yul\":2021:2027   */\n      dup5\n        /* \"#utility.yul\":2016:2019   */\n      dup5\n        /* \"#utility.yul\":2012:2028   */\n      add\n        /* \"#utility.yul\":2009:2034   */\n      gt\n        /* \"#utility.yul\":2006:2118   */\n      iszero\n      tag_85\n      jumpi\n        /* \"#utility.yul\":2037:2116   */\n      tag_86\n      tag_46\n      jump\t// in\n    tag_86:\n        /* \"#utility.yul\":2006:2118   */\n    tag_85:\n        /* \"#utility.yul\":2127:2181   */\n      tag_87\n        /* \"#utility.yul\":2174:2180   */\n      dup5\n        /* \"#utility.yul\":2169:2172   */\n      dup3\n        /* \"#utility.yul\":2164:2167   */\n      dup6\n        /* \"#utility.yul\":2127:2181   */\n      tag_52\n      jump\t// in\n    tag_87:\n        /* \"#utility.yul\":1846:2187   */\n      pop\n        /* \"#utility.yul\":1762:2187   */\n      swap4\n      swap3\n      pop\n      pop\n      pop\n      jump\t// out\n        /* \"#utility.yul\":2207:2547   */\n    tag_54:\n        /* \"#utility.yul\":2263:2268   */\n      0x00\n        /* \"#utility.yul\":2312:2315   */\n      dup3\n        /* \"#utility.yul\":2305:2309   */\n      0x1f\n        /* \"#utility.yul\":2297:2303   */\n      dup4\n        /* \"#utility.yul\":2293:2310   */\n      add\n        /* \"#utility.yul\":2289:2316   */\n      slt\n        /* \"#utility.yul\":2279:2401   */\n      tag_89\n      jumpi\n        /* \"#utility.yul\":2320:2399   */\n      tag_90\n      tag_45\n      jump\t// in\n    tag_90:\n        /* \"#utility.yul\":2279:2401   */\n    tag_89:\n        /* \"#utility.yul\":2437:2443   */\n      dup2\n        /* \"#utility.yul\":2424:2444   */\n      calldataload\n        /* \"#utility.yul\":2462:2541   */\n      tag_91\n        /* \"#utility.yul\":2537:2540   */\n      dup5\n        /* \"#utility.yul\":2529:2535   */\n      dup3\n        /* \"#utility.yul\":2522:2526   */\n      0x20\n        /* \"#utility.yul\":2514:2520   */\n      dup7\n        /* \"#utility.yul\":2510:2527   */\n      add\n        /* \"#utility.yul\":2462:2541   */\n      tag_53\n      jump\t// in\n    tag_91:\n        /* \"#utility.yul\":2453:2541   */\n      swap2\n      pop\n        /* \"#utility.yul\":2269:2547   */\n      pop\n        /* \"#utility.yul\":2207:2547   */\n      swap3\n      swap2\n      pop\n      pop\n      jump\t// out\n        /* \"#utility.yul\":2553:3387   */\n    tag_5:\n        /* \"#utility.yul\":2641:2647   */\n      0x00\n        /* \"#utility.yul\":2649:2655   */\n      dup1\n        /* \"#utility.yul\":2698:2700   */\n      0x40\n        /* \"#utility.yul\":2686:2695   */\n      dup4\n        /* \"#utility.yul\":2677:2684   */\n      dup6\n        /* \"#utility.yul\":2673:2696   */\n      sub\n        /* \"#utility.yul\":2669:2701   */\n      slt\n        /* \"#utility.yul\":2666:2785   */\n      iszero\n      tag_93\n      jumpi\n        /* \"#utility.yul\":2704:2783   */\n      tag_94\n      tag_43\n      jump\t// in\n    tag_94:\n        /* \"#utility.yul\":2666:2785   */\n    tag_93:\n        /* \"#utility.yul\":2852:2853   */\n      0x00\n        /* \"#utility.yul\":2841:2850   */\n      dup4\n        /* \"#utility.yul\":2837:2854   */\n      add\n        /* \"#utility.yul\":2824:2855   */\n      calldataload\n        /* \"#utility.yul\":2882:2900   */\n      0xffffffffffffffff\n        /* \"#utility.yul\":2874:2880   */\n      dup2\n        /* \"#utility.yul\":2871:2901   */\n      gt\n        /* \"#utility.yul\":2868:2985   */\n      iszero\n      tag_95\n      jumpi\n        /* \"#utility.yul\":2904:2983   */\n      tag_96\n      tag_44\n      jump\t// in\n    tag_96:\n        /* \"#utility.yul\":2868:2985   */\n    tag_95:\n        /* \"#utility.yul\":3009:3072   */\n      tag_97\n        /* \"#utility.yul\":3064:3071   */\n      dup6\n        /* \"#utility.yul\":3055:3061   */\n      dup3\n        /* \"#utility.yul\":3044:3053   */\n      dup7\n        /* \"#utility.yul\":3040:3062   */\n      add\n        /* \"#utility.yul\":3009:3072   */\n      tag_54\n      jump\t// in\n    tag_97:\n        /* \"#utility.yul\":2999:3072   */\n      swap3\n      pop\n        /* \"#utility.yul\":2795:3082   */\n      pop\n        /* \"#utility.yul\":3149:3151   */\n      0x20\n        /* \"#utility.yul\":3138:3147   */\n      dup4\n        /* \"#utility.yul\":3134:3152   */\n      add\n        /* \"#utility.yul\":3121:3153   */\n      calldataload\n        /* \"#utility.yul\":3180:3198   */\n      0xffffffffffffffff\n        /* \"#utility.yul\":3172:3178   */\n      dup2\n        /* \"#utility.yul\":3169:3199   */\n      gt\n        /* \"#utility.yul\":3166:3283   */\n      iszero\n      tag_98\n      jumpi\n        /* \"#utility.yul\":3202:3281   */\n      tag_99\n      tag_44\n      jump\t// in\n    tag_99:\n        /* \"#utility.yul\":3166:3283   */\n    tag_98:\n        /* \"#utility.yul\":3307:3370   */\n      tag_100\n        /* \"#utility.yul\":3362:3369   */\n      dup6\n        /* \"#utility.yul\":3353:3359   */\n      dup3\n        /* \"#utility.yul\":3342:3351   */\n      dup7\n        /* \"#utility.yul\":3338:3360   */\n      add\n        /* \"#utility.yul\":3307:3370   */\n      tag_54\n      jump\t// in\n    tag_100:\n        /* \"#utility.yul\":3297:3370   */\n      swap2\n      pop\n        /* \"#utility.yul\":3092:3380   */\n      pop\n        /* \"#utility.yul\":2553:3387   */\n      swap3\n      pop\n      swap3\n      swap1\n      pop\n      jump\t// out\n        /* \"#utility.yul\":3393:3573   */\n    tag_55:\n        /* \"#utility.yul\":3441:3518   */\n      0x4e487b7100000000000000000000000000000000000000000000000000000000\n        /* \"#utility.yul\":3438:3439   */\n      0x00\n        /* \"#utility.yul\":3431:3519   */\n      mstore\n        /* \"#utility.yul\":3538:3542   */\n      0x21\n        /* \"#utility.yul\":3535:3536   */\n      0x04\n        /* \"#utility.yul\":3528:3543   */\n      mstore\n        /* \"#utility.yul\":3562:3566   */\n      0x24\n        /* \"#utility.yul\":3559:3560   */\n      0x00\n        /* \"#utility.yul\":3552:3567   */\n      revert\n        /* \"#utility.yul\":3579:3700   */\n    tag_56:\n        /* \"#utility.yul\":3668:3669   */\n      0x04\n        /* \"#utility.yul\":3661:3666   */\n      dup2\n        /* \"#utility.yul\":3658:3670   */\n      lt\n        /* \"#utility.yul\":3648:3694   */\n      tag_103\n      jumpi\n        /* \"#utility.yul\":3674:3692   */\n      tag_104\n      tag_55\n      jump\t// in\n    tag_104:\n        /* \"#utility.yul\":3648:3694   */\n    tag_103:\n        /* \"#utility.yul\":3579:3700   */\n      pop\n      jump\t// out\n        /* \"#utility.yul\":3706:3849   */\n    tag_57:\n        /* \"#utility.yul\":3759:3766   */\n      0x00\n        /* \"#utility.yul\":3788:3793   */\n      dup2\n        /* \"#utility.yul\":3777:3793   */\n      swap1\n      pop\n        /* \"#utility.yul\":3794:3843   */\n      tag_106\n        /* \"#utility.yul\":3837:3842   */\n      dup3\n        /* \"#utility.yul\":3794:3843   */\n      tag_56\n      jump\t// in\n    tag_106:\n        /* \"#utility.yul\":3706:3849   */\n      swap2\n      swap1\n      pop\n      jump\t// out\n        /* \"#utility.yul\":3855:3998   */\n    tag_58:\n        /* \"#utility.yul\":3919:3928   */\n      0x00\n        /* \"#utility.yul\":3952:3992   */\n      tag_108\n        /* \"#utility.yul\":3986:3991   */\n      dup3\n        /* \"#utility.yul\":3952:3992   */\n      tag_57\n      jump\t// in\n    tag_108:\n        /* \"#utility.yul\":3939:3992   */\n      swap1\n      pop\n        /* \"#utility.yul\":3855:3998   */\n      swap2\n      swap1\n      pop\n      jump\t// out\n        /* \"#utility.yul\":4004:4171   */\n    tag_59:\n        /* \"#utility.yul\":4113:4164   */\n      tag_110\n        /* \"#utility.yul\":4158:4163   */\n      dup2\n        /* \"#utility.yul\":4113:4164   */\n      tag_58\n      jump\t// in\n    tag_110:\n        /* \"#utility.yul\":4108:4111   */\n      dup3\n        /* \"#utility.yul\":4101:4165   */\n      mstore\n        /* \"#utility.yul\":4004:4171   */\n      pop\n      pop\n      jump\t// out\n        /* \"#utility.yul\":4177:4443   */\n    tag_8:\n        /* \"#utility.yul\":4292:4296   */\n      0x00\n        /* \"#utility.yul\":4330:4332   */\n      0x20\n        /* \"#utility.yul\":4319:4328   */\n      dup3\n        /* \"#utility.yul\":4315:4333   */\n      add\n        /* \"#utility.yul\":4307:4333   */\n      swap1\n      pop\n        /* \"#utility.yul\":4343:4436   */\n      tag_112\n        /* \"#utility.yul\":4433:4434   */\n      0x00\n        /* \"#utility.yul\":4422:4431   */\n      dup4\n        /* \"#utility.yul\":4418:4435   */\n      add\n        /* \"#utility.yul\":4409:4415   */\n      dup5\n        /* \"#utility.yul\":4343:4436   */\n      tag_59\n      jump\t// in\n    tag_112:\n        /* \"#utility.yul\":4177:4443   */\n      swap3\n      swap2\n      pop\n      pop\n      jump\t// out\n        /* \"#utility.yul\":4449:4629   */\n    tag_18:\n        /* \"#utility.yul\":4497:4574   */\n      0x4e487b7100000000000000000000000000000000000000000000000000000000\n        /* \"#utility.yul\":4494:4495   */\n      0x00\n        /* \"#utility.yul\":4487:4575   */\n      mstore\n        /* \"#utility.yul\":4594:4598   */\n      0x32\n        /* \"#utility.yul\":4591:4592   */\n      0x04\n        /* \"#utility.yul\":4584:4599   */\n      mstore\n        /* \"#utility.yul\":4618:4622   */\n      0x24\n        /* \"#utility.yul\":4615:4616   */\n      0x00\n        /* \"#utility.yul\":4608:4623   */\n      revert\n        /* \"#utility.yul\":4635:4815   */\n    tag_60:\n        /* \"#utility.yul\":4683:4760   */\n      0x4e487b7100000000000000000000000000000000000000000000000000000000\n        /* \"#utility.yul\":4680:4681   */\n      0x00\n        /* \"#utility.yul\":4673:4761   */\n      mstore\n        /* \"#utility.yul\":4780:4784   */\n      0x11\n        /* \"#utility.yul\":4777:4778   */\n      0x04\n        /* \"#utility.yul\":4770:4785   */\n      mstore\n        /* \"#utility.yul\":4804:4808   */\n      0x24\n        /* \"#utility.yul\":4801:4802   */\n      0x00\n        /* \"#utility.yul\":4794:4809   */\n      revert\n        /* \"#utility.yul\":4821:4898   */\n    tag_61:\n        /* \"#utility.yul\":4858:4865   */\n      0x00\n        /* \"#utility.yul\":4887:4892   */\n      dup2\n        /* \"#utility.yul\":4876:4892   */\n      swap1\n      pop\n        /* \"#utility.yul\":4821:4898   */\n      swap2\n      swap1\n      pop\n      jump\t// out\n        /* \"#utility.yul\":4904:5137   */\n    tag_23:\n        /* \"#utility.yul\":4943:4946   */\n      0x00\n        /* \"#utility.yul\":4966:4990   */\n      tag_117\n        /* \"#utility.yul\":4984:4989   */\n      dup3\n        /* \"#utility.yul\":4966:4990   */\n      tag_61\n      jump\t// in\n    tag_117:\n        /* \"#utility.yul\":4957:4990   */\n      swap2\n      pop\n        /* \"#utility.yul\":5012:5078   */\n      0xffffffffffffffffffffffffffffffffffffffffffffffffffffffffffffffff\n        /* \"#utility.yul\":5005:5010   */\n      dup3\n        /* \"#utility.yul\":5002:5079   */\n      sub\n        /* \"#utility.yul\":4999:5102   */\n      tag_118\n      jumpi\n        /* \"#utility.yul\":5082:5100   */\n      tag_119\n      tag_60\n      jump\t// in\n    tag_119:\n        /* \"#utility.yul\":4999:5102   */\n    tag_118:\n        /* \"#utility.yul\":5129:5130   */\n      0x01\n        /* \"#utility.yul\":5122:5127   */\n      dup3\n        /* \"#utility.yul\":5118:5131   */\n      add\n        /* \"#utility.yul\":5111:5131   */\n      swap1\n      pop\n        /* \"#utility.yul\":4904:5137   */\n      swap2\n      swap1\n      pop\n      jump\t// out\n\n    auxdata: 0xa264697066735822122019aa0b02fa4986009b18d55bd8a0be13105e9425a98d64531c5dd8e9382d736364736f6c63430008110033\n}\n",
				"bytecode": {
					"linkReferences": {},
					"object": "610602610053600b82828239805160001a607314610046577f4e487b7100000000000000000000000000000000000000000000000000000000600052600060045260246000fd5b30600052607381538281f3fe73000000000000000000000000000000000000000030146080604052600436106100355760003560e01c80633a96fdd71461003a575b600080fd5b610054600480360381019061004f9190610412565b61006a565b6040516100619190610501565b60405180910390f35b6000808390506000839050600081518351111561008857815161008b565b82515b9050600082518451036101655760005b8281101561015f578381815181106100b6576100b561051c565b5b602001015160f81c60f81b7effffffffffffffffffffffffffffffffffffffffffffffffffffffffffffff19168582815181106100f6576100f561051c565b5b602001015160f81c60f81b7effffffffffffffffffffffffffffffffffffffffffffffffffffffffffffff19160361013757818061013390610584565b9250505b82820361014c576000955050505050506102b2565b808061015790610584565b91505061009b565b506102ad565b60005b828110156102ab578381815181106101835761018261051c565b5b602001015160f81c60f81b7effffffffffffffffffffffffffffffffffffffffffffffffffffffffffffff19168582815181106101c3576101c261051c565b5b602001015160f81c60f81b7effffffffffffffffffffffffffffffffffffffffffffffffffffffffffffff19160315610298578381815181106102095761020861051c565b5b602001015160f81c60f81b7effffffffffffffffffffffffffffffffffffffffffffffffffffffffffffff19168582815181106102495761024861051c565b5b602001015160f81c60f81b7effffffffffffffffffffffffffffffffffffffffffffffffffffffffffffff1916111561028a576002955050505050506102b2565b6001955050505050506102b2565b80806102a390610584565b915050610168565b505b505050505b92915050565b6000604051905090565b600080fd5b600080fd5b600080fd5b600080fd5b6000601f19601f8301169050919050565b7f4e487b7100000000000000000000000000000000000000000000000000000000600052604160045260246000fd5b61031f826102d6565b810181811067ffffffffffffffff8211171561033e5761033d6102e7565b5b80604052505050565b60006103516102b8565b905061035d8282610316565b919050565b600067ffffffffffffffff82111561037d5761037c6102e7565b5b610386826102d6565b9050602081019050919050565b82818337600083830152505050565b60006103b56103b084610362565b610347565b9050828152602081018484840111156103d1576103d06102d1565b5b6103dc848285610393565b509392505050565b600082601f8301126103f9576103f86102cc565b5b81356104098482602086016103a2565b91505092915050565b60008060408385031215610429576104286102c2565b5b600083013567ffffffffffffffff811115610447576104466102c7565b5b610453858286016103e4565b925050602083013567ffffffffffffffff811115610474576104736102c7565b5b610480858286016103e4565b9150509250929050565b7f4e487b7100000000000000000000000000000000000000000000000000000000600052602160045260246000fd5b600481106104ca576104c961048a565b5b50565b60008190506104db826104b9565b919050565b60006104eb826104cd565b9050919050565b6104fb816104e0565b82525050565b600060208201905061051660008301846104f2565b92915050565b7f4e487b7100000000000000000000000000000000000000000000000000000000600052603260045260246000fd5b7f4e487b7100000000000000000000000000000000000000000000000000000000600052601160045260246000fd5b6000819050919050565b600061058f8261057a565b91507fffffffffffffffffffffffffffffffffffffffffffffffffffffffffffffffff82036105c1576105c061054b565b5b60018201905091905056fea264697066735822122019aa0b02fa4986009b18d55bd8a0be13105e9425a98d64531c5dd8e9382d736364736f6c63430008110033",
					"opcodes": "PUSH2 0x602 PUSH2 0x53 PUSH1 0xB DUP3 DUP3 DUP3 CODECOPY DUP1 MLOAD PUSH1 0x0 BYTE PUSH1 0x73 EQ PUSH2 0x46 JUMPI PUSH32 0x4E487B7100000000000000000000000000000000000000000000000000000000 PUSH1 0x0 MSTORE PUSH1 0x0 PUSH1 0x4 MSTORE PUSH1 0x24 PUSH1 0x0 REVERT JUMPDEST ADDRESS PUSH1 0x0 MSTORE PUSH1 0x73 DUP2 MSTORE8 DUP3 DUP2 RETURN INVALID PUSH20 0x0 ADDRESS EQ PUSH1 0x80 PUSH1 0x40 MSTORE PUSH1 0x4 CALLDATASIZE LT PUSH2 0x35 JUMPI PUSH1 0x0 CALLDATALOAD PUSH1 0xE0 SHR DUP1 PUSH4 0x3A96FDD7 EQ PUSH2 0x3A JUMPI JUMPDEST PUSH1 0x0 DUP1 REVERT JUMPDEST PUSH2 0x54 PUSH1 0x4 DUP1 CALLDATASIZE SUB DUP2 ADD SWAP1 PUSH2 0x4F SWAP2 SWAP1 PUSH2 0x412 JUMP JUMPDEST PUSH2 0x6A JUMP JUMPDEST PUSH1 0x40 MLOAD PUSH2 0x61 SWAP2 SWAP1 PUSH2 0x501 JUMP JUMPDEST PUSH1 0x40 MLOAD DUP1 SWAP2 SUB SWAP1 RETURN JUMPDEST PUSH1 0x0 DUP1 DUP4 SWAP1 POP PUSH1 0x0 DUP4 SWAP1 POP PUSH1 0x0 DUP2 MLOAD DUP4 MLOAD GT ISZERO PUSH2 0x88 JUMPI DUP2 MLOAD PUSH2 0x8B JUMP JUMPDEST DUP3 MLOAD JUMPDEST SWAP1 POP PUSH1 0x0 DUP3 MLOAD DUP5 MLOAD SUB PUSH2 0x165 JUMPI PUSH1 0x0 JUMPDEST DUP3 DUP2 LT ISZERO PUSH2 0x15F JUMPI DUP4 DUP2 DUP2 MLOAD DUP2 LT PUSH2 0xB6 JUMPI PUSH2 0xB5 PUSH2 0x51C JUMP JUMPDEST JUMPDEST PUSH1 0x20 ADD ADD MLOAD PUSH1 0xF8 SHR PUSH1 0xF8 SHL PUSH31 0xFFFFFFFFFFFFFFFFFFFFFFFFFFFFFFFFFFFFFFFFFFFFFFFFFFFFFFFFFFFFFF NOT AND DUP6 DUP3 DUP2 MLOAD DUP2 LT PUSH2 0xF6 JUMPI PUSH2 0xF5 PUSH2 0x51C JUMP JUMPDEST JUMPDEST PUSH1 0x20 ADD ADD MLOAD PUSH1 0xF8 SHR PUSH1 0xF8 SHL PUSH31 0xFFFFFFFFFFFFFFFFFFFFFFFFFFFFFFFFFFFFFFFFFFFFFFFFFFFFFFFFFFFFFF NOT AND SUB PUSH2 0x137 JUMPI DUP2 DUP1 PUSH2 0x133 SWAP1 PUSH2 0x584 JUMP JUMPDEST SWAP3 POP POP JUMPDEST DUP3 DUP3 SUB PUSH2 0x14C JUMPI PUSH1 0x0 SWAP6 POP POP POP POP POP POP PUSH2 0x2B2 JUMP JUMPDEST DUP1 DUP1 PUSH2 0x157 SWAP1 PUSH2 0x584 JUMP JUMPDEST SWAP2 POP POP PUSH2 0x9B JUMP JUMPDEST POP PUSH2 0x2AD JUMP JUMPDEST PUSH1 0x0 JUMPDEST DUP3 DUP2 LT ISZERO PUSH2 0x2AB JUMPI DUP4 DUP2 DUP2 MLOAD DUP2 LT PUSH2 0x183 JUMPI PUSH2 0x182 PUSH2 0x51C JUMP JUMPDEST JUMPDEST PUSH1 0x20 ADD ADD MLOAD PUSH1 0xF8 SHR PUSH1 0xF8 SHL PUSH31 0xFFFFFFFFFFFFFFFFFFFFFFFFFFFFFFFFFFFFFFFFFFFFFFFFFFFFFFFFFFFFFF NOT AND DUP6 DUP3 DUP2 MLOAD DUP2 LT PUSH2 0x1C3 JUMPI PUSH2 0x1C2 PUSH2 0x51C JUMP JUMPDEST JUMPDEST PUSH1 0x20 ADD ADD MLOAD PUSH1 0xF8 SHR PUSH1 0xF8 SHL PUSH31 0xFFFFFFFFFFFFFFFFFFFFFFFFFFFFFFFFFFFFFFFFFFFFFFFFFFFFFFFFFFFFFF NOT AND SUB ISZERO PUSH2 0x298 JUMPI DUP4 DUP2 DUP2 MLOAD DUP2 LT PUSH2 0x209 JUMPI PUSH2 0x208 PUSH2 0x51C JUMP JUMPDEST JUMPDEST PUSH1 0x20 ADD ADD MLOAD PUSH1 0xF8 SHR PUSH1 0xF8 SHL PUSH31 0xFFFFFFFFFFFFFFFFFFFFFFFFFFFFFFFFFFFFFFFFFFFFFFFFFFFFFFFFFFFFFF NOT AND DUP6 DUP3 DUP2 MLOAD DUP2 LT PUSH2 0x249 JUMPI PUSH2 0x248 PUSH2 0x51C JUMP JUMPDEST JUMPDEST PUSH1 0x20 ADD ADD MLOAD PUSH1 0xF8 SHR PUSH1 0xF8 SHL PUSH31 0xFFFFFFFFFFFFFFFFFFFFFFFFFFFFFFFFFFFFFFFFFFFFFFFFFFFFFFFFFFFFFF NOT AND GT ISZERO PUSH2 0x28A JUMPI PUSH1 0x2 SWAP6 POP POP POP POP POP POP PUSH2 0x2B2 JUMP JUMPDEST PUSH1 0x1 SWAP6 POP POP POP POP POP POP PUSH2 0x2B2 JUMP JUMPDEST DUP1 DUP1 PUSH2 0x2A3 SWAP1 PUSH2 0x584 JUMP JUMPDEST SWAP2 POP POP PUSH2 0x168 JUMP JUMPDEST POP JUMPDEST POP POP POP POP JUMPDEST SWAP3 SWAP2 POP POP JUMP JUMPDEST PUSH1 0x0 PUSH1 0x40 MLOAD SWAP1 POP SWAP1 JUMP JUMPDEST PUSH1 0x0 DUP1 REVERT JUMPDEST PUSH1 0x0 DUP1 REVERT JUMPDEST PUSH1 0x0 DUP1 REVERT JUMPDEST PUSH1 0x0 DUP1 REVERT JUMPDEST PUSH1 0x0 PUSH1 0x1F NOT PUSH1 0x1F DUP4 ADD AND SWAP1 POP SWAP2 SWAP1 POP JUMP JUMPDEST PUSH32 0x4E487B7100000000000000000000000000000000000000000000000000000000 PUSH1 0x0 MSTORE PUSH1 0x41 PUSH1 0x4 MSTORE PUSH1 0x24 PUSH1 0x0 REVERT JUMPDEST PUSH2 0x31F DUP3 PUSH2 0x2D6 JUMP JUMPDEST DUP2 ADD DUP2 DUP2 LT PUSH8 0xFFFFFFFFFFFFFFFF DUP3 GT OR ISZERO PUSH2 0x33E JUMPI PUSH2 0x33D PUSH2 0x2E7 JUMP JUMPDEST JUMPDEST DUP1 PUSH1 0x40 MSTORE POP POP POP JUMP JUMPDEST PUSH1 0x0 PUSH2 0x351 PUSH2 0x2B8 JUMP JUMPDEST SWAP1 POP PUSH2 0x35D DUP3 DUP3 PUSH2 0x316 JUMP JUMPDEST SWAP2 SWAP1 POP JUMP JUMPDEST PUSH1 0x0 PUSH8 0xFFFFFFFFFFFFFFFF DUP3 GT ISZERO PUSH2 0x37D JUMPI PUSH2 0x37C PUSH2 0x2E7 JUMP JUMPDEST JUMPDEST PUSH2 0x386 DUP3 PUSH2 0x2D6 JUMP JUMPDEST SWAP1 POP PUSH1 0x20 DUP2 ADD SWAP1 POP SWAP2 SWAP1 POP JUMP JUMPDEST DUP3 DUP2 DUP4 CALLDATACOPY PUSH1 0x0 DUP4 DUP4 ADD MSTORE POP POP POP JUMP JUMPDEST PUSH1 0x0 PUSH2 0x3B5 PUSH2 0x3B0 DUP5 PUSH2 0x362 JUMP JUMPDEST PUSH2 0x347 JUMP JUMPDEST SWAP1 POP DUP3 DUP2 MSTORE PUSH1 0x20 DUP2 ADD DUP5 DUP5 DUP5 ADD GT ISZERO PUSH2 0x3D1 JUMPI PUSH2 0x3D0 PUSH2 0x2D1 JUMP JUMPDEST JUMPDEST PUSH2 0x3DC DUP5 DUP3 DUP6 PUSH2 0x393 JUMP JUMPDEST POP SWAP4 SWAP3 POP POP POP JUMP JUMPDEST PUSH1 0x0 DUP3 PUSH1 0x1F DUP4 ADD SLT PUSH2 0x3F9 JUMPI PUSH2 0x3F8 PUSH2 0x2CC JUMP JUMPDEST JUMPDEST DUP2 CALLDATALOAD PUSH2 0x409 DUP5 DUP3 PUSH1 0x20 DUP7 ADD PUSH2 0x3A2 JUMP JUMPDEST SWAP2 POP POP SWAP3 SWAP2 POP POP JUMP JUMPDEST PUSH1 0x0 DUP1 PUSH1 0x40 DUP4 DUP6 SUB SLT ISZERO PUSH2 0x429 JUMPI PUSH2 0x428 PUSH2 0x2C2 JUMP JUMPDEST JUMPDEST PUSH1 0x0 DUP4 ADD CALLDATALOAD PUSH8 0xFFFFFFFFFFFFFFFF DUP2 GT ISZERO PUSH2 0x447 JUMPI PUSH2 0x446 PUSH2 0x2C7 JUMP JUMPDEST JUMPDEST PUSH2 0x453 DUP6 DUP3 DUP7 ADD PUSH2 0x3E4 JUMP JUMPDEST SWAP3 POP POP PUSH1 0x20 DUP4 ADD CALLDATALOAD PUSH8 0xFFFFFFFFFFFFFFFF DUP2 GT ISZERO PUSH2 0x474 JUMPI PUSH2 0x473 PUSH2 0x2C7 JUMP JUMPDEST JUMPDEST PUSH2 0x480 DUP6 DUP3 DUP7 ADD PUSH2 0x3E4 JUMP JUMPDEST SWAP2 POP POP SWAP3 POP SWAP3 SWAP1 POP JUMP JUMPDEST PUSH32 0x4E487B7100000000000000000000000000000000000000000000000000000000 PUSH1 0x0 MSTORE PUSH1 0x21 PUSH1 0x4 MSTORE PUSH1 0x24 PUSH1 0x0 REVERT JUMPDEST PUSH1 0x4 DUP2 LT PUSH2 0x4CA JUMPI PUSH2 0x4C9 PUSH2 0x48A JUMP JUMPDEST JUMPDEST POP JUMP JUMPDEST PUSH1 0x0 DUP2 SWAP1 POP PUSH2 0x4DB DUP3 PUSH2 0x4B9 JUMP JUMPDEST SWAP2 SWAP1 POP JUMP JUMPDEST PUSH1 0x0 PUSH2 0x4EB DUP3 PUSH2 0x4CD JUMP JUMPDEST SWAP1 POP SWAP2 SWAP1 POP JUMP JUMPDEST PUSH2 0x4FB DUP2 PUSH2 0x4E0 JUMP JUMPDEST DUP3 MSTORE POP POP JUMP JUMPDEST PUSH1 0x0 PUSH1 0x20 DUP3 ADD SWAP1 POP PUSH2 0x516 PUSH1 0x0 DUP4 ADD DUP5 PUSH2 0x4F2 JUMP JUMPDEST SWAP3 SWAP2 POP POP JUMP JUMPDEST PUSH32 0x4E487B7100000000000000000000000000000000000000000000000000000000 PUSH1 0x0 MSTORE PUSH1 0x32 PUSH1 0x4 MSTORE PUSH1 0x24 PUSH1 0x0 REVERT JUMPDEST PUSH32 0x4E487B7100000000000000000000000000000000000000000000000000000000 PUSH1 0x0 MSTORE PUSH1 0x11 PUSH1 0x4 MSTORE PUSH1 0x24 PUSH1 0x0 REVERT JUMPDEST PUSH1 0x0 DUP2 SWAP1 POP SWAP2 SWAP1 POP JUMP JUMPDEST PUSH1 0x0 PUSH2 0x58F DUP3 PUSH2 0x57A JUMP JUMPDEST SWAP2 POP PUSH32 0xFFFFFFFFFFFFFFFFFFFFFFFFFFFFFFFFFFFFFFFFFFFFFFFFFFFFFFFFFFFFFFFF DUP3 SUB PUSH2 0x5C1 JUMPI PUSH2 0x5C0 PUSH2 0x54B JUMP JUMPDEST JUMPDEST PUSH1 0x1 DUP3 ADD SWAP1 POP SWAP2 SWAP1 POP JUMP INVALID LOG2 PUSH5 0x6970667358 0x22 SLT KECCAK256 NOT 0xAA SIGNEXTEND MUL STATICCALL 0x49 DUP7 STOP SWAP12 XOR 0xD5 JUMPDEST 0xD8 LOG0 0xBE SGT LT 0x5E SWAP5 0x25 0xA9 DUP14 PUSH5 0x531C5DD8E9 CODESIZE 0x2D PUSH20 0x6364736F6C634300081100330000000000000000 "
				},
				"gasEstimates": {
					"creation": {
						"codeDepositCost": "307600",
						"executionCost": "374",
						"totalCost": "307974"
					},
					"external": {
						"compare(string,string)": "infinite"
					}
				},
				"methodIdentifiers": {
					"compare(string,string)": "3a96fdd7"
				}
			},
			"storageLayout": {
				"storage": [],
				"types": null
			},
			"userdoc": {
				"kind": "user",
				"methods": {},
				"version": 1
			}
		}
	}
}