{
	"CODE_SOL/Test_WorkSpace.sol": {
		"AddressDemo": {
			"abi": [
				{
					"inputs": [
						{
							"internalType": "uint16",
							"name": "input1",
							"type": "uint16"
						},
						{
							"internalType": "uint16",
							"name": "input2",
							"type": "uint16"
						}
					],
					"name": "operation",
					"outputs": [
						{
							"internalType": "uint16",
							"name": "output",
							"type": "uint16"
						}
					],
					"stateMutability": "pure",
					"type": "function"
				}
			],
			"devdoc": {
				"kind": "dev",
				"methods": {},
				"version": 1
			},
			"evm": {
				"assembly": "    /* \"CODE_SOL/Test_WorkSpace.sol\":61:222  contract AddressDemo {... */\n  mstore(0x40, 0x80)\n  callvalue\n  dup1\n  iszero\n  tag_1\n  jumpi\n  0x00\n  dup1\n  revert\ntag_1:\n  pop\n  dataSize(sub_0)\n  dup1\n  dataOffset(sub_0)\n  0x00\n  codecopy\n  0x00\n  return\nstop\n\nsub_0: assembly {\n        /* \"CODE_SOL/Test_WorkSpace.sol\":61:222  contract AddressDemo {... */\n      mstore(0x40, 0x80)\n      callvalue\n      dup1\n      iszero\n      tag_1\n      jumpi\n      0x00\n      dup1\n      revert\n    tag_1:\n      pop\n      jumpi(tag_2, lt(calldatasize, 0x04))\n      shr(0xe0, calldataload(0x00))\n      dup1\n      0x6ebf0d2a\n      eq\n      tag_3\n      jumpi\n    tag_2:\n      0x00\n      dup1\n      revert\n        /* \"CODE_SOL/Test_WorkSpace.sol\":85:219  function operation (uint16 input1, uint16 input2) public pure returns (uint16 output) {... */\n    tag_3:\n      tag_4\n      0x04\n      dup1\n      calldatasize\n      sub\n      dup2\n      add\n      swap1\n      tag_5\n      swap2\n      swap1\n      tag_6\n      jump\t// in\n    tag_5:\n      tag_7\n      jump\t// in\n    tag_4:\n      mload(0x40)\n      tag_8\n      swap2\n      swap1\n      tag_9\n      jump\t// in\n    tag_8:\n      mload(0x40)\n      dup1\n      swap2\n      sub\n      swap1\n      return\n    tag_7:\n        /* \"CODE_SOL/Test_WorkSpace.sol\":156:169  uint16 output */\n      0x00\n        /* \"CODE_SOL/Test_WorkSpace.sol\":193:199  input2 */\n      dup2\n        /* \"CODE_SOL/Test_WorkSpace.sol\":183:199  input1 >> input2 */\n      0xffff\n      and\n        /* \"CODE_SOL/Test_WorkSpace.sol\":183:189  input1 */\n      dup4\n        /* \"CODE_SOL/Test_WorkSpace.sol\":183:199  input1 >> input2 */\n      0xffff\n      and\n      swap1\n      shr\n        /* \"CODE_SOL/Test_WorkSpace.sol\":174:199  output = input1 >> input2 */\n      swap1\n      pop\n        /* \"CODE_SOL/Test_WorkSpace.sol\":85:219  function operation (uint16 input1, uint16 input2) public pure returns (uint16 output) {... */\n      swap3\n      swap2\n      pop\n      pop\n      jump\t// out\n        /* \"#utility.yul\":88:205   */\n    tag_12:\n        /* \"#utility.yul\":197:198   */\n      0x00\n        /* \"#utility.yul\":194:195   */\n      dup1\n        /* \"#utility.yul\":187:199   */\n      revert\n        /* \"#utility.yul\":334:423   */\n    tag_14:\n        /* \"#utility.yul\":370:377   */\n      0x00\n        /* \"#utility.yul\":410:416   */\n      0xffff\n        /* \"#utility.yul\":403:408   */\n      dup3\n        /* \"#utility.yul\":399:417   */\n      and\n        /* \"#utility.yul\":388:417   */\n      swap1\n      pop\n        /* \"#utility.yul\":334:423   */\n      swap2\n      swap1\n      pop\n      jump\t// out\n        /* \"#utility.yul\":429:549   */\n    tag_15:\n        /* \"#utility.yul\":501:524   */\n      tag_24\n        /* \"#utility.yul\":518:523   */\n      dup2\n        /* \"#utility.yul\":501:524   */\n      tag_14\n      jump\t// in\n    tag_24:\n        /* \"#utility.yul\":494:499   */\n      dup2\n        /* \"#utility.yul\":491:525   */\n      eq\n        /* \"#utility.yul\":481:543   */\n      tag_25\n      jumpi\n        /* \"#utility.yul\":539:540   */\n      0x00\n        /* \"#utility.yul\":536:537   */\n      dup1\n        /* \"#utility.yul\":529:541   */\n      revert\n        /* \"#utility.yul\":481:543   */\n    tag_25:\n        /* \"#utility.yul\":429:549   */\n      pop\n      jump\t// out\n        /* \"#utility.yul\":555:692   */\n    tag_16:\n        /* \"#utility.yul\":600:605   */\n      0x00\n        /* \"#utility.yul\":638:644   */\n      dup2\n        /* \"#utility.yul\":625:645   */\n      calldataload\n        /* \"#utility.yul\":616:645   */\n      swap1\n      pop\n        /* \"#utility.yul\":654:686   */\n      tag_27\n        /* \"#utility.yul\":680:685   */\n      dup2\n        /* \"#utility.yul\":654:686   */\n      tag_15\n      jump\t// in\n    tag_27:\n        /* \"#utility.yul\":555:692   */\n      swap3\n      swap2\n      pop\n      pop\n      jump\t// out\n        /* \"#utility.yul\":698:1168   */\n    tag_6:\n        /* \"#utility.yul\":764:770   */\n      0x00\n        /* \"#utility.yul\":772:778   */\n      dup1\n        /* \"#utility.yul\":821:823   */\n      0x40\n        /* \"#utility.yul\":809:818   */\n      dup4\n        /* \"#utility.yul\":800:807   */\n      dup6\n        /* \"#utility.yul\":796:819   */\n      sub\n        /* \"#utility.yul\":792:824   */\n      slt\n        /* \"#utility.yul\":789:908   */\n      iszero\n      tag_29\n      jumpi\n        /* \"#utility.yul\":827:906   */\n      tag_30\n      tag_12\n      jump\t// in\n    tag_30:\n        /* \"#utility.yul\":789:908   */\n    tag_29:\n        /* \"#utility.yul\":947:948   */\n      0x00\n        /* \"#utility.yul\":972:1024   */\n      tag_31\n        /* \"#utility.yul\":1016:1023   */\n      dup6\n        /* \"#utility.yul\":1007:1013   */\n      dup3\n        /* \"#utility.yul\":996:1005   */\n      dup7\n        /* \"#utility.yul\":992:1014   */\n      add\n        /* \"#utility.yul\":972:1024   */\n      tag_16\n      jump\t// in\n    tag_31:\n        /* \"#utility.yul\":962:1024   */\n      swap3\n      pop\n        /* \"#utility.yul\":918:1034   */\n      pop\n        /* \"#utility.yul\":1073:1075   */\n      0x20\n        /* \"#utility.yul\":1099:1151   */\n      tag_32\n        /* \"#utility.yul\":1143:1150   */\n      dup6\n        /* \"#utility.yul\":1134:1140   */\n      dup3\n        /* \"#utility.yul\":1123:1132   */\n      dup7\n        /* \"#utility.yul\":1119:1141   */\n      add\n        /* \"#utility.yul\":1099:1151   */\n      tag_16\n      jump\t// in\n    tag_32:\n        /* \"#utility.yul\":1089:1151   */\n      swap2\n      pop\n        /* \"#utility.yul\":1044:1161   */\n      pop\n        /* \"#utility.yul\":698:1168   */\n      swap3\n      pop\n      swap3\n      swap1\n      pop\n      jump\t// out\n        /* \"#utility.yul\":1174:1289   */\n    tag_17:\n        /* \"#utility.yul\":1259:1282   */\n      tag_34\n        /* \"#utility.yul\":1276:1281   */\n      dup2\n        /* \"#utility.yul\":1259:1282   */\n      tag_14\n      jump\t// in\n    tag_34:\n        /* \"#utility.yul\":1254:1257   */\n      dup3\n        /* \"#utility.yul\":1247:1283   */\n      mstore\n        /* \"#utility.yul\":1174:1289   */\n      pop\n      pop\n      jump\t// out\n        /* \"#utility.yul\":1295:1513   */\n    tag_9:\n        /* \"#utility.yul\":1386:1390   */\n      0x00\n        /* \"#utility.yul\":1424:1426   */\n      0x20\n        /* \"#utility.yul\":1413:1422   */\n      dup3\n        /* \"#utility.yul\":1409:1427   */\n      add\n        /* \"#utility.yul\":1401:1427   */\n      swap1\n      pop\n        /* \"#utility.yul\":1437:1506   */\n      tag_36\n        /* \"#utility.yul\":1503:1504   */\n      0x00\n        /* \"#utility.yul\":1492:1501   */\n      dup4\n        /* \"#utility.yul\":1488:1505   */\n      add\n        /* \"#utility.yul\":1479:1485   */\n      dup5\n        /* \"#utility.yul\":1437:1506   */\n      tag_17\n      jump\t// in\n    tag_36:\n        /* \"#utility.yul\":1295:1513   */\n      swap3\n      swap2\n      pop\n      pop\n      jump\t// out\n\n    auxdata: 0xa2646970667358221220c79762834738eb4e032c1ec8b2e889b9afcb0f47701d60649e1855da5e84c7f664736f6c63430008110033\n}\n",
				"bytecode": {
					"linkReferences": {},
					"object": "608060405234801561001057600080fd5b50610155806100206000396000f3fe608060405234801561001057600080fd5b506004361061002b5760003560e01c80636ebf0d2a14610030575b600080fd5b61004a600480360381019061004591906100b5565b610060565b6040516100579190610104565b60405180910390f35b60008161ffff168361ffff16901c905092915050565b600080fd5b600061ffff82169050919050565b6100928161007b565b811461009d57600080fd5b50565b6000813590506100af81610089565b92915050565b600080604083850312156100cc576100cb610076565b5b60006100da858286016100a0565b92505060206100eb858286016100a0565b9150509250929050565b6100fe8161007b565b82525050565b600060208201905061011960008301846100f5565b9291505056fea2646970667358221220c79762834738eb4e032c1ec8b2e889b9afcb0f47701d60649e1855da5e84c7f664736f6c63430008110033",
					"opcodes": "PUSH1 0x80 PUSH1 0x40 MSTORE CALLVALUE DUP1 ISZERO PUSH2 0x10 JUMPI PUSH1 0x0 DUP1 REVERT JUMPDEST POP PUSH2 0x155 DUP1 PUSH2 0x20 PUSH1 0x0 CODECOPY PUSH1 0x0 RETURN INVALID PUSH1 0x80 PUSH1 0x40 MSTORE CALLVALUE DUP1 ISZERO PUSH2 0x10 JUMPI PUSH1 0x0 DUP1 REVERT JUMPDEST POP PUSH1 0x4 CALLDATASIZE LT PUSH2 0x2B JUMPI PUSH1 0x0 CALLDATALOAD PUSH1 0xE0 SHR DUP1 PUSH4 0x6EBF0D2A EQ PUSH2 0x30 JUMPI JUMPDEST PUSH1 0x0 DUP1 REVERT JUMPDEST PUSH2 0x4A PUSH1 0x4 DUP1 CALLDATASIZE SUB DUP2 ADD SWAP1 PUSH2 0x45 SWAP2 SWAP1 PUSH2 0xB5 JUMP JUMPDEST PUSH2 0x60 JUMP JUMPDEST PUSH1 0x40 MLOAD PUSH2 0x57 SWAP2 SWAP1 PUSH2 0x104 JUMP JUMPDEST PUSH1 0x40 MLOAD DUP1 SWAP2 SUB SWAP1 RETURN JUMPDEST PUSH1 0x0 DUP2 PUSH2 0xFFFF AND DUP4 PUSH2 0xFFFF AND SWAP1 SHR SWAP1 POP SWAP3 SWAP2 POP POP JUMP JUMPDEST PUSH1 0x0 DUP1 REVERT JUMPDEST PUSH1 0x0 PUSH2 0xFFFF DUP3 AND SWAP1 POP SWAP2 SWAP1 POP JUMP JUMPDEST PUSH2 0x92 DUP2 PUSH2 0x7B JUMP JUMPDEST DUP2 EQ PUSH2 0x9D JUMPI PUSH1 0x0 DUP1 REVERT JUMPDEST POP JUMP JUMPDEST PUSH1 0x0 DUP2 CALLDATALOAD SWAP1 POP PUSH2 0xAF DUP2 PUSH2 0x89 JUMP JUMPDEST SWAP3 SWAP2 POP POP JUMP JUMPDEST PUSH1 0x0 DUP1 PUSH1 0x40 DUP4 DUP6 SUB SLT ISZERO PUSH2 0xCC JUMPI PUSH2 0xCB PUSH2 0x76 JUMP JUMPDEST JUMPDEST PUSH1 0x0 PUSH2 0xDA DUP6 DUP3 DUP7 ADD PUSH2 0xA0 JUMP JUMPDEST SWAP3 POP POP PUSH1 0x20 PUSH2 0xEB DUP6 DUP3 DUP7 ADD PUSH2 0xA0 JUMP JUMPDEST SWAP2 POP POP SWAP3 POP SWAP3 SWAP1 POP JUMP JUMPDEST PUSH2 0xFE DUP2 PUSH2 0x7B JUMP JUMPDEST DUP3 MSTORE POP POP JUMP JUMPDEST PUSH1 0x0 PUSH1 0x20 DUP3 ADD SWAP1 POP PUSH2 0x119 PUSH1 0x0 DUP4 ADD DUP5 PUSH2 0xF5 JUMP JUMPDEST SWAP3 SWAP2 POP POP JUMP INVALID LOG2 PUSH5 0x6970667358 0x22 SLT KECCAK256 0xC7 SWAP8 PUSH3 0x834738 0xEB 0x4E SUB 0x2C 0x1E 0xC8 0xB2 0xE8 DUP10 0xB9 0xAF 0xCB 0xF SELFBALANCE PUSH17 0x1D60649E1855DA5E84C7F664736F6C6343 STOP ADDMOD GT STOP CALLER "
				},
				"gasEstimates": {
					"creation": {
						"codeDepositCost": "68200",
						"executionCost": "117",
						"totalCost": "68317"
					},
					"external": {
						"operation(uint16,uint16)": "infinite"
					}
				},
				"methodIdentifiers": {
					"operation(uint16,uint16)": "6ebf0d2a"
				}
			},
			"storageLayout": {
				"storage": [],
				"types": null
			},
			"userdoc": {
				"kind": "user",
				"methods": {},
				"version": 1
			}
		}
	}
}