{
	"StringUtil.sol": {
		"StringUtil": {
			"abi": [
				{
					"inputs": [
						{
							"internalType": "string",
							"name": "str1",
							"type": "string"
						},
						{
							"internalType": "string",
							"name": "str2",
							"type": "string"
						}
					],
					"name": "compare",
					"outputs": [
						{
							"internalType": "enum StringUtil.CompareResult",
							"name": "",
							"type": "StringUtil.CompareResult"
						}
					],
					"stateMutability": "pure",
					"type": "function"
				}
			],
			"devdoc": {
				"kind": "dev",
				"methods": {},
				"version": 1
			},
			"evm": {
				"assembly": "    /* \"StringUtil.sol\":61:898  library StringUtil{... */\n  dataSize(sub_0)\n  dataOffset(sub_0)\n  0x0b\n  dup3\n  dup3\n  dup3\n  codecopy\n  dup1\n  mload\n  0x00\n  byte\n  0x73\n  eq\n  tag_1\n  jumpi\n  mstore(0x00, 0x4e487b7100000000000000000000000000000000000000000000000000000000)\n  mstore(0x04, 0x00)\n  revert(0x00, 0x24)\ntag_1:\n  mstore(0x00, address)\n  0x73\n  dup2\n  mstore8\n  dup3\n  dup2\n  return\nstop\n\nsub_0: assembly {\n        /* \"StringUtil.sol\":61:898  library StringUtil{... */\n      eq(address, deployTimeAddress())\n      mstore(0x40, 0x80)\n      jumpi(tag_1, lt(calldatasize, 0x04))\n      shr(0xe0, calldataload(0x00))\n      dup1\n      0x3a96fdd7\n      eq\n      tag_2\n      jumpi\n    tag_1:\n      0x00\n      dup1\n      revert\n        /* \"StringUtil.sol\":156:895  function compare(string memory str1,string memory str2) public pure returns(CompareResult){... */\n    tag_2:\n      tag_3\n      0x04\n      dup1\n      calldatasize\n      sub\n      dup2\n      add\n      swap1\n      tag_4\n      swap2\n      swap1\n      tag_5\n      jump\t// in\n    tag_4:\n      tag_6\n      jump\t// in\n    tag_3:\n      mload(0x40)\n      tag_7\n      swap2\n      swap1\n      tag_8\n      jump\t// in\n    tag_7:\n      mload(0x40)\n      dup1\n      swap2\n      sub\n      swap1\n      return\n    tag_6:\n        /* \"StringUtil.sol\":232:245  CompareResult */\n      0x00\n        /* \"StringUtil.sol\":253:267  bytes memory a */\n      dup1\n        /* \"StringUtil.sol\":276:280  str1 */\n      dup4\n        /* \"StringUtil.sol\":253:281  bytes memory a = bytes(str1) */\n      swap1\n      pop\n        /* \"StringUtil.sol\":288:302  bytes memory b */\n      0x00\n        /* \"StringUtil.sol\":311:315  str2 */\n      dup4\n        /* \"StringUtil.sol\":288:316  bytes memory b = bytes(str2) */\n      swap1\n      pop\n        /* \"StringUtil.sol\":343:344  0 */\n      0x00\n        /* \"StringUtil.sol\":333:334  a */\n      dup3\n        /* \"StringUtil.sol\":333:341  a.length */\n      mload\n        /* \"StringUtil.sol\":333:344  a.length==0 */\n      eq\n        /* \"StringUtil.sol\":333:359  a.length==0 || b.length==0 */\n      dup1\n      tag_10\n      jumpi\n      pop\n        /* \"StringUtil.sol\":358:359  0 */\n      0x00\n        /* \"StringUtil.sol\":348:349  b */\n      dup2\n        /* \"StringUtil.sol\":348:356  b.length */\n      mload\n        /* \"StringUtil.sol\":348:359  b.length==0 */\n      eq\n        /* \"StringUtil.sol\":333:359  a.length==0 || b.length==0 */\n    tag_10:\n        /* \"StringUtil.sol\":329:407  if (a.length==0 || b.length==0){... */\n      iszero\n      tag_11\n      jumpi\n        /* \"StringUtil.sol\":378:399  CompareResult.Invalid */\n      0x03\n        /* \"StringUtil.sol\":371:399  return CompareResult.Invalid */\n      swap3\n      pop\n      pop\n      pop\n      jump(tag_9)\n        /* \"StringUtil.sol\":329:407  if (a.length==0 || b.length==0){... */\n    tag_11:\n        /* \"StringUtil.sol\":484:485  b */\n      dup1\n        /* \"StringUtil.sol\":467:486  abi.encodePacked(b) */\n      add(0x20, mload(0x40))\n      tag_12\n      swap2\n      swap1\n      tag_13\n      jump\t// in\n    tag_12:\n      mload(0x40)\n      0x20\n      dup2\n      dup4\n      sub\n      sub\n      dup2\n      mstore\n      swap1\n      0x40\n      mstore\n        /* \"StringUtil.sol\":457:487  keccak256(abi.encodePacked(b)) */\n      dup1\n      mload\n      swap1\n      0x20\n      add\n      keccak256\n        /* \"StringUtil.sol\":450:451  a */\n      dup3\n        /* \"StringUtil.sol\":433:452  abi.encodePacked(a) */\n      add(0x20, mload(0x40))\n      tag_14\n      swap2\n      swap1\n      tag_13\n      jump\t// in\n    tag_14:\n      mload(0x40)\n      0x20\n      dup2\n      dup4\n      sub\n      sub\n      dup2\n      mstore\n      swap1\n      0x40\n      mstore\n        /* \"StringUtil.sol\":423:453  keccak256(abi.encodePacked(a)) */\n      dup1\n      mload\n      swap1\n      0x20\n      add\n      keccak256\n        /* \"StringUtil.sol\":423:487  keccak256(abi.encodePacked(a)) == keccak256(abi.encodePacked(b)) */\n      sub\n        /* \"StringUtil.sol\":419:533  if (keccak256(abi.encodePacked(a)) == keccak256(abi.encodePacked(b))){... */\n      tag_15\n      jumpi\n        /* \"StringUtil.sol\":506:525  CompareResult.Equal */\n      0x00\n        /* \"StringUtil.sol\":499:525  return CompareResult.Equal */\n      swap3\n      pop\n      pop\n      pop\n      jump(tag_9)\n        /* \"StringUtil.sol\":419:533  if (keccak256(abi.encodePacked(a)) == keccak256(abi.encodePacked(b))){... */\n    tag_15:\n        /* \"StringUtil.sol\":549:555  uint i */\n      0x00\n        /* \"StringUtil.sol\":545:711  for(uint i = 0; i < a.length; i++){... */\n    tag_16:\n        /* \"StringUtil.sol\":565:566  a */\n      dup3\n        /* \"StringUtil.sol\":565:573  a.length */\n      mload\n        /* \"StringUtil.sol\":561:562  i */\n      dup2\n        /* \"StringUtil.sol\":561:573  i < a.length */\n      lt\n        /* \"StringUtil.sol\":545:711  for(uint i = 0; i < a.length; i++){... */\n      iszero\n      tag_17\n      jumpi\n        /* \"StringUtil.sol\":601:602  b */\n      dup2\n        /* \"StringUtil.sol\":603:604  i */\n      dup2\n        /* \"StringUtil.sol\":601:605  b[i] */\n      dup2\n      mload\n      dup2\n      lt\n      tag_19\n      jumpi\n      tag_20\n      tag_21\n      jump\t// in\n    tag_20:\n    tag_19:\n      0x20\n      add\n      add\n      mload\n      0xf8\n      shr\n      0xf8\n      shl\n        /* \"StringUtil.sol\":594:605  a[i] < b[i] */\n      not(0xffffffffffffffffffffffffffffffffffffffffffffffffffffffffffffff)\n      and\n        /* \"StringUtil.sol\":594:595  a */\n      dup4\n        /* \"StringUtil.sol\":596:597  i */\n      dup3\n        /* \"StringUtil.sol\":594:598  a[i] */\n      dup2\n      mload\n      dup2\n      lt\n      tag_22\n      jumpi\n      tag_23\n      tag_21\n      jump\t// in\n    tag_23:\n    tag_22:\n      0x20\n      add\n      add\n      mload\n      0xf8\n      shr\n      0xf8\n      shl\n        /* \"StringUtil.sol\":594:605  a[i] < b[i] */\n      not(0xffffffffffffffffffffffffffffffffffffffffffffffffffffffffffffff)\n      and\n      lt\n        /* \"StringUtil.sol\":593:651  (a[i] < b[i]) || ((a.length < b.length) && (a[i] == b[i])) */\n      dup1\n      tag_24\n      jumpi\n      pop\n        /* \"StringUtil.sol\":623:624  b */\n      dup2\n        /* \"StringUtil.sol\":623:631  b.length */\n      mload\n        /* \"StringUtil.sol\":612:613  a */\n      dup4\n        /* \"StringUtil.sol\":612:620  a.length */\n      mload\n        /* \"StringUtil.sol\":612:631  a.length < b.length */\n      lt\n        /* \"StringUtil.sol\":611:650  (a.length < b.length) && (a[i] == b[i]) */\n      dup1\n      iszero\n      tag_25\n      jumpi\n      pop\n        /* \"StringUtil.sol\":645:646  b */\n      dup2\n        /* \"StringUtil.sol\":647:648  i */\n      dup2\n        /* \"StringUtil.sol\":645:649  b[i] */\n      dup2\n      mload\n      dup2\n      lt\n      tag_26\n      jumpi\n      tag_27\n      tag_21\n      jump\t// in\n    tag_27:\n    tag_26:\n      0x20\n      add\n      add\n      mload\n      0xf8\n      shr\n      0xf8\n      shl\n        /* \"StringUtil.sol\":637:649  a[i] == b[i] */\n      not(0xffffffffffffffffffffffffffffffffffffffffffffffffffffffffffffff)\n      and\n        /* \"StringUtil.sol\":637:638  a */\n      dup4\n        /* \"StringUtil.sol\":639:640  i */\n      dup3\n        /* \"StringUtil.sol\":637:641  a[i] */\n      dup2\n      mload\n      dup2\n      lt\n      tag_28\n      jumpi\n      tag_29\n      tag_21\n      jump\t// in\n    tag_29:\n    tag_28:\n      0x20\n      add\n      add\n      mload\n      0xf8\n      shr\n      0xf8\n      shl\n        /* \"StringUtil.sol\":637:649  a[i] == b[i] */\n      not(0xffffffffffffffffffffffffffffffffffffffffffffffffffffffffffffff)\n      and\n      eq\n        /* \"StringUtil.sol\":611:650  (a.length < b.length) && (a[i] == b[i]) */\n    tag_25:\n        /* \"StringUtil.sol\":593:651  (a[i] < b[i]) || ((a.length < b.length) && (a[i] == b[i])) */\n    tag_24:\n        /* \"StringUtil.sol\":590:704  if((a[i] < b[i]) || ((a.length < b.length) && (a[i] == b[i]))){... */\n      iszero\n      tag_30\n      jumpi\n        /* \"StringUtil.sol\":674:692  CompareResult.Less */\n      0x01\n        /* \"StringUtil.sol\":667:692  return CompareResult.Less */\n      swap4\n      pop\n      pop\n      pop\n      pop\n      jump(tag_9)\n        /* \"StringUtil.sol\":590:704  if((a[i] < b[i]) || ((a.length < b.length) && (a[i] == b[i]))){... */\n    tag_30:\n        /* \"StringUtil.sol\":575:578  i++ */\n      dup1\n      dup1\n      tag_31\n      swap1\n      tag_32\n      jump\t// in\n    tag_31:\n      swap2\n      pop\n      pop\n        /* \"StringUtil.sol\":545:711  for(uint i = 0; i < a.length; i++){... */\n      jump(tag_16)\n    tag_17:\n      pop\n        /* \"StringUtil.sol\":727:733  uint i */\n      0x00\n        /* \"StringUtil.sol\":723:892  for(uint i = 0; i < b.length; i++){... */\n    tag_33:\n        /* \"StringUtil.sol\":743:744  b */\n      dup2\n        /* \"StringUtil.sol\":743:751  b.length */\n      mload\n        /* \"StringUtil.sol\":739:740  i */\n      dup2\n        /* \"StringUtil.sol\":739:751  i < b.length */\n      lt\n        /* \"StringUtil.sol\":723:892  for(uint i = 0; i < b.length; i++){... */\n      iszero\n      tag_34\n      jumpi\n        /* \"StringUtil.sol\":779:780  b */\n      dup2\n        /* \"StringUtil.sol\":781:782  i */\n      dup2\n        /* \"StringUtil.sol\":779:783  b[i] */\n      dup2\n      mload\n      dup2\n      lt\n      tag_36\n      jumpi\n      tag_37\n      tag_21\n      jump\t// in\n    tag_37:\n    tag_36:\n      0x20\n      add\n      add\n      mload\n      0xf8\n      shr\n      0xf8\n      shl\n        /* \"StringUtil.sol\":772:783  a[i] > b[i] */\n      not(0xffffffffffffffffffffffffffffffffffffffffffffffffffffffffffffff)\n      and\n        /* \"StringUtil.sol\":772:773  a */\n      dup4\n        /* \"StringUtil.sol\":774:775  i */\n      dup3\n        /* \"StringUtil.sol\":772:776  a[i] */\n      dup2\n      mload\n      dup2\n      lt\n      tag_38\n      jumpi\n      tag_39\n      tag_21\n      jump\t// in\n    tag_39:\n    tag_38:\n      0x20\n      add\n      add\n      mload\n      0xf8\n      shr\n      0xf8\n      shl\n        /* \"StringUtil.sol\":772:783  a[i] > b[i] */\n      not(0xffffffffffffffffffffffffffffffffffffffffffffffffffffffffffffff)\n      and\n      gt\n        /* \"StringUtil.sol\":771:829  (a[i] > b[i]) || ((a.length > b.length) && (a[i] == b[i])) */\n      dup1\n      tag_40\n      jumpi\n      pop\n        /* \"StringUtil.sol\":801:802  b */\n      dup2\n        /* \"StringUtil.sol\":801:809  b.length */\n      mload\n        /* \"StringUtil.sol\":790:791  a */\n      dup4\n        /* \"StringUtil.sol\":790:798  a.length */\n      mload\n        /* \"StringUtil.sol\":790:809  a.length > b.length */\n      gt\n        /* \"StringUtil.sol\":789:828  (a.length > b.length) && (a[i] == b[i]) */\n      dup1\n      iszero\n      tag_41\n      jumpi\n      pop\n        /* \"StringUtil.sol\":823:824  b */\n      dup2\n        /* \"StringUtil.sol\":825:826  i */\n      dup2\n        /* \"StringUtil.sol\":823:827  b[i] */\n      dup2\n      mload\n      dup2\n      lt\n      tag_42\n      jumpi\n      tag_43\n      tag_21\n      jump\t// in\n    tag_43:\n    tag_42:\n      0x20\n      add\n      add\n      mload\n      0xf8\n      shr\n      0xf8\n      shl\n        /* \"StringUtil.sol\":815:827  a[i] == b[i] */\n      not(0xffffffffffffffffffffffffffffffffffffffffffffffffffffffffffffff)\n      and\n        /* \"StringUtil.sol\":815:816  a */\n      dup4\n        /* \"StringUtil.sol\":817:818  i */\n      dup3\n        /* \"StringUtil.sol\":815:819  a[i] */\n      dup2\n      mload\n      dup2\n      lt\n      tag_44\n      jumpi\n      tag_45\n      tag_21\n      jump\t// in\n    tag_45:\n    tag_44:\n      0x20\n      add\n      add\n      mload\n      0xf8\n      shr\n      0xf8\n      shl\n        /* \"StringUtil.sol\":815:827  a[i] == b[i] */\n      not(0xffffffffffffffffffffffffffffffffffffffffffffffffffffffffffffff)\n      and\n      eq\n        /* \"StringUtil.sol\":789:828  (a.length > b.length) && (a[i] == b[i]) */\n    tag_41:\n        /* \"StringUtil.sol\":771:829  (a[i] > b[i]) || ((a.length > b.length) && (a[i] == b[i])) */\n    tag_40:\n        /* \"StringUtil.sol\":768:885  if((a[i] > b[i]) || ((a.length > b.length) && (a[i] == b[i]))){... */\n      iszero\n      tag_46\n      jumpi\n        /* \"StringUtil.sol\":852:873  CompareResult.Greater */\n      0x02\n        /* \"StringUtil.sol\":845:873  return CompareResult.Greater */\n      swap4\n      pop\n      pop\n      pop\n      pop\n      jump(tag_9)\n        /* \"StringUtil.sol\":768:885  if((a[i] > b[i]) || ((a.length > b.length) && (a[i] == b[i]))){... */\n    tag_46:\n        /* \"StringUtil.sol\":753:756  i++ */\n      dup1\n      dup1\n      tag_47\n      swap1\n      tag_32\n      jump\t// in\n    tag_47:\n      swap2\n      pop\n      pop\n        /* \"StringUtil.sol\":723:892  for(uint i = 0; i < b.length; i++){... */\n      jump(tag_33)\n    tag_34:\n      pop\n        /* \"StringUtil.sol\":246:895  {... */\n      pop\n      pop\n        /* \"StringUtil.sol\":156:895  function compare(string memory str1,string memory str2) public pure returns(CompareResult){... */\n    tag_9:\n      swap3\n      swap2\n      pop\n      pop\n      jump\t// out\n        /* \"#utility.yul\":7:82   */\n    tag_48:\n        /* \"#utility.yul\":40:46   */\n      0x00\n        /* \"#utility.yul\":73:75   */\n      0x40\n        /* \"#utility.yul\":67:76   */\n      mload\n        /* \"#utility.yul\":57:76   */\n      swap1\n      pop\n        /* \"#utility.yul\":7:82   */\n      swap1\n      jump\t// out\n        /* \"#utility.yul\":88:205   */\n    tag_49:\n        /* \"#utility.yul\":197:198   */\n      0x00\n        /* \"#utility.yul\":194:195   */\n      dup1\n        /* \"#utility.yul\":187:199   */\n      revert\n        /* \"#utility.yul\":211:328   */\n    tag_50:\n        /* \"#utility.yul\":320:321   */\n      0x00\n        /* \"#utility.yul\":317:318   */\n      dup1\n        /* \"#utility.yul\":310:322   */\n      revert\n        /* \"#utility.yul\":334:451   */\n    tag_51:\n        /* \"#utility.yul\":443:444   */\n      0x00\n        /* \"#utility.yul\":440:441   */\n      dup1\n        /* \"#utility.yul\":433:445   */\n      revert\n        /* \"#utility.yul\":457:574   */\n    tag_52:\n        /* \"#utility.yul\":566:567   */\n      0x00\n        /* \"#utility.yul\":563:564   */\n      dup1\n        /* \"#utility.yul\":556:568   */\n      revert\n        /* \"#utility.yul\":580:682   */\n    tag_53:\n        /* \"#utility.yul\":621:627   */\n      0x00\n        /* \"#utility.yul\":672:674   */\n      0x1f\n        /* \"#utility.yul\":668:675   */\n      not\n        /* \"#utility.yul\":663:665   */\n      0x1f\n        /* \"#utility.yul\":656:661   */\n      dup4\n        /* \"#utility.yul\":652:666   */\n      add\n        /* \"#utility.yul\":648:676   */\n      and\n        /* \"#utility.yul\":638:676   */\n      swap1\n      pop\n        /* \"#utility.yul\":580:682   */\n      swap2\n      swap1\n      pop\n      jump\t// out\n        /* \"#utility.yul\":688:868   */\n    tag_54:\n        /* \"#utility.yul\":736:813   */\n      0x4e487b7100000000000000000000000000000000000000000000000000000000\n        /* \"#utility.yul\":733:734   */\n      0x00\n        /* \"#utility.yul\":726:814   */\n      mstore\n        /* \"#utility.yul\":833:837   */\n      0x41\n        /* \"#utility.yul\":830:831   */\n      0x04\n        /* \"#utility.yul\":823:838   */\n      mstore\n        /* \"#utility.yul\":857:861   */\n      0x24\n        /* \"#utility.yul\":854:855   */\n      0x00\n        /* \"#utility.yul\":847:862   */\n      revert\n        /* \"#utility.yul\":874:1155   */\n    tag_55:\n        /* \"#utility.yul\":957:984   */\n      tag_81\n        /* \"#utility.yul\":979:983   */\n      dup3\n        /* \"#utility.yul\":957:984   */\n      tag_53\n      jump\t// in\n    tag_81:\n        /* \"#utility.yul\":949:955   */\n      dup2\n        /* \"#utility.yul\":945:985   */\n      add\n        /* \"#utility.yul\":1087:1093   */\n      dup2\n        /* \"#utility.yul\":1075:1085   */\n      dup2\n        /* \"#utility.yul\":1072:1094   */\n      lt\n        /* \"#utility.yul\":1051:1069   */\n      0xffffffffffffffff\n        /* \"#utility.yul\":1039:1049   */\n      dup3\n        /* \"#utility.yul\":1036:1070   */\n      gt\n        /* \"#utility.yul\":1033:1095   */\n      or\n        /* \"#utility.yul\":1030:1118   */\n      iszero\n      tag_82\n      jumpi\n        /* \"#utility.yul\":1098:1116   */\n      tag_83\n      tag_54\n      jump\t// in\n    tag_83:\n        /* \"#utility.yul\":1030:1118   */\n    tag_82:\n        /* \"#utility.yul\":1138:1148   */\n      dup1\n        /* \"#utility.yul\":1134:1136   */\n      0x40\n        /* \"#utility.yul\":1127:1149   */\n      mstore\n        /* \"#utility.yul\":917:1155   */\n      pop\n        /* \"#utility.yul\":874:1155   */\n      pop\n      pop\n      jump\t// out\n        /* \"#utility.yul\":1161:1290   */\n    tag_56:\n        /* \"#utility.yul\":1195:1201   */\n      0x00\n        /* \"#utility.yul\":1222:1242   */\n      tag_85\n      tag_48\n      jump\t// in\n    tag_85:\n        /* \"#utility.yul\":1212:1242   */\n      swap1\n      pop\n        /* \"#utility.yul\":1251:1284   */\n      tag_86\n        /* \"#utility.yul\":1279:1283   */\n      dup3\n        /* \"#utility.yul\":1271:1277   */\n      dup3\n        /* \"#utility.yul\":1251:1284   */\n      tag_55\n      jump\t// in\n    tag_86:\n        /* \"#utility.yul\":1161:1290   */\n      swap2\n      swap1\n      pop\n      jump\t// out\n        /* \"#utility.yul\":1296:1604   */\n    tag_57:\n        /* \"#utility.yul\":1358:1362   */\n      0x00\n        /* \"#utility.yul\":1448:1466   */\n      0xffffffffffffffff\n        /* \"#utility.yul\":1440:1446   */\n      dup3\n        /* \"#utility.yul\":1437:1467   */\n      gt\n        /* \"#utility.yul\":1434:1490   */\n      iszero\n      tag_88\n      jumpi\n        /* \"#utility.yul\":1470:1488   */\n      tag_89\n      tag_54\n      jump\t// in\n    tag_89:\n        /* \"#utility.yul\":1434:1490   */\n    tag_88:\n        /* \"#utility.yul\":1508:1537   */\n      tag_90\n        /* \"#utility.yul\":1530:1536   */\n      dup3\n        /* \"#utility.yul\":1508:1537   */\n      tag_53\n      jump\t// in\n    tag_90:\n        /* \"#utility.yul\":1500:1537   */\n      swap1\n      pop\n        /* \"#utility.yul\":1592:1596   */\n      0x20\n        /* \"#utility.yul\":1586:1590   */\n      dup2\n        /* \"#utility.yul\":1582:1597   */\n      add\n        /* \"#utility.yul\":1574:1597   */\n      swap1\n      pop\n        /* \"#utility.yul\":1296:1604   */\n      swap2\n      swap1\n      pop\n      jump\t// out\n        /* \"#utility.yul\":1610:1756   */\n    tag_58:\n        /* \"#utility.yul\":1707:1713   */\n      dup3\n        /* \"#utility.yul\":1702:1705   */\n      dup2\n        /* \"#utility.yul\":1697:1700   */\n      dup4\n        /* \"#utility.yul\":1684:1714   */\n      calldatacopy\n        /* \"#utility.yul\":1748:1749   */\n      0x00\n        /* \"#utility.yul\":1739:1745   */\n      dup4\n        /* \"#utility.yul\":1734:1737   */\n      dup4\n        /* \"#utility.yul\":1730:1746   */\n      add\n        /* \"#utility.yul\":1723:1750   */\n      mstore\n        /* \"#utility.yul\":1610:1756   */\n      pop\n      pop\n      pop\n      jump\t// out\n        /* \"#utility.yul\":1762:2187   */\n    tag_59:\n        /* \"#utility.yul\":1840:1845   */\n      0x00\n        /* \"#utility.yul\":1865:1931   */\n      tag_93\n        /* \"#utility.yul\":1881:1930   */\n      tag_94\n        /* \"#utility.yul\":1923:1929   */\n      dup5\n        /* \"#utility.yul\":1881:1930   */\n      tag_57\n      jump\t// in\n    tag_94:\n        /* \"#utility.yul\":1865:1931   */\n      tag_56\n      jump\t// in\n    tag_93:\n        /* \"#utility.yul\":1856:1931   */\n      swap1\n      pop\n        /* \"#utility.yul\":1954:1960   */\n      dup3\n        /* \"#utility.yul\":1947:1952   */\n      dup2\n        /* \"#utility.yul\":1940:1961   */\n      mstore\n        /* \"#utility.yul\":1992:1996   */\n      0x20\n        /* \"#utility.yul\":1985:1990   */\n      dup2\n        /* \"#utility.yul\":1981:1997   */\n      add\n        /* \"#utility.yul\":2030:2033   */\n      dup5\n        /* \"#utility.yul\":2021:2027   */\n      dup5\n        /* \"#utility.yul\":2016:2019   */\n      dup5\n        /* \"#utility.yul\":2012:2028   */\n      add\n        /* \"#utility.yul\":2009:2034   */\n      gt\n        /* \"#utility.yul\":2006:2118   */\n      iszero\n      tag_95\n      jumpi\n        /* \"#utility.yul\":2037:2116   */\n      tag_96\n      tag_52\n      jump\t// in\n    tag_96:\n        /* \"#utility.yul\":2006:2118   */\n    tag_95:\n        /* \"#utility.yul\":2127:2181   */\n      tag_97\n        /* \"#utility.yul\":2174:2180   */\n      dup5\n        /* \"#utility.yul\":2169:2172   */\n      dup3\n        /* \"#utility.yul\":2164:2167   */\n      dup6\n        /* \"#utility.yul\":2127:2181   */\n      tag_58\n      jump\t// in\n    tag_97:\n        /* \"#utility.yul\":1846:2187   */\n      pop\n        /* \"#utility.yul\":1762:2187   */\n      swap4\n      swap3\n      pop\n      pop\n      pop\n      jump\t// out\n        /* \"#utility.yul\":2207:2547   */\n    tag_60:\n        /* \"#utility.yul\":2263:2268   */\n      0x00\n        /* \"#utility.yul\":2312:2315   */\n      dup3\n        /* \"#utility.yul\":2305:2309   */\n      0x1f\n        /* \"#utility.yul\":2297:2303   */\n      dup4\n        /* \"#utility.yul\":2293:2310   */\n      add\n        /* \"#utility.yul\":2289:2316   */\n      slt\n        /* \"#utility.yul\":2279:2401   */\n      tag_99\n      jumpi\n        /* \"#utility.yul\":2320:2399   */\n      tag_100\n      tag_51\n      jump\t// in\n    tag_100:\n        /* \"#utility.yul\":2279:2401   */\n    tag_99:\n        /* \"#utility.yul\":2437:2443   */\n      dup2\n        /* \"#utility.yul\":2424:2444   */\n      calldataload\n        /* \"#utility.yul\":2462:2541   */\n      tag_101\n        /* \"#utility.yul\":2537:2540   */\n      dup5\n        /* \"#utility.yul\":2529:2535   */\n      dup3\n        /* \"#utility.yul\":2522:2526   */\n      0x20\n        /* \"#utility.yul\":2514:2520   */\n      dup7\n        /* \"#utility.yul\":2510:2527   */\n      add\n        /* \"#utility.yul\":2462:2541   */\n      tag_59\n      jump\t// in\n    tag_101:\n        /* \"#utility.yul\":2453:2541   */\n      swap2\n      pop\n        /* \"#utility.yul\":2269:2547   */\n      pop\n        /* \"#utility.yul\":2207:2547   */\n      swap3\n      swap2\n      pop\n      pop\n      jump\t// out\n        /* \"#utility.yul\":2553:3387   */\n    tag_5:\n        /* \"#utility.yul\":2641:2647   */\n      0x00\n        /* \"#utility.yul\":2649:2655   */\n      dup1\n        /* \"#utility.yul\":2698:2700   */\n      0x40\n        /* \"#utility.yul\":2686:2695   */\n      dup4\n        /* \"#utility.yul\":2677:2684   */\n      dup6\n        /* \"#utility.yul\":2673:2696   */\n      sub\n        /* \"#utility.yul\":2669:2701   */\n      slt\n        /* \"#utility.yul\":2666:2785   */\n      iszero\n      tag_103\n      jumpi\n        /* \"#utility.yul\":2704:2783   */\n      tag_104\n      tag_49\n      jump\t// in\n    tag_104:\n        /* \"#utility.yul\":2666:2785   */\n    tag_103:\n        /* \"#utility.yul\":2852:2853   */\n      0x00\n        /* \"#utility.yul\":2841:2850   */\n      dup4\n        /* \"#utility.yul\":2837:2854   */\n      add\n        /* \"#utility.yul\":2824:2855   */\n      calldataload\n        /* \"#utility.yul\":2882:2900   */\n      0xffffffffffffffff\n        /* \"#utility.yul\":2874:2880   */\n      dup2\n        /* \"#utility.yul\":2871:2901   */\n      gt\n        /* \"#utility.yul\":2868:2985   */\n      iszero\n      tag_105\n      jumpi\n        /* \"#utility.yul\":2904:2983   */\n      tag_106\n      tag_50\n      jump\t// in\n    tag_106:\n        /* \"#utility.yul\":2868:2985   */\n    tag_105:\n        /* \"#utility.yul\":3009:3072   */\n      tag_107\n        /* \"#utility.yul\":3064:3071   */\n      dup6\n        /* \"#utility.yul\":3055:3061   */\n      dup3\n        /* \"#utility.yul\":3044:3053   */\n      dup7\n        /* \"#utility.yul\":3040:3062   */\n      add\n        /* \"#utility.yul\":3009:3072   */\n      tag_60\n      jump\t// in\n    tag_107:\n        /* \"#utility.yul\":2999:3072   */\n      swap3\n      pop\n        /* \"#utility.yul\":2795:3082   */\n      pop\n        /* \"#utility.yul\":3149:3151   */\n      0x20\n        /* \"#utility.yul\":3138:3147   */\n      dup4\n        /* \"#utility.yul\":3134:3152   */\n      add\n        /* \"#utility.yul\":3121:3153   */\n      calldataload\n        /* \"#utility.yul\":3180:3198   */\n      0xffffffffffffffff\n        /* \"#utility.yul\":3172:3178   */\n      dup2\n        /* \"#utility.yul\":3169:3199   */\n      gt\n        /* \"#utility.yul\":3166:3283   */\n      iszero\n      tag_108\n      jumpi\n        /* \"#utility.yul\":3202:3281   */\n      tag_109\n      tag_50\n      jump\t// in\n    tag_109:\n        /* \"#utility.yul\":3166:3283   */\n    tag_108:\n        /* \"#utility.yul\":3307:3370   */\n      tag_110\n        /* \"#utility.yul\":3362:3369   */\n      dup6\n        /* \"#utility.yul\":3353:3359   */\n      dup3\n        /* \"#utility.yul\":3342:3351   */\n      dup7\n        /* \"#utility.yul\":3338:3360   */\n      add\n        /* \"#utility.yul\":3307:3370   */\n      tag_60\n      jump\t// in\n    tag_110:\n        /* \"#utility.yul\":3297:3370   */\n      swap2\n      pop\n        /* \"#utility.yul\":3092:3380   */\n      pop\n        /* \"#utility.yul\":2553:3387   */\n      swap3\n      pop\n      swap3\n      swap1\n      pop\n      jump\t// out\n        /* \"#utility.yul\":3393:3573   */\n    tag_61:\n        /* \"#utility.yul\":3441:3518   */\n      0x4e487b7100000000000000000000000000000000000000000000000000000000\n        /* \"#utility.yul\":3438:3439   */\n      0x00\n        /* \"#utility.yul\":3431:3519   */\n      mstore\n        /* \"#utility.yul\":3538:3542   */\n      0x21\n        /* \"#utility.yul\":3535:3536   */\n      0x04\n        /* \"#utility.yul\":3528:3543   */\n      mstore\n        /* \"#utility.yul\":3562:3566   */\n      0x24\n        /* \"#utility.yul\":3559:3560   */\n      0x00\n        /* \"#utility.yul\":3552:3567   */\n      revert\n        /* \"#utility.yul\":3579:3700   */\n    tag_62:\n        /* \"#utility.yul\":3668:3669   */\n      0x04\n        /* \"#utility.yul\":3661:3666   */\n      dup2\n        /* \"#utility.yul\":3658:3670   */\n      lt\n        /* \"#utility.yul\":3648:3694   */\n      tag_113\n      jumpi\n        /* \"#utility.yul\":3674:3692   */\n      tag_114\n      tag_61\n      jump\t// in\n    tag_114:\n        /* \"#utility.yul\":3648:3694   */\n    tag_113:\n        /* \"#utility.yul\":3579:3700   */\n      pop\n      jump\t// out\n        /* \"#utility.yul\":3706:3849   */\n    tag_63:\n        /* \"#utility.yul\":3759:3766   */\n      0x00\n        /* \"#utility.yul\":3788:3793   */\n      dup2\n        /* \"#utility.yul\":3777:3793   */\n      swap1\n      pop\n        /* \"#utility.yul\":3794:3843   */\n      tag_116\n        /* \"#utility.yul\":3837:3842   */\n      dup3\n        /* \"#utility.yul\":3794:3843   */\n      tag_62\n      jump\t// in\n    tag_116:\n        /* \"#utility.yul\":3706:3849   */\n      swap2\n      swap1\n      pop\n      jump\t// out\n        /* \"#utility.yul\":3855:3998   */\n    tag_64:\n        /* \"#utility.yul\":3919:3928   */\n      0x00\n        /* \"#utility.yul\":3952:3992   */\n      tag_118\n        /* \"#utility.yul\":3986:3991   */\n      dup3\n        /* \"#utility.yul\":3952:3992   */\n      tag_63\n      jump\t// in\n    tag_118:\n        /* \"#utility.yul\":3939:3992   */\n      swap1\n      pop\n        /* \"#utility.yul\":3855:3998   */\n      swap2\n      swap1\n      pop\n      jump\t// out\n        /* \"#utility.yul\":4004:4171   */\n    tag_65:\n        /* \"#utility.yul\":4113:4164   */\n      tag_120\n        /* \"#utility.yul\":4158:4163   */\n      dup2\n        /* \"#utility.yul\":4113:4164   */\n      tag_64\n      jump\t// in\n    tag_120:\n        /* \"#utility.yul\":4108:4111   */\n      dup3\n        /* \"#utility.yul\":4101:4165   */\n      mstore\n        /* \"#utility.yul\":4004:4171   */\n      pop\n      pop\n      jump\t// out\n        /* \"#utility.yul\":4177:4443   */\n    tag_8:\n        /* \"#utility.yul\":4292:4296   */\n      0x00\n        /* \"#utility.yul\":4330:4332   */\n      0x20\n        /* \"#utility.yul\":4319:4328   */\n      dup3\n        /* \"#utility.yul\":4315:4333   */\n      add\n        /* \"#utility.yul\":4307:4333   */\n      swap1\n      pop\n        /* \"#utility.yul\":4343:4436   */\n      tag_122\n        /* \"#utility.yul\":4433:4434   */\n      0x00\n        /* \"#utility.yul\":4422:4431   */\n      dup4\n        /* \"#utility.yul\":4418:4435   */\n      add\n        /* \"#utility.yul\":4409:4415   */\n      dup5\n        /* \"#utility.yul\":4343:4436   */\n      tag_65\n      jump\t// in\n    tag_122:\n        /* \"#utility.yul\":4177:4443   */\n      swap3\n      swap2\n      pop\n      pop\n      jump\t// out\n        /* \"#utility.yul\":4449:4547   */\n    tag_66:\n        /* \"#utility.yul\":4500:4506   */\n      0x00\n        /* \"#utility.yul\":4534:4539   */\n      dup2\n        /* \"#utility.yul\":4528:4540   */\n      mload\n        /* \"#utility.yul\":4518:4540   */\n      swap1\n      pop\n        /* \"#utility.yul\":4449:4547   */\n      swap2\n      swap1\n      pop\n      jump\t// out\n        /* \"#utility.yul\":4553:4700   */\n    tag_67:\n        /* \"#utility.yul\":4654:4665   */\n      0x00\n        /* \"#utility.yul\":4691:4694   */\n      dup2\n        /* \"#utility.yul\":4676:4694   */\n      swap1\n      pop\n        /* \"#utility.yul\":4553:4700   */\n      swap3\n      swap2\n      pop\n      pop\n      jump\t// out\n        /* \"#utility.yul\":4706:4952   */\n    tag_68:\n        /* \"#utility.yul\":4787:4788   */\n      0x00\n        /* \"#utility.yul\":4797:4910   */\n    tag_126:\n        /* \"#utility.yul\":4811:4817   */\n      dup4\n        /* \"#utility.yul\":4808:4809   */\n      dup2\n        /* \"#utility.yul\":4805:4818   */\n      lt\n        /* \"#utility.yul\":4797:4910   */\n      iszero\n      tag_128\n      jumpi\n        /* \"#utility.yul\":4896:4897   */\n      dup1\n        /* \"#utility.yul\":4891:4894   */\n      dup3\n        /* \"#utility.yul\":4887:4898   */\n      add\n        /* \"#utility.yul\":4881:4899   */\n      mload\n        /* \"#utility.yul\":4877:4878   */\n      dup2\n        /* \"#utility.yul\":4872:4875   */\n      dup5\n        /* \"#utility.yul\":4868:4879   */\n      add\n        /* \"#utility.yul\":4861:4900   */\n      mstore\n        /* \"#utility.yul\":4833:4835   */\n      0x20\n        /* \"#utility.yul\":4830:4831   */\n      dup2\n        /* \"#utility.yul\":4826:4836   */\n      add\n        /* \"#utility.yul\":4821:4836   */\n      swap1\n      pop\n        /* \"#utility.yul\":4797:4910   */\n      jump(tag_126)\n    tag_128:\n        /* \"#utility.yul\":4944:4945   */\n      0x00\n        /* \"#utility.yul\":4935:4941   */\n      dup5\n        /* \"#utility.yul\":4930:4933   */\n      dup5\n        /* \"#utility.yul\":4926:4942   */\n      add\n        /* \"#utility.yul\":4919:4946   */\n      mstore\n        /* \"#utility.yul\":4768:4952   */\n      pop\n        /* \"#utility.yul\":4706:4952   */\n      pop\n      pop\n      pop\n      jump\t// out\n        /* \"#utility.yul\":4958:5344   */\n    tag_69:\n        /* \"#utility.yul\":5062:5065   */\n      0x00\n        /* \"#utility.yul\":5090:5128   */\n      tag_130\n        /* \"#utility.yul\":5122:5127   */\n      dup3\n        /* \"#utility.yul\":5090:5128   */\n      tag_66\n      jump\t// in\n    tag_130:\n        /* \"#utility.yul\":5144:5232   */\n      tag_131\n        /* \"#utility.yul\":5225:5231   */\n      dup2\n        /* \"#utility.yul\":5220:5223   */\n      dup6\n        /* \"#utility.yul\":5144:5232   */\n      tag_67\n      jump\t// in\n    tag_131:\n        /* \"#utility.yul\":5137:5232   */\n      swap4\n      pop\n        /* \"#utility.yul\":5241:5306   */\n      tag_132\n        /* \"#utility.yul\":5299:5305   */\n      dup2\n        /* \"#utility.yul\":5294:5297   */\n      dup6\n        /* \"#utility.yul\":5287:5291   */\n      0x20\n        /* \"#utility.yul\":5280:5285   */\n      dup7\n        /* \"#utility.yul\":5276:5292   */\n      add\n        /* \"#utility.yul\":5241:5306   */\n      tag_68\n      jump\t// in\n    tag_132:\n        /* \"#utility.yul\":5331:5337   */\n      dup1\n        /* \"#utility.yul\":5326:5329   */\n      dup5\n        /* \"#utility.yul\":5322:5338   */\n      add\n        /* \"#utility.yul\":5315:5338   */\n      swap2\n      pop\n        /* \"#utility.yul\":5066:5344   */\n      pop\n        /* \"#utility.yul\":4958:5344   */\n      swap3\n      swap2\n      pop\n      pop\n      jump\t// out\n        /* \"#utility.yul\":5350:5621   */\n    tag_13:\n        /* \"#utility.yul\":5480:5483   */\n      0x00\n        /* \"#utility.yul\":5502:5595   */\n      tag_134\n        /* \"#utility.yul\":5591:5594   */\n      dup3\n        /* \"#utility.yul\":5582:5588   */\n      dup5\n        /* \"#utility.yul\":5502:5595   */\n      tag_69\n      jump\t// in\n    tag_134:\n        /* \"#utility.yul\":5495:5595   */\n      swap2\n      pop\n        /* \"#utility.yul\":5612:5615   */\n      dup2\n        /* \"#utility.yul\":5605:5615   */\n      swap1\n      pop\n        /* \"#utility.yul\":5350:5621   */\n      swap3\n      swap2\n      pop\n      pop\n      jump\t// out\n        /* \"#utility.yul\":5627:5807   */\n    tag_21:\n        /* \"#utility.yul\":5675:5752   */\n      0x4e487b7100000000000000000000000000000000000000000000000000000000\n        /* \"#utility.yul\":5672:5673   */\n      0x00\n        /* \"#utility.yul\":5665:5753   */\n      mstore\n        /* \"#utility.yul\":5772:5776   */\n      0x32\n        /* \"#utility.yul\":5769:5770   */\n      0x04\n        /* \"#utility.yul\":5762:5777   */\n      mstore\n        /* \"#utility.yul\":5796:5800   */\n      0x24\n        /* \"#utility.yul\":5793:5794   */\n      0x00\n        /* \"#utility.yul\":5786:5801   */\n      revert\n        /* \"#utility.yul\":5813:5993   */\n    tag_70:\n        /* \"#utility.yul\":5861:5938   */\n      0x4e487b7100000000000000000000000000000000000000000000000000000000\n        /* \"#utility.yul\":5858:5859   */\n      0x00\n        /* \"#utility.yul\":5851:5939   */\n      mstore\n        /* \"#utility.yul\":5958:5962   */\n      0x11\n        /* \"#utility.yul\":5955:5956   */\n      0x04\n        /* \"#utility.yul\":5948:5963   */\n      mstore\n        /* \"#utility.yul\":5982:5986   */\n      0x24\n        /* \"#utility.yul\":5979:5980   */\n      0x00\n        /* \"#utility.yul\":5972:5987   */\n      revert\n        /* \"#utility.yul\":5999:6076   */\n    tag_71:\n        /* \"#utility.yul\":6036:6043   */\n      0x00\n        /* \"#utility.yul\":6065:6070   */\n      dup2\n        /* \"#utility.yul\":6054:6070   */\n      swap1\n      pop\n        /* \"#utility.yul\":5999:6076   */\n      swap2\n      swap1\n      pop\n      jump\t// out\n        /* \"#utility.yul\":6082:6315   */\n    tag_32:\n        /* \"#utility.yul\":6121:6124   */\n      0x00\n        /* \"#utility.yul\":6144:6168   */\n      tag_139\n        /* \"#utility.yul\":6162:6167   */\n      dup3\n        /* \"#utility.yul\":6144:6168   */\n      tag_71\n      jump\t// in\n    tag_139:\n        /* \"#utility.yul\":6135:6168   */\n      swap2\n      pop\n        /* \"#utility.yul\":6190:6256   */\n      0xffffffffffffffffffffffffffffffffffffffffffffffffffffffffffffffff\n        /* \"#utility.yul\":6183:6188   */\n      dup3\n        /* \"#utility.yul\":6180:6257   */\n      sub\n        /* \"#utility.yul\":6177:6280   */\n      tag_140\n      jumpi\n        /* \"#utility.yul\":6260:6278   */\n      tag_141\n      tag_70\n      jump\t// in\n    tag_141:\n        /* \"#utility.yul\":6177:6280   */\n    tag_140:\n        /* \"#utility.yul\":6307:6308   */\n      0x01\n        /* \"#utility.yul\":6300:6305   */\n      dup3\n        /* \"#utility.yul\":6296:6309   */\n      add\n        /* \"#utility.yul\":6289:6309   */\n      swap1\n      pop\n        /* \"#utility.yul\":6082:6315   */\n      swap2\n      swap1\n      pop\n      jump\t// out\n\n    auxdata: 0xa2646970667358221220577e2755b916f5e49e58c2e8b55db3e2b73e2947ac1c8211d1094bc392e2c11764736f6c63430008110033\n}\n",
				"bytecode": {
					"linkReferences": {},
					"object": "61075d610053600b82828239805160001a607314610046577f4e487b7100000000000000000000000000000000000000000000000000000000600052600060045260246000fd5b30600052607381538281f3fe73000000000000000000000000000000000000000030146080604052600436106100355760003560e01c80633a96fdd71461003a575b600080fd5b610054600480360381019061004f91906104e5565b61006a565b60405161006191906105d4565b60405180910390f35b6000808390506000839050600082511480610086575060008151145b1561009657600392505050610385565b806040516020016100a79190610660565b60405160208183030381529060405280519060200120826040516020016100ce9190610660565b60405160208183030381529060405280519060200120036100f457600092505050610385565b60005b825181101561023a5781818151811061011357610112610677565b5b602001015160f81c60f81b7effffffffffffffffffffffffffffffffffffffffffffffffffffffffffffff191683828151811061015357610152610677565b5b602001015160f81c60f81b7effffffffffffffffffffffffffffffffffffffffffffffffffffffffffffff1916108061021657508151835110801561021557508181815181106101a6576101a5610677565b5b602001015160f81c60f81b7effffffffffffffffffffffffffffffffffffffffffffffffffffffffffffff19168382815181106101e6576101e5610677565b5b602001015160f81c60f81b7effffffffffffffffffffffffffffffffffffffffffffffffffffffffffffff1916145b5b156102275760019350505050610385565b8080610232906106df565b9150506100f7565b5060005b81518110156103815781818151811061025a57610259610677565b5b602001015160f81c60f81b7effffffffffffffffffffffffffffffffffffffffffffffffffffffffffffff191683828151811061029a57610299610677565b5b602001015160f81c60f81b7effffffffffffffffffffffffffffffffffffffffffffffffffffffffffffff1916118061035d57508151835111801561035c57508181815181106102ed576102ec610677565b5b602001015160f81c60f81b7effffffffffffffffffffffffffffffffffffffffffffffffffffffffffffff191683828151811061032d5761032c610677565b5b602001015160f81c60f81b7effffffffffffffffffffffffffffffffffffffffffffffffffffffffffffff1916145b5b1561036e5760029350505050610385565b8080610379906106df565b91505061023e565b5050505b92915050565b6000604051905090565b600080fd5b600080fd5b600080fd5b600080fd5b6000601f19601f8301169050919050565b7f4e487b7100000000000000000000000000000000000000000000000000000000600052604160045260246000fd5b6103f2826103a9565b810181811067ffffffffffffffff82111715610411576104106103ba565b5b80604052505050565b600061042461038b565b905061043082826103e9565b919050565b600067ffffffffffffffff8211156104505761044f6103ba565b5b610459826103a9565b9050602081019050919050565b82818337600083830152505050565b600061048861048384610435565b61041a565b9050828152602081018484840111156104a4576104a36103a4565b5b6104af848285610466565b509392505050565b600082601f8301126104cc576104cb61039f565b5b81356104dc848260208601610475565b91505092915050565b600080604083850312156104fc576104fb610395565b5b600083013567ffffffffffffffff81111561051a5761051961039a565b5b610526858286016104b7565b925050602083013567ffffffffffffffff8111156105475761054661039a565b5b610553858286016104b7565b9150509250929050565b7f4e487b7100000000000000000000000000000000000000000000000000000000600052602160045260246000fd5b6004811061059d5761059c61055d565b5b50565b60008190506105ae8261058c565b919050565b60006105be826105a0565b9050919050565b6105ce816105b3565b82525050565b60006020820190506105e960008301846105c5565b92915050565b600081519050919050565b600081905092915050565b60005b83811015610623578082015181840152602081019050610608565b60008484015250505050565b600061063a826105ef565b61064481856105fa565b9350610654818560208601610605565b80840191505092915050565b600061066c828461062f565b915081905092915050565b7f4e487b7100000000000000000000000000000000000000000000000000000000600052603260045260246000fd5b7f4e487b7100000000000000000000000000000000000000000000000000000000600052601160045260246000fd5b6000819050919050565b60006106ea826106d5565b91507fffffffffffffffffffffffffffffffffffffffffffffffffffffffffffffffff820361071c5761071b6106a6565b5b60018201905091905056fea2646970667358221220577e2755b916f5e49e58c2e8b55db3e2b73e2947ac1c8211d1094bc392e2c11764736f6c63430008110033",
					"opcodes": "PUSH2 0x75D PUSH2 0x53 PUSH1 0xB DUP3 DUP3 DUP3 CODECOPY DUP1 MLOAD PUSH1 0x0 BYTE PUSH1 0x73 EQ PUSH2 0x46 JUMPI PUSH32 0x4E487B7100000000000000000000000000000000000000000000000000000000 PUSH1 0x0 MSTORE PUSH1 0x0 PUSH1 0x4 MSTORE PUSH1 0x24 PUSH1 0x0 REVERT JUMPDEST ADDRESS PUSH1 0x0 MSTORE PUSH1 0x73 DUP2 MSTORE8 DUP3 DUP2 RETURN INVALID PUSH20 0x0 ADDRESS EQ PUSH1 0x80 PUSH1 0x40 MSTORE PUSH1 0x4 CALLDATASIZE LT PUSH2 0x35 JUMPI PUSH1 0x0 CALLDATALOAD PUSH1 0xE0 SHR DUP1 PUSH4 0x3A96FDD7 EQ PUSH2 0x3A JUMPI JUMPDEST PUSH1 0x0 DUP1 REVERT JUMPDEST PUSH2 0x54 PUSH1 0x4 DUP1 CALLDATASIZE SUB DUP2 ADD SWAP1 PUSH2 0x4F SWAP2 SWAP1 PUSH2 0x4E5 JUMP JUMPDEST PUSH2 0x6A JUMP JUMPDEST PUSH1 0x40 MLOAD PUSH2 0x61 SWAP2 SWAP1 PUSH2 0x5D4 JUMP JUMPDEST PUSH1 0x40 MLOAD DUP1 SWAP2 SUB SWAP1 RETURN JUMPDEST PUSH1 0x0 DUP1 DUP4 SWAP1 POP PUSH1 0x0 DUP4 SWAP1 POP PUSH1 0x0 DUP3 MLOAD EQ DUP1 PUSH2 0x86 JUMPI POP PUSH1 0x0 DUP2 MLOAD EQ JUMPDEST ISZERO PUSH2 0x96 JUMPI PUSH1 0x3 SWAP3 POP POP POP PUSH2 0x385 JUMP JUMPDEST DUP1 PUSH1 0x40 MLOAD PUSH1 0x20 ADD PUSH2 0xA7 SWAP2 SWAP1 PUSH2 0x660 JUMP JUMPDEST PUSH1 0x40 MLOAD PUSH1 0x20 DUP2 DUP4 SUB SUB DUP2 MSTORE SWAP1 PUSH1 0x40 MSTORE DUP1 MLOAD SWAP1 PUSH1 0x20 ADD KECCAK256 DUP3 PUSH1 0x40 MLOAD PUSH1 0x20 ADD PUSH2 0xCE SWAP2 SWAP1 PUSH2 0x660 JUMP JUMPDEST PUSH1 0x40 MLOAD PUSH1 0x20 DUP2 DUP4 SUB SUB DUP2 MSTORE SWAP1 PUSH1 0x40 MSTORE DUP1 MLOAD SWAP1 PUSH1 0x20 ADD KECCAK256 SUB PUSH2 0xF4 JUMPI PUSH1 0x0 SWAP3 POP POP POP PUSH2 0x385 JUMP JUMPDEST PUSH1 0x0 JUMPDEST DUP3 MLOAD DUP2 LT ISZERO PUSH2 0x23A JUMPI DUP2 DUP2 DUP2 MLOAD DUP2 LT PUSH2 0x113 JUMPI PUSH2 0x112 PUSH2 0x677 JUMP JUMPDEST JUMPDEST PUSH1 0x20 ADD ADD MLOAD PUSH1 0xF8 SHR PUSH1 0xF8 SHL PUSH31 0xFFFFFFFFFFFFFFFFFFFFFFFFFFFFFFFFFFFFFFFFFFFFFFFFFFFFFFFFFFFFFF NOT AND DUP4 DUP3 DUP2 MLOAD DUP2 LT PUSH2 0x153 JUMPI PUSH2 0x152 PUSH2 0x677 JUMP JUMPDEST JUMPDEST PUSH1 0x20 ADD ADD MLOAD PUSH1 0xF8 SHR PUSH1 0xF8 SHL PUSH31 0xFFFFFFFFFFFFFFFFFFFFFFFFFFFFFFFFFFFFFFFFFFFFFFFFFFFFFFFFFFFFFF NOT AND LT DUP1 PUSH2 0x216 JUMPI POP DUP2 MLOAD DUP4 MLOAD LT DUP1 ISZERO PUSH2 0x215 JUMPI POP DUP2 DUP2 DUP2 MLOAD DUP2 LT PUSH2 0x1A6 JUMPI PUSH2 0x1A5 PUSH2 0x677 JUMP JUMPDEST JUMPDEST PUSH1 0x20 ADD ADD MLOAD PUSH1 0xF8 SHR PUSH1 0xF8 SHL PUSH31 0xFFFFFFFFFFFFFFFFFFFFFFFFFFFFFFFFFFFFFFFFFFFFFFFFFFFFFFFFFFFFFF NOT AND DUP4 DUP3 DUP2 MLOAD DUP2 LT PUSH2 0x1E6 JUMPI PUSH2 0x1E5 PUSH2 0x677 JUMP JUMPDEST JUMPDEST PUSH1 0x20 ADD ADD MLOAD PUSH1 0xF8 SHR PUSH1 0xF8 SHL PUSH31 0xFFFFFFFFFFFFFFFFFFFFFFFFFFFFFFFFFFFFFFFFFFFFFFFFFFFFFFFFFFFFFF NOT AND EQ JUMPDEST JUMPDEST ISZERO PUSH2 0x227 JUMPI PUSH1 0x1 SWAP4 POP POP POP POP PUSH2 0x385 JUMP JUMPDEST DUP1 DUP1 PUSH2 0x232 SWAP1 PUSH2 0x6DF JUMP JUMPDEST SWAP2 POP POP PUSH2 0xF7 JUMP JUMPDEST POP PUSH1 0x0 JUMPDEST DUP2 MLOAD DUP2 LT ISZERO PUSH2 0x381 JUMPI DUP2 DUP2 DUP2 MLOAD DUP2 LT PUSH2 0x25A JUMPI PUSH2 0x259 PUSH2 0x677 JUMP JUMPDEST JUMPDEST PUSH1 0x20 ADD ADD MLOAD PUSH1 0xF8 SHR PUSH1 0xF8 SHL PUSH31 0xFFFFFFFFFFFFFFFFFFFFFFFFFFFFFFFFFFFFFFFFFFFFFFFFFFFFFFFFFFFFFF NOT AND DUP4 DUP3 DUP2 MLOAD DUP2 LT PUSH2 0x29A JUMPI PUSH2 0x299 PUSH2 0x677 JUMP JUMPDEST JUMPDEST PUSH1 0x20 ADD ADD MLOAD PUSH1 0xF8 SHR PUSH1 0xF8 SHL PUSH31 0xFFFFFFFFFFFFFFFFFFFFFFFFFFFFFFFFFFFFFFFFFFFFFFFFFFFFFFFFFFFFFF NOT AND GT DUP1 PUSH2 0x35D JUMPI POP DUP2 MLOAD DUP4 MLOAD GT DUP1 ISZERO PUSH2 0x35C JUMPI POP DUP2 DUP2 DUP2 MLOAD DUP2 LT PUSH2 0x2ED JUMPI PUSH2 0x2EC PUSH2 0x677 JUMP JUMPDEST JUMPDEST PUSH1 0x20 ADD ADD MLOAD PUSH1 0xF8 SHR PUSH1 0xF8 SHL PUSH31 0xFFFFFFFFFFFFFFFFFFFFFFFFFFFFFFFFFFFFFFFFFFFFFFFFFFFFFFFFFFFFFF NOT AND DUP4 DUP3 DUP2 MLOAD DUP2 LT PUSH2 0x32D JUMPI PUSH2 0x32C PUSH2 0x677 JUMP JUMPDEST JUMPDEST PUSH1 0x20 ADD ADD MLOAD PUSH1 0xF8 SHR PUSH1 0xF8 SHL PUSH31 0xFFFFFFFFFFFFFFFFFFFFFFFFFFFFFFFFFFFFFFFFFFFFFFFFFFFFFFFFFFFFFF NOT AND EQ JUMPDEST JUMPDEST ISZERO PUSH2 0x36E JUMPI PUSH1 0x2 SWAP4 POP POP POP POP PUSH2 0x385 JUMP JUMPDEST DUP1 DUP1 PUSH2 0x379 SWAP1 PUSH2 0x6DF JUMP JUMPDEST SWAP2 POP POP PUSH2 0x23E JUMP JUMPDEST POP POP POP JUMPDEST SWAP3 SWAP2 POP POP JUMP JUMPDEST PUSH1 0x0 PUSH1 0x40 MLOAD SWAP1 POP SWAP1 JUMP JUMPDEST PUSH1 0x0 DUP1 REVERT JUMPDEST PUSH1 0x0 DUP1 REVERT JUMPDEST PUSH1 0x0 DUP1 REVERT JUMPDEST PUSH1 0x0 DUP1 REVERT JUMPDEST PUSH1 0x0 PUSH1 0x1F NOT PUSH1 0x1F DUP4 ADD AND SWAP1 POP SWAP2 SWAP1 POP JUMP JUMPDEST PUSH32 0x4E487B7100000000000000000000000000000000000000000000000000000000 PUSH1 0x0 MSTORE PUSH1 0x41 PUSH1 0x4 MSTORE PUSH1 0x24 PUSH1 0x0 REVERT JUMPDEST PUSH2 0x3F2 DUP3 PUSH2 0x3A9 JUMP JUMPDEST DUP2 ADD DUP2 DUP2 LT PUSH8 0xFFFFFFFFFFFFFFFF DUP3 GT OR ISZERO PUSH2 0x411 JUMPI PUSH2 0x410 PUSH2 0x3BA JUMP JUMPDEST JUMPDEST DUP1 PUSH1 0x40 MSTORE POP POP POP JUMP JUMPDEST PUSH1 0x0 PUSH2 0x424 PUSH2 0x38B JUMP JUMPDEST SWAP1 POP PUSH2 0x430 DUP3 DUP3 PUSH2 0x3E9 JUMP JUMPDEST SWAP2 SWAP1 POP JUMP JUMPDEST PUSH1 0x0 PUSH8 0xFFFFFFFFFFFFFFFF DUP3 GT ISZERO PUSH2 0x450 JUMPI PUSH2 0x44F PUSH2 0x3BA JUMP JUMPDEST JUMPDEST PUSH2 0x459 DUP3 PUSH2 0x3A9 JUMP JUMPDEST SWAP1 POP PUSH1 0x20 DUP2 ADD SWAP1 POP SWAP2 SWAP1 POP JUMP JUMPDEST DUP3 DUP2 DUP4 CALLDATACOPY PUSH1 0x0 DUP4 DUP4 ADD MSTORE POP POP POP JUMP JUMPDEST PUSH1 0x0 PUSH2 0x488 PUSH2 0x483 DUP5 PUSH2 0x435 JUMP JUMPDEST PUSH2 0x41A JUMP JUMPDEST SWAP1 POP DUP3 DUP2 MSTORE PUSH1 0x20 DUP2 ADD DUP5 DUP5 DUP5 ADD GT ISZERO PUSH2 0x4A4 JUMPI PUSH2 0x4A3 PUSH2 0x3A4 JUMP JUMPDEST JUMPDEST PUSH2 0x4AF DUP5 DUP3 DUP6 PUSH2 0x466 JUMP JUMPDEST POP SWAP4 SWAP3 POP POP POP JUMP JUMPDEST PUSH1 0x0 DUP3 PUSH1 0x1F DUP4 ADD SLT PUSH2 0x4CC JUMPI PUSH2 0x4CB PUSH2 0x39F JUMP JUMPDEST JUMPDEST DUP2 CALLDATALOAD PUSH2 0x4DC DUP5 DUP3 PUSH1 0x20 DUP7 ADD PUSH2 0x475 JUMP JUMPDEST SWAP2 POP POP SWAP3 SWAP2 POP POP JUMP JUMPDEST PUSH1 0x0 DUP1 PUSH1 0x40 DUP4 DUP6 SUB SLT ISZERO PUSH2 0x4FC JUMPI PUSH2 0x4FB PUSH2 0x395 JUMP JUMPDEST JUMPDEST PUSH1 0x0 DUP4 ADD CALLDATALOAD PUSH8 0xFFFFFFFFFFFFFFFF DUP2 GT ISZERO PUSH2 0x51A JUMPI PUSH2 0x519 PUSH2 0x39A JUMP JUMPDEST JUMPDEST PUSH2 0x526 DUP6 DUP3 DUP7 ADD PUSH2 0x4B7 JUMP JUMPDEST SWAP3 POP POP PUSH1 0x20 DUP4 ADD CALLDATALOAD PUSH8 0xFFFFFFFFFFFFFFFF DUP2 GT ISZERO PUSH2 0x547 JUMPI PUSH2 0x546 PUSH2 0x39A JUMP JUMPDEST JUMPDEST PUSH2 0x553 DUP6 DUP3 DUP7 ADD PUSH2 0x4B7 JUMP JUMPDEST SWAP2 POP POP SWAP3 POP SWAP3 SWAP1 POP JUMP JUMPDEST PUSH32 0x4E487B7100000000000000000000000000000000000000000000000000000000 PUSH1 0x0 MSTORE PUSH1 0x21 PUSH1 0x4 MSTORE PUSH1 0x24 PUSH1 0x0 REVERT JUMPDEST PUSH1 0x4 DUP2 LT PUSH2 0x59D JUMPI PUSH2 0x59C PUSH2 0x55D JUMP JUMPDEST JUMPDEST POP JUMP JUMPDEST PUSH1 0x0 DUP2 SWAP1 POP PUSH2 0x5AE DUP3 PUSH2 0x58C JUMP JUMPDEST SWAP2 SWAP1 POP JUMP JUMPDEST PUSH1 0x0 PUSH2 0x5BE DUP3 PUSH2 0x5A0 JUMP JUMPDEST SWAP1 POP SWAP2 SWAP1 POP JUMP JUMPDEST PUSH2 0x5CE DUP2 PUSH2 0x5B3 JUMP JUMPDEST DUP3 MSTORE POP POP JUMP JUMPDEST PUSH1 0x0 PUSH1 0x20 DUP3 ADD SWAP1 POP PUSH2 0x5E9 PUSH1 0x0 DUP4 ADD DUP5 PUSH2 0x5C5 JUMP JUMPDEST SWAP3 SWAP2 POP POP JUMP JUMPDEST PUSH1 0x0 DUP2 MLOAD SWAP1 POP SWAP2 SWAP1 POP JUMP JUMPDEST PUSH1 0x0 DUP2 SWAP1 POP SWAP3 SWAP2 POP POP JUMP JUMPDEST PUSH1 0x0 JUMPDEST DUP4 DUP2 LT ISZERO PUSH2 0x623 JUMPI DUP1 DUP3 ADD MLOAD DUP2 DUP5 ADD MSTORE PUSH1 0x20 DUP2 ADD SWAP1 POP PUSH2 0x608 JUMP JUMPDEST PUSH1 0x0 DUP5 DUP5 ADD MSTORE POP POP POP POP JUMP JUMPDEST PUSH1 0x0 PUSH2 0x63A DUP3 PUSH2 0x5EF JUMP JUMPDEST PUSH2 0x644 DUP2 DUP6 PUSH2 0x5FA JUMP JUMPDEST SWAP4 POP PUSH2 0x654 DUP2 DUP6 PUSH1 0x20 DUP7 ADD PUSH2 0x605 JUMP JUMPDEST DUP1 DUP5 ADD SWAP2 POP POP SWAP3 SWAP2 POP POP JUMP JUMPDEST PUSH1 0x0 PUSH2 0x66C DUP3 DUP5 PUSH2 0x62F JUMP JUMPDEST SWAP2 POP DUP2 SWAP1 POP SWAP3 SWAP2 POP POP JUMP JUMPDEST PUSH32 0x4E487B7100000000000000000000000000000000000000000000000000000000 PUSH1 0x0 MSTORE PUSH1 0x32 PUSH1 0x4 MSTORE PUSH1 0x24 PUSH1 0x0 REVERT JUMPDEST PUSH32 0x4E487B7100000000000000000000000000000000000000000000000000000000 PUSH1 0x0 MSTORE PUSH1 0x11 PUSH1 0x4 MSTORE PUSH1 0x24 PUSH1 0x0 REVERT JUMPDEST PUSH1 0x0 DUP2 SWAP1 POP SWAP2 SWAP1 POP JUMP JUMPDEST PUSH1 0x0 PUSH2 0x6EA DUP3 PUSH2 0x6D5 JUMP JUMPDEST SWAP2 POP PUSH32 0xFFFFFFFFFFFFFFFFFFFFFFFFFFFFFFFFFFFFFFFFFFFFFFFFFFFFFFFFFFFFFFFF DUP3 SUB PUSH2 0x71C JUMPI PUSH2 0x71B PUSH2 0x6A6 JUMP JUMPDEST JUMPDEST PUSH1 0x1 DUP3 ADD SWAP1 POP SWAP2 SWAP1 POP JUMP INVALID LOG2 PUSH5 0x6970667358 0x22 SLT KECCAK256 JUMPI PUSH31 0x2755B916F5E49E58C2E8B55DB3E2B73E2947AC1C8211D1094BC392E2C11764 PUSH20 0x6F6C634300081100330000000000000000000000 "
				},
				"gasEstimates": {
					"creation": {
						"codeDepositCost": "377000",
						"executionCost": "440",
						"totalCost": "377440"
					},
					"external": {
						"compare(string,string)": "infinite"
					}
				},
				"methodIdentifiers": {
					"compare(string,string)": "3a96fdd7"
				}
			},
			"storageLayout": {
				"storage": [],
				"types": null
			},
			"userdoc": {
				"kind": "user",
				"methods": {},
				"version": 1
			}
		}
	}
}